{
	"data": {
		"bytecode": {
			"linkReferences": {},
			"object": "608060405234801562000010575f80fd5b506040516200146038038062001460833981810160405281019062000036919062000184565b8160035f6101000a81548173ffffffffffffffffffffffffffffffffffffffff021916908373ffffffffffffffffffffffffffffffffffffffff1602179055508060045f6101000a81548173ffffffffffffffffffffffffffffffffffffffff021916908373ffffffffffffffffffffffffffffffffffffffff1602179055503360025f6101000a81548173ffffffffffffffffffffffffffffffffffffffff021916908373ffffffffffffffffffffffffffffffffffffffff160217905550426005601c6101000a81548163ffffffff021916908363ffffffff1602179055505050620001c9565b5f80fd5b5f73ffffffffffffffffffffffffffffffffffffffff82169050919050565b5f6200014e8262000123565b9050919050565b620001608162000142565b81146200016b575f80fd5b50565b5f815190506200017e8162000155565b92915050565b5f80604083850312156200019d576200019c6200011f565b5b5f620001ac858286016200016e565b9250506020620001bf858286016200016e565b9150509250929050565b61128980620001d75f395ff3fe608060405234801561000f575f80fd5b50600436106100fe575f3560e01c806359962def11610095578063b576480011610064578063b57648001461029b578063c45a0155146102cc578063d21220a7146102ea578063fc76a38314610308576100fe565b806359962def146101ed5780635a3d54931461021d5780636161eb181461023b578063b10de9fc1461026b576100fe565b80632d889f6a116100d15780632d889f6a14610179578063380f0b41146101955780634e6ec247146101b35780635909c0d5146101cf576100fe565b8063078d3b79146101025780630902f1ac1461011e5780630dfe16811461013d57806318160ddd1461015b575b5f80fd5b61011c60048036038101906101179190610bf9565b610324565b005b61012661044c565b604051610134929190610c71565b60405180910390f35b61014561048f565b6040516101529190610cf3565b60405180910390f35b6101636104b4565b6040516101709190610d1b565b60405180910390f35b610193600480360381019061018e9190610d5e565b6104b9565b005b61019d610514565b6040516101aa9190610dba565b60405180910390f35b6101cd60048036038101906101c89190610dd3565b61052d565b005b6101d761059b565b6040516101e49190610d1b565b60405180910390f35b61020760048036038101906102029190610e11565b6105a1565b6040516102149190610d1b565b60405180910390f35b6102256105e7565b6040516102329190610d1b565b60405180910390f35b61025560048036038101906102509190610dd3565b6105ed565b6040516102629190610e56565b60405180910390f35b61028560048036038101906102809190610e6f565b610662565b6040516102929190610ead565b60405180910390f35b6102b560048036038101906102b09190610ec6565b61087f565b6040516102c3929190610ef1565b60405180910390f35b6102d4610911565b6040516102e19190610f27565b60405180910390f35b6102f2610936565b6040516102ff9190610cf3565b60405180910390f35b610322600480360381019061031d9190610d5e565b61095b565b005b5f60035f9054906101000a900473ffffffffffffffffffffffffffffffffffffffff1673ffffffffffffffffffffffffffffffffffffffff168473ffffffffffffffffffffffffffffffffffffffff161490505f816103a45760045f9054906101000a900473ffffffffffffffffffffffffffffffffffffffff166103c7565b60035f9054906101000a900473ffffffffffffffffffffffffffffffffffffffff165b90508073ffffffffffffffffffffffffffffffffffffffff1663a9059cbb85856040518363ffffffff1660e01b8152600401610404929190610f40565b6020604051808303815f875af1158015610420573d5f803e3d5ffd5b505050506040513d601f19601f820116820180604052508101906104449190610f91565b505050505050565b5f8060055f9054906101000a90046dffffffffffffffffffffffffffff1691506005600e9054906101000a90046dffffffffffffffffffffffffffff1690509091565b60035f9054906101000a900473ffffffffffffffffffffffffffffffffffffffff1681565b5f5481565b6105108260055f9054906101000a90046dffffffffffffffffffffffffffff166104e39190610fe9565b826005600e9054906101000a90046dffffffffffffffffffffffffffff1661050b9190610fe9565b6109b6565b5050565b5f6005601c9054906101000a900463ffffffff16905090565b8060015f8473ffffffffffffffffffffffffffffffffffffffff1673ffffffffffffffffffffffffffffffffffffffff1681526020019081526020015f205f828254610579919061102a565b92505081905550805f80828254610590919061102a565b925050819055505050565b60065481565b5f60015f8373ffffffffffffffffffffffffffffffffffffffff1673ffffffffffffffffffffffffffffffffffffffff1681526020019081526020015f20549050919050565b60075481565b5f8160015f8573ffffffffffffffffffffffffffffffffffffffff1673ffffffffffffffffffffffffffffffffffffffff1681526020019081526020015f205f82825461063a919061105d565b92505081905550815f80828254610651919061105d565b925050819055506001905092915050565b5f8060035f9054906101000a900473ffffffffffffffffffffffffffffffffffffffff1673ffffffffffffffffffffffffffffffffffffffff168473ffffffffffffffffffffffffffffffffffffffff161490505f80826106fb576005600e9054906101000a90046dffffffffffffffffffffffffffff1660055f9054906101000a90046dffffffffffffffffffffffffffff16610735565b60055f9054906101000a90046dffffffffffffffffffffffffffff166005600e9054906101000a90046dffffffffffffffffffffffffffff165b9150915084816107459190610fe9565b81836107519190611090565b61075b91906110f9565b826107669190611129565b93506001846dffffffffffffffffffffffffffff1610156107bc576040517f08c379a00000000000000000000000000000000000000000000000000000000081526004016107b3906111c4565b60405180910390fd5b821561081e576108198460055f9054906101000a90046dffffffffffffffffffffffffffff166107ec9190611129565b866005600e9054906101000a90046dffffffffffffffffffffffffffff166108149190610fe9565b6109b6565b610876565b6108758560055f9054906101000a90046dffffffffffffffffffffffffffff166108489190610fe9565b856005600e9054906101000a90046dffffffffffffffffffffffffffff166108709190611129565b6109b6565b5b50505092915050565b5f805f5460055f9054906101000a90046dffffffffffffffffffffffffffff166dffffffffffffffffffffffffffff16846108ba91906111e2565b6108c49190611223565b91505f546005600e9054906101000a90046dffffffffffffffffffffffffffff166dffffffffffffffffffffffffffff168461090091906111e2565b61090a9190611223565b9050915091565b60025f9054906101000a900473ffffffffffffffffffffffffffffffffffffffff1681565b60045f9054906101000a900473ffffffffffffffffffffffffffffffffffffffff1681565b6109b28260055f9054906101000a90046dffffffffffffffffffffffffffff166109859190611129565b826005600e9054906101000a90046dffffffffffffffffffffffffffff166109ad9190611129565b6109b6565b5050565b8160055f6101000a8154816dffffffffffffffffffffffffffff02191690836dffffffffffffffffffffffffffff160217905550806005600e6101000a8154816dffffffffffffffffffffffffffff02191690836dffffffffffffffffffffffffffff160217905550610a27610a2b565b5050565b5f6005600e9054906101000a90046dffffffffffffffffffffffffffff1660055f9054906101000a90046dffffffffffffffffffffffffffff16610a6f9190611090565b6dffffffffffffffffffffffffffff1614610b575760055f9054906101000a90046dffffffffffffffffffffffffffff16629896806005600e9054906101000a90046dffffffffffffffffffffffffffff16610acb9190611090565b610ad591906110f9565b6dffffffffffffffffffffffffffff166006819055506005600e9054906101000a90046dffffffffffffffffffffffffffff166298968060055f9054906101000a90046dffffffffffffffffffffffffffff16610b329190611090565b610b3c91906110f9565b6dffffffffffffffffffffffffffff16600781905550610b66565b5f6006819055505f6007819055505b565b5f80fd5b5f73ffffffffffffffffffffffffffffffffffffffff82169050919050565b5f610b9582610b6c565b9050919050565b610ba581610b8b565b8114610baf575f80fd5b50565b5f81359050610bc081610b9c565b92915050565b5f819050919050565b610bd881610bc6565b8114610be2575f80fd5b50565b5f81359050610bf381610bcf565b92915050565b5f805f60608486031215610c1057610c0f610b68565b5b5f610c1d86828701610bb2565b9350506020610c2e86828701610bb2565b9250506040610c3f86828701610be5565b9150509250925092565b5f6dffffffffffffffffffffffffffff82169050919050565b610c6b81610c49565b82525050565b5f604082019050610c845f830185610c62565b610c916020830184610c62565b9392505050565b5f819050919050565b5f610cbb610cb6610cb184610b6c565b610c98565b610b6c565b9050919050565b5f610ccc82610ca1565b9050919050565b5f610cdd82610cc2565b9050919050565b610ced81610cd3565b82525050565b5f602082019050610d065f830184610ce4565b92915050565b610d1581610bc6565b82525050565b5f602082019050610d2e5f830184610d0c565b92915050565b610d3d81610c49565b8114610d47575f80fd5b50565b5f81359050610d5881610d34565b92915050565b5f8060408385031215610d7457610d73610b68565b5b5f610d8185828601610d4a565b9250506020610d9285828601610d4a565b9150509250929050565b5f63ffffffff82169050919050565b610db481610d9c565b82525050565b5f602082019050610dcd5f830184610dab565b92915050565b5f8060408385031215610de957610de8610b68565b5b5f610df685828601610bb2565b9250506020610e0785828601610be5565b9150509250929050565b5f60208284031215610e2657610e25610b68565b5b5f610e3384828501610bb2565b91505092915050565b5f8115159050919050565b610e5081610e3c565b82525050565b5f602082019050610e695f830184610e47565b92915050565b5f8060408385031215610e8557610e84610b68565b5b5f610e9285828601610bb2565b9250506020610ea385828601610d4a565b9150509250929050565b5f602082019050610ec05f830184610c62565b92915050565b5f60208284031215610edb57610eda610b68565b5b5f610ee884828501610be5565b91505092915050565b5f604082019050610f045f830185610d0c565b610f116020830184610d0c565b9392505050565b610f2181610b8b565b82525050565b5f602082019050610f3a5f830184610f18565b92915050565b5f604082019050610f535f830185610f18565b610f606020830184610d0c565b9392505050565b610f7081610e3c565b8114610f7a575f80fd5b50565b5f81519050610f8b81610f67565b92915050565b5f60208284031215610fa657610fa5610b68565b5b5f610fb384828501610f7d565b91505092915050565b7f4e487b71000000000000000000000000000000000000000000000000000000005f52601160045260245ffd5b5f610ff382610c49565b9150610ffe83610c49565b925082820190506dffffffffffffffffffffffffffff81111561102457611023610fbc565b5b92915050565b5f61103482610bc6565b915061103f83610bc6565b925082820190508082111561105757611056610fbc565b5b92915050565b5f61106782610bc6565b915061107283610bc6565b925082820390508181111561108a57611089610fbc565b5b92915050565b5f61109a82610c49565b91506110a583610c49565b92508282026110b381610c49565b91508082146110c5576110c4610fbc565b5b5092915050565b7f4e487b71000000000000000000000000000000000000000000000000000000005f52601260045260245ffd5b5f61110382610c49565b915061110e83610c49565b92508261111e5761111d6110cc565b5b828204905092915050565b5f61113382610c49565b915061113e83610c49565b925082820390506dffffffffffffffffffffffffffff81111561116457611163610fbc565b5b92915050565b5f82825260208201905092915050565b7f506169723a4174206c6561737420746f2073776170206f6e6520746f6b656e005f82015250565b5f6111ae601f8361116a565b91506111b98261117a565b602082019050919050565b5f6020820190508181035f8301526111db816111a2565b9050919050565b5f6111ec82610bc6565b91506111f783610bc6565b925082820261120581610bc6565b9150828204841483151761121c5761121b610fbc565b5b5092915050565b5f61122d82610bc6565b915061123883610bc6565b925082611248576112476110cc565b5b82820490509291505056fea26469706673582212205439615824f1f2bddaeb6709de11c9069b14fcd5e013156e34429d8ff8067ea664736f6c63430008160033",
			"opcodes": "PUSH1 0x80 PUSH1 0x40 MSTORE CALLVALUE DUP1 ISZERO PUSH3 0x10 JUMPI PUSH0 DUP1 REVERT JUMPDEST POP PUSH1 0x40 MLOAD PUSH3 0x1460 CODESIZE SUB DUP1 PUSH3 0x1460 DUP4 CODECOPY DUP2 DUP2 ADD PUSH1 0x40 MSTORE DUP2 ADD SWAP1 PUSH3 0x36 SWAP2 SWAP1 PUSH3 0x184 JUMP JUMPDEST DUP2 PUSH1 0x3 PUSH0 PUSH2 0x100 EXP DUP2 SLOAD DUP2 PUSH20 0xFFFFFFFFFFFFFFFFFFFFFFFFFFFFFFFFFFFFFFFF MUL NOT AND SWAP1 DUP4 PUSH20 0xFFFFFFFFFFFFFFFFFFFFFFFFFFFFFFFFFFFFFFFF AND MUL OR SWAP1 SSTORE POP DUP1 PUSH1 0x4 PUSH0 PUSH2 0x100 EXP DUP2 SLOAD DUP2 PUSH20 0xFFFFFFFFFFFFFFFFFFFFFFFFFFFFFFFFFFFFFFFF MUL NOT AND SWAP1 DUP4 PUSH20 0xFFFFFFFFFFFFFFFFFFFFFFFFFFFFFFFFFFFFFFFF AND MUL OR SWAP1 SSTORE POP CALLER PUSH1 0x2 PUSH0 PUSH2 0x100 EXP DUP2 SLOAD DUP2 PUSH20 0xFFFFFFFFFFFFFFFFFFFFFFFFFFFFFFFFFFFFFFFF MUL NOT AND SWAP1 DUP4 PUSH20 0xFFFFFFFFFFFFFFFFFFFFFFFFFFFFFFFFFFFFFFFF AND MUL OR SWAP1 SSTORE POP TIMESTAMP PUSH1 0x5 PUSH1 0x1C PUSH2 0x100 EXP DUP2 SLOAD DUP2 PUSH4 0xFFFFFFFF MUL NOT AND SWAP1 DUP4 PUSH4 0xFFFFFFFF AND MUL OR SWAP1 SSTORE POP POP POP PUSH3 0x1C9 JUMP JUMPDEST PUSH0 DUP1 REVERT JUMPDEST PUSH0 PUSH20 0xFFFFFFFFFFFFFFFFFFFFFFFFFFFFFFFFFFFFFFFF DUP3 AND SWAP1 POP SWAP2 SWAP1 POP JUMP JUMPDEST PUSH0 PUSH3 0x14E DUP3 PUSH3 0x123 JUMP JUMPDEST SWAP1 POP SWAP2 SWAP1 POP JUMP JUMPDEST PUSH3 0x160 DUP2 PUSH3 0x142 JUMP JUMPDEST DUP2 EQ PUSH3 0x16B JUMPI PUSH0 DUP1 REVERT JUMPDEST POP JUMP JUMPDEST PUSH0 DUP2 MLOAD SWAP1 POP PUSH3 0x17E DUP2 PUSH3 0x155 JUMP JUMPDEST SWAP3 SWAP2 POP POP JUMP JUMPDEST PUSH0 DUP1 PUSH1 0x40 DUP4 DUP6 SUB SLT ISZERO PUSH3 0x19D JUMPI PUSH3 0x19C PUSH3 0x11F JUMP JUMPDEST JUMPDEST PUSH0 PUSH3 0x1AC DUP6 DUP3 DUP7 ADD PUSH3 0x16E JUMP JUMPDEST SWAP3 POP POP PUSH1 0x20 PUSH3 0x1BF DUP6 DUP3 DUP7 ADD PUSH3 0x16E JUMP JUMPDEST SWAP2 POP POP SWAP3 POP SWAP3 SWAP1 POP JUMP JUMPDEST PUSH2 0x1289 DUP1 PUSH3 0x1D7 PUSH0 CODECOPY PUSH0 RETURN INVALID PUSH1 0x80 PUSH1 0x40 MSTORE CALLVALUE DUP1 ISZERO PUSH2 0xF JUMPI PUSH0 DUP1 REVERT JUMPDEST POP PUSH1 0x4 CALLDATASIZE LT PUSH2 0xFE JUMPI PUSH0 CALLDATALOAD PUSH1 0xE0 SHR DUP1 PUSH4 0x59962DEF GT PUSH2 0x95 JUMPI DUP1 PUSH4 0xB5764800 GT PUSH2 0x64 JUMPI DUP1 PUSH4 0xB5764800 EQ PUSH2 0x29B JUMPI DUP1 PUSH4 0xC45A0155 EQ PUSH2 0x2CC JUMPI DUP1 PUSH4 0xD21220A7 EQ PUSH2 0x2EA JUMPI DUP1 PUSH4 0xFC76A383 EQ PUSH2 0x308 JUMPI PUSH2 0xFE JUMP JUMPDEST DUP1 PUSH4 0x59962DEF EQ PUSH2 0x1ED JUMPI DUP1 PUSH4 0x5A3D5493 EQ PUSH2 0x21D JUMPI DUP1 PUSH4 0x6161EB18 EQ PUSH2 0x23B JUMPI DUP1 PUSH4 0xB10DE9FC EQ PUSH2 0x26B JUMPI PUSH2 0xFE JUMP JUMPDEST DUP1 PUSH4 0x2D889F6A GT PUSH2 0xD1 JUMPI DUP1 PUSH4 0x2D889F6A EQ PUSH2 0x179 JUMPI DUP1 PUSH4 0x380F0B41 EQ PUSH2 0x195 JUMPI DUP1 PUSH4 0x4E6EC247 EQ PUSH2 0x1B3 JUMPI DUP1 PUSH4 0x5909C0D5 EQ PUSH2 0x1CF JUMPI PUSH2 0xFE JUMP JUMPDEST DUP1 PUSH4 0x78D3B79 EQ PUSH2 0x102 JUMPI DUP1 PUSH4 0x902F1AC EQ PUSH2 0x11E JUMPI DUP1 PUSH4 0xDFE1681 EQ PUSH2 0x13D JUMPI DUP1 PUSH4 0x18160DDD EQ PUSH2 0x15B JUMPI JUMPDEST PUSH0 DUP1 REVERT JUMPDEST PUSH2 0x11C PUSH1 0x4 DUP1 CALLDATASIZE SUB DUP2 ADD SWAP1 PUSH2 0x117 SWAP2 SWAP1 PUSH2 0xBF9 JUMP JUMPDEST PUSH2 0x324 JUMP JUMPDEST STOP JUMPDEST PUSH2 0x126 PUSH2 0x44C JUMP JUMPDEST PUSH1 0x40 MLOAD PUSH2 0x134 SWAP3 SWAP2 SWAP1 PUSH2 0xC71 JUMP JUMPDEST PUSH1 0x40 MLOAD DUP1 SWAP2 SUB SWAP1 RETURN JUMPDEST PUSH2 0x145 PUSH2 0x48F JUMP JUMPDEST PUSH1 0x40 MLOAD PUSH2 0x152 SWAP2 SWAP1 PUSH2 0xCF3 JUMP JUMPDEST PUSH1 0x40 MLOAD DUP1 SWAP2 SUB SWAP1 RETURN JUMPDEST PUSH2 0x163 PUSH2 0x4B4 JUMP JUMPDEST PUSH1 0x40 MLOAD PUSH2 0x170 SWAP2 SWAP1 PUSH2 0xD1B JUMP JUMPDEST PUSH1 0x40 MLOAD DUP1 SWAP2 SUB SWAP1 RETURN JUMPDEST PUSH2 0x193 PUSH1 0x4 DUP1 CALLDATASIZE SUB DUP2 ADD SWAP1 PUSH2 0x18E SWAP2 SWAP1 PUSH2 0xD5E JUMP JUMPDEST PUSH2 0x4B9 JUMP JUMPDEST STOP JUMPDEST PUSH2 0x19D PUSH2 0x514 JUMP JUMPDEST PUSH1 0x40 MLOAD PUSH2 0x1AA SWAP2 SWAP1 PUSH2 0xDBA JUMP JUMPDEST PUSH1 0x40 MLOAD DUP1 SWAP2 SUB SWAP1 RETURN JUMPDEST PUSH2 0x1CD PUSH1 0x4 DUP1 CALLDATASIZE SUB DUP2 ADD SWAP1 PUSH2 0x1C8 SWAP2 SWAP1 PUSH2 0xDD3 JUMP JUMPDEST PUSH2 0x52D JUMP JUMPDEST STOP JUMPDEST PUSH2 0x1D7 PUSH2 0x59B JUMP JUMPDEST PUSH1 0x40 MLOAD PUSH2 0x1E4 SWAP2 SWAP1 PUSH2 0xD1B JUMP JUMPDEST PUSH1 0x40 MLOAD DUP1 SWAP2 SUB SWAP1 RETURN JUMPDEST PUSH2 0x207 PUSH1 0x4 DUP1 CALLDATASIZE SUB DUP2 ADD SWAP1 PUSH2 0x202 SWAP2 SWAP1 PUSH2 0xE11 JUMP JUMPDEST PUSH2 0x5A1 JUMP JUMPDEST PUSH1 0x40 MLOAD PUSH2 0x214 SWAP2 SWAP1 PUSH2 0xD1B JUMP JUMPDEST PUSH1 0x40 MLOAD DUP1 SWAP2 SUB SWAP1 RETURN JUMPDEST PUSH2 0x225 PUSH2 0x5E7 JUMP JUMPDEST PUSH1 0x40 MLOAD PUSH2 0x232 SWAP2 SWAP1 PUSH2 0xD1B JUMP JUMPDEST PUSH1 0x40 MLOAD DUP1 SWAP2 SUB SWAP1 RETURN JUMPDEST PUSH2 0x255 PUSH1 0x4 DUP1 CALLDATASIZE SUB DUP2 ADD SWAP1 PUSH2 0x250 SWAP2 SWAP1 PUSH2 0xDD3 JUMP JUMPDEST PUSH2 0x5ED JUMP JUMPDEST PUSH1 0x40 MLOAD PUSH2 0x262 SWAP2 SWAP1 PUSH2 0xE56 JUMP JUMPDEST PUSH1 0x40 MLOAD DUP1 SWAP2 SUB SWAP1 RETURN JUMPDEST PUSH2 0x285 PUSH1 0x4 DUP1 CALLDATASIZE SUB DUP2 ADD SWAP1 PUSH2 0x280 SWAP2 SWAP1 PUSH2 0xE6F JUMP JUMPDEST PUSH2 0x662 JUMP JUMPDEST PUSH1 0x40 MLOAD PUSH2 0x292 SWAP2 SWAP1 PUSH2 0xEAD JUMP JUMPDEST PUSH1 0x40 MLOAD DUP1 SWAP2 SUB SWAP1 RETURN JUMPDEST PUSH2 0x2B5 PUSH1 0x4 DUP1 CALLDATASIZE SUB DUP2 ADD SWAP1 PUSH2 0x2B0 SWAP2 SWAP1 PUSH2 0xEC6 JUMP JUMPDEST PUSH2 0x87F JUMP JUMPDEST PUSH1 0x40 MLOAD PUSH2 0x2C3 SWAP3 SWAP2 SWAP1 PUSH2 0xEF1 JUMP JUMPDEST PUSH1 0x40 MLOAD DUP1 SWAP2 SUB SWAP1 RETURN JUMPDEST PUSH2 0x2D4 PUSH2 0x911 JUMP JUMPDEST PUSH1 0x40 MLOAD PUSH2 0x2E1 SWAP2 SWAP1 PUSH2 0xF27 JUMP JUMPDEST PUSH1 0x40 MLOAD DUP1 SWAP2 SUB SWAP1 RETURN JUMPDEST PUSH2 0x2F2 PUSH2 0x936 JUMP JUMPDEST PUSH1 0x40 MLOAD PUSH2 0x2FF SWAP2 SWAP1 PUSH2 0xCF3 JUMP JUMPDEST PUSH1 0x40 MLOAD DUP1 SWAP2 SUB SWAP1 RETURN JUMPDEST PUSH2 0x322 PUSH1 0x4 DUP1 CALLDATASIZE SUB DUP2 ADD SWAP1 PUSH2 0x31D SWAP2 SWAP1 PUSH2 0xD5E JUMP JUMPDEST PUSH2 0x95B JUMP JUMPDEST STOP JUMPDEST PUSH0 PUSH1 0x3 PUSH0 SWAP1 SLOAD SWAP1 PUSH2 0x100 EXP SWAP1 DIV PUSH20 0xFFFFFFFFFFFFFFFFFFFFFFFFFFFFFFFFFFFFFFFF AND PUSH20 0xFFFFFFFFFFFFFFFFFFFFFFFFFFFFFFFFFFFFFFFF AND DUP5 PUSH20 0xFFFFFFFFFFFFFFFFFFFFFFFFFFFFFFFFFFFFFFFF AND EQ SWAP1 POP PUSH0 DUP2 PUSH2 0x3A4 JUMPI PUSH1 0x4 PUSH0 SWAP1 SLOAD SWAP1 PUSH2 0x100 EXP SWAP1 DIV PUSH20 0xFFFFFFFFFFFFFFFFFFFFFFFFFFFFFFFFFFFFFFFF AND PUSH2 0x3C7 JUMP JUMPDEST PUSH1 0x3 PUSH0 SWAP1 SLOAD SWAP1 PUSH2 0x100 EXP SWAP1 DIV PUSH20 0xFFFFFFFFFFFFFFFFFFFFFFFFFFFFFFFFFFFFFFFF AND JUMPDEST SWAP1 POP DUP1 PUSH20 0xFFFFFFFFFFFFFFFFFFFFFFFFFFFFFFFFFFFFFFFF AND PUSH4 0xA9059CBB DUP6 DUP6 PUSH1 0x40 MLOAD DUP4 PUSH4 0xFFFFFFFF AND PUSH1 0xE0 SHL DUP2 MSTORE PUSH1 0x4 ADD PUSH2 0x404 SWAP3 SWAP2 SWAP1 PUSH2 0xF40 JUMP JUMPDEST PUSH1 0x20 PUSH1 0x40 MLOAD DUP1 DUP4 SUB DUP2 PUSH0 DUP8 GAS CALL ISZERO DUP1 ISZERO PUSH2 0x420 JUMPI RETURNDATASIZE PUSH0 DUP1 RETURNDATACOPY RETURNDATASIZE PUSH0 REVERT JUMPDEST POP POP POP POP PUSH1 0x40 MLOAD RETURNDATASIZE PUSH1 0x1F NOT PUSH1 0x1F DUP3 ADD AND DUP3 ADD DUP1 PUSH1 0x40 MSTORE POP DUP2 ADD SWAP1 PUSH2 0x444 SWAP2 SWAP1 PUSH2 0xF91 JUMP JUMPDEST POP POP POP POP POP POP JUMP JUMPDEST PUSH0 DUP1 PUSH1 0x5 PUSH0 SWAP1 SLOAD SWAP1 PUSH2 0x100 EXP SWAP1 DIV PUSH14 0xFFFFFFFFFFFFFFFFFFFFFFFFFFFF AND SWAP2 POP PUSH1 0x5 PUSH1 0xE SWAP1 SLOAD SWAP1 PUSH2 0x100 EXP SWAP1 DIV PUSH14 0xFFFFFFFFFFFFFFFFFFFFFFFFFFFF AND SWAP1 POP SWAP1 SWAP2 JUMP JUMPDEST PUSH1 0x3 PUSH0 SWAP1 SLOAD SWAP1 PUSH2 0x100 EXP SWAP1 DIV PUSH20 0xFFFFFFFFFFFFFFFFFFFFFFFFFFFFFFFFFFFFFFFF AND DUP2 JUMP JUMPDEST PUSH0 SLOAD DUP2 JUMP JUMPDEST PUSH2 0x510 DUP3 PUSH1 0x5 PUSH0 SWAP1 SLOAD SWAP1 PUSH2 0x100 EXP SWAP1 DIV PUSH14 0xFFFFFFFFFFFFFFFFFFFFFFFFFFFF AND PUSH2 0x4E3 SWAP2 SWAP1 PUSH2 0xFE9 JUMP JUMPDEST DUP3 PUSH1 0x5 PUSH1 0xE SWAP1 SLOAD SWAP1 PUSH2 0x100 EXP SWAP1 DIV PUSH14 0xFFFFFFFFFFFFFFFFFFFFFFFFFFFF AND PUSH2 0x50B SWAP2 SWAP1 PUSH2 0xFE9 JUMP JUMPDEST PUSH2 0x9B6 JUMP JUMPDEST POP POP JUMP JUMPDEST PUSH0 PUSH1 0x5 PUSH1 0x1C SWAP1 SLOAD SWAP1 PUSH2 0x100 EXP SWAP1 DIV PUSH4 0xFFFFFFFF AND SWAP1 POP SWAP1 JUMP JUMPDEST DUP1 PUSH1 0x1 PUSH0 DUP5 PUSH20 0xFFFFFFFFFFFFFFFFFFFFFFFFFFFFFFFFFFFFFFFF AND PUSH20 0xFFFFFFFFFFFFFFFFFFFFFFFFFFFFFFFFFFFFFFFF AND DUP2 MSTORE PUSH1 0x20 ADD SWAP1 DUP2 MSTORE PUSH1 0x20 ADD PUSH0 KECCAK256 PUSH0 DUP3 DUP3 SLOAD PUSH2 0x579 SWAP2 SWAP1 PUSH2 0x102A JUMP JUMPDEST SWAP3 POP POP DUP2 SWAP1 SSTORE POP DUP1 PUSH0 DUP1 DUP3 DUP3 SLOAD PUSH2 0x590 SWAP2 SWAP1 PUSH2 0x102A JUMP JUMPDEST SWAP3 POP POP DUP2 SWAP1 SSTORE POP POP POP JUMP JUMPDEST PUSH1 0x6 SLOAD DUP2 JUMP JUMPDEST PUSH0 PUSH1 0x1 PUSH0 DUP4 PUSH20 0xFFFFFFFFFFFFFFFFFFFFFFFFFFFFFFFFFFFFFFFF AND PUSH20 0xFFFFFFFFFFFFFFFFFFFFFFFFFFFFFFFFFFFFFFFF AND DUP2 MSTORE PUSH1 0x20 ADD SWAP1 DUP2 MSTORE PUSH1 0x20 ADD PUSH0 KECCAK256 SLOAD SWAP1 POP SWAP2 SWAP1 POP JUMP JUMPDEST PUSH1 0x7 SLOAD DUP2 JUMP JUMPDEST PUSH0 DUP2 PUSH1 0x1 PUSH0 DUP6 PUSH20 0xFFFFFFFFFFFFFFFFFFFFFFFFFFFFFFFFFFFFFFFF AND PUSH20 0xFFFFFFFFFFFFFFFFFFFFFFFFFFFFFFFFFFFFFFFF AND DUP2 MSTORE PUSH1 0x20 ADD SWAP1 DUP2 MSTORE PUSH1 0x20 ADD PUSH0 KECCAK256 PUSH0 DUP3 DUP3 SLOAD PUSH2 0x63A SWAP2 SWAP1 PUSH2 0x105D JUMP JUMPDEST SWAP3 POP POP DUP2 SWAP1 SSTORE POP DUP2 PUSH0 DUP1 DUP3 DUP3 SLOAD PUSH2 0x651 SWAP2 SWAP1 PUSH2 0x105D JUMP JUMPDEST SWAP3 POP POP DUP2 SWAP1 SSTORE POP PUSH1 0x1 SWAP1 POP SWAP3 SWAP2 POP POP JUMP JUMPDEST PUSH0 DUP1 PUSH1 0x3 PUSH0 SWAP1 SLOAD SWAP1 PUSH2 0x100 EXP SWAP1 DIV PUSH20 0xFFFFFFFFFFFFFFFFFFFFFFFFFFFFFFFFFFFFFFFF AND PUSH20 0xFFFFFFFFFFFFFFFFFFFFFFFFFFFFFFFFFFFFFFFF AND DUP5 PUSH20 0xFFFFFFFFFFFFFFFFFFFFFFFFFFFFFFFFFFFFFFFF AND EQ SWAP1 POP PUSH0 DUP1 DUP3 PUSH2 0x6FB JUMPI PUSH1 0x5 PUSH1 0xE SWAP1 SLOAD SWAP1 PUSH2 0x100 EXP SWAP1 DIV PUSH14 0xFFFFFFFFFFFFFFFFFFFFFFFFFFFF AND PUSH1 0x5 PUSH0 SWAP1 SLOAD SWAP1 PUSH2 0x100 EXP SWAP1 DIV PUSH14 0xFFFFFFFFFFFFFFFFFFFFFFFFFFFF AND PUSH2 0x735 JUMP JUMPDEST PUSH1 0x5 PUSH0 SWAP1 SLOAD SWAP1 PUSH2 0x100 EXP SWAP1 DIV PUSH14 0xFFFFFFFFFFFFFFFFFFFFFFFFFFFF AND PUSH1 0x5 PUSH1 0xE SWAP1 SLOAD SWAP1 PUSH2 0x100 EXP SWAP1 DIV PUSH14 0xFFFFFFFFFFFFFFFFFFFFFFFFFFFF AND JUMPDEST SWAP2 POP SWAP2 POP DUP5 DUP2 PUSH2 0x745 SWAP2 SWAP1 PUSH2 0xFE9 JUMP JUMPDEST DUP2 DUP4 PUSH2 0x751 SWAP2 SWAP1 PUSH2 0x1090 JUMP JUMPDEST PUSH2 0x75B SWAP2 SWAP1 PUSH2 0x10F9 JUMP JUMPDEST DUP3 PUSH2 0x766 SWAP2 SWAP1 PUSH2 0x1129 JUMP JUMPDEST SWAP4 POP PUSH1 0x1 DUP5 PUSH14 0xFFFFFFFFFFFFFFFFFFFFFFFFFFFF AND LT ISZERO PUSH2 0x7BC JUMPI PUSH1 0x40 MLOAD PUSH32 0x8C379A000000000000000000000000000000000000000000000000000000000 DUP2 MSTORE PUSH1 0x4 ADD PUSH2 0x7B3 SWAP1 PUSH2 0x11C4 JUMP JUMPDEST PUSH1 0x40 MLOAD DUP1 SWAP2 SUB SWAP1 REVERT JUMPDEST DUP3 ISZERO PUSH2 0x81E JUMPI PUSH2 0x819 DUP5 PUSH1 0x5 PUSH0 SWAP1 SLOAD SWAP1 PUSH2 0x100 EXP SWAP1 DIV PUSH14 0xFFFFFFFFFFFFFFFFFFFFFFFFFFFF AND PUSH2 0x7EC SWAP2 SWAP1 PUSH2 0x1129 JUMP JUMPDEST DUP7 PUSH1 0x5 PUSH1 0xE SWAP1 SLOAD SWAP1 PUSH2 0x100 EXP SWAP1 DIV PUSH14 0xFFFFFFFFFFFFFFFFFFFFFFFFFFFF AND PUSH2 0x814 SWAP2 SWAP1 PUSH2 0xFE9 JUMP JUMPDEST PUSH2 0x9B6 JUMP JUMPDEST PUSH2 0x876 JUMP JUMPDEST PUSH2 0x875 DUP6 PUSH1 0x5 PUSH0 SWAP1 SLOAD SWAP1 PUSH2 0x100 EXP SWAP1 DIV PUSH14 0xFFFFFFFFFFFFFFFFFFFFFFFFFFFF AND PUSH2 0x848 SWAP2 SWAP1 PUSH2 0xFE9 JUMP JUMPDEST DUP6 PUSH1 0x5 PUSH1 0xE SWAP1 SLOAD SWAP1 PUSH2 0x100 EXP SWAP1 DIV PUSH14 0xFFFFFFFFFFFFFFFFFFFFFFFFFFFF AND PUSH2 0x870 SWAP2 SWAP1 PUSH2 0x1129 JUMP JUMPDEST PUSH2 0x9B6 JUMP JUMPDEST JUMPDEST POP POP POP SWAP3 SWAP2 POP POP JUMP JUMPDEST PUSH0 DUP1 PUSH0 SLOAD PUSH1 0x5 PUSH0 SWAP1 SLOAD SWAP1 PUSH2 0x100 EXP SWAP1 DIV PUSH14 0xFFFFFFFFFFFFFFFFFFFFFFFFFFFF AND PUSH14 0xFFFFFFFFFFFFFFFFFFFFFFFFFFFF AND DUP5 PUSH2 0x8BA SWAP2 SWAP1 PUSH2 0x11E2 JUMP JUMPDEST PUSH2 0x8C4 SWAP2 SWAP1 PUSH2 0x1223 JUMP JUMPDEST SWAP2 POP PUSH0 SLOAD PUSH1 0x5 PUSH1 0xE SWAP1 SLOAD SWAP1 PUSH2 0x100 EXP SWAP1 DIV PUSH14 0xFFFFFFFFFFFFFFFFFFFFFFFFFFFF AND PUSH14 0xFFFFFFFFFFFFFFFFFFFFFFFFFFFF AND DUP5 PUSH2 0x900 SWAP2 SWAP1 PUSH2 0x11E2 JUMP JUMPDEST PUSH2 0x90A SWAP2 SWAP1 PUSH2 0x1223 JUMP JUMPDEST SWAP1 POP SWAP2 POP SWAP2 JUMP JUMPDEST PUSH1 0x2 PUSH0 SWAP1 SLOAD SWAP1 PUSH2 0x100 EXP SWAP1 DIV PUSH20 0xFFFFFFFFFFFFFFFFFFFFFFFFFFFFFFFFFFFFFFFF AND DUP2 JUMP JUMPDEST PUSH1 0x4 PUSH0 SWAP1 SLOAD SWAP1 PUSH2 0x100 EXP SWAP1 DIV PUSH20 0xFFFFFFFFFFFFFFFFFFFFFFFFFFFFFFFFFFFFFFFF AND DUP2 JUMP JUMPDEST PUSH2 0x9B2 DUP3 PUSH1 0x5 PUSH0 SWAP1 SLOAD SWAP1 PUSH2 0x100 EXP SWAP1 DIV PUSH14 0xFFFFFFFFFFFFFFFFFFFFFFFFFFFF AND PUSH2 0x985 SWAP2 SWAP1 PUSH2 0x1129 JUMP JUMPDEST DUP3 PUSH1 0x5 PUSH1 0xE SWAP1 SLOAD SWAP1 PUSH2 0x100 EXP SWAP1 DIV PUSH14 0xFFFFFFFFFFFFFFFFFFFFFFFFFFFF AND PUSH2 0x9AD SWAP2 SWAP1 PUSH2 0x1129 JUMP JUMPDEST PUSH2 0x9B6 JUMP JUMPDEST POP POP JUMP JUMPDEST DUP2 PUSH1 0x5 PUSH0 PUSH2 0x100 EXP DUP2 SLOAD DUP2 PUSH14 0xFFFFFFFFFFFFFFFFFFFFFFFFFFFF MUL NOT AND SWAP1 DUP4 PUSH14 0xFFFFFFFFFFFFFFFFFFFFFFFFFFFF AND MUL OR SWAP1 SSTORE POP DUP1 PUSH1 0x5 PUSH1 0xE PUSH2 0x100 EXP DUP2 SLOAD DUP2 PUSH14 0xFFFFFFFFFFFFFFFFFFFFFFFFFFFF MUL NOT AND SWAP1 DUP4 PUSH14 0xFFFFFFFFFFFFFFFFFFFFFFFFFFFF AND MUL OR SWAP1 SSTORE POP PUSH2 0xA27 PUSH2 0xA2B JUMP JUMPDEST POP POP JUMP JUMPDEST PUSH0 PUSH1 0x5 PUSH1 0xE SWAP1 SLOAD SWAP1 PUSH2 0x100 EXP SWAP1 DIV PUSH14 0xFFFFFFFFFFFFFFFFFFFFFFFFFFFF AND PUSH1 0x5 PUSH0 SWAP1 SLOAD SWAP1 PUSH2 0x100 EXP SWAP1 DIV PUSH14 0xFFFFFFFFFFFFFFFFFFFFFFFFFFFF AND PUSH2 0xA6F SWAP2 SWAP1 PUSH2 0x1090 JUMP JUMPDEST PUSH14 0xFFFFFFFFFFFFFFFFFFFFFFFFFFFF AND EQ PUSH2 0xB57 JUMPI PUSH1 0x5 PUSH0 SWAP1 SLOAD SWAP1 PUSH2 0x100 EXP SWAP1 DIV PUSH14 0xFFFFFFFFFFFFFFFFFFFFFFFFFFFF AND PUSH3 0x989680 PUSH1 0x5 PUSH1 0xE SWAP1 SLOAD SWAP1 PUSH2 0x100 EXP SWAP1 DIV PUSH14 0xFFFFFFFFFFFFFFFFFFFFFFFFFFFF AND PUSH2 0xACB SWAP2 SWAP1 PUSH2 0x1090 JUMP JUMPDEST PUSH2 0xAD5 SWAP2 SWAP1 PUSH2 0x10F9 JUMP JUMPDEST PUSH14 0xFFFFFFFFFFFFFFFFFFFFFFFFFFFF AND PUSH1 0x6 DUP2 SWAP1 SSTORE POP PUSH1 0x5 PUSH1 0xE SWAP1 SLOAD SWAP1 PUSH2 0x100 EXP SWAP1 DIV PUSH14 0xFFFFFFFFFFFFFFFFFFFFFFFFFFFF AND PUSH3 0x989680 PUSH1 0x5 PUSH0 SWAP1 SLOAD SWAP1 PUSH2 0x100 EXP SWAP1 DIV PUSH14 0xFFFFFFFFFFFFFFFFFFFFFFFFFFFF AND PUSH2 0xB32 SWAP2 SWAP1 PUSH2 0x1090 JUMP JUMPDEST PUSH2 0xB3C SWAP2 SWAP1 PUSH2 0x10F9 JUMP JUMPDEST PUSH14 0xFFFFFFFFFFFFFFFFFFFFFFFFFFFF AND PUSH1 0x7 DUP2 SWAP1 SSTORE POP PUSH2 0xB66 JUMP JUMPDEST PUSH0 PUSH1 0x6 DUP2 SWAP1 SSTORE POP PUSH0 PUSH1 0x7 DUP2 SWAP1 SSTORE POP JUMPDEST JUMP JUMPDEST PUSH0 DUP1 REVERT JUMPDEST PUSH0 PUSH20 0xFFFFFFFFFFFFFFFFFFFFFFFFFFFFFFFFFFFFFFFF DUP3 AND SWAP1 POP SWAP2 SWAP1 POP JUMP JUMPDEST PUSH0 PUSH2 0xB95 DUP3 PUSH2 0xB6C JUMP JUMPDEST SWAP1 POP SWAP2 SWAP1 POP JUMP JUMPDEST PUSH2 0xBA5 DUP2 PUSH2 0xB8B JUMP JUMPDEST DUP2 EQ PUSH2 0xBAF JUMPI PUSH0 DUP1 REVERT JUMPDEST POP JUMP JUMPDEST PUSH0 DUP2 CALLDATALOAD SWAP1 POP PUSH2 0xBC0 DUP2 PUSH2 0xB9C JUMP JUMPDEST SWAP3 SWAP2 POP POP JUMP JUMPDEST PUSH0 DUP2 SWAP1 POP SWAP2 SWAP1 POP JUMP JUMPDEST PUSH2 0xBD8 DUP2 PUSH2 0xBC6 JUMP JUMPDEST DUP2 EQ PUSH2 0xBE2 JUMPI PUSH0 DUP1 REVERT JUMPDEST POP JUMP JUMPDEST PUSH0 DUP2 CALLDATALOAD SWAP1 POP PUSH2 0xBF3 DUP2 PUSH2 0xBCF JUMP JUMPDEST SWAP3 SWAP2 POP POP JUMP JUMPDEST PUSH0 DUP1 PUSH0 PUSH1 0x60 DUP5 DUP7 SUB SLT ISZERO PUSH2 0xC10 JUMPI PUSH2 0xC0F PUSH2 0xB68 JUMP JUMPDEST JUMPDEST PUSH0 PUSH2 0xC1D DUP7 DUP3 DUP8 ADD PUSH2 0xBB2 JUMP JUMPDEST SWAP4 POP POP PUSH1 0x20 PUSH2 0xC2E DUP7 DUP3 DUP8 ADD PUSH2 0xBB2 JUMP JUMPDEST SWAP3 POP POP PUSH1 0x40 PUSH2 0xC3F DUP7 DUP3 DUP8 ADD PUSH2 0xBE5 JUMP JUMPDEST SWAP2 POP POP SWAP3 POP SWAP3 POP SWAP3 JUMP JUMPDEST PUSH0 PUSH14 0xFFFFFFFFFFFFFFFFFFFFFFFFFFFF DUP3 AND SWAP1 POP SWAP2 SWAP1 POP JUMP JUMPDEST PUSH2 0xC6B DUP2 PUSH2 0xC49 JUMP JUMPDEST DUP3 MSTORE POP POP JUMP JUMPDEST PUSH0 PUSH1 0x40 DUP3 ADD SWAP1 POP PUSH2 0xC84 PUSH0 DUP4 ADD DUP6 PUSH2 0xC62 JUMP JUMPDEST PUSH2 0xC91 PUSH1 0x20 DUP4 ADD DUP5 PUSH2 0xC62 JUMP JUMPDEST SWAP4 SWAP3 POP POP POP JUMP JUMPDEST PUSH0 DUP2 SWAP1 POP SWAP2 SWAP1 POP JUMP JUMPDEST PUSH0 PUSH2 0xCBB PUSH2 0xCB6 PUSH2 0xCB1 DUP5 PUSH2 0xB6C JUMP JUMPDEST PUSH2 0xC98 JUMP JUMPDEST PUSH2 0xB6C JUMP JUMPDEST SWAP1 POP SWAP2 SWAP1 POP JUMP JUMPDEST PUSH0 PUSH2 0xCCC DUP3 PUSH2 0xCA1 JUMP JUMPDEST SWAP1 POP SWAP2 SWAP1 POP JUMP JUMPDEST PUSH0 PUSH2 0xCDD DUP3 PUSH2 0xCC2 JUMP JUMPDEST SWAP1 POP SWAP2 SWAP1 POP JUMP JUMPDEST PUSH2 0xCED DUP2 PUSH2 0xCD3 JUMP JUMPDEST DUP3 MSTORE POP POP JUMP JUMPDEST PUSH0 PUSH1 0x20 DUP3 ADD SWAP1 POP PUSH2 0xD06 PUSH0 DUP4 ADD DUP5 PUSH2 0xCE4 JUMP JUMPDEST SWAP3 SWAP2 POP POP JUMP JUMPDEST PUSH2 0xD15 DUP2 PUSH2 0xBC6 JUMP JUMPDEST DUP3 MSTORE POP POP JUMP JUMPDEST PUSH0 PUSH1 0x20 DUP3 ADD SWAP1 POP PUSH2 0xD2E PUSH0 DUP4 ADD DUP5 PUSH2 0xD0C JUMP JUMPDEST SWAP3 SWAP2 POP POP JUMP JUMPDEST PUSH2 0xD3D DUP2 PUSH2 0xC49 JUMP JUMPDEST DUP2 EQ PUSH2 0xD47 JUMPI PUSH0 DUP1 REVERT JUMPDEST POP JUMP JUMPDEST PUSH0 DUP2 CALLDATALOAD SWAP1 POP PUSH2 0xD58 DUP2 PUSH2 0xD34 JUMP JUMPDEST SWAP3 SWAP2 POP POP JUMP JUMPDEST PUSH0 DUP1 PUSH1 0x40 DUP4 DUP6 SUB SLT ISZERO PUSH2 0xD74 JUMPI PUSH2 0xD73 PUSH2 0xB68 JUMP JUMPDEST JUMPDEST PUSH0 PUSH2 0xD81 DUP6 DUP3 DUP7 ADD PUSH2 0xD4A JUMP JUMPDEST SWAP3 POP POP PUSH1 0x20 PUSH2 0xD92 DUP6 DUP3 DUP7 ADD PUSH2 0xD4A JUMP JUMPDEST SWAP2 POP POP SWAP3 POP SWAP3 SWAP1 POP JUMP JUMPDEST PUSH0 PUSH4 0xFFFFFFFF DUP3 AND SWAP1 POP SWAP2 SWAP1 POP JUMP JUMPDEST PUSH2 0xDB4 DUP2 PUSH2 0xD9C JUMP JUMPDEST DUP3 MSTORE POP POP JUMP JUMPDEST PUSH0 PUSH1 0x20 DUP3 ADD SWAP1 POP PUSH2 0xDCD PUSH0 DUP4 ADD DUP5 PUSH2 0xDAB JUMP JUMPDEST SWAP3 SWAP2 POP POP JUMP JUMPDEST PUSH0 DUP1 PUSH1 0x40 DUP4 DUP6 SUB SLT ISZERO PUSH2 0xDE9 JUMPI PUSH2 0xDE8 PUSH2 0xB68 JUMP JUMPDEST JUMPDEST PUSH0 PUSH2 0xDF6 DUP6 DUP3 DUP7 ADD PUSH2 0xBB2 JUMP JUMPDEST SWAP3 POP POP PUSH1 0x20 PUSH2 0xE07 DUP6 DUP3 DUP7 ADD PUSH2 0xBE5 JUMP JUMPDEST SWAP2 POP POP SWAP3 POP SWAP3 SWAP1 POP JUMP JUMPDEST PUSH0 PUSH1 0x20 DUP3 DUP5 SUB SLT ISZERO PUSH2 0xE26 JUMPI PUSH2 0xE25 PUSH2 0xB68 JUMP JUMPDEST JUMPDEST PUSH0 PUSH2 0xE33 DUP5 DUP3 DUP6 ADD PUSH2 0xBB2 JUMP JUMPDEST SWAP2 POP POP SWAP3 SWAP2 POP POP JUMP JUMPDEST PUSH0 DUP2 ISZERO ISZERO SWAP1 POP SWAP2 SWAP1 POP JUMP JUMPDEST PUSH2 0xE50 DUP2 PUSH2 0xE3C JUMP JUMPDEST DUP3 MSTORE POP POP JUMP JUMPDEST PUSH0 PUSH1 0x20 DUP3 ADD SWAP1 POP PUSH2 0xE69 PUSH0 DUP4 ADD DUP5 PUSH2 0xE47 JUMP JUMPDEST SWAP3 SWAP2 POP POP JUMP JUMPDEST PUSH0 DUP1 PUSH1 0x40 DUP4 DUP6 SUB SLT ISZERO PUSH2 0xE85 JUMPI PUSH2 0xE84 PUSH2 0xB68 JUMP JUMPDEST JUMPDEST PUSH0 PUSH2 0xE92 DUP6 DUP3 DUP7 ADD PUSH2 0xBB2 JUMP JUMPDEST SWAP3 POP POP PUSH1 0x20 PUSH2 0xEA3 DUP6 DUP3 DUP7 ADD PUSH2 0xD4A JUMP JUMPDEST SWAP2 POP POP SWAP3 POP SWAP3 SWAP1 POP JUMP JUMPDEST PUSH0 PUSH1 0x20 DUP3 ADD SWAP1 POP PUSH2 0xEC0 PUSH0 DUP4 ADD DUP5 PUSH2 0xC62 JUMP JUMPDEST SWAP3 SWAP2 POP POP JUMP JUMPDEST PUSH0 PUSH1 0x20 DUP3 DUP5 SUB SLT ISZERO PUSH2 0xEDB JUMPI PUSH2 0xEDA PUSH2 0xB68 JUMP JUMPDEST JUMPDEST PUSH0 PUSH2 0xEE8 DUP5 DUP3 DUP6 ADD PUSH2 0xBE5 JUMP JUMPDEST SWAP2 POP POP SWAP3 SWAP2 POP POP JUMP JUMPDEST PUSH0 PUSH1 0x40 DUP3 ADD SWAP1 POP PUSH2 0xF04 PUSH0 DUP4 ADD DUP6 PUSH2 0xD0C JUMP JUMPDEST PUSH2 0xF11 PUSH1 0x20 DUP4 ADD DUP5 PUSH2 0xD0C JUMP JUMPDEST SWAP4 SWAP3 POP POP POP JUMP JUMPDEST PUSH2 0xF21 DUP2 PUSH2 0xB8B JUMP JUMPDEST DUP3 MSTORE POP POP JUMP JUMPDEST PUSH0 PUSH1 0x20 DUP3 ADD SWAP1 POP PUSH2 0xF3A PUSH0 DUP4 ADD DUP5 PUSH2 0xF18 JUMP JUMPDEST SWAP3 SWAP2 POP POP JUMP JUMPDEST PUSH0 PUSH1 0x40 DUP3 ADD SWAP1 POP PUSH2 0xF53 PUSH0 DUP4 ADD DUP6 PUSH2 0xF18 JUMP JUMPDEST PUSH2 0xF60 PUSH1 0x20 DUP4 ADD DUP5 PUSH2 0xD0C JUMP JUMPDEST SWAP4 SWAP3 POP POP POP JUMP JUMPDEST PUSH2 0xF70 DUP2 PUSH2 0xE3C JUMP JUMPDEST DUP2 EQ PUSH2 0xF7A JUMPI PUSH0 DUP1 REVERT JUMPDEST POP JUMP JUMPDEST PUSH0 DUP2 MLOAD SWAP1 POP PUSH2 0xF8B DUP2 PUSH2 0xF67 JUMP JUMPDEST SWAP3 SWAP2 POP POP JUMP JUMPDEST PUSH0 PUSH1 0x20 DUP3 DUP5 SUB SLT ISZERO PUSH2 0xFA6 JUMPI PUSH2 0xFA5 PUSH2 0xB68 JUMP JUMPDEST JUMPDEST PUSH0 PUSH2 0xFB3 DUP5 DUP3 DUP6 ADD PUSH2 0xF7D JUMP JUMPDEST SWAP2 POP POP SWAP3 SWAP2 POP POP JUMP JUMPDEST PUSH32 0x4E487B7100000000000000000000000000000000000000000000000000000000 PUSH0 MSTORE PUSH1 0x11 PUSH1 0x4 MSTORE PUSH1 0x24 PUSH0 REVERT JUMPDEST PUSH0 PUSH2 0xFF3 DUP3 PUSH2 0xC49 JUMP JUMPDEST SWAP2 POP PUSH2 0xFFE DUP4 PUSH2 0xC49 JUMP JUMPDEST SWAP3 POP DUP3 DUP3 ADD SWAP1 POP PUSH14 0xFFFFFFFFFFFFFFFFFFFFFFFFFFFF DUP2 GT ISZERO PUSH2 0x1024 JUMPI PUSH2 0x1023 PUSH2 0xFBC JUMP JUMPDEST JUMPDEST SWAP3 SWAP2 POP POP JUMP JUMPDEST PUSH0 PUSH2 0x1034 DUP3 PUSH2 0xBC6 JUMP JUMPDEST SWAP2 POP PUSH2 0x103F DUP4 PUSH2 0xBC6 JUMP JUMPDEST SWAP3 POP DUP3 DUP3 ADD SWAP1 POP DUP1 DUP3 GT ISZERO PUSH2 0x1057 JUMPI PUSH2 0x1056 PUSH2 0xFBC JUMP JUMPDEST JUMPDEST SWAP3 SWAP2 POP POP JUMP JUMPDEST PUSH0 PUSH2 0x1067 DUP3 PUSH2 0xBC6 JUMP JUMPDEST SWAP2 POP PUSH2 0x1072 DUP4 PUSH2 0xBC6 JUMP JUMPDEST SWAP3 POP DUP3 DUP3 SUB SWAP1 POP DUP2 DUP2 GT ISZERO PUSH2 0x108A JUMPI PUSH2 0x1089 PUSH2 0xFBC JUMP JUMPDEST JUMPDEST SWAP3 SWAP2 POP POP JUMP JUMPDEST PUSH0 PUSH2 0x109A DUP3 PUSH2 0xC49 JUMP JUMPDEST SWAP2 POP PUSH2 0x10A5 DUP4 PUSH2 0xC49 JUMP JUMPDEST SWAP3 POP DUP3 DUP3 MUL PUSH2 0x10B3 DUP2 PUSH2 0xC49 JUMP JUMPDEST SWAP2 POP DUP1 DUP3 EQ PUSH2 0x10C5 JUMPI PUSH2 0x10C4 PUSH2 0xFBC JUMP JUMPDEST JUMPDEST POP SWAP3 SWAP2 POP POP JUMP JUMPDEST PUSH32 0x4E487B7100000000000000000000000000000000000000000000000000000000 PUSH0 MSTORE PUSH1 0x12 PUSH1 0x4 MSTORE PUSH1 0x24 PUSH0 REVERT JUMPDEST PUSH0 PUSH2 0x1103 DUP3 PUSH2 0xC49 JUMP JUMPDEST SWAP2 POP PUSH2 0x110E DUP4 PUSH2 0xC49 JUMP JUMPDEST SWAP3 POP DUP3 PUSH2 0x111E JUMPI PUSH2 0x111D PUSH2 0x10CC JUMP JUMPDEST JUMPDEST DUP3 DUP3 DIV SWAP1 POP SWAP3 SWAP2 POP POP JUMP JUMPDEST PUSH0 PUSH2 0x1133 DUP3 PUSH2 0xC49 JUMP JUMPDEST SWAP2 POP PUSH2 0x113E DUP4 PUSH2 0xC49 JUMP JUMPDEST SWAP3 POP DUP3 DUP3 SUB SWAP1 POP PUSH14 0xFFFFFFFFFFFFFFFFFFFFFFFFFFFF DUP2 GT ISZERO PUSH2 0x1164 JUMPI PUSH2 0x1163 PUSH2 0xFBC JUMP JUMPDEST JUMPDEST SWAP3 SWAP2 POP POP JUMP JUMPDEST PUSH0 DUP3 DUP3 MSTORE PUSH1 0x20 DUP3 ADD SWAP1 POP SWAP3 SWAP2 POP POP JUMP JUMPDEST PUSH32 0x506169723A4174206C6561737420746F2073776170206F6E6520746F6B656E00 PUSH0 DUP3 ADD MSTORE POP JUMP JUMPDEST PUSH0 PUSH2 0x11AE PUSH1 0x1F DUP4 PUSH2 0x116A JUMP JUMPDEST SWAP2 POP PUSH2 0x11B9 DUP3 PUSH2 0x117A JUMP JUMPDEST PUSH1 0x20 DUP3 ADD SWAP1 POP SWAP2 SWAP1 POP JUMP JUMPDEST PUSH0 PUSH1 0x20 DUP3 ADD SWAP1 POP DUP2 DUP2 SUB PUSH0 DUP4 ADD MSTORE PUSH2 0x11DB DUP2 PUSH2 0x11A2 JUMP JUMPDEST SWAP1 POP SWAP2 SWAP1 POP JUMP JUMPDEST PUSH0 PUSH2 0x11EC DUP3 PUSH2 0xBC6 JUMP JUMPDEST SWAP2 POP PUSH2 0x11F7 DUP4 PUSH2 0xBC6 JUMP JUMPDEST SWAP3 POP DUP3 DUP3 MUL PUSH2 0x1205 DUP2 PUSH2 0xBC6 JUMP JUMPDEST SWAP2 POP DUP3 DUP3 DIV DUP5 EQ DUP4 ISZERO OR PUSH2 0x121C JUMPI PUSH2 0x121B PUSH2 0xFBC JUMP JUMPDEST JUMPDEST POP SWAP3 SWAP2 POP POP JUMP JUMPDEST PUSH0 PUSH2 0x122D DUP3 PUSH2 0xBC6 JUMP JUMPDEST SWAP2 POP PUSH2 0x1238 DUP4 PUSH2 0xBC6 JUMP JUMPDEST SWAP3 POP DUP3 PUSH2 0x1248 JUMPI PUSH2 0x1247 PUSH2 0x10CC JUMP JUMPDEST JUMPDEST DUP3 DUP3 DIV SWAP1 POP SWAP3 SWAP2 POP POP JUMP INVALID LOG2 PUSH5 0x6970667358 0x22 SLT KECCAK256 SLOAD CODECOPY PUSH2 0x5824 CALL CALLCODE 0xBD 0xDA 0xEB PUSH8 0x9DE11C9069B14FC 0xD5 0xE0 SGT ISZERO PUSH15 0x34429D8FF8067EA664736F6C634300 ADDMOD AND STOP CALLER "
		},
		"gasEstimates": {
			"creation": {
				"codeDepositCost": "949000",
				"executionCost": "infinite",
				"totalCost": "infinite"
			},
			"external": {
				"_burn(address,uint256)": "infinite",
				"_mint(address,uint256)": "infinite",
				"burnToSwap(uint256)": "infinite",
				"factory()": "2552",
				"getBalanceOfShare(address)": "2852",
				"getReserves()": "infinite",
				"getblockTimestampLast()": "2569",
				"price0CumulativeLast()": "2514",
				"price1CumulativeLast()": "2470",
				"token0()": "infinite",
				"token1()": "infinite",
				"totalSupply()": "2514",
				"transferOut(address,address,uint256)": "infinite",
				"updateForAdd(uint112,uint112)": "infinite",
				"updateForRemove(uint112,uint112)": "infinite",
				"updateForSwap(address,uint112)": "infinite"
			},
			"internal": {
				"_setPriiceCumulativeLast()": "infinite",
				"_update(uint112,uint112)": "infinite"
			}
		},
		"methodIdentifiers": {
			"_burn(address,uint256)": "6161eb18",
			"_mint(address,uint256)": "4e6ec247",
			"burnToSwap(uint256)": "b5764800",
			"factory()": "c45a0155",
			"getBalanceOfShare(address)": "59962def",
			"getReserves()": "0902f1ac",
			"getblockTimestampLast()": "380f0b41",
			"price0CumulativeLast()": "5909c0d5",
			"price1CumulativeLast()": "5a3d5493",
			"token0()": "0dfe1681",
			"token1()": "d21220a7",
			"totalSupply()": "18160ddd",
			"transferOut(address,address,uint256)": "078d3b79",
			"updateForAdd(uint112,uint112)": "2d889f6a",
			"updateForRemove(uint112,uint112)": "fc76a383",
			"updateForSwap(address,uint112)": "b10de9fc"
		}
	},
	"abi": [
		{
			"inputs": [
				{
					"internalType": "address",
					"name": "_token0",
					"type": "address"
				},
				{
					"internalType": "address",
					"name": "_token1",
					"type": "address"
				}
			],
			"stateMutability": "nonpayable",
			"type": "constructor"
		},
		{
			"inputs": [
				{
					"internalType": "address",
					"name": "owner",
					"type": "address"
				},
				{
					"internalType": "uint256",
					"name": "amount",
					"type": "uint256"
				}
			],
			"name": "_burn",
			"outputs": [
				{
					"internalType": "bool",
					"name": "",
					"type": "bool"
				}
			],
			"stateMutability": "nonpayable",
			"type": "function"
		},
		{
			"inputs": [
				{
					"internalType": "address",
					"name": "to",
					"type": "address"
				},
				{
					"internalType": "uint256",
					"name": "amount",
					"type": "uint256"
				}
			],
			"name": "_mint",
			"outputs": [],
			"stateMutability": "nonpayable",
			"type": "function"
		},
		{
			"inputs": [
				{
					"internalType": "uint256",
					"name": "share",
					"type": "uint256"
				}
			],
			"name": "burnToSwap",
			"outputs": [
				{
					"internalType": "uint256",
					"name": "amount0Out",
					"type": "uint256"
				},
				{
					"internalType": "uint256",
					"name": "amount1Out",
					"type": "uint256"
				}
			],
			"stateMutability": "view",
			"type": "function"
		},
		{
			"inputs": [],
			"name": "factory",
			"outputs": [
				{
					"internalType": "address",
					"name": "",
					"type": "address"
				}
			],
			"stateMutability": "view",
			"type": "function"
		},
		{
			"inputs": [
				{
					"internalType": "address",
					"name": "owner",
					"type": "address"
				}
			],
			"name": "getBalanceOfShare",
			"outputs": [
				{
					"internalType": "uint256",
					"name": "",
					"type": "uint256"
				}
			],
			"stateMutability": "view",
			"type": "function"
		},
		{
			"inputs": [],
			"name": "getReserves",
			"outputs": [
				{
					"internalType": "uint112",
					"name": "_reserve0",
					"type": "uint112"
				},
				{
					"internalType": "uint112",
					"name": "_reserve1",
					"type": "uint112"
				}
			],
			"stateMutability": "view",
			"type": "function"
		},
		{
			"inputs": [],
			"name": "getblockTimestampLast",
			"outputs": [
				{
					"internalType": "uint32",
					"name": "",
					"type": "uint32"
				}
			],
			"stateMutability": "view",
			"type": "function"
		},
		{
			"inputs": [],
			"name": "price0CumulativeLast",
			"outputs": [
				{
					"internalType": "uint256",
					"name": "",
					"type": "uint256"
				}
			],
			"stateMutability": "view",
			"type": "function"
		},
		{
			"inputs": [],
			"name": "price1CumulativeLast",
			"outputs": [
				{
					"internalType": "uint256",
					"name": "",
					"type": "uint256"
				}
			],
			"stateMutability": "view",
			"type": "function"
		},
		{
			"inputs": [],
			"name": "token0",
			"outputs": [
				{
					"internalType": "contract EveSwapERC20",
					"name": "",
					"type": "address"
				}
			],
			"stateMutability": "view",
			"type": "function"
		},
		{
			"inputs": [],
			"name": "token1",
			"outputs": [
				{
					"internalType": "contract EveSwapERC20",
					"name": "",
					"type": "address"
				}
			],
			"stateMutability": "view",
			"type": "function"
		},
		{
			"inputs": [],
			"name": "totalSupply",
			"outputs": [
				{
					"internalType": "uint256",
					"name": "",
					"type": "uint256"
				}
			],
			"stateMutability": "view",
			"type": "function"
		},
		{
			"inputs": [
				{
					"internalType": "address",
					"name": "_token",
					"type": "address"
				},
				{
					"internalType": "address",
					"name": "to",
					"type": "address"
				},
				{
					"internalType": "uint256",
					"name": "amount",
					"type": "uint256"
				}
			],
			"name": "transferOut",
			"outputs": [],
			"stateMutability": "nonpayable",
			"type": "function"
		},
		{
			"inputs": [
				{
					"internalType": "uint112",
					"name": "amount0In",
					"type": "uint112"
				},
				{
					"internalType": "uint112",
					"name": "amount1In",
					"type": "uint112"
				}
			],
			"name": "updateForAdd",
			"outputs": [],
			"stateMutability": "nonpayable",
			"type": "function"
		},
		{
			"inputs": [
				{
					"internalType": "uint112",
					"name": "amount0Out",
					"type": "uint112"
				},
				{
					"internalType": "uint112",
					"name": "amountOut",
					"type": "uint112"
				}
			],
			"name": "updateForRemove",
			"outputs": [],
			"stateMutability": "nonpayable",
			"type": "function"
		},
		{
			"inputs": [
				{
					"internalType": "address",
					"name": "tokenIn",
					"type": "address"
				},
				{
					"internalType": "uint112",
					"name": "amountIn",
					"type": "uint112"
				}
			],
			"name": "updateForSwap",
			"outputs": [
				{
					"internalType": "uint112",
					"name": "amountOut",
					"type": "uint112"
				}
			],
			"stateMutability": "nonpayable",
			"type": "function"
		}
	]
}