{
	"data": {
		"bytecode": {
			"linkReferences": {},
			"object": "6080604052613862806100115f395ff3fe608060405234801562000010575f80fd5b5060043610620000fe575f3560e01c8063b79585661162000097578063cc08a575116200006d578063cc08a5751462000310578063d05859f81462000347578063d6a89e64146200037e578063e6a4390514620003a057620000fe565b8063b7958566146200026b578063c873a3dd14620002a3578063c9c6539614620002da57620000fe565b8063713c405411620000d9578063713c405414620001915780638d0849f114620001c85780639b52776814620001fe578063ac9017c2146200023557620000fe565b80633a49da0814620001025780633d5525cb146200012457806370ef3a28146200015b575b5f80fd5b6200010c620003d6565b6040516200011b9190620015d4565b60405180910390f35b6200014260048036038101906200013c91906200174f565b620004b4565b60405162000152929190620017e1565b60405180910390f35b6200017960048036038101906200017391906200183b565b62000512565b604051620001889190620018b9565b60405180910390f35b620001af6004803603810190620001a991906200174f565b620005a7565b604051620001bf929190620018d4565b60405180910390f35b620001e66004803603810190620001e091906200192e565b620006a1565b604051620001f591906200195e565b60405180910390f35b6200021c60048036038101906200021691906200174f565b620006e8565b6040516200022c929190620019c9565b60405180910390f35b6200025360048036038101906200024d91906200174f565b620007ed565b6040516200026291906200195e565b60405180910390f35b6200028960048036038101906200028391906200174f565b62000835565b6040516200029a9392919062001a02565b60405180910390f35b620002c16004803603810190620002bb919062001a44565b62000a21565b604051620002d1929190620018d4565b60405180910390f35b620002f86004803603810190620002f2919062001a74565b62000b0c565b6040516200030791906200195e565b60405180910390f35b6200032e60048036038101906200032891906200174f565b62000d1b565b6040516200033e92919062001ad9565b60405180910390f35b6200036560048036038101906200035f919062001a44565b62000d62565b6040516200037592919062001b2e565b60405180910390f35b6200038862000de0565b604051620003979190620018b9565b60405180910390f35b620003be6004803603810190620003b8919062001a74565b62000dec565b604051620003cd91906200195e565b60405180910390f35b60606003805480602002602001604051908101604052809291908181526020015f905b82821015620004ab578382905f5260205f20018054620004199062001b86565b80601f0160208091040260200160405190810160405280929190818152602001828054620004479062001b86565b8015620004965780601f106200046c5761010080835404028352916020019162000496565b820191905f5260205f20905b8154815290600101906020018083116200047857829003601f168201915b505050505081526020019060010190620003f9565b50505050905090565b5f805f600184604051620004c9919062001bfa565b90815260200160405180910390205f9054906101000a900473ffffffffffffffffffffffffffffffffffffffff169050620005048162000e8c565b809350819450505050915091565b5f806200051f84620007ed565b90508073ffffffffffffffffffffffffffffffffffffffff166359962def846040518263ffffffff1660e01b81526004016200055c91906200195e565b602060405180830381865afa15801562000578573d5f803e3d5ffd5b505050506040513d601f19601f820116820180604052508101906200059e919062001c28565b91505092915050565b5f805f620005b584620007ed565b90508073ffffffffffffffffffffffffffffffffffffffff16635909c0d56040518163ffffffff1660e01b8152600401602060405180830381865afa15801562000601573d5f803e3d5ffd5b505050506040513d601f19601f8201168201806040525081019062000627919062001c28565b92508073ffffffffffffffffffffffffffffffffffffffff16635a3d54936040518163ffffffff1660e01b8152600401602060405180830381865afa15801562000673573d5f803e3d5ffd5b505050506040513d601f19601f8201168201806040525081019062000699919062001c28565b915050915091565b5f60028281548110620006b957620006b862001c58565b5b905f5260205f20015f9054906101000a900473ffffffffffffffffffffffffffffffffffffffff169050919050565b6060805f80620006f885620004b4565b915091508173ffffffffffffffffffffffffffffffffffffffff166395d89b416040518163ffffffff1660e01b81526004015f60405180830381865afa15801562000745573d5f803e3d5ffd5b505050506040513d5f823e3d601f19601f820116820180604052508101906200076f919062001d01565b93508073ffffffffffffffffffffffffffffffffffffffff166395d89b416040518163ffffffff1660e01b81526004015f60405180830381865afa158015620007ba573d5f803e3d5ffd5b505050506040513d5f823e3d601f19601f82011682018060405250810190620007e4919062001d01565b92505050915091565b5f60018260405162000800919062001bfa565b90815260200160405180910390205f9054906101000a900473ffffffffffffffffffffffffffffffffffffffff169050919050565b60605f805f806200084686620004b4565b915091505f8273ffffffffffffffffffffffffffffffffffffffff166395d89b416040518163ffffffff1660e01b81526004015f60405180830381865afa15801562000894573d5f803e3d5ffd5b505050506040513d5f823e3d601f19601f82011682018060405250810190620008be919062001d01565b90508293508173ffffffffffffffffffffffffffffffffffffffff166395d89b416040518163ffffffff1660e01b81526004015f60405180830381865afa1580156200090c573d5f803e3d5ffd5b505050506040513d5f823e3d601f19601f8201168201806040525081019062000936919062001d01565b95508194505f6040516020016200094d9062001d9e565b6040516020818303038152906040528051906020012090505f8260405160200162000979919062001dbe565b60405160208183030381529060405280519060200120905081811462000a15578395508473ffffffffffffffffffffffffffffffffffffffff166395d89b416040518163ffffffff1660e01b81526004015f60405180830381865afa158015620009e5573d5f803e3d5ffd5b505050506040513d5f823e3d601f19601f8201168201806040525081019062000a0f919062001d01565b97508496505b50505050509193909250565b5f808273ffffffffffffffffffffffffffffffffffffffff16635909c0d56040518163ffffffff1660e01b8152600401602060405180830381865afa15801562000a6d573d5f803e3d5ffd5b505050506040513d601f19601f8201168201806040525081019062000a93919062001c28565b91508273ffffffffffffffffffffffffffffffffffffffff16635a3d54936040518163ffffffff1660e01b8152600401602060405180830381865afa15801562000adf573d5f803e3d5ffd5b505050506040513d601f19601f8201168201806040525081019062000b05919062001c28565b9050915091565b5f8173ffffffffffffffffffffffffffffffffffffffff168373ffffffffffffffffffffffffffffffffffffffff160362000b7e576040517f08c379a000000000000000000000000000000000000000000000000000000000815260040162000b759062001e2e565b60405180910390fd5b5f73ffffffffffffffffffffffffffffffffffffffff168373ffffffffffffffffffffffffffffffffffffffff1614158062000be657505f73ffffffffffffffffffffffffffffffffffffffff168273ffffffffffffffffffffffffffffffffffffffff1614155b62000c28576040517f08c379a000000000000000000000000000000000000000000000000000000000815260040162000c1f9062001ec2565b60405180910390fd5b5f73ffffffffffffffffffffffffffffffffffffffff1662000c4b848462000dec565b73ffffffffffffffffffffffffffffffffffffffff160362000d06578173ffffffffffffffffffffffffffffffffffffffff168373ffffffffffffffffffffffffffffffffffffffff161062000ca357818362000ca6565b82825b8093508194505050828260405162000cbe9062001469565b62000ccb929190620017e1565b604051809103905ff08015801562000ce5573d5f803e3d5ffd5b50905062000cf583838362000f77565b62000d008162001146565b62000d15565b62000d12838362000dec565b90505b92915050565b5f805f33905062000d2d848262000512565b91505f62000d3b85620013cf565b90508060648462000d4d919062001f0f565b62000d59919062001f86565b93505050915091565b5f808273ffffffffffffffffffffffffffffffffffffffff16630902f1ac6040518163ffffffff1660e01b81526004016040805180830381865afa15801562000dad573d5f803e3d5ffd5b505050506040513d601f19601f8201168201806040525081019062000dd3919062001fec565b8092508193505050915091565b5f600280549050905090565b5f805f8473ffffffffffffffffffffffffffffffffffffffff1673ffffffffffffffffffffffffffffffffffffffff1681526020019081526020015f205f8373ffffffffffffffffffffffffffffffffffffffff1673ffffffffffffffffffffffffffffffffffffffff1681526020019081526020015f205f9054906101000a900473ffffffffffffffffffffffffffffffffffffffff16905092915050565b5f808273ffffffffffffffffffffffffffffffffffffffff16630dfe16816040518163ffffffff1660e01b8152600401602060405180830381865afa15801562000ed8573d5f803e3d5ffd5b505050506040513d601f19601f8201168201806040525081019062000efe919062002073565b91508273ffffffffffffffffffffffffffffffffffffffff1663d21220a76040518163ffffffff1660e01b8152600401602060405180830381865afa15801562000f4a573d5f803e3d5ffd5b505050506040513d601f19601f8201168201806040525081019062000f70919062002073565b9050915091565b805f808573ffffffffffffffffffffffffffffffffffffffff1673ffffffffffffffffffffffffffffffffffffffff1681526020019081526020015f205f8473ffffffffffffffffffffffffffffffffffffffff1673ffffffffffffffffffffffffffffffffffffffff1681526020019081526020015f205f6101000a81548173ffffffffffffffffffffffffffffffffffffffff021916908373ffffffffffffffffffffffffffffffffffffffff160217905550805f808473ffffffffffffffffffffffffffffffffffffffff1673ffffffffffffffffffffffffffffffffffffffff1681526020019081526020015f205f8573ffffffffffffffffffffffffffffffffffffffff1673ffffffffffffffffffffffffffffffffffffffff1681526020019081526020015f205f6101000a81548173ffffffffffffffffffffffffffffffffffffffff021916908373ffffffffffffffffffffffffffffffffffffffff160217905550600281908060018154018082558091505060019003905f5260205f20015f9091909190916101000a81548173ffffffffffffffffffffffffffffffffffffffff021916908373ffffffffffffffffffffffffffffffffffffffff160217905550505050565b5f8173ffffffffffffffffffffffffffffffffffffffff16630dfe16816040518163ffffffff1660e01b8152600401602060405180830381865afa15801562001191573d5f803e3d5ffd5b505050506040513d601f19601f82011682018060405250810190620011b7919062002073565b73ffffffffffffffffffffffffffffffffffffffff166395d89b416040518163ffffffff1660e01b81526004015f60405180830381865afa158015620011ff573d5f803e3d5ffd5b505050506040513d5f823e3d601f19601f8201168201806040525081019062001229919062001d01565b90505f8273ffffffffffffffffffffffffffffffffffffffff1663d21220a76040518163ffffffff1660e01b8152600401602060405180830381865afa15801562001276573d5f803e3d5ffd5b505050506040513d601f19601f820116820180604052508101906200129c919062002073565b73ffffffffffffffffffffffffffffffffffffffff166395d89b416040518163ffffffff1660e01b81526004015f60405180830381865afa158015620012e4573d5f803e3d5ffd5b505050506040513d5f823e3d601f19601f820116820180604052508101906200130e919062001d01565b90505f828260405160200162001326929190620020f1565b6040516020818303038152906040529050600381908060018154018082558091505060019003905f5260205f20015f9091909190915090816200136a9190620022e8565b50836001826040516200137e919062001bfa565b90815260200160405180910390205f6101000a81548173ffffffffffffffffffffffffffffffffffffffff021916908373ffffffffffffffffffffffffffffffffffffffff16021790555050505050565b5f80620013dc83620007ed565b9050620013e981620013f1565b915050919050565b5f8173ffffffffffffffffffffffffffffffffffffffff166318160ddd6040518163ffffffff1660e01b8152600401602060405180830381865afa1580156200143c573d5f803e3d5ffd5b505050506040513d601f19601f8201168201806040525081019062001462919062001c28565b9050919050565b61146080620023cd83390190565b5f81519050919050565b5f82825260208201905092915050565b5f819050602082019050919050565b5f81519050919050565b5f82825260208201905092915050565b5f5b83811015620014d9578082015181840152602081019050620014bc565b5f8484015250505050565b5f601f19601f8301169050919050565b5f6200150082620014a0565b6200150c8185620014aa565b93506200151e818560208601620014ba565b6200152981620014e4565b840191505092915050565b5f620015418383620014f4565b905092915050565b5f602082019050919050565b5f620015618262001477565b6200156d818562001481565b935083602082028501620015818562001491565b805f5b85811015620015c25784840389528151620015a0858262001534565b9450620015ad8362001549565b925060208a0199505060018101905062001584565b50829750879550505050505092915050565b5f6020820190508181035f830152620015ee818462001555565b905092915050565b5f604051905090565b5f80fd5b5f80fd5b5f80fd5b5f80fd5b7f4e487b71000000000000000000000000000000000000000000000000000000005f52604160045260245ffd5b6200164782620014e4565b810181811067ffffffffffffffff821117156200166957620016686200160f565b5b80604052505050565b5f6200167d620015f6565b90506200168b82826200163c565b919050565b5f67ffffffffffffffff821115620016ad57620016ac6200160f565b5b620016b882620014e4565b9050602081019050919050565b828183375f83830152505050565b5f620016e9620016e38462001690565b62001672565b9050828152602081018484840111156200170857620017076200160b565b5b62001715848285620016c5565b509392505050565b5f82601f83011262001734576200173362001607565b5b813562001746848260208601620016d3565b91505092915050565b5f60208284031215620017675762001766620015ff565b5b5f82013567ffffffffffffffff81111562001787576200178662001603565b5b62001795848285016200171d565b91505092915050565b5f73ffffffffffffffffffffffffffffffffffffffff82169050919050565b5f620017c9826200179e565b9050919050565b620017db81620017bd565b82525050565b5f604082019050620017f65f830185620017d0565b620018056020830184620017d0565b9392505050565b6200181781620017bd565b811462001822575f80fd5b50565b5f8135905062001835816200180c565b92915050565b5f8060408385031215620018545762001853620015ff565b5b5f83013567ffffffffffffffff81111562001874576200187362001603565b5b62001882858286016200171d565b9250506020620018958582860162001825565b9150509250929050565b5f819050919050565b620018b3816200189f565b82525050565b5f602082019050620018ce5f830184620018a8565b92915050565b5f604082019050620018e95f830185620018a8565b620018f86020830184620018a8565b9392505050565b6200190a816200189f565b811462001915575f80fd5b50565b5f813590506200192881620018ff565b92915050565b5f60208284031215620019465762001945620015ff565b5b5f620019558482850162001918565b91505092915050565b5f602082019050620019735f830184620017d0565b92915050565b5f82825260208201905092915050565b5f6200199582620014a0565b620019a1818562001979565b9350620019b3818560208601620014ba565b620019be81620014e4565b840191505092915050565b5f6040820190508181035f830152620019e3818562001989565b90508181036020830152620019f9818462001989565b90509392505050565b5f6060820190508181035f83015262001a1c818662001989565b905062001a2d6020830185620017d0565b62001a3c6040830184620017d0565b949350505050565b5f6020828403121562001a5c5762001a5b620015ff565b5b5f62001a6b8482850162001825565b91505092915050565b5f806040838503121562001a8d5762001a8c620015ff565b5b5f62001a9c8582860162001825565b925050602062001aaf8582860162001825565b9150509250929050565b5f63ffffffff82169050919050565b62001ad38162001ab9565b82525050565b5f60408201905062001aee5f83018562001ac8565b62001afd6020830184620018a8565b9392505050565b5f6dffffffffffffffffffffffffffff82169050919050565b62001b288162001b04565b82525050565b5f60408201905062001b435f83018562001b1d565b62001b52602083018462001b1d565b9392505050565b7f4e487b71000000000000000000000000000000000000000000000000000000005f52602260045260245ffd5b5f600282049050600182168062001b9e57607f821691505b60208210810362001bb45762001bb362001b59565b5b50919050565b5f81905092915050565b5f62001bd082620014a0565b62001bdc818562001bba565b935062001bee818560208601620014ba565b80840191505092915050565b5f62001c07828462001bc4565b915081905092915050565b5f8151905062001c2281620018ff565b92915050565b5f6020828403121562001c405762001c3f620015ff565b5b5f62001c4f8482850162001c12565b91505092915050565b7f4e487b71000000000000000000000000000000000000000000000000000000005f52603260045260245ffd5b5f62001c9b62001c958462001690565b62001672565b90508281526020810184848401111562001cba5762001cb96200160b565b5b62001cc7848285620014ba565b509392505050565b5f82601f83011262001ce65762001ce562001607565b5b815162001cf884826020860162001c85565b91505092915050565b5f6020828403121562001d195762001d18620015ff565b5b5f82015167ffffffffffffffff81111562001d395762001d3862001603565b5b62001d478482850162001ccf565b91505092915050565b7f55534454000000000000000000000000000000000000000000000000000000005f82015250565b5f62001d8660048362001979565b915062001d938262001d50565b602082019050919050565b5f6020820190508181035f83015262001db78162001d78565b9050919050565b5f6020820190508181035f83015262001dd8818462001989565b905092915050565b7f466163746f72793a20746f6b656e20657175616c20746f6b656e2100000000005f82015250565b5f62001e16601b8362001979565b915062001e238262001de0565b602082019050919050565b5f6020820190508181035f83015262001e478162001e08565b9050919050565b7f466163746f72793a2061646472657373206f6620746f6b656e20657175616c205f8201527f7a65726f21000000000000000000000000000000000000000000000000000000602082015250565b5f62001eaa60258362001979565b915062001eb78262001e4e565b604082019050919050565b5f6020820190508181035f83015262001edb8162001e9c565b9050919050565b7f4e487b71000000000000000000000000000000000000000000000000000000005f52601160045260245ffd5b5f62001f1b826200189f565b915062001f28836200189f565b925082820262001f38816200189f565b9150828204841483151762001f525762001f5162001ee2565b5b5092915050565b7f4e487b71000000000000000000000000000000000000000000000000000000005f52601260045260245ffd5b5f62001f92826200189f565b915062001f9f836200189f565b92508262001fb25762001fb162001f59565b5b828204905092915050565b62001fc88162001b04565b811462001fd3575f80fd5b50565b5f8151905062001fe68162001fbd565b92915050565b5f8060408385031215620020055762002004620015ff565b5b5f620020148582860162001fd6565b9250506020620020278582860162001fd6565b9150509250929050565b5f6200203d82620017bd565b9050919050565b6200204f8162002031565b81146200205a575f80fd5b50565b5f815190506200206d8162002044565b92915050565b5f602082840312156200208b576200208a620015ff565b5b5f6200209a848285016200205d565b91505092915050565b7f202f2000000000000000000000000000000000000000000000000000000000005f82015250565b5f620020d960038362001bba565b9150620020e682620020a3565b600382019050919050565b5f620020fe828562001bc4565b91506200210b82620020cb565b915062002119828462001bc4565b91508190509392505050565b5f819050815f5260205f209050919050565b5f6020601f8301049050919050565b5f82821b905092915050565b5f60088302620021837fffffffffffffffffffffffffffffffffffffffffffffffffffffffffffffffff8262002146565b6200218f868362002146565b95508019841693508086168417925050509392505050565b5f819050919050565b5f620021d0620021ca620021c4846200189f565b620021a7565b6200189f565b9050919050565b5f819050919050565b620021eb83620021b0565b62002203620021fa82620021d7565b84845462002152565b825550505050565b5f90565b620022196200220b565b62002226818484620021e0565b505050565b5b818110156200224d57620022415f826200220f565b6001810190506200222c565b5050565b601f8211156200229c57620022668162002125565b620022718462002137565b8101602085101562002281578190505b62002299620022908562002137565b8301826200222b565b50505b505050565b5f82821c905092915050565b5f620022be5f1984600802620022a1565b1980831691505092915050565b5f620022d88383620022ad565b9150826002028217905092915050565b620022f382620014a0565b67ffffffffffffffff8111156200230f576200230e6200160f565b5b6200231b825462001b86565b6200232882828562002251565b5f60209050601f8311600181146200235e575f841562002349578287015190505b620023558582620022cb565b865550620023c4565b601f1984166200236e8662002125565b5f5b82811015620023975784890151825560018201915060208501945060208101905062002370565b86831015620023b75784890151620023b3601f891682620022ad565b8355505b6001600288020188555050505b50505050505056fe608060405234801562000010575f80fd5b506040516200146038038062001460833981810160405281019062000036919062000184565b8160035f6101000a81548173ffffffffffffffffffffffffffffffffffffffff021916908373ffffffffffffffffffffffffffffffffffffffff1602179055508060045f6101000a81548173ffffffffffffffffffffffffffffffffffffffff021916908373ffffffffffffffffffffffffffffffffffffffff1602179055503360025f6101000a81548173ffffffffffffffffffffffffffffffffffffffff021916908373ffffffffffffffffffffffffffffffffffffffff160217905550426005601c6101000a81548163ffffffff021916908363ffffffff1602179055505050620001c9565b5f80fd5b5f73ffffffffffffffffffffffffffffffffffffffff82169050919050565b5f6200014e8262000123565b9050919050565b620001608162000142565b81146200016b575f80fd5b50565b5f815190506200017e8162000155565b92915050565b5f80604083850312156200019d576200019c6200011f565b5b5f620001ac858286016200016e565b9250506020620001bf858286016200016e565b9150509250929050565b61128980620001d75f395ff3fe608060405234801561000f575f80fd5b50600436106100fe575f3560e01c806359962def11610095578063b576480011610064578063b57648001461029b578063c45a0155146102cc578063d21220a7146102ea578063fc76a38314610308576100fe565b806359962def146101ed5780635a3d54931461021d5780636161eb181461023b578063b10de9fc1461026b576100fe565b80632d889f6a116100d15780632d889f6a14610179578063380f0b41146101955780634e6ec247146101b35780635909c0d5146101cf576100fe565b8063078d3b79146101025780630902f1ac1461011e5780630dfe16811461013d57806318160ddd1461015b575b5f80fd5b61011c60048036038101906101179190610bf9565b610324565b005b61012661044c565b604051610134929190610c71565b60405180910390f35b61014561048f565b6040516101529190610cf3565b60405180910390f35b6101636104b4565b6040516101709190610d1b565b60405180910390f35b610193600480360381019061018e9190610d5e565b6104b9565b005b61019d610514565b6040516101aa9190610dba565b60405180910390f35b6101cd60048036038101906101c89190610dd3565b61052d565b005b6101d761059b565b6040516101e49190610d1b565b60405180910390f35b61020760048036038101906102029190610e11565b6105a1565b6040516102149190610d1b565b60405180910390f35b6102256105e7565b6040516102329190610d1b565b60405180910390f35b61025560048036038101906102509190610dd3565b6105ed565b6040516102629190610e56565b60405180910390f35b61028560048036038101906102809190610e6f565b610662565b6040516102929190610ead565b60405180910390f35b6102b560048036038101906102b09190610ec6565b61087f565b6040516102c3929190610ef1565b60405180910390f35b6102d4610911565b6040516102e19190610f27565b60405180910390f35b6102f2610936565b6040516102ff9190610cf3565b60405180910390f35b610322600480360381019061031d9190610d5e565b61095b565b005b5f60035f9054906101000a900473ffffffffffffffffffffffffffffffffffffffff1673ffffffffffffffffffffffffffffffffffffffff168473ffffffffffffffffffffffffffffffffffffffff161490505f816103a45760045f9054906101000a900473ffffffffffffffffffffffffffffffffffffffff166103c7565b60035f9054906101000a900473ffffffffffffffffffffffffffffffffffffffff165b90508073ffffffffffffffffffffffffffffffffffffffff1663a9059cbb85856040518363ffffffff1660e01b8152600401610404929190610f40565b6020604051808303815f875af1158015610420573d5f803e3d5ffd5b505050506040513d601f19601f820116820180604052508101906104449190610f91565b505050505050565b5f8060055f9054906101000a90046dffffffffffffffffffffffffffff1691506005600e9054906101000a90046dffffffffffffffffffffffffffff1690509091565b60035f9054906101000a900473ffffffffffffffffffffffffffffffffffffffff1681565b5f5481565b6105108260055f9054906101000a90046dffffffffffffffffffffffffffff166104e39190610fe9565b826005600e9054906101000a90046dffffffffffffffffffffffffffff1661050b9190610fe9565b6109b6565b5050565b5f6005601c9054906101000a900463ffffffff16905090565b8060015f8473ffffffffffffffffffffffffffffffffffffffff1673ffffffffffffffffffffffffffffffffffffffff1681526020019081526020015f205f828254610579919061102a565b92505081905550805f80828254610590919061102a565b925050819055505050565b60065481565b5f60015f8373ffffffffffffffffffffffffffffffffffffffff1673ffffffffffffffffffffffffffffffffffffffff1681526020019081526020015f20549050919050565b60075481565b5f8160015f8573ffffffffffffffffffffffffffffffffffffffff1673ffffffffffffffffffffffffffffffffffffffff1681526020019081526020015f205f82825461063a919061105d565b92505081905550815f80828254610651919061105d565b925050819055506001905092915050565b5f8060035f9054906101000a900473ffffffffffffffffffffffffffffffffffffffff1673ffffffffffffffffffffffffffffffffffffffff168473ffffffffffffffffffffffffffffffffffffffff161490505f80826106fb576005600e9054906101000a90046dffffffffffffffffffffffffffff1660055f9054906101000a90046dffffffffffffffffffffffffffff16610735565b60055f9054906101000a90046dffffffffffffffffffffffffffff166005600e9054906101000a90046dffffffffffffffffffffffffffff165b9150915084816107459190610fe9565b81836107519190611090565b61075b91906110f9565b826107669190611129565b93506001846dffffffffffffffffffffffffffff1610156107bc576040517f08c379a00000000000000000000000000000000000000000000000000000000081526004016107b3906111c4565b60405180910390fd5b821561081e576108198460055f9054906101000a90046dffffffffffffffffffffffffffff166107ec9190611129565b866005600e9054906101000a90046dffffffffffffffffffffffffffff166108149190610fe9565b6109b6565b610876565b6108758560055f9054906101000a90046dffffffffffffffffffffffffffff166108489190610fe9565b856005600e9054906101000a90046dffffffffffffffffffffffffffff166108709190611129565b6109b6565b5b50505092915050565b5f805f5460055f9054906101000a90046dffffffffffffffffffffffffffff166dffffffffffffffffffffffffffff16846108ba91906111e2565b6108c49190611223565b91505f546005600e9054906101000a90046dffffffffffffffffffffffffffff166dffffffffffffffffffffffffffff168461090091906111e2565b61090a9190611223565b9050915091565b60025f9054906101000a900473ffffffffffffffffffffffffffffffffffffffff1681565b60045f9054906101000a900473ffffffffffffffffffffffffffffffffffffffff1681565b6109b28260055f9054906101000a90046dffffffffffffffffffffffffffff166109859190611129565b826005600e9054906101000a90046dffffffffffffffffffffffffffff166109ad9190611129565b6109b6565b5050565b8160055f6101000a8154816dffffffffffffffffffffffffffff02191690836dffffffffffffffffffffffffffff160217905550806005600e6101000a8154816dffffffffffffffffffffffffffff02191690836dffffffffffffffffffffffffffff160217905550610a27610a2b565b5050565b5f6005600e9054906101000a90046dffffffffffffffffffffffffffff1660055f9054906101000a90046dffffffffffffffffffffffffffff16610a6f9190611090565b6dffffffffffffffffffffffffffff1614610b575760055f9054906101000a90046dffffffffffffffffffffffffffff16629896806005600e9054906101000a90046dffffffffffffffffffffffffffff16610acb9190611090565b610ad591906110f9565b6dffffffffffffffffffffffffffff166006819055506005600e9054906101000a90046dffffffffffffffffffffffffffff166298968060055f9054906101000a90046dffffffffffffffffffffffffffff16610b329190611090565b610b3c91906110f9565b6dffffffffffffffffffffffffffff16600781905550610b66565b5f6006819055505f6007819055505b565b5f80fd5b5f73ffffffffffffffffffffffffffffffffffffffff82169050919050565b5f610b9582610b6c565b9050919050565b610ba581610b8b565b8114610baf575f80fd5b50565b5f81359050610bc081610b9c565b92915050565b5f819050919050565b610bd881610bc6565b8114610be2575f80fd5b50565b5f81359050610bf381610bcf565b92915050565b5f805f60608486031215610c1057610c0f610b68565b5b5f610c1d86828701610bb2565b9350506020610c2e86828701610bb2565b9250506040610c3f86828701610be5565b9150509250925092565b5f6dffffffffffffffffffffffffffff82169050919050565b610c6b81610c49565b82525050565b5f604082019050610c845f830185610c62565b610c916020830184610c62565b9392505050565b5f819050919050565b5f610cbb610cb6610cb184610b6c565b610c98565b610b6c565b9050919050565b5f610ccc82610ca1565b9050919050565b5f610cdd82610cc2565b9050919050565b610ced81610cd3565b82525050565b5f602082019050610d065f830184610ce4565b92915050565b610d1581610bc6565b82525050565b5f602082019050610d2e5f830184610d0c565b92915050565b610d3d81610c49565b8114610d47575f80fd5b50565b5f81359050610d5881610d34565b92915050565b5f8060408385031215610d7457610d73610b68565b5b5f610d8185828601610d4a565b9250506020610d9285828601610d4a565b9150509250929050565b5f63ffffffff82169050919050565b610db481610d9c565b82525050565b5f602082019050610dcd5f830184610dab565b92915050565b5f8060408385031215610de957610de8610b68565b5b5f610df685828601610bb2565b9250506020610e0785828601610be5565b9150509250929050565b5f60208284031215610e2657610e25610b68565b5b5f610e3384828501610bb2565b91505092915050565b5f8115159050919050565b610e5081610e3c565b82525050565b5f602082019050610e695f830184610e47565b92915050565b5f8060408385031215610e8557610e84610b68565b5b5f610e9285828601610bb2565b9250506020610ea385828601610d4a565b9150509250929050565b5f602082019050610ec05f830184610c62565b92915050565b5f60208284031215610edb57610eda610b68565b5b5f610ee884828501610be5565b91505092915050565b5f604082019050610f045f830185610d0c565b610f116020830184610d0c565b9392505050565b610f2181610b8b565b82525050565b5f602082019050610f3a5f830184610f18565b92915050565b5f604082019050610f535f830185610f18565b610f606020830184610d0c565b9392505050565b610f7081610e3c565b8114610f7a575f80fd5b50565b5f81519050610f8b81610f67565b92915050565b5f60208284031215610fa657610fa5610b68565b5b5f610fb384828501610f7d565b91505092915050565b7f4e487b71000000000000000000000000000000000000000000000000000000005f52601160045260245ffd5b5f610ff382610c49565b9150610ffe83610c49565b925082820190506dffffffffffffffffffffffffffff81111561102457611023610fbc565b5b92915050565b5f61103482610bc6565b915061103f83610bc6565b925082820190508082111561105757611056610fbc565b5b92915050565b5f61106782610bc6565b915061107283610bc6565b925082820390508181111561108a57611089610fbc565b5b92915050565b5f61109a82610c49565b91506110a583610c49565b92508282026110b381610c49565b91508082146110c5576110c4610fbc565b5b5092915050565b7f4e487b71000000000000000000000000000000000000000000000000000000005f52601260045260245ffd5b5f61110382610c49565b915061110e83610c49565b92508261111e5761111d6110cc565b5b828204905092915050565b5f61113382610c49565b915061113e83610c49565b925082820390506dffffffffffffffffffffffffffff81111561116457611163610fbc565b5b92915050565b5f82825260208201905092915050565b7f506169723a4174206c6561737420746f2073776170206f6e6520746f6b656e005f82015250565b5f6111ae601f8361116a565b91506111b98261117a565b602082019050919050565b5f6020820190508181035f8301526111db816111a2565b9050919050565b5f6111ec82610bc6565b91506111f783610bc6565b925082820261120581610bc6565b9150828204841483151761121c5761121b610fbc565b5b5092915050565b5f61122d82610bc6565b915061123883610bc6565b925082611248576112476110cc565b5b82820490509291505056fea26469706673582212205439615824f1f2bddaeb6709de11c9069b14fcd5e013156e34429d8ff8067ea664736f6c63430008160033a2646970667358221220544aec3d09345b65eb8864315befc6a36998e426fe8238198246345b5041fbfe64736f6c63430008160033",
			"opcodes": "PUSH1 0x80 PUSH1 0x40 MSTORE PUSH2 0x3862 DUP1 PUSH2 0x11 PUSH0 CODECOPY PUSH0 RETURN INVALID PUSH1 0x80 PUSH1 0x40 MSTORE CALLVALUE DUP1 ISZERO PUSH3 0x10 JUMPI PUSH0 DUP1 REVERT JUMPDEST POP PUSH1 0x4 CALLDATASIZE LT PUSH3 0xFE JUMPI PUSH0 CALLDATALOAD PUSH1 0xE0 SHR DUP1 PUSH4 0xB7958566 GT PUSH3 0x97 JUMPI DUP1 PUSH4 0xCC08A575 GT PUSH3 0x6D JUMPI DUP1 PUSH4 0xCC08A575 EQ PUSH3 0x310 JUMPI DUP1 PUSH4 0xD05859F8 EQ PUSH3 0x347 JUMPI DUP1 PUSH4 0xD6A89E64 EQ PUSH3 0x37E JUMPI DUP1 PUSH4 0xE6A43905 EQ PUSH3 0x3A0 JUMPI PUSH3 0xFE JUMP JUMPDEST DUP1 PUSH4 0xB7958566 EQ PUSH3 0x26B JUMPI DUP1 PUSH4 0xC873A3DD EQ PUSH3 0x2A3 JUMPI DUP1 PUSH4 0xC9C65396 EQ PUSH3 0x2DA JUMPI PUSH3 0xFE JUMP JUMPDEST DUP1 PUSH4 0x713C4054 GT PUSH3 0xD9 JUMPI DUP1 PUSH4 0x713C4054 EQ PUSH3 0x191 JUMPI DUP1 PUSH4 0x8D0849F1 EQ PUSH3 0x1C8 JUMPI DUP1 PUSH4 0x9B527768 EQ PUSH3 0x1FE JUMPI DUP1 PUSH4 0xAC9017C2 EQ PUSH3 0x235 JUMPI PUSH3 0xFE JUMP JUMPDEST DUP1 PUSH4 0x3A49DA08 EQ PUSH3 0x102 JUMPI DUP1 PUSH4 0x3D5525CB EQ PUSH3 0x124 JUMPI DUP1 PUSH4 0x70EF3A28 EQ PUSH3 0x15B JUMPI JUMPDEST PUSH0 DUP1 REVERT JUMPDEST PUSH3 0x10C PUSH3 0x3D6 JUMP JUMPDEST PUSH1 0x40 MLOAD PUSH3 0x11B SWAP2 SWAP1 PUSH3 0x15D4 JUMP JUMPDEST PUSH1 0x40 MLOAD DUP1 SWAP2 SUB SWAP1 RETURN JUMPDEST PUSH3 0x142 PUSH1 0x4 DUP1 CALLDATASIZE SUB DUP2 ADD SWAP1 PUSH3 0x13C SWAP2 SWAP1 PUSH3 0x174F JUMP JUMPDEST PUSH3 0x4B4 JUMP JUMPDEST PUSH1 0x40 MLOAD PUSH3 0x152 SWAP3 SWAP2 SWAP1 PUSH3 0x17E1 JUMP JUMPDEST PUSH1 0x40 MLOAD DUP1 SWAP2 SUB SWAP1 RETURN JUMPDEST PUSH3 0x179 PUSH1 0x4 DUP1 CALLDATASIZE SUB DUP2 ADD SWAP1 PUSH3 0x173 SWAP2 SWAP1 PUSH3 0x183B JUMP JUMPDEST PUSH3 0x512 JUMP JUMPDEST PUSH1 0x40 MLOAD PUSH3 0x188 SWAP2 SWAP1 PUSH3 0x18B9 JUMP JUMPDEST PUSH1 0x40 MLOAD DUP1 SWAP2 SUB SWAP1 RETURN JUMPDEST PUSH3 0x1AF PUSH1 0x4 DUP1 CALLDATASIZE SUB DUP2 ADD SWAP1 PUSH3 0x1A9 SWAP2 SWAP1 PUSH3 0x174F JUMP JUMPDEST PUSH3 0x5A7 JUMP JUMPDEST PUSH1 0x40 MLOAD PUSH3 0x1BF SWAP3 SWAP2 SWAP1 PUSH3 0x18D4 JUMP JUMPDEST PUSH1 0x40 MLOAD DUP1 SWAP2 SUB SWAP1 RETURN JUMPDEST PUSH3 0x1E6 PUSH1 0x4 DUP1 CALLDATASIZE SUB DUP2 ADD SWAP1 PUSH3 0x1E0 SWAP2 SWAP1 PUSH3 0x192E JUMP JUMPDEST PUSH3 0x6A1 JUMP JUMPDEST PUSH1 0x40 MLOAD PUSH3 0x1F5 SWAP2 SWAP1 PUSH3 0x195E JUMP JUMPDEST PUSH1 0x40 MLOAD DUP1 SWAP2 SUB SWAP1 RETURN JUMPDEST PUSH3 0x21C PUSH1 0x4 DUP1 CALLDATASIZE SUB DUP2 ADD SWAP1 PUSH3 0x216 SWAP2 SWAP1 PUSH3 0x174F JUMP JUMPDEST PUSH3 0x6E8 JUMP JUMPDEST PUSH1 0x40 MLOAD PUSH3 0x22C SWAP3 SWAP2 SWAP1 PUSH3 0x19C9 JUMP JUMPDEST PUSH1 0x40 MLOAD DUP1 SWAP2 SUB SWAP1 RETURN JUMPDEST PUSH3 0x253 PUSH1 0x4 DUP1 CALLDATASIZE SUB DUP2 ADD SWAP1 PUSH3 0x24D SWAP2 SWAP1 PUSH3 0x174F JUMP JUMPDEST PUSH3 0x7ED JUMP JUMPDEST PUSH1 0x40 MLOAD PUSH3 0x262 SWAP2 SWAP1 PUSH3 0x195E JUMP JUMPDEST PUSH1 0x40 MLOAD DUP1 SWAP2 SUB SWAP1 RETURN JUMPDEST PUSH3 0x289 PUSH1 0x4 DUP1 CALLDATASIZE SUB DUP2 ADD SWAP1 PUSH3 0x283 SWAP2 SWAP1 PUSH3 0x174F JUMP JUMPDEST PUSH3 0x835 JUMP JUMPDEST PUSH1 0x40 MLOAD PUSH3 0x29A SWAP4 SWAP3 SWAP2 SWAP1 PUSH3 0x1A02 JUMP JUMPDEST PUSH1 0x40 MLOAD DUP1 SWAP2 SUB SWAP1 RETURN JUMPDEST PUSH3 0x2C1 PUSH1 0x4 DUP1 CALLDATASIZE SUB DUP2 ADD SWAP1 PUSH3 0x2BB SWAP2 SWAP1 PUSH3 0x1A44 JUMP JUMPDEST PUSH3 0xA21 JUMP JUMPDEST PUSH1 0x40 MLOAD PUSH3 0x2D1 SWAP3 SWAP2 SWAP1 PUSH3 0x18D4 JUMP JUMPDEST PUSH1 0x40 MLOAD DUP1 SWAP2 SUB SWAP1 RETURN JUMPDEST PUSH3 0x2F8 PUSH1 0x4 DUP1 CALLDATASIZE SUB DUP2 ADD SWAP1 PUSH3 0x2F2 SWAP2 SWAP1 PUSH3 0x1A74 JUMP JUMPDEST PUSH3 0xB0C JUMP JUMPDEST PUSH1 0x40 MLOAD PUSH3 0x307 SWAP2 SWAP1 PUSH3 0x195E JUMP JUMPDEST PUSH1 0x40 MLOAD DUP1 SWAP2 SUB SWAP1 RETURN JUMPDEST PUSH3 0x32E PUSH1 0x4 DUP1 CALLDATASIZE SUB DUP2 ADD SWAP1 PUSH3 0x328 SWAP2 SWAP1 PUSH3 0x174F JUMP JUMPDEST PUSH3 0xD1B JUMP JUMPDEST PUSH1 0x40 MLOAD PUSH3 0x33E SWAP3 SWAP2 SWAP1 PUSH3 0x1AD9 JUMP JUMPDEST PUSH1 0x40 MLOAD DUP1 SWAP2 SUB SWAP1 RETURN JUMPDEST PUSH3 0x365 PUSH1 0x4 DUP1 CALLDATASIZE SUB DUP2 ADD SWAP1 PUSH3 0x35F SWAP2 SWAP1 PUSH3 0x1A44 JUMP JUMPDEST PUSH3 0xD62 JUMP JUMPDEST PUSH1 0x40 MLOAD PUSH3 0x375 SWAP3 SWAP2 SWAP1 PUSH3 0x1B2E JUMP JUMPDEST PUSH1 0x40 MLOAD DUP1 SWAP2 SUB SWAP1 RETURN JUMPDEST PUSH3 0x388 PUSH3 0xDE0 JUMP JUMPDEST PUSH1 0x40 MLOAD PUSH3 0x397 SWAP2 SWAP1 PUSH3 0x18B9 JUMP JUMPDEST PUSH1 0x40 MLOAD DUP1 SWAP2 SUB SWAP1 RETURN JUMPDEST PUSH3 0x3BE PUSH1 0x4 DUP1 CALLDATASIZE SUB DUP2 ADD SWAP1 PUSH3 0x3B8 SWAP2 SWAP1 PUSH3 0x1A74 JUMP JUMPDEST PUSH3 0xDEC JUMP JUMPDEST PUSH1 0x40 MLOAD PUSH3 0x3CD SWAP2 SWAP1 PUSH3 0x195E JUMP JUMPDEST PUSH1 0x40 MLOAD DUP1 SWAP2 SUB SWAP1 RETURN JUMPDEST PUSH1 0x60 PUSH1 0x3 DUP1 SLOAD DUP1 PUSH1 0x20 MUL PUSH1 0x20 ADD PUSH1 0x40 MLOAD SWAP1 DUP2 ADD PUSH1 0x40 MSTORE DUP1 SWAP3 SWAP2 SWAP1 DUP2 DUP2 MSTORE PUSH1 0x20 ADD PUSH0 SWAP1 JUMPDEST DUP3 DUP3 LT ISZERO PUSH3 0x4AB JUMPI DUP4 DUP3 SWAP1 PUSH0 MSTORE PUSH1 0x20 PUSH0 KECCAK256 ADD DUP1 SLOAD PUSH3 0x419 SWAP1 PUSH3 0x1B86 JUMP JUMPDEST DUP1 PUSH1 0x1F ADD PUSH1 0x20 DUP1 SWAP2 DIV MUL PUSH1 0x20 ADD PUSH1 0x40 MLOAD SWAP1 DUP2 ADD PUSH1 0x40 MSTORE DUP1 SWAP3 SWAP2 SWAP1 DUP2 DUP2 MSTORE PUSH1 0x20 ADD DUP3 DUP1 SLOAD PUSH3 0x447 SWAP1 PUSH3 0x1B86 JUMP JUMPDEST DUP1 ISZERO PUSH3 0x496 JUMPI DUP1 PUSH1 0x1F LT PUSH3 0x46C JUMPI PUSH2 0x100 DUP1 DUP4 SLOAD DIV MUL DUP4 MSTORE SWAP2 PUSH1 0x20 ADD SWAP2 PUSH3 0x496 JUMP JUMPDEST DUP3 ADD SWAP2 SWAP1 PUSH0 MSTORE PUSH1 0x20 PUSH0 KECCAK256 SWAP1 JUMPDEST DUP2 SLOAD DUP2 MSTORE SWAP1 PUSH1 0x1 ADD SWAP1 PUSH1 0x20 ADD DUP1 DUP4 GT PUSH3 0x478 JUMPI DUP3 SWAP1 SUB PUSH1 0x1F AND DUP3 ADD SWAP2 JUMPDEST POP POP POP POP POP DUP2 MSTORE PUSH1 0x20 ADD SWAP1 PUSH1 0x1 ADD SWAP1 PUSH3 0x3F9 JUMP JUMPDEST POP POP POP POP SWAP1 POP SWAP1 JUMP JUMPDEST PUSH0 DUP1 PUSH0 PUSH1 0x1 DUP5 PUSH1 0x40 MLOAD PUSH3 0x4C9 SWAP2 SWAP1 PUSH3 0x1BFA JUMP JUMPDEST SWAP1 DUP2 MSTORE PUSH1 0x20 ADD PUSH1 0x40 MLOAD DUP1 SWAP2 SUB SWAP1 KECCAK256 PUSH0 SWAP1 SLOAD SWAP1 PUSH2 0x100 EXP SWAP1 DIV PUSH20 0xFFFFFFFFFFFFFFFFFFFFFFFFFFFFFFFFFFFFFFFF AND SWAP1 POP PUSH3 0x504 DUP2 PUSH3 0xE8C JUMP JUMPDEST DUP1 SWAP4 POP DUP2 SWAP5 POP POP POP POP SWAP2 POP SWAP2 JUMP JUMPDEST PUSH0 DUP1 PUSH3 0x51F DUP5 PUSH3 0x7ED JUMP JUMPDEST SWAP1 POP DUP1 PUSH20 0xFFFFFFFFFFFFFFFFFFFFFFFFFFFFFFFFFFFFFFFF AND PUSH4 0x59962DEF DUP5 PUSH1 0x40 MLOAD DUP3 PUSH4 0xFFFFFFFF AND PUSH1 0xE0 SHL DUP2 MSTORE PUSH1 0x4 ADD PUSH3 0x55C SWAP2 SWAP1 PUSH3 0x195E JUMP JUMPDEST PUSH1 0x20 PUSH1 0x40 MLOAD DUP1 DUP4 SUB DUP2 DUP7 GAS STATICCALL ISZERO DUP1 ISZERO PUSH3 0x578 JUMPI RETURNDATASIZE PUSH0 DUP1 RETURNDATACOPY RETURNDATASIZE PUSH0 REVERT JUMPDEST POP POP POP POP PUSH1 0x40 MLOAD RETURNDATASIZE PUSH1 0x1F NOT PUSH1 0x1F DUP3 ADD AND DUP3 ADD DUP1 PUSH1 0x40 MSTORE POP DUP2 ADD SWAP1 PUSH3 0x59E SWAP2 SWAP1 PUSH3 0x1C28 JUMP JUMPDEST SWAP2 POP POP SWAP3 SWAP2 POP POP JUMP JUMPDEST PUSH0 DUP1 PUSH0 PUSH3 0x5B5 DUP5 PUSH3 0x7ED JUMP JUMPDEST SWAP1 POP DUP1 PUSH20 0xFFFFFFFFFFFFFFFFFFFFFFFFFFFFFFFFFFFFFFFF AND PUSH4 0x5909C0D5 PUSH1 0x40 MLOAD DUP2 PUSH4 0xFFFFFFFF AND PUSH1 0xE0 SHL DUP2 MSTORE PUSH1 0x4 ADD PUSH1 0x20 PUSH1 0x40 MLOAD DUP1 DUP4 SUB DUP2 DUP7 GAS STATICCALL ISZERO DUP1 ISZERO PUSH3 0x601 JUMPI RETURNDATASIZE PUSH0 DUP1 RETURNDATACOPY RETURNDATASIZE PUSH0 REVERT JUMPDEST POP POP POP POP PUSH1 0x40 MLOAD RETURNDATASIZE PUSH1 0x1F NOT PUSH1 0x1F DUP3 ADD AND DUP3 ADD DUP1 PUSH1 0x40 MSTORE POP DUP2 ADD SWAP1 PUSH3 0x627 SWAP2 SWAP1 PUSH3 0x1C28 JUMP JUMPDEST SWAP3 POP DUP1 PUSH20 0xFFFFFFFFFFFFFFFFFFFFFFFFFFFFFFFFFFFFFFFF AND PUSH4 0x5A3D5493 PUSH1 0x40 MLOAD DUP2 PUSH4 0xFFFFFFFF AND PUSH1 0xE0 SHL DUP2 MSTORE PUSH1 0x4 ADD PUSH1 0x20 PUSH1 0x40 MLOAD DUP1 DUP4 SUB DUP2 DUP7 GAS STATICCALL ISZERO DUP1 ISZERO PUSH3 0x673 JUMPI RETURNDATASIZE PUSH0 DUP1 RETURNDATACOPY RETURNDATASIZE PUSH0 REVERT JUMPDEST POP POP POP POP PUSH1 0x40 MLOAD RETURNDATASIZE PUSH1 0x1F NOT PUSH1 0x1F DUP3 ADD AND DUP3 ADD DUP1 PUSH1 0x40 MSTORE POP DUP2 ADD SWAP1 PUSH3 0x699 SWAP2 SWAP1 PUSH3 0x1C28 JUMP JUMPDEST SWAP2 POP POP SWAP2 POP SWAP2 JUMP JUMPDEST PUSH0 PUSH1 0x2 DUP3 DUP2 SLOAD DUP2 LT PUSH3 0x6B9 JUMPI PUSH3 0x6B8 PUSH3 0x1C58 JUMP JUMPDEST JUMPDEST SWAP1 PUSH0 MSTORE PUSH1 0x20 PUSH0 KECCAK256 ADD PUSH0 SWAP1 SLOAD SWAP1 PUSH2 0x100 EXP SWAP1 DIV PUSH20 0xFFFFFFFFFFFFFFFFFFFFFFFFFFFFFFFFFFFFFFFF AND SWAP1 POP SWAP2 SWAP1 POP JUMP JUMPDEST PUSH1 0x60 DUP1 PUSH0 DUP1 PUSH3 0x6F8 DUP6 PUSH3 0x4B4 JUMP JUMPDEST SWAP2 POP SWAP2 POP DUP2 PUSH20 0xFFFFFFFFFFFFFFFFFFFFFFFFFFFFFFFFFFFFFFFF AND PUSH4 0x95D89B41 PUSH1 0x40 MLOAD DUP2 PUSH4 0xFFFFFFFF AND PUSH1 0xE0 SHL DUP2 MSTORE PUSH1 0x4 ADD PUSH0 PUSH1 0x40 MLOAD DUP1 DUP4 SUB DUP2 DUP7 GAS STATICCALL ISZERO DUP1 ISZERO PUSH3 0x745 JUMPI RETURNDATASIZE PUSH0 DUP1 RETURNDATACOPY RETURNDATASIZE PUSH0 REVERT JUMPDEST POP POP POP POP PUSH1 0x40 MLOAD RETURNDATASIZE PUSH0 DUP3 RETURNDATACOPY RETURNDATASIZE PUSH1 0x1F NOT PUSH1 0x1F DUP3 ADD AND DUP3 ADD DUP1 PUSH1 0x40 MSTORE POP DUP2 ADD SWAP1 PUSH3 0x76F SWAP2 SWAP1 PUSH3 0x1D01 JUMP JUMPDEST SWAP4 POP DUP1 PUSH20 0xFFFFFFFFFFFFFFFFFFFFFFFFFFFFFFFFFFFFFFFF AND PUSH4 0x95D89B41 PUSH1 0x40 MLOAD DUP2 PUSH4 0xFFFFFFFF AND PUSH1 0xE0 SHL DUP2 MSTORE PUSH1 0x4 ADD PUSH0 PUSH1 0x40 MLOAD DUP1 DUP4 SUB DUP2 DUP7 GAS STATICCALL ISZERO DUP1 ISZERO PUSH3 0x7BA JUMPI RETURNDATASIZE PUSH0 DUP1 RETURNDATACOPY RETURNDATASIZE PUSH0 REVERT JUMPDEST POP POP POP POP PUSH1 0x40 MLOAD RETURNDATASIZE PUSH0 DUP3 RETURNDATACOPY RETURNDATASIZE PUSH1 0x1F NOT PUSH1 0x1F DUP3 ADD AND DUP3 ADD DUP1 PUSH1 0x40 MSTORE POP DUP2 ADD SWAP1 PUSH3 0x7E4 SWAP2 SWAP1 PUSH3 0x1D01 JUMP JUMPDEST SWAP3 POP POP POP SWAP2 POP SWAP2 JUMP JUMPDEST PUSH0 PUSH1 0x1 DUP3 PUSH1 0x40 MLOAD PUSH3 0x800 SWAP2 SWAP1 PUSH3 0x1BFA JUMP JUMPDEST SWAP1 DUP2 MSTORE PUSH1 0x20 ADD PUSH1 0x40 MLOAD DUP1 SWAP2 SUB SWAP1 KECCAK256 PUSH0 SWAP1 SLOAD SWAP1 PUSH2 0x100 EXP SWAP1 DIV PUSH20 0xFFFFFFFFFFFFFFFFFFFFFFFFFFFFFFFFFFFFFFFF AND SWAP1 POP SWAP2 SWAP1 POP JUMP JUMPDEST PUSH1 0x60 PUSH0 DUP1 PUSH0 DUP1 PUSH3 0x846 DUP7 PUSH3 0x4B4 JUMP JUMPDEST SWAP2 POP SWAP2 POP PUSH0 DUP3 PUSH20 0xFFFFFFFFFFFFFFFFFFFFFFFFFFFFFFFFFFFFFFFF AND PUSH4 0x95D89B41 PUSH1 0x40 MLOAD DUP2 PUSH4 0xFFFFFFFF AND PUSH1 0xE0 SHL DUP2 MSTORE PUSH1 0x4 ADD PUSH0 PUSH1 0x40 MLOAD DUP1 DUP4 SUB DUP2 DUP7 GAS STATICCALL ISZERO DUP1 ISZERO PUSH3 0x894 JUMPI RETURNDATASIZE PUSH0 DUP1 RETURNDATACOPY RETURNDATASIZE PUSH0 REVERT JUMPDEST POP POP POP POP PUSH1 0x40 MLOAD RETURNDATASIZE PUSH0 DUP3 RETURNDATACOPY RETURNDATASIZE PUSH1 0x1F NOT PUSH1 0x1F DUP3 ADD AND DUP3 ADD DUP1 PUSH1 0x40 MSTORE POP DUP2 ADD SWAP1 PUSH3 0x8BE SWAP2 SWAP1 PUSH3 0x1D01 JUMP JUMPDEST SWAP1 POP DUP3 SWAP4 POP DUP2 PUSH20 0xFFFFFFFFFFFFFFFFFFFFFFFFFFFFFFFFFFFFFFFF AND PUSH4 0x95D89B41 PUSH1 0x40 MLOAD DUP2 PUSH4 0xFFFFFFFF AND PUSH1 0xE0 SHL DUP2 MSTORE PUSH1 0x4 ADD PUSH0 PUSH1 0x40 MLOAD DUP1 DUP4 SUB DUP2 DUP7 GAS STATICCALL ISZERO DUP1 ISZERO PUSH3 0x90C JUMPI RETURNDATASIZE PUSH0 DUP1 RETURNDATACOPY RETURNDATASIZE PUSH0 REVERT JUMPDEST POP POP POP POP PUSH1 0x40 MLOAD RETURNDATASIZE PUSH0 DUP3 RETURNDATACOPY RETURNDATASIZE PUSH1 0x1F NOT PUSH1 0x1F DUP3 ADD AND DUP3 ADD DUP1 PUSH1 0x40 MSTORE POP DUP2 ADD SWAP1 PUSH3 0x936 SWAP2 SWAP1 PUSH3 0x1D01 JUMP JUMPDEST SWAP6 POP DUP2 SWAP5 POP PUSH0 PUSH1 0x40 MLOAD PUSH1 0x20 ADD PUSH3 0x94D SWAP1 PUSH3 0x1D9E JUMP JUMPDEST PUSH1 0x40 MLOAD PUSH1 0x20 DUP2 DUP4 SUB SUB DUP2 MSTORE SWAP1 PUSH1 0x40 MSTORE DUP1 MLOAD SWAP1 PUSH1 0x20 ADD KECCAK256 SWAP1 POP PUSH0 DUP3 PUSH1 0x40 MLOAD PUSH1 0x20 ADD PUSH3 0x979 SWAP2 SWAP1 PUSH3 0x1DBE JUMP JUMPDEST PUSH1 0x40 MLOAD PUSH1 0x20 DUP2 DUP4 SUB SUB DUP2 MSTORE SWAP1 PUSH1 0x40 MSTORE DUP1 MLOAD SWAP1 PUSH1 0x20 ADD KECCAK256 SWAP1 POP DUP2 DUP2 EQ PUSH3 0xA15 JUMPI DUP4 SWAP6 POP DUP5 PUSH20 0xFFFFFFFFFFFFFFFFFFFFFFFFFFFFFFFFFFFFFFFF AND PUSH4 0x95D89B41 PUSH1 0x40 MLOAD DUP2 PUSH4 0xFFFFFFFF AND PUSH1 0xE0 SHL DUP2 MSTORE PUSH1 0x4 ADD PUSH0 PUSH1 0x40 MLOAD DUP1 DUP4 SUB DUP2 DUP7 GAS STATICCALL ISZERO DUP1 ISZERO PUSH3 0x9E5 JUMPI RETURNDATASIZE PUSH0 DUP1 RETURNDATACOPY RETURNDATASIZE PUSH0 REVERT JUMPDEST POP POP POP POP PUSH1 0x40 MLOAD RETURNDATASIZE PUSH0 DUP3 RETURNDATACOPY RETURNDATASIZE PUSH1 0x1F NOT PUSH1 0x1F DUP3 ADD AND DUP3 ADD DUP1 PUSH1 0x40 MSTORE POP DUP2 ADD SWAP1 PUSH3 0xA0F SWAP2 SWAP1 PUSH3 0x1D01 JUMP JUMPDEST SWAP8 POP DUP5 SWAP7 POP JUMPDEST POP POP POP POP POP SWAP2 SWAP4 SWAP1 SWAP3 POP JUMP JUMPDEST PUSH0 DUP1 DUP3 PUSH20 0xFFFFFFFFFFFFFFFFFFFFFFFFFFFFFFFFFFFFFFFF AND PUSH4 0x5909C0D5 PUSH1 0x40 MLOAD DUP2 PUSH4 0xFFFFFFFF AND PUSH1 0xE0 SHL DUP2 MSTORE PUSH1 0x4 ADD PUSH1 0x20 PUSH1 0x40 MLOAD DUP1 DUP4 SUB DUP2 DUP7 GAS STATICCALL ISZERO DUP1 ISZERO PUSH3 0xA6D JUMPI RETURNDATASIZE PUSH0 DUP1 RETURNDATACOPY RETURNDATASIZE PUSH0 REVERT JUMPDEST POP POP POP POP PUSH1 0x40 MLOAD RETURNDATASIZE PUSH1 0x1F NOT PUSH1 0x1F DUP3 ADD AND DUP3 ADD DUP1 PUSH1 0x40 MSTORE POP DUP2 ADD SWAP1 PUSH3 0xA93 SWAP2 SWAP1 PUSH3 0x1C28 JUMP JUMPDEST SWAP2 POP DUP3 PUSH20 0xFFFFFFFFFFFFFFFFFFFFFFFFFFFFFFFFFFFFFFFF AND PUSH4 0x5A3D5493 PUSH1 0x40 MLOAD DUP2 PUSH4 0xFFFFFFFF AND PUSH1 0xE0 SHL DUP2 MSTORE PUSH1 0x4 ADD PUSH1 0x20 PUSH1 0x40 MLOAD DUP1 DUP4 SUB DUP2 DUP7 GAS STATICCALL ISZERO DUP1 ISZERO PUSH3 0xADF JUMPI RETURNDATASIZE PUSH0 DUP1 RETURNDATACOPY RETURNDATASIZE PUSH0 REVERT JUMPDEST POP POP POP POP PUSH1 0x40 MLOAD RETURNDATASIZE PUSH1 0x1F NOT PUSH1 0x1F DUP3 ADD AND DUP3 ADD DUP1 PUSH1 0x40 MSTORE POP DUP2 ADD SWAP1 PUSH3 0xB05 SWAP2 SWAP1 PUSH3 0x1C28 JUMP JUMPDEST SWAP1 POP SWAP2 POP SWAP2 JUMP JUMPDEST PUSH0 DUP2 PUSH20 0xFFFFFFFFFFFFFFFFFFFFFFFFFFFFFFFFFFFFFFFF AND DUP4 PUSH20 0xFFFFFFFFFFFFFFFFFFFFFFFFFFFFFFFFFFFFFFFF AND SUB PUSH3 0xB7E JUMPI PUSH1 0x40 MLOAD PUSH32 0x8C379A000000000000000000000000000000000000000000000000000000000 DUP2 MSTORE PUSH1 0x4 ADD PUSH3 0xB75 SWAP1 PUSH3 0x1E2E JUMP JUMPDEST PUSH1 0x40 MLOAD DUP1 SWAP2 SUB SWAP1 REVERT JUMPDEST PUSH0 PUSH20 0xFFFFFFFFFFFFFFFFFFFFFFFFFFFFFFFFFFFFFFFF AND DUP4 PUSH20 0xFFFFFFFFFFFFFFFFFFFFFFFFFFFFFFFFFFFFFFFF AND EQ ISZERO DUP1 PUSH3 0xBE6 JUMPI POP PUSH0 PUSH20 0xFFFFFFFFFFFFFFFFFFFFFFFFFFFFFFFFFFFFFFFF AND DUP3 PUSH20 0xFFFFFFFFFFFFFFFFFFFFFFFFFFFFFFFFFFFFFFFF AND EQ ISZERO JUMPDEST PUSH3 0xC28 JUMPI PUSH1 0x40 MLOAD PUSH32 0x8C379A000000000000000000000000000000000000000000000000000000000 DUP2 MSTORE PUSH1 0x4 ADD PUSH3 0xC1F SWAP1 PUSH3 0x1EC2 JUMP JUMPDEST PUSH1 0x40 MLOAD DUP1 SWAP2 SUB SWAP1 REVERT JUMPDEST PUSH0 PUSH20 0xFFFFFFFFFFFFFFFFFFFFFFFFFFFFFFFFFFFFFFFF AND PUSH3 0xC4B DUP5 DUP5 PUSH3 0xDEC JUMP JUMPDEST PUSH20 0xFFFFFFFFFFFFFFFFFFFFFFFFFFFFFFFFFFFFFFFF AND SUB PUSH3 0xD06 JUMPI DUP2 PUSH20 0xFFFFFFFFFFFFFFFFFFFFFFFFFFFFFFFFFFFFFFFF AND DUP4 PUSH20 0xFFFFFFFFFFFFFFFFFFFFFFFFFFFFFFFFFFFFFFFF AND LT PUSH3 0xCA3 JUMPI DUP2 DUP4 PUSH3 0xCA6 JUMP JUMPDEST DUP3 DUP3 JUMPDEST DUP1 SWAP4 POP DUP2 SWAP5 POP POP POP DUP3 DUP3 PUSH1 0x40 MLOAD PUSH3 0xCBE SWAP1 PUSH3 0x1469 JUMP JUMPDEST PUSH3 0xCCB SWAP3 SWAP2 SWAP1 PUSH3 0x17E1 JUMP JUMPDEST PUSH1 0x40 MLOAD DUP1 SWAP2 SUB SWAP1 PUSH0 CREATE DUP1 ISZERO DUP1 ISZERO PUSH3 0xCE5 JUMPI RETURNDATASIZE PUSH0 DUP1 RETURNDATACOPY RETURNDATASIZE PUSH0 REVERT JUMPDEST POP SWAP1 POP PUSH3 0xCF5 DUP4 DUP4 DUP4 PUSH3 0xF77 JUMP JUMPDEST PUSH3 0xD00 DUP2 PUSH3 0x1146 JUMP JUMPDEST PUSH3 0xD15 JUMP JUMPDEST PUSH3 0xD12 DUP4 DUP4 PUSH3 0xDEC JUMP JUMPDEST SWAP1 POP JUMPDEST SWAP3 SWAP2 POP POP JUMP JUMPDEST PUSH0 DUP1 PUSH0 CALLER SWAP1 POP PUSH3 0xD2D DUP5 DUP3 PUSH3 0x512 JUMP JUMPDEST SWAP2 POP PUSH0 PUSH3 0xD3B DUP6 PUSH3 0x13CF JUMP JUMPDEST SWAP1 POP DUP1 PUSH1 0x64 DUP5 PUSH3 0xD4D SWAP2 SWAP1 PUSH3 0x1F0F JUMP JUMPDEST PUSH3 0xD59 SWAP2 SWAP1 PUSH3 0x1F86 JUMP JUMPDEST SWAP4 POP POP POP SWAP2 POP SWAP2 JUMP JUMPDEST PUSH0 DUP1 DUP3 PUSH20 0xFFFFFFFFFFFFFFFFFFFFFFFFFFFFFFFFFFFFFFFF AND PUSH4 0x902F1AC PUSH1 0x40 MLOAD DUP2 PUSH4 0xFFFFFFFF AND PUSH1 0xE0 SHL DUP2 MSTORE PUSH1 0x4 ADD PUSH1 0x40 DUP1 MLOAD DUP1 DUP4 SUB DUP2 DUP7 GAS STATICCALL ISZERO DUP1 ISZERO PUSH3 0xDAD JUMPI RETURNDATASIZE PUSH0 DUP1 RETURNDATACOPY RETURNDATASIZE PUSH0 REVERT JUMPDEST POP POP POP POP PUSH1 0x40 MLOAD RETURNDATASIZE PUSH1 0x1F NOT PUSH1 0x1F DUP3 ADD AND DUP3 ADD DUP1 PUSH1 0x40 MSTORE POP DUP2 ADD SWAP1 PUSH3 0xDD3 SWAP2 SWAP1 PUSH3 0x1FEC JUMP JUMPDEST DUP1 SWAP3 POP DUP2 SWAP4 POP POP POP SWAP2 POP SWAP2 JUMP JUMPDEST PUSH0 PUSH1 0x2 DUP1 SLOAD SWAP1 POP SWAP1 POP SWAP1 JUMP JUMPDEST PUSH0 DUP1 PUSH0 DUP5 PUSH20 0xFFFFFFFFFFFFFFFFFFFFFFFFFFFFFFFFFFFFFFFF AND PUSH20 0xFFFFFFFFFFFFFFFFFFFFFFFFFFFFFFFFFFFFFFFF AND DUP2 MSTORE PUSH1 0x20 ADD SWAP1 DUP2 MSTORE PUSH1 0x20 ADD PUSH0 KECCAK256 PUSH0 DUP4 PUSH20 0xFFFFFFFFFFFFFFFFFFFFFFFFFFFFFFFFFFFFFFFF AND PUSH20 0xFFFFFFFFFFFFFFFFFFFFFFFFFFFFFFFFFFFFFFFF AND DUP2 MSTORE PUSH1 0x20 ADD SWAP1 DUP2 MSTORE PUSH1 0x20 ADD PUSH0 KECCAK256 PUSH0 SWAP1 SLOAD SWAP1 PUSH2 0x100 EXP SWAP1 DIV PUSH20 0xFFFFFFFFFFFFFFFFFFFFFFFFFFFFFFFFFFFFFFFF AND SWAP1 POP SWAP3 SWAP2 POP POP JUMP JUMPDEST PUSH0 DUP1 DUP3 PUSH20 0xFFFFFFFFFFFFFFFFFFFFFFFFFFFFFFFFFFFFFFFF AND PUSH4 0xDFE1681 PUSH1 0x40 MLOAD DUP2 PUSH4 0xFFFFFFFF AND PUSH1 0xE0 SHL DUP2 MSTORE PUSH1 0x4 ADD PUSH1 0x20 PUSH1 0x40 MLOAD DUP1 DUP4 SUB DUP2 DUP7 GAS STATICCALL ISZERO DUP1 ISZERO PUSH3 0xED8 JUMPI RETURNDATASIZE PUSH0 DUP1 RETURNDATACOPY RETURNDATASIZE PUSH0 REVERT JUMPDEST POP POP POP POP PUSH1 0x40 MLOAD RETURNDATASIZE PUSH1 0x1F NOT PUSH1 0x1F DUP3 ADD AND DUP3 ADD DUP1 PUSH1 0x40 MSTORE POP DUP2 ADD SWAP1 PUSH3 0xEFE SWAP2 SWAP1 PUSH3 0x2073 JUMP JUMPDEST SWAP2 POP DUP3 PUSH20 0xFFFFFFFFFFFFFFFFFFFFFFFFFFFFFFFFFFFFFFFF AND PUSH4 0xD21220A7 PUSH1 0x40 MLOAD DUP2 PUSH4 0xFFFFFFFF AND PUSH1 0xE0 SHL DUP2 MSTORE PUSH1 0x4 ADD PUSH1 0x20 PUSH1 0x40 MLOAD DUP1 DUP4 SUB DUP2 DUP7 GAS STATICCALL ISZERO DUP1 ISZERO PUSH3 0xF4A JUMPI RETURNDATASIZE PUSH0 DUP1 RETURNDATACOPY RETURNDATASIZE PUSH0 REVERT JUMPDEST POP POP POP POP PUSH1 0x40 MLOAD RETURNDATASIZE PUSH1 0x1F NOT PUSH1 0x1F DUP3 ADD AND DUP3 ADD DUP1 PUSH1 0x40 MSTORE POP DUP2 ADD SWAP1 PUSH3 0xF70 SWAP2 SWAP1 PUSH3 0x2073 JUMP JUMPDEST SWAP1 POP SWAP2 POP SWAP2 JUMP JUMPDEST DUP1 PUSH0 DUP1 DUP6 PUSH20 0xFFFFFFFFFFFFFFFFFFFFFFFFFFFFFFFFFFFFFFFF AND PUSH20 0xFFFFFFFFFFFFFFFFFFFFFFFFFFFFFFFFFFFFFFFF AND DUP2 MSTORE PUSH1 0x20 ADD SWAP1 DUP2 MSTORE PUSH1 0x20 ADD PUSH0 KECCAK256 PUSH0 DUP5 PUSH20 0xFFFFFFFFFFFFFFFFFFFFFFFFFFFFFFFFFFFFFFFF AND PUSH20 0xFFFFFFFFFFFFFFFFFFFFFFFFFFFFFFFFFFFFFFFF AND DUP2 MSTORE PUSH1 0x20 ADD SWAP1 DUP2 MSTORE PUSH1 0x20 ADD PUSH0 KECCAK256 PUSH0 PUSH2 0x100 EXP DUP2 SLOAD DUP2 PUSH20 0xFFFFFFFFFFFFFFFFFFFFFFFFFFFFFFFFFFFFFFFF MUL NOT AND SWAP1 DUP4 PUSH20 0xFFFFFFFFFFFFFFFFFFFFFFFFFFFFFFFFFFFFFFFF AND MUL OR SWAP1 SSTORE POP DUP1 PUSH0 DUP1 DUP5 PUSH20 0xFFFFFFFFFFFFFFFFFFFFFFFFFFFFFFFFFFFFFFFF AND PUSH20 0xFFFFFFFFFFFFFFFFFFFFFFFFFFFFFFFFFFFFFFFF AND DUP2 MSTORE PUSH1 0x20 ADD SWAP1 DUP2 MSTORE PUSH1 0x20 ADD PUSH0 KECCAK256 PUSH0 DUP6 PUSH20 0xFFFFFFFFFFFFFFFFFFFFFFFFFFFFFFFFFFFFFFFF AND PUSH20 0xFFFFFFFFFFFFFFFFFFFFFFFFFFFFFFFFFFFFFFFF AND DUP2 MSTORE PUSH1 0x20 ADD SWAP1 DUP2 MSTORE PUSH1 0x20 ADD PUSH0 KECCAK256 PUSH0 PUSH2 0x100 EXP DUP2 SLOAD DUP2 PUSH20 0xFFFFFFFFFFFFFFFFFFFFFFFFFFFFFFFFFFFFFFFF MUL NOT AND SWAP1 DUP4 PUSH20 0xFFFFFFFFFFFFFFFFFFFFFFFFFFFFFFFFFFFFFFFF AND MUL OR SWAP1 SSTORE POP PUSH1 0x2 DUP2 SWAP1 DUP1 PUSH1 0x1 DUP2 SLOAD ADD DUP1 DUP3 SSTORE DUP1 SWAP2 POP POP PUSH1 0x1 SWAP1 SUB SWAP1 PUSH0 MSTORE PUSH1 0x20 PUSH0 KECCAK256 ADD PUSH0 SWAP1 SWAP2 SWAP1 SWAP2 SWAP1 SWAP2 PUSH2 0x100 EXP DUP2 SLOAD DUP2 PUSH20 0xFFFFFFFFFFFFFFFFFFFFFFFFFFFFFFFFFFFFFFFF MUL NOT AND SWAP1 DUP4 PUSH20 0xFFFFFFFFFFFFFFFFFFFFFFFFFFFFFFFFFFFFFFFF AND MUL OR SWAP1 SSTORE POP POP POP POP JUMP JUMPDEST PUSH0 DUP2 PUSH20 0xFFFFFFFFFFFFFFFFFFFFFFFFFFFFFFFFFFFFFFFF AND PUSH4 0xDFE1681 PUSH1 0x40 MLOAD DUP2 PUSH4 0xFFFFFFFF AND PUSH1 0xE0 SHL DUP2 MSTORE PUSH1 0x4 ADD PUSH1 0x20 PUSH1 0x40 MLOAD DUP1 DUP4 SUB DUP2 DUP7 GAS STATICCALL ISZERO DUP1 ISZERO PUSH3 0x1191 JUMPI RETURNDATASIZE PUSH0 DUP1 RETURNDATACOPY RETURNDATASIZE PUSH0 REVERT JUMPDEST POP POP POP POP PUSH1 0x40 MLOAD RETURNDATASIZE PUSH1 0x1F NOT PUSH1 0x1F DUP3 ADD AND DUP3 ADD DUP1 PUSH1 0x40 MSTORE POP DUP2 ADD SWAP1 PUSH3 0x11B7 SWAP2 SWAP1 PUSH3 0x2073 JUMP JUMPDEST PUSH20 0xFFFFFFFFFFFFFFFFFFFFFFFFFFFFFFFFFFFFFFFF AND PUSH4 0x95D89B41 PUSH1 0x40 MLOAD DUP2 PUSH4 0xFFFFFFFF AND PUSH1 0xE0 SHL DUP2 MSTORE PUSH1 0x4 ADD PUSH0 PUSH1 0x40 MLOAD DUP1 DUP4 SUB DUP2 DUP7 GAS STATICCALL ISZERO DUP1 ISZERO PUSH3 0x11FF JUMPI RETURNDATASIZE PUSH0 DUP1 RETURNDATACOPY RETURNDATASIZE PUSH0 REVERT JUMPDEST POP POP POP POP PUSH1 0x40 MLOAD RETURNDATASIZE PUSH0 DUP3 RETURNDATACOPY RETURNDATASIZE PUSH1 0x1F NOT PUSH1 0x1F DUP3 ADD AND DUP3 ADD DUP1 PUSH1 0x40 MSTORE POP DUP2 ADD SWAP1 PUSH3 0x1229 SWAP2 SWAP1 PUSH3 0x1D01 JUMP JUMPDEST SWAP1 POP PUSH0 DUP3 PUSH20 0xFFFFFFFFFFFFFFFFFFFFFFFFFFFFFFFFFFFFFFFF AND PUSH4 0xD21220A7 PUSH1 0x40 MLOAD DUP2 PUSH4 0xFFFFFFFF AND PUSH1 0xE0 SHL DUP2 MSTORE PUSH1 0x4 ADD PUSH1 0x20 PUSH1 0x40 MLOAD DUP1 DUP4 SUB DUP2 DUP7 GAS STATICCALL ISZERO DUP1 ISZERO PUSH3 0x1276 JUMPI RETURNDATASIZE PUSH0 DUP1 RETURNDATACOPY RETURNDATASIZE PUSH0 REVERT JUMPDEST POP POP POP POP PUSH1 0x40 MLOAD RETURNDATASIZE PUSH1 0x1F NOT PUSH1 0x1F DUP3 ADD AND DUP3 ADD DUP1 PUSH1 0x40 MSTORE POP DUP2 ADD SWAP1 PUSH3 0x129C SWAP2 SWAP1 PUSH3 0x2073 JUMP JUMPDEST PUSH20 0xFFFFFFFFFFFFFFFFFFFFFFFFFFFFFFFFFFFFFFFF AND PUSH4 0x95D89B41 PUSH1 0x40 MLOAD DUP2 PUSH4 0xFFFFFFFF AND PUSH1 0xE0 SHL DUP2 MSTORE PUSH1 0x4 ADD PUSH0 PUSH1 0x40 MLOAD DUP1 DUP4 SUB DUP2 DUP7 GAS STATICCALL ISZERO DUP1 ISZERO PUSH3 0x12E4 JUMPI RETURNDATASIZE PUSH0 DUP1 RETURNDATACOPY RETURNDATASIZE PUSH0 REVERT JUMPDEST POP POP POP POP PUSH1 0x40 MLOAD RETURNDATASIZE PUSH0 DUP3 RETURNDATACOPY RETURNDATASIZE PUSH1 0x1F NOT PUSH1 0x1F DUP3 ADD AND DUP3 ADD DUP1 PUSH1 0x40 MSTORE POP DUP2 ADD SWAP1 PUSH3 0x130E SWAP2 SWAP1 PUSH3 0x1D01 JUMP JUMPDEST SWAP1 POP PUSH0 DUP3 DUP3 PUSH1 0x40 MLOAD PUSH1 0x20 ADD PUSH3 0x1326 SWAP3 SWAP2 SWAP1 PUSH3 0x20F1 JUMP JUMPDEST PUSH1 0x40 MLOAD PUSH1 0x20 DUP2 DUP4 SUB SUB DUP2 MSTORE SWAP1 PUSH1 0x40 MSTORE SWAP1 POP PUSH1 0x3 DUP2 SWAP1 DUP1 PUSH1 0x1 DUP2 SLOAD ADD DUP1 DUP3 SSTORE DUP1 SWAP2 POP POP PUSH1 0x1 SWAP1 SUB SWAP1 PUSH0 MSTORE PUSH1 0x20 PUSH0 KECCAK256 ADD PUSH0 SWAP1 SWAP2 SWAP1 SWAP2 SWAP1 SWAP2 POP SWAP1 DUP2 PUSH3 0x136A SWAP2 SWAP1 PUSH3 0x22E8 JUMP JUMPDEST POP DUP4 PUSH1 0x1 DUP3 PUSH1 0x40 MLOAD PUSH3 0x137E SWAP2 SWAP1 PUSH3 0x1BFA JUMP JUMPDEST SWAP1 DUP2 MSTORE PUSH1 0x20 ADD PUSH1 0x40 MLOAD DUP1 SWAP2 SUB SWAP1 KECCAK256 PUSH0 PUSH2 0x100 EXP DUP2 SLOAD DUP2 PUSH20 0xFFFFFFFFFFFFFFFFFFFFFFFFFFFFFFFFFFFFFFFF MUL NOT AND SWAP1 DUP4 PUSH20 0xFFFFFFFFFFFFFFFFFFFFFFFFFFFFFFFFFFFFFFFF AND MUL OR SWAP1 SSTORE POP POP POP POP POP JUMP JUMPDEST PUSH0 DUP1 PUSH3 0x13DC DUP4 PUSH3 0x7ED JUMP JUMPDEST SWAP1 POP PUSH3 0x13E9 DUP2 PUSH3 0x13F1 JUMP JUMPDEST SWAP2 POP POP SWAP2 SWAP1 POP JUMP JUMPDEST PUSH0 DUP2 PUSH20 0xFFFFFFFFFFFFFFFFFFFFFFFFFFFFFFFFFFFFFFFF AND PUSH4 0x18160DDD PUSH1 0x40 MLOAD DUP2 PUSH4 0xFFFFFFFF AND PUSH1 0xE0 SHL DUP2 MSTORE PUSH1 0x4 ADD PUSH1 0x20 PUSH1 0x40 MLOAD DUP1 DUP4 SUB DUP2 DUP7 GAS STATICCALL ISZERO DUP1 ISZERO PUSH3 0x143C JUMPI RETURNDATASIZE PUSH0 DUP1 RETURNDATACOPY RETURNDATASIZE PUSH0 REVERT JUMPDEST POP POP POP POP PUSH1 0x40 MLOAD RETURNDATASIZE PUSH1 0x1F NOT PUSH1 0x1F DUP3 ADD AND DUP3 ADD DUP1 PUSH1 0x40 MSTORE POP DUP2 ADD SWAP1 PUSH3 0x1462 SWAP2 SWAP1 PUSH3 0x1C28 JUMP JUMPDEST SWAP1 POP SWAP2 SWAP1 POP JUMP JUMPDEST PUSH2 0x1460 DUP1 PUSH3 0x23CD DUP4 CODECOPY ADD SWAP1 JUMP JUMPDEST PUSH0 DUP2 MLOAD SWAP1 POP SWAP2 SWAP1 POP JUMP JUMPDEST PUSH0 DUP3 DUP3 MSTORE PUSH1 0x20 DUP3 ADD SWAP1 POP SWAP3 SWAP2 POP POP JUMP JUMPDEST PUSH0 DUP2 SWAP1 POP PUSH1 0x20 DUP3 ADD SWAP1 POP SWAP2 SWAP1 POP JUMP JUMPDEST PUSH0 DUP2 MLOAD SWAP1 POP SWAP2 SWAP1 POP JUMP JUMPDEST PUSH0 DUP3 DUP3 MSTORE PUSH1 0x20 DUP3 ADD SWAP1 POP SWAP3 SWAP2 POP POP JUMP JUMPDEST PUSH0 JUMPDEST DUP4 DUP2 LT ISZERO PUSH3 0x14D9 JUMPI DUP1 DUP3 ADD MLOAD DUP2 DUP5 ADD MSTORE PUSH1 0x20 DUP2 ADD SWAP1 POP PUSH3 0x14BC JUMP JUMPDEST PUSH0 DUP5 DUP5 ADD MSTORE POP POP POP POP JUMP JUMPDEST PUSH0 PUSH1 0x1F NOT PUSH1 0x1F DUP4 ADD AND SWAP1 POP SWAP2 SWAP1 POP JUMP JUMPDEST PUSH0 PUSH3 0x1500 DUP3 PUSH3 0x14A0 JUMP JUMPDEST PUSH3 0x150C DUP2 DUP6 PUSH3 0x14AA JUMP JUMPDEST SWAP4 POP PUSH3 0x151E DUP2 DUP6 PUSH1 0x20 DUP7 ADD PUSH3 0x14BA JUMP JUMPDEST PUSH3 0x1529 DUP2 PUSH3 0x14E4 JUMP JUMPDEST DUP5 ADD SWAP2 POP POP SWAP3 SWAP2 POP POP JUMP JUMPDEST PUSH0 PUSH3 0x1541 DUP4 DUP4 PUSH3 0x14F4 JUMP JUMPDEST SWAP1 POP SWAP3 SWAP2 POP POP JUMP JUMPDEST PUSH0 PUSH1 0x20 DUP3 ADD SWAP1 POP SWAP2 SWAP1 POP JUMP JUMPDEST PUSH0 PUSH3 0x1561 DUP3 PUSH3 0x1477 JUMP JUMPDEST PUSH3 0x156D DUP2 DUP6 PUSH3 0x1481 JUMP JUMPDEST SWAP4 POP DUP4 PUSH1 0x20 DUP3 MUL DUP6 ADD PUSH3 0x1581 DUP6 PUSH3 0x1491 JUMP JUMPDEST DUP1 PUSH0 JUMPDEST DUP6 DUP2 LT ISZERO PUSH3 0x15C2 JUMPI DUP5 DUP5 SUB DUP10 MSTORE DUP2 MLOAD PUSH3 0x15A0 DUP6 DUP3 PUSH3 0x1534 JUMP JUMPDEST SWAP5 POP PUSH3 0x15AD DUP4 PUSH3 0x1549 JUMP JUMPDEST SWAP3 POP PUSH1 0x20 DUP11 ADD SWAP10 POP POP PUSH1 0x1 DUP2 ADD SWAP1 POP PUSH3 0x1584 JUMP JUMPDEST POP DUP3 SWAP8 POP DUP8 SWAP6 POP POP POP POP POP POP SWAP3 SWAP2 POP POP JUMP JUMPDEST PUSH0 PUSH1 0x20 DUP3 ADD SWAP1 POP DUP2 DUP2 SUB PUSH0 DUP4 ADD MSTORE PUSH3 0x15EE DUP2 DUP5 PUSH3 0x1555 JUMP JUMPDEST SWAP1 POP SWAP3 SWAP2 POP POP JUMP JUMPDEST PUSH0 PUSH1 0x40 MLOAD SWAP1 POP SWAP1 JUMP JUMPDEST PUSH0 DUP1 REVERT JUMPDEST PUSH0 DUP1 REVERT JUMPDEST PUSH0 DUP1 REVERT JUMPDEST PUSH0 DUP1 REVERT JUMPDEST PUSH32 0x4E487B7100000000000000000000000000000000000000000000000000000000 PUSH0 MSTORE PUSH1 0x41 PUSH1 0x4 MSTORE PUSH1 0x24 PUSH0 REVERT JUMPDEST PUSH3 0x1647 DUP3 PUSH3 0x14E4 JUMP JUMPDEST DUP2 ADD DUP2 DUP2 LT PUSH8 0xFFFFFFFFFFFFFFFF DUP3 GT OR ISZERO PUSH3 0x1669 JUMPI PUSH3 0x1668 PUSH3 0x160F JUMP JUMPDEST JUMPDEST DUP1 PUSH1 0x40 MSTORE POP POP POP JUMP JUMPDEST PUSH0 PUSH3 0x167D PUSH3 0x15F6 JUMP JUMPDEST SWAP1 POP PUSH3 0x168B DUP3 DUP3 PUSH3 0x163C JUMP JUMPDEST SWAP2 SWAP1 POP JUMP JUMPDEST PUSH0 PUSH8 0xFFFFFFFFFFFFFFFF DUP3 GT ISZERO PUSH3 0x16AD JUMPI PUSH3 0x16AC PUSH3 0x160F JUMP JUMPDEST JUMPDEST PUSH3 0x16B8 DUP3 PUSH3 0x14E4 JUMP JUMPDEST SWAP1 POP PUSH1 0x20 DUP2 ADD SWAP1 POP SWAP2 SWAP1 POP JUMP JUMPDEST DUP3 DUP2 DUP4 CALLDATACOPY PUSH0 DUP4 DUP4 ADD MSTORE POP POP POP JUMP JUMPDEST PUSH0 PUSH3 0x16E9 PUSH3 0x16E3 DUP5 PUSH3 0x1690 JUMP JUMPDEST PUSH3 0x1672 JUMP JUMPDEST SWAP1 POP DUP3 DUP2 MSTORE PUSH1 0x20 DUP2 ADD DUP5 DUP5 DUP5 ADD GT ISZERO PUSH3 0x1708 JUMPI PUSH3 0x1707 PUSH3 0x160B JUMP JUMPDEST JUMPDEST PUSH3 0x1715 DUP5 DUP3 DUP6 PUSH3 0x16C5 JUMP JUMPDEST POP SWAP4 SWAP3 POP POP POP JUMP JUMPDEST PUSH0 DUP3 PUSH1 0x1F DUP4 ADD SLT PUSH3 0x1734 JUMPI PUSH3 0x1733 PUSH3 0x1607 JUMP JUMPDEST JUMPDEST DUP2 CALLDATALOAD PUSH3 0x1746 DUP5 DUP3 PUSH1 0x20 DUP7 ADD PUSH3 0x16D3 JUMP JUMPDEST SWAP2 POP POP SWAP3 SWAP2 POP POP JUMP JUMPDEST PUSH0 PUSH1 0x20 DUP3 DUP5 SUB SLT ISZERO PUSH3 0x1767 JUMPI PUSH3 0x1766 PUSH3 0x15FF JUMP JUMPDEST JUMPDEST PUSH0 DUP3 ADD CALLDATALOAD PUSH8 0xFFFFFFFFFFFFFFFF DUP2 GT ISZERO PUSH3 0x1787 JUMPI PUSH3 0x1786 PUSH3 0x1603 JUMP JUMPDEST JUMPDEST PUSH3 0x1795 DUP5 DUP3 DUP6 ADD PUSH3 0x171D JUMP JUMPDEST SWAP2 POP POP SWAP3 SWAP2 POP POP JUMP JUMPDEST PUSH0 PUSH20 0xFFFFFFFFFFFFFFFFFFFFFFFFFFFFFFFFFFFFFFFF DUP3 AND SWAP1 POP SWAP2 SWAP1 POP JUMP JUMPDEST PUSH0 PUSH3 0x17C9 DUP3 PUSH3 0x179E JUMP JUMPDEST SWAP1 POP SWAP2 SWAP1 POP JUMP JUMPDEST PUSH3 0x17DB DUP2 PUSH3 0x17BD JUMP JUMPDEST DUP3 MSTORE POP POP JUMP JUMPDEST PUSH0 PUSH1 0x40 DUP3 ADD SWAP1 POP PUSH3 0x17F6 PUSH0 DUP4 ADD DUP6 PUSH3 0x17D0 JUMP JUMPDEST PUSH3 0x1805 PUSH1 0x20 DUP4 ADD DUP5 PUSH3 0x17D0 JUMP JUMPDEST SWAP4 SWAP3 POP POP POP JUMP JUMPDEST PUSH3 0x1817 DUP2 PUSH3 0x17BD JUMP JUMPDEST DUP2 EQ PUSH3 0x1822 JUMPI PUSH0 DUP1 REVERT JUMPDEST POP JUMP JUMPDEST PUSH0 DUP2 CALLDATALOAD SWAP1 POP PUSH3 0x1835 DUP2 PUSH3 0x180C JUMP JUMPDEST SWAP3 SWAP2 POP POP JUMP JUMPDEST PUSH0 DUP1 PUSH1 0x40 DUP4 DUP6 SUB SLT ISZERO PUSH3 0x1854 JUMPI PUSH3 0x1853 PUSH3 0x15FF JUMP JUMPDEST JUMPDEST PUSH0 DUP4 ADD CALLDATALOAD PUSH8 0xFFFFFFFFFFFFFFFF DUP2 GT ISZERO PUSH3 0x1874 JUMPI PUSH3 0x1873 PUSH3 0x1603 JUMP JUMPDEST JUMPDEST PUSH3 0x1882 DUP6 DUP3 DUP7 ADD PUSH3 0x171D JUMP JUMPDEST SWAP3 POP POP PUSH1 0x20 PUSH3 0x1895 DUP6 DUP3 DUP7 ADD PUSH3 0x1825 JUMP JUMPDEST SWAP2 POP POP SWAP3 POP SWAP3 SWAP1 POP JUMP JUMPDEST PUSH0 DUP2 SWAP1 POP SWAP2 SWAP1 POP JUMP JUMPDEST PUSH3 0x18B3 DUP2 PUSH3 0x189F JUMP JUMPDEST DUP3 MSTORE POP POP JUMP JUMPDEST PUSH0 PUSH1 0x20 DUP3 ADD SWAP1 POP PUSH3 0x18CE PUSH0 DUP4 ADD DUP5 PUSH3 0x18A8 JUMP JUMPDEST SWAP3 SWAP2 POP POP JUMP JUMPDEST PUSH0 PUSH1 0x40 DUP3 ADD SWAP1 POP PUSH3 0x18E9 PUSH0 DUP4 ADD DUP6 PUSH3 0x18A8 JUMP JUMPDEST PUSH3 0x18F8 PUSH1 0x20 DUP4 ADD DUP5 PUSH3 0x18A8 JUMP JUMPDEST SWAP4 SWAP3 POP POP POP JUMP JUMPDEST PUSH3 0x190A DUP2 PUSH3 0x189F JUMP JUMPDEST DUP2 EQ PUSH3 0x1915 JUMPI PUSH0 DUP1 REVERT JUMPDEST POP JUMP JUMPDEST PUSH0 DUP2 CALLDATALOAD SWAP1 POP PUSH3 0x1928 DUP2 PUSH3 0x18FF JUMP JUMPDEST SWAP3 SWAP2 POP POP JUMP JUMPDEST PUSH0 PUSH1 0x20 DUP3 DUP5 SUB SLT ISZERO PUSH3 0x1946 JUMPI PUSH3 0x1945 PUSH3 0x15FF JUMP JUMPDEST JUMPDEST PUSH0 PUSH3 0x1955 DUP5 DUP3 DUP6 ADD PUSH3 0x1918 JUMP JUMPDEST SWAP2 POP POP SWAP3 SWAP2 POP POP JUMP JUMPDEST PUSH0 PUSH1 0x20 DUP3 ADD SWAP1 POP PUSH3 0x1973 PUSH0 DUP4 ADD DUP5 PUSH3 0x17D0 JUMP JUMPDEST SWAP3 SWAP2 POP POP JUMP JUMPDEST PUSH0 DUP3 DUP3 MSTORE PUSH1 0x20 DUP3 ADD SWAP1 POP SWAP3 SWAP2 POP POP JUMP JUMPDEST PUSH0 PUSH3 0x1995 DUP3 PUSH3 0x14A0 JUMP JUMPDEST PUSH3 0x19A1 DUP2 DUP6 PUSH3 0x1979 JUMP JUMPDEST SWAP4 POP PUSH3 0x19B3 DUP2 DUP6 PUSH1 0x20 DUP7 ADD PUSH3 0x14BA JUMP JUMPDEST PUSH3 0x19BE DUP2 PUSH3 0x14E4 JUMP JUMPDEST DUP5 ADD SWAP2 POP POP SWAP3 SWAP2 POP POP JUMP JUMPDEST PUSH0 PUSH1 0x40 DUP3 ADD SWAP1 POP DUP2 DUP2 SUB PUSH0 DUP4 ADD MSTORE PUSH3 0x19E3 DUP2 DUP6 PUSH3 0x1989 JUMP JUMPDEST SWAP1 POP DUP2 DUP2 SUB PUSH1 0x20 DUP4 ADD MSTORE PUSH3 0x19F9 DUP2 DUP5 PUSH3 0x1989 JUMP JUMPDEST SWAP1 POP SWAP4 SWAP3 POP POP POP JUMP JUMPDEST PUSH0 PUSH1 0x60 DUP3 ADD SWAP1 POP DUP2 DUP2 SUB PUSH0 DUP4 ADD MSTORE PUSH3 0x1A1C DUP2 DUP7 PUSH3 0x1989 JUMP JUMPDEST SWAP1 POP PUSH3 0x1A2D PUSH1 0x20 DUP4 ADD DUP6 PUSH3 0x17D0 JUMP JUMPDEST PUSH3 0x1A3C PUSH1 0x40 DUP4 ADD DUP5 PUSH3 0x17D0 JUMP JUMPDEST SWAP5 SWAP4 POP POP POP POP JUMP JUMPDEST PUSH0 PUSH1 0x20 DUP3 DUP5 SUB SLT ISZERO PUSH3 0x1A5C JUMPI PUSH3 0x1A5B PUSH3 0x15FF JUMP JUMPDEST JUMPDEST PUSH0 PUSH3 0x1A6B DUP5 DUP3 DUP6 ADD PUSH3 0x1825 JUMP JUMPDEST SWAP2 POP POP SWAP3 SWAP2 POP POP JUMP JUMPDEST PUSH0 DUP1 PUSH1 0x40 DUP4 DUP6 SUB SLT ISZERO PUSH3 0x1A8D JUMPI PUSH3 0x1A8C PUSH3 0x15FF JUMP JUMPDEST JUMPDEST PUSH0 PUSH3 0x1A9C DUP6 DUP3 DUP7 ADD PUSH3 0x1825 JUMP JUMPDEST SWAP3 POP POP PUSH1 0x20 PUSH3 0x1AAF DUP6 DUP3 DUP7 ADD PUSH3 0x1825 JUMP JUMPDEST SWAP2 POP POP SWAP3 POP SWAP3 SWAP1 POP JUMP JUMPDEST PUSH0 PUSH4 0xFFFFFFFF DUP3 AND SWAP1 POP SWAP2 SWAP1 POP JUMP JUMPDEST PUSH3 0x1AD3 DUP2 PUSH3 0x1AB9 JUMP JUMPDEST DUP3 MSTORE POP POP JUMP JUMPDEST PUSH0 PUSH1 0x40 DUP3 ADD SWAP1 POP PUSH3 0x1AEE PUSH0 DUP4 ADD DUP6 PUSH3 0x1AC8 JUMP JUMPDEST PUSH3 0x1AFD PUSH1 0x20 DUP4 ADD DUP5 PUSH3 0x18A8 JUMP JUMPDEST SWAP4 SWAP3 POP POP POP JUMP JUMPDEST PUSH0 PUSH14 0xFFFFFFFFFFFFFFFFFFFFFFFFFFFF DUP3 AND SWAP1 POP SWAP2 SWAP1 POP JUMP JUMPDEST PUSH3 0x1B28 DUP2 PUSH3 0x1B04 JUMP JUMPDEST DUP3 MSTORE POP POP JUMP JUMPDEST PUSH0 PUSH1 0x40 DUP3 ADD SWAP1 POP PUSH3 0x1B43 PUSH0 DUP4 ADD DUP6 PUSH3 0x1B1D JUMP JUMPDEST PUSH3 0x1B52 PUSH1 0x20 DUP4 ADD DUP5 PUSH3 0x1B1D JUMP JUMPDEST SWAP4 SWAP3 POP POP POP JUMP JUMPDEST PUSH32 0x4E487B7100000000000000000000000000000000000000000000000000000000 PUSH0 MSTORE PUSH1 0x22 PUSH1 0x4 MSTORE PUSH1 0x24 PUSH0 REVERT JUMPDEST PUSH0 PUSH1 0x2 DUP3 DIV SWAP1 POP PUSH1 0x1 DUP3 AND DUP1 PUSH3 0x1B9E JUMPI PUSH1 0x7F DUP3 AND SWAP2 POP JUMPDEST PUSH1 0x20 DUP3 LT DUP2 SUB PUSH3 0x1BB4 JUMPI PUSH3 0x1BB3 PUSH3 0x1B59 JUMP JUMPDEST JUMPDEST POP SWAP2 SWAP1 POP JUMP JUMPDEST PUSH0 DUP2 SWAP1 POP SWAP3 SWAP2 POP POP JUMP JUMPDEST PUSH0 PUSH3 0x1BD0 DUP3 PUSH3 0x14A0 JUMP JUMPDEST PUSH3 0x1BDC DUP2 DUP6 PUSH3 0x1BBA JUMP JUMPDEST SWAP4 POP PUSH3 0x1BEE DUP2 DUP6 PUSH1 0x20 DUP7 ADD PUSH3 0x14BA JUMP JUMPDEST DUP1 DUP5 ADD SWAP2 POP POP SWAP3 SWAP2 POP POP JUMP JUMPDEST PUSH0 PUSH3 0x1C07 DUP3 DUP5 PUSH3 0x1BC4 JUMP JUMPDEST SWAP2 POP DUP2 SWAP1 POP SWAP3 SWAP2 POP POP JUMP JUMPDEST PUSH0 DUP2 MLOAD SWAP1 POP PUSH3 0x1C22 DUP2 PUSH3 0x18FF JUMP JUMPDEST SWAP3 SWAP2 POP POP JUMP JUMPDEST PUSH0 PUSH1 0x20 DUP3 DUP5 SUB SLT ISZERO PUSH3 0x1C40 JUMPI PUSH3 0x1C3F PUSH3 0x15FF JUMP JUMPDEST JUMPDEST PUSH0 PUSH3 0x1C4F DUP5 DUP3 DUP6 ADD PUSH3 0x1C12 JUMP JUMPDEST SWAP2 POP POP SWAP3 SWAP2 POP POP JUMP JUMPDEST PUSH32 0x4E487B7100000000000000000000000000000000000000000000000000000000 PUSH0 MSTORE PUSH1 0x32 PUSH1 0x4 MSTORE PUSH1 0x24 PUSH0 REVERT JUMPDEST PUSH0 PUSH3 0x1C9B PUSH3 0x1C95 DUP5 PUSH3 0x1690 JUMP JUMPDEST PUSH3 0x1672 JUMP JUMPDEST SWAP1 POP DUP3 DUP2 MSTORE PUSH1 0x20 DUP2 ADD DUP5 DUP5 DUP5 ADD GT ISZERO PUSH3 0x1CBA JUMPI PUSH3 0x1CB9 PUSH3 0x160B JUMP JUMPDEST JUMPDEST PUSH3 0x1CC7 DUP5 DUP3 DUP6 PUSH3 0x14BA JUMP JUMPDEST POP SWAP4 SWAP3 POP POP POP JUMP JUMPDEST PUSH0 DUP3 PUSH1 0x1F DUP4 ADD SLT PUSH3 0x1CE6 JUMPI PUSH3 0x1CE5 PUSH3 0x1607 JUMP JUMPDEST JUMPDEST DUP2 MLOAD PUSH3 0x1CF8 DUP5 DUP3 PUSH1 0x20 DUP7 ADD PUSH3 0x1C85 JUMP JUMPDEST SWAP2 POP POP SWAP3 SWAP2 POP POP JUMP JUMPDEST PUSH0 PUSH1 0x20 DUP3 DUP5 SUB SLT ISZERO PUSH3 0x1D19 JUMPI PUSH3 0x1D18 PUSH3 0x15FF JUMP JUMPDEST JUMPDEST PUSH0 DUP3 ADD MLOAD PUSH8 0xFFFFFFFFFFFFFFFF DUP2 GT ISZERO PUSH3 0x1D39 JUMPI PUSH3 0x1D38 PUSH3 0x1603 JUMP JUMPDEST JUMPDEST PUSH3 0x1D47 DUP5 DUP3 DUP6 ADD PUSH3 0x1CCF JUMP JUMPDEST SWAP2 POP POP SWAP3 SWAP2 POP POP JUMP JUMPDEST PUSH32 0x5553445400000000000000000000000000000000000000000000000000000000 PUSH0 DUP3 ADD MSTORE POP JUMP JUMPDEST PUSH0 PUSH3 0x1D86 PUSH1 0x4 DUP4 PUSH3 0x1979 JUMP JUMPDEST SWAP2 POP PUSH3 0x1D93 DUP3 PUSH3 0x1D50 JUMP JUMPDEST PUSH1 0x20 DUP3 ADD SWAP1 POP SWAP2 SWAP1 POP JUMP JUMPDEST PUSH0 PUSH1 0x20 DUP3 ADD SWAP1 POP DUP2 DUP2 SUB PUSH0 DUP4 ADD MSTORE PUSH3 0x1DB7 DUP2 PUSH3 0x1D78 JUMP JUMPDEST SWAP1 POP SWAP2 SWAP1 POP JUMP JUMPDEST PUSH0 PUSH1 0x20 DUP3 ADD SWAP1 POP DUP2 DUP2 SUB PUSH0 DUP4 ADD MSTORE PUSH3 0x1DD8 DUP2 DUP5 PUSH3 0x1989 JUMP JUMPDEST SWAP1 POP SWAP3 SWAP2 POP POP JUMP JUMPDEST PUSH32 0x466163746F72793A20746F6B656E20657175616C20746F6B656E210000000000 PUSH0 DUP3 ADD MSTORE POP JUMP JUMPDEST PUSH0 PUSH3 0x1E16 PUSH1 0x1B DUP4 PUSH3 0x1979 JUMP JUMPDEST SWAP2 POP PUSH3 0x1E23 DUP3 PUSH3 0x1DE0 JUMP JUMPDEST PUSH1 0x20 DUP3 ADD SWAP1 POP SWAP2 SWAP1 POP JUMP JUMPDEST PUSH0 PUSH1 0x20 DUP3 ADD SWAP1 POP DUP2 DUP2 SUB PUSH0 DUP4 ADD MSTORE PUSH3 0x1E47 DUP2 PUSH3 0x1E08 JUMP JUMPDEST SWAP1 POP SWAP2 SWAP1 POP JUMP JUMPDEST PUSH32 0x466163746F72793A2061646472657373206F6620746F6B656E20657175616C20 PUSH0 DUP3 ADD MSTORE PUSH32 0x7A65726F21000000000000000000000000000000000000000000000000000000 PUSH1 0x20 DUP3 ADD MSTORE POP JUMP JUMPDEST PUSH0 PUSH3 0x1EAA PUSH1 0x25 DUP4 PUSH3 0x1979 JUMP JUMPDEST SWAP2 POP PUSH3 0x1EB7 DUP3 PUSH3 0x1E4E JUMP JUMPDEST PUSH1 0x40 DUP3 ADD SWAP1 POP SWAP2 SWAP1 POP JUMP JUMPDEST PUSH0 PUSH1 0x20 DUP3 ADD SWAP1 POP DUP2 DUP2 SUB PUSH0 DUP4 ADD MSTORE PUSH3 0x1EDB DUP2 PUSH3 0x1E9C JUMP JUMPDEST SWAP1 POP SWAP2 SWAP1 POP JUMP JUMPDEST PUSH32 0x4E487B7100000000000000000000000000000000000000000000000000000000 PUSH0 MSTORE PUSH1 0x11 PUSH1 0x4 MSTORE PUSH1 0x24 PUSH0 REVERT JUMPDEST PUSH0 PUSH3 0x1F1B DUP3 PUSH3 0x189F JUMP JUMPDEST SWAP2 POP PUSH3 0x1F28 DUP4 PUSH3 0x189F JUMP JUMPDEST SWAP3 POP DUP3 DUP3 MUL PUSH3 0x1F38 DUP2 PUSH3 0x189F JUMP JUMPDEST SWAP2 POP DUP3 DUP3 DIV DUP5 EQ DUP4 ISZERO OR PUSH3 0x1F52 JUMPI PUSH3 0x1F51 PUSH3 0x1EE2 JUMP JUMPDEST JUMPDEST POP SWAP3 SWAP2 POP POP JUMP JUMPDEST PUSH32 0x4E487B7100000000000000000000000000000000000000000000000000000000 PUSH0 MSTORE PUSH1 0x12 PUSH1 0x4 MSTORE PUSH1 0x24 PUSH0 REVERT JUMPDEST PUSH0 PUSH3 0x1F92 DUP3 PUSH3 0x189F JUMP JUMPDEST SWAP2 POP PUSH3 0x1F9F DUP4 PUSH3 0x189F JUMP JUMPDEST SWAP3 POP DUP3 PUSH3 0x1FB2 JUMPI PUSH3 0x1FB1 PUSH3 0x1F59 JUMP JUMPDEST JUMPDEST DUP3 DUP3 DIV SWAP1 POP SWAP3 SWAP2 POP POP JUMP JUMPDEST PUSH3 0x1FC8 DUP2 PUSH3 0x1B04 JUMP JUMPDEST DUP2 EQ PUSH3 0x1FD3 JUMPI PUSH0 DUP1 REVERT JUMPDEST POP JUMP JUMPDEST PUSH0 DUP2 MLOAD SWAP1 POP PUSH3 0x1FE6 DUP2 PUSH3 0x1FBD JUMP JUMPDEST SWAP3 SWAP2 POP POP JUMP JUMPDEST PUSH0 DUP1 PUSH1 0x40 DUP4 DUP6 SUB SLT ISZERO PUSH3 0x2005 JUMPI PUSH3 0x2004 PUSH3 0x15FF JUMP JUMPDEST JUMPDEST PUSH0 PUSH3 0x2014 DUP6 DUP3 DUP7 ADD PUSH3 0x1FD6 JUMP JUMPDEST SWAP3 POP POP PUSH1 0x20 PUSH3 0x2027 DUP6 DUP3 DUP7 ADD PUSH3 0x1FD6 JUMP JUMPDEST SWAP2 POP POP SWAP3 POP SWAP3 SWAP1 POP JUMP JUMPDEST PUSH0 PUSH3 0x203D DUP3 PUSH3 0x17BD JUMP JUMPDEST SWAP1 POP SWAP2 SWAP1 POP JUMP JUMPDEST PUSH3 0x204F DUP2 PUSH3 0x2031 JUMP JUMPDEST DUP2 EQ PUSH3 0x205A JUMPI PUSH0 DUP1 REVERT JUMPDEST POP JUMP JUMPDEST PUSH0 DUP2 MLOAD SWAP1 POP PUSH3 0x206D DUP2 PUSH3 0x2044 JUMP JUMPDEST SWAP3 SWAP2 POP POP JUMP JUMPDEST PUSH0 PUSH1 0x20 DUP3 DUP5 SUB SLT ISZERO PUSH3 0x208B JUMPI PUSH3 0x208A PUSH3 0x15FF JUMP JUMPDEST JUMPDEST PUSH0 PUSH3 0x209A DUP5 DUP3 DUP6 ADD PUSH3 0x205D JUMP JUMPDEST SWAP2 POP POP SWAP3 SWAP2 POP POP JUMP JUMPDEST PUSH32 0x202F200000000000000000000000000000000000000000000000000000000000 PUSH0 DUP3 ADD MSTORE POP JUMP JUMPDEST PUSH0 PUSH3 0x20D9 PUSH1 0x3 DUP4 PUSH3 0x1BBA JUMP JUMPDEST SWAP2 POP PUSH3 0x20E6 DUP3 PUSH3 0x20A3 JUMP JUMPDEST PUSH1 0x3 DUP3 ADD SWAP1 POP SWAP2 SWAP1 POP JUMP JUMPDEST PUSH0 PUSH3 0x20FE DUP3 DUP6 PUSH3 0x1BC4 JUMP JUMPDEST SWAP2 POP PUSH3 0x210B DUP3 PUSH3 0x20CB JUMP JUMPDEST SWAP2 POP PUSH3 0x2119 DUP3 DUP5 PUSH3 0x1BC4 JUMP JUMPDEST SWAP2 POP DUP2 SWAP1 POP SWAP4 SWAP3 POP POP POP JUMP JUMPDEST PUSH0 DUP2 SWAP1 POP DUP2 PUSH0 MSTORE PUSH1 0x20 PUSH0 KECCAK256 SWAP1 POP SWAP2 SWAP1 POP JUMP JUMPDEST PUSH0 PUSH1 0x20 PUSH1 0x1F DUP4 ADD DIV SWAP1 POP SWAP2 SWAP1 POP JUMP JUMPDEST PUSH0 DUP3 DUP3 SHL SWAP1 POP SWAP3 SWAP2 POP POP JUMP JUMPDEST PUSH0 PUSH1 0x8 DUP4 MUL PUSH3 0x2183 PUSH32 0xFFFFFFFFFFFFFFFFFFFFFFFFFFFFFFFFFFFFFFFFFFFFFFFFFFFFFFFFFFFFFFFF DUP3 PUSH3 0x2146 JUMP JUMPDEST PUSH3 0x218F DUP7 DUP4 PUSH3 0x2146 JUMP JUMPDEST SWAP6 POP DUP1 NOT DUP5 AND SWAP4 POP DUP1 DUP7 AND DUP5 OR SWAP3 POP POP POP SWAP4 SWAP3 POP POP POP JUMP JUMPDEST PUSH0 DUP2 SWAP1 POP SWAP2 SWAP1 POP JUMP JUMPDEST PUSH0 PUSH3 0x21D0 PUSH3 0x21CA PUSH3 0x21C4 DUP5 PUSH3 0x189F JUMP JUMPDEST PUSH3 0x21A7 JUMP JUMPDEST PUSH3 0x189F JUMP JUMPDEST SWAP1 POP SWAP2 SWAP1 POP JUMP JUMPDEST PUSH0 DUP2 SWAP1 POP SWAP2 SWAP1 POP JUMP JUMPDEST PUSH3 0x21EB DUP4 PUSH3 0x21B0 JUMP JUMPDEST PUSH3 0x2203 PUSH3 0x21FA DUP3 PUSH3 0x21D7 JUMP JUMPDEST DUP5 DUP5 SLOAD PUSH3 0x2152 JUMP JUMPDEST DUP3 SSTORE POP POP POP POP JUMP JUMPDEST PUSH0 SWAP1 JUMP JUMPDEST PUSH3 0x2219 PUSH3 0x220B JUMP JUMPDEST PUSH3 0x2226 DUP2 DUP5 DUP5 PUSH3 0x21E0 JUMP JUMPDEST POP POP POP JUMP JUMPDEST JUMPDEST DUP2 DUP2 LT ISZERO PUSH3 0x224D JUMPI PUSH3 0x2241 PUSH0 DUP3 PUSH3 0x220F JUMP JUMPDEST PUSH1 0x1 DUP2 ADD SWAP1 POP PUSH3 0x222C JUMP JUMPDEST POP POP JUMP JUMPDEST PUSH1 0x1F DUP3 GT ISZERO PUSH3 0x229C JUMPI PUSH3 0x2266 DUP2 PUSH3 0x2125 JUMP JUMPDEST PUSH3 0x2271 DUP5 PUSH3 0x2137 JUMP JUMPDEST DUP2 ADD PUSH1 0x20 DUP6 LT ISZERO PUSH3 0x2281 JUMPI DUP2 SWAP1 POP JUMPDEST PUSH3 0x2299 PUSH3 0x2290 DUP6 PUSH3 0x2137 JUMP JUMPDEST DUP4 ADD DUP3 PUSH3 0x222B JUMP JUMPDEST POP POP JUMPDEST POP POP POP JUMP JUMPDEST PUSH0 DUP3 DUP3 SHR SWAP1 POP SWAP3 SWAP2 POP POP JUMP JUMPDEST PUSH0 PUSH3 0x22BE PUSH0 NOT DUP5 PUSH1 0x8 MUL PUSH3 0x22A1 JUMP JUMPDEST NOT DUP1 DUP4 AND SWAP2 POP POP SWAP3 SWAP2 POP POP JUMP JUMPDEST PUSH0 PUSH3 0x22D8 DUP4 DUP4 PUSH3 0x22AD JUMP JUMPDEST SWAP2 POP DUP3 PUSH1 0x2 MUL DUP3 OR SWAP1 POP SWAP3 SWAP2 POP POP JUMP JUMPDEST PUSH3 0x22F3 DUP3 PUSH3 0x14A0 JUMP JUMPDEST PUSH8 0xFFFFFFFFFFFFFFFF DUP2 GT ISZERO PUSH3 0x230F JUMPI PUSH3 0x230E PUSH3 0x160F JUMP JUMPDEST JUMPDEST PUSH3 0x231B DUP3 SLOAD PUSH3 0x1B86 JUMP JUMPDEST PUSH3 0x2328 DUP3 DUP3 DUP6 PUSH3 0x2251 JUMP JUMPDEST PUSH0 PUSH1 0x20 SWAP1 POP PUSH1 0x1F DUP4 GT PUSH1 0x1 DUP2 EQ PUSH3 0x235E JUMPI PUSH0 DUP5 ISZERO PUSH3 0x2349 JUMPI DUP3 DUP8 ADD MLOAD SWAP1 POP JUMPDEST PUSH3 0x2355 DUP6 DUP3 PUSH3 0x22CB JUMP JUMPDEST DUP7 SSTORE POP PUSH3 0x23C4 JUMP JUMPDEST PUSH1 0x1F NOT DUP5 AND PUSH3 0x236E DUP7 PUSH3 0x2125 JUMP JUMPDEST PUSH0 JUMPDEST DUP3 DUP2 LT ISZERO PUSH3 0x2397 JUMPI DUP5 DUP10 ADD MLOAD DUP3 SSTORE PUSH1 0x1 DUP3 ADD SWAP2 POP PUSH1 0x20 DUP6 ADD SWAP5 POP PUSH1 0x20 DUP2 ADD SWAP1 POP PUSH3 0x2370 JUMP JUMPDEST DUP7 DUP4 LT ISZERO PUSH3 0x23B7 JUMPI DUP5 DUP10 ADD MLOAD PUSH3 0x23B3 PUSH1 0x1F DUP10 AND DUP3 PUSH3 0x22AD JUMP JUMPDEST DUP4 SSTORE POP JUMPDEST PUSH1 0x1 PUSH1 0x2 DUP9 MUL ADD DUP9 SSTORE POP POP POP JUMPDEST POP POP POP POP POP POP JUMP INVALID PUSH1 0x80 PUSH1 0x40 MSTORE CALLVALUE DUP1 ISZERO PUSH3 0x10 JUMPI PUSH0 DUP1 REVERT JUMPDEST POP PUSH1 0x40 MLOAD PUSH3 0x1460 CODESIZE SUB DUP1 PUSH3 0x1460 DUP4 CODECOPY DUP2 DUP2 ADD PUSH1 0x40 MSTORE DUP2 ADD SWAP1 PUSH3 0x36 SWAP2 SWAP1 PUSH3 0x184 JUMP JUMPDEST DUP2 PUSH1 0x3 PUSH0 PUSH2 0x100 EXP DUP2 SLOAD DUP2 PUSH20 0xFFFFFFFFFFFFFFFFFFFFFFFFFFFFFFFFFFFFFFFF MUL NOT AND SWAP1 DUP4 PUSH20 0xFFFFFFFFFFFFFFFFFFFFFFFFFFFFFFFFFFFFFFFF AND MUL OR SWAP1 SSTORE POP DUP1 PUSH1 0x4 PUSH0 PUSH2 0x100 EXP DUP2 SLOAD DUP2 PUSH20 0xFFFFFFFFFFFFFFFFFFFFFFFFFFFFFFFFFFFFFFFF MUL NOT AND SWAP1 DUP4 PUSH20 0xFFFFFFFFFFFFFFFFFFFFFFFFFFFFFFFFFFFFFFFF AND MUL OR SWAP1 SSTORE POP CALLER PUSH1 0x2 PUSH0 PUSH2 0x100 EXP DUP2 SLOAD DUP2 PUSH20 0xFFFFFFFFFFFFFFFFFFFFFFFFFFFFFFFFFFFFFFFF MUL NOT AND SWAP1 DUP4 PUSH20 0xFFFFFFFFFFFFFFFFFFFFFFFFFFFFFFFFFFFFFFFF AND MUL OR SWAP1 SSTORE POP TIMESTAMP PUSH1 0x5 PUSH1 0x1C PUSH2 0x100 EXP DUP2 SLOAD DUP2 PUSH4 0xFFFFFFFF MUL NOT AND SWAP1 DUP4 PUSH4 0xFFFFFFFF AND MUL OR SWAP1 SSTORE POP POP POP PUSH3 0x1C9 JUMP JUMPDEST PUSH0 DUP1 REVERT JUMPDEST PUSH0 PUSH20 0xFFFFFFFFFFFFFFFFFFFFFFFFFFFFFFFFFFFFFFFF DUP3 AND SWAP1 POP SWAP2 SWAP1 POP JUMP JUMPDEST PUSH0 PUSH3 0x14E DUP3 PUSH3 0x123 JUMP JUMPDEST SWAP1 POP SWAP2 SWAP1 POP JUMP JUMPDEST PUSH3 0x160 DUP2 PUSH3 0x142 JUMP JUMPDEST DUP2 EQ PUSH3 0x16B JUMPI PUSH0 DUP1 REVERT JUMPDEST POP JUMP JUMPDEST PUSH0 DUP2 MLOAD SWAP1 POP PUSH3 0x17E DUP2 PUSH3 0x155 JUMP JUMPDEST SWAP3 SWAP2 POP POP JUMP JUMPDEST PUSH0 DUP1 PUSH1 0x40 DUP4 DUP6 SUB SLT ISZERO PUSH3 0x19D JUMPI PUSH3 0x19C PUSH3 0x11F JUMP JUMPDEST JUMPDEST PUSH0 PUSH3 0x1AC DUP6 DUP3 DUP7 ADD PUSH3 0x16E JUMP JUMPDEST SWAP3 POP POP PUSH1 0x20 PUSH3 0x1BF DUP6 DUP3 DUP7 ADD PUSH3 0x16E JUMP JUMPDEST SWAP2 POP POP SWAP3 POP SWAP3 SWAP1 POP JUMP JUMPDEST PUSH2 0x1289 DUP1 PUSH3 0x1D7 PUSH0 CODECOPY PUSH0 RETURN INVALID PUSH1 0x80 PUSH1 0x40 MSTORE CALLVALUE DUP1 ISZERO PUSH2 0xF JUMPI PUSH0 DUP1 REVERT JUMPDEST POP PUSH1 0x4 CALLDATASIZE LT PUSH2 0xFE JUMPI PUSH0 CALLDATALOAD PUSH1 0xE0 SHR DUP1 PUSH4 0x59962DEF GT PUSH2 0x95 JUMPI DUP1 PUSH4 0xB5764800 GT PUSH2 0x64 JUMPI DUP1 PUSH4 0xB5764800 EQ PUSH2 0x29B JUMPI DUP1 PUSH4 0xC45A0155 EQ PUSH2 0x2CC JUMPI DUP1 PUSH4 0xD21220A7 EQ PUSH2 0x2EA JUMPI DUP1 PUSH4 0xFC76A383 EQ PUSH2 0x308 JUMPI PUSH2 0xFE JUMP JUMPDEST DUP1 PUSH4 0x59962DEF EQ PUSH2 0x1ED JUMPI DUP1 PUSH4 0x5A3D5493 EQ PUSH2 0x21D JUMPI DUP1 PUSH4 0x6161EB18 EQ PUSH2 0x23B JUMPI DUP1 PUSH4 0xB10DE9FC EQ PUSH2 0x26B JUMPI PUSH2 0xFE JUMP JUMPDEST DUP1 PUSH4 0x2D889F6A GT PUSH2 0xD1 JUMPI DUP1 PUSH4 0x2D889F6A EQ PUSH2 0x179 JUMPI DUP1 PUSH4 0x380F0B41 EQ PUSH2 0x195 JUMPI DUP1 PUSH4 0x4E6EC247 EQ PUSH2 0x1B3 JUMPI DUP1 PUSH4 0x5909C0D5 EQ PUSH2 0x1CF JUMPI PUSH2 0xFE JUMP JUMPDEST DUP1 PUSH4 0x78D3B79 EQ PUSH2 0x102 JUMPI DUP1 PUSH4 0x902F1AC EQ PUSH2 0x11E JUMPI DUP1 PUSH4 0xDFE1681 EQ PUSH2 0x13D JUMPI DUP1 PUSH4 0x18160DDD EQ PUSH2 0x15B JUMPI JUMPDEST PUSH0 DUP1 REVERT JUMPDEST PUSH2 0x11C PUSH1 0x4 DUP1 CALLDATASIZE SUB DUP2 ADD SWAP1 PUSH2 0x117 SWAP2 SWAP1 PUSH2 0xBF9 JUMP JUMPDEST PUSH2 0x324 JUMP JUMPDEST STOP JUMPDEST PUSH2 0x126 PUSH2 0x44C JUMP JUMPDEST PUSH1 0x40 MLOAD PUSH2 0x134 SWAP3 SWAP2 SWAP1 PUSH2 0xC71 JUMP JUMPDEST PUSH1 0x40 MLOAD DUP1 SWAP2 SUB SWAP1 RETURN JUMPDEST PUSH2 0x145 PUSH2 0x48F JUMP JUMPDEST PUSH1 0x40 MLOAD PUSH2 0x152 SWAP2 SWAP1 PUSH2 0xCF3 JUMP JUMPDEST PUSH1 0x40 MLOAD DUP1 SWAP2 SUB SWAP1 RETURN JUMPDEST PUSH2 0x163 PUSH2 0x4B4 JUMP JUMPDEST PUSH1 0x40 MLOAD PUSH2 0x170 SWAP2 SWAP1 PUSH2 0xD1B JUMP JUMPDEST PUSH1 0x40 MLOAD DUP1 SWAP2 SUB SWAP1 RETURN JUMPDEST PUSH2 0x193 PUSH1 0x4 DUP1 CALLDATASIZE SUB DUP2 ADD SWAP1 PUSH2 0x18E SWAP2 SWAP1 PUSH2 0xD5E JUMP JUMPDEST PUSH2 0x4B9 JUMP JUMPDEST STOP JUMPDEST PUSH2 0x19D PUSH2 0x514 JUMP JUMPDEST PUSH1 0x40 MLOAD PUSH2 0x1AA SWAP2 SWAP1 PUSH2 0xDBA JUMP JUMPDEST PUSH1 0x40 MLOAD DUP1 SWAP2 SUB SWAP1 RETURN JUMPDEST PUSH2 0x1CD PUSH1 0x4 DUP1 CALLDATASIZE SUB DUP2 ADD SWAP1 PUSH2 0x1C8 SWAP2 SWAP1 PUSH2 0xDD3 JUMP JUMPDEST PUSH2 0x52D JUMP JUMPDEST STOP JUMPDEST PUSH2 0x1D7 PUSH2 0x59B JUMP JUMPDEST PUSH1 0x40 MLOAD PUSH2 0x1E4 SWAP2 SWAP1 PUSH2 0xD1B JUMP JUMPDEST PUSH1 0x40 MLOAD DUP1 SWAP2 SUB SWAP1 RETURN JUMPDEST PUSH2 0x207 PUSH1 0x4 DUP1 CALLDATASIZE SUB DUP2 ADD SWAP1 PUSH2 0x202 SWAP2 SWAP1 PUSH2 0xE11 JUMP JUMPDEST PUSH2 0x5A1 JUMP JUMPDEST PUSH1 0x40 MLOAD PUSH2 0x214 SWAP2 SWAP1 PUSH2 0xD1B JUMP JUMPDEST PUSH1 0x40 MLOAD DUP1 SWAP2 SUB SWAP1 RETURN JUMPDEST PUSH2 0x225 PUSH2 0x5E7 JUMP JUMPDEST PUSH1 0x40 MLOAD PUSH2 0x232 SWAP2 SWAP1 PUSH2 0xD1B JUMP JUMPDEST PUSH1 0x40 MLOAD DUP1 SWAP2 SUB SWAP1 RETURN JUMPDEST PUSH2 0x255 PUSH1 0x4 DUP1 CALLDATASIZE SUB DUP2 ADD SWAP1 PUSH2 0x250 SWAP2 SWAP1 PUSH2 0xDD3 JUMP JUMPDEST PUSH2 0x5ED JUMP JUMPDEST PUSH1 0x40 MLOAD PUSH2 0x262 SWAP2 SWAP1 PUSH2 0xE56 JUMP JUMPDEST PUSH1 0x40 MLOAD DUP1 SWAP2 SUB SWAP1 RETURN JUMPDEST PUSH2 0x285 PUSH1 0x4 DUP1 CALLDATASIZE SUB DUP2 ADD SWAP1 PUSH2 0x280 SWAP2 SWAP1 PUSH2 0xE6F JUMP JUMPDEST PUSH2 0x662 JUMP JUMPDEST PUSH1 0x40 MLOAD PUSH2 0x292 SWAP2 SWAP1 PUSH2 0xEAD JUMP JUMPDEST PUSH1 0x40 MLOAD DUP1 SWAP2 SUB SWAP1 RETURN JUMPDEST PUSH2 0x2B5 PUSH1 0x4 DUP1 CALLDATASIZE SUB DUP2 ADD SWAP1 PUSH2 0x2B0 SWAP2 SWAP1 PUSH2 0xEC6 JUMP JUMPDEST PUSH2 0x87F JUMP JUMPDEST PUSH1 0x40 MLOAD PUSH2 0x2C3 SWAP3 SWAP2 SWAP1 PUSH2 0xEF1 JUMP JUMPDEST PUSH1 0x40 MLOAD DUP1 SWAP2 SUB SWAP1 RETURN JUMPDEST PUSH2 0x2D4 PUSH2 0x911 JUMP JUMPDEST PUSH1 0x40 MLOAD PUSH2 0x2E1 SWAP2 SWAP1 PUSH2 0xF27 JUMP JUMPDEST PUSH1 0x40 MLOAD DUP1 SWAP2 SUB SWAP1 RETURN JUMPDEST PUSH2 0x2F2 PUSH2 0x936 JUMP JUMPDEST PUSH1 0x40 MLOAD PUSH2 0x2FF SWAP2 SWAP1 PUSH2 0xCF3 JUMP JUMPDEST PUSH1 0x40 MLOAD DUP1 SWAP2 SUB SWAP1 RETURN JUMPDEST PUSH2 0x322 PUSH1 0x4 DUP1 CALLDATASIZE SUB DUP2 ADD SWAP1 PUSH2 0x31D SWAP2 SWAP1 PUSH2 0xD5E JUMP JUMPDEST PUSH2 0x95B JUMP JUMPDEST STOP JUMPDEST PUSH0 PUSH1 0x3 PUSH0 SWAP1 SLOAD SWAP1 PUSH2 0x100 EXP SWAP1 DIV PUSH20 0xFFFFFFFFFFFFFFFFFFFFFFFFFFFFFFFFFFFFFFFF AND PUSH20 0xFFFFFFFFFFFFFFFFFFFFFFFFFFFFFFFFFFFFFFFF AND DUP5 PUSH20 0xFFFFFFFFFFFFFFFFFFFFFFFFFFFFFFFFFFFFFFFF AND EQ SWAP1 POP PUSH0 DUP2 PUSH2 0x3A4 JUMPI PUSH1 0x4 PUSH0 SWAP1 SLOAD SWAP1 PUSH2 0x100 EXP SWAP1 DIV PUSH20 0xFFFFFFFFFFFFFFFFFFFFFFFFFFFFFFFFFFFFFFFF AND PUSH2 0x3C7 JUMP JUMPDEST PUSH1 0x3 PUSH0 SWAP1 SLOAD SWAP1 PUSH2 0x100 EXP SWAP1 DIV PUSH20 0xFFFFFFFFFFFFFFFFFFFFFFFFFFFFFFFFFFFFFFFF AND JUMPDEST SWAP1 POP DUP1 PUSH20 0xFFFFFFFFFFFFFFFFFFFFFFFFFFFFFFFFFFFFFFFF AND PUSH4 0xA9059CBB DUP6 DUP6 PUSH1 0x40 MLOAD DUP4 PUSH4 0xFFFFFFFF AND PUSH1 0xE0 SHL DUP2 MSTORE PUSH1 0x4 ADD PUSH2 0x404 SWAP3 SWAP2 SWAP1 PUSH2 0xF40 JUMP JUMPDEST PUSH1 0x20 PUSH1 0x40 MLOAD DUP1 DUP4 SUB DUP2 PUSH0 DUP8 GAS CALL ISZERO DUP1 ISZERO PUSH2 0x420 JUMPI RETURNDATASIZE PUSH0 DUP1 RETURNDATACOPY RETURNDATASIZE PUSH0 REVERT JUMPDEST POP POP POP POP PUSH1 0x40 MLOAD RETURNDATASIZE PUSH1 0x1F NOT PUSH1 0x1F DUP3 ADD AND DUP3 ADD DUP1 PUSH1 0x40 MSTORE POP DUP2 ADD SWAP1 PUSH2 0x444 SWAP2 SWAP1 PUSH2 0xF91 JUMP JUMPDEST POP POP POP POP POP POP JUMP JUMPDEST PUSH0 DUP1 PUSH1 0x5 PUSH0 SWAP1 SLOAD SWAP1 PUSH2 0x100 EXP SWAP1 DIV PUSH14 0xFFFFFFFFFFFFFFFFFFFFFFFFFFFF AND SWAP2 POP PUSH1 0x5 PUSH1 0xE SWAP1 SLOAD SWAP1 PUSH2 0x100 EXP SWAP1 DIV PUSH14 0xFFFFFFFFFFFFFFFFFFFFFFFFFFFF AND SWAP1 POP SWAP1 SWAP2 JUMP JUMPDEST PUSH1 0x3 PUSH0 SWAP1 SLOAD SWAP1 PUSH2 0x100 EXP SWAP1 DIV PUSH20 0xFFFFFFFFFFFFFFFFFFFFFFFFFFFFFFFFFFFFFFFF AND DUP2 JUMP JUMPDEST PUSH0 SLOAD DUP2 JUMP JUMPDEST PUSH2 0x510 DUP3 PUSH1 0x5 PUSH0 SWAP1 SLOAD SWAP1 PUSH2 0x100 EXP SWAP1 DIV PUSH14 0xFFFFFFFFFFFFFFFFFFFFFFFFFFFF AND PUSH2 0x4E3 SWAP2 SWAP1 PUSH2 0xFE9 JUMP JUMPDEST DUP3 PUSH1 0x5 PUSH1 0xE SWAP1 SLOAD SWAP1 PUSH2 0x100 EXP SWAP1 DIV PUSH14 0xFFFFFFFFFFFFFFFFFFFFFFFFFFFF AND PUSH2 0x50B SWAP2 SWAP1 PUSH2 0xFE9 JUMP JUMPDEST PUSH2 0x9B6 JUMP JUMPDEST POP POP JUMP JUMPDEST PUSH0 PUSH1 0x5 PUSH1 0x1C SWAP1 SLOAD SWAP1 PUSH2 0x100 EXP SWAP1 DIV PUSH4 0xFFFFFFFF AND SWAP1 POP SWAP1 JUMP JUMPDEST DUP1 PUSH1 0x1 PUSH0 DUP5 PUSH20 0xFFFFFFFFFFFFFFFFFFFFFFFFFFFFFFFFFFFFFFFF AND PUSH20 0xFFFFFFFFFFFFFFFFFFFFFFFFFFFFFFFFFFFFFFFF AND DUP2 MSTORE PUSH1 0x20 ADD SWAP1 DUP2 MSTORE PUSH1 0x20 ADD PUSH0 KECCAK256 PUSH0 DUP3 DUP3 SLOAD PUSH2 0x579 SWAP2 SWAP1 PUSH2 0x102A JUMP JUMPDEST SWAP3 POP POP DUP2 SWAP1 SSTORE POP DUP1 PUSH0 DUP1 DUP3 DUP3 SLOAD PUSH2 0x590 SWAP2 SWAP1 PUSH2 0x102A JUMP JUMPDEST SWAP3 POP POP DUP2 SWAP1 SSTORE POP POP POP JUMP JUMPDEST PUSH1 0x6 SLOAD DUP2 JUMP JUMPDEST PUSH0 PUSH1 0x1 PUSH0 DUP4 PUSH20 0xFFFFFFFFFFFFFFFFFFFFFFFFFFFFFFFFFFFFFFFF AND PUSH20 0xFFFFFFFFFFFFFFFFFFFFFFFFFFFFFFFFFFFFFFFF AND DUP2 MSTORE PUSH1 0x20 ADD SWAP1 DUP2 MSTORE PUSH1 0x20 ADD PUSH0 KECCAK256 SLOAD SWAP1 POP SWAP2 SWAP1 POP JUMP JUMPDEST PUSH1 0x7 SLOAD DUP2 JUMP JUMPDEST PUSH0 DUP2 PUSH1 0x1 PUSH0 DUP6 PUSH20 0xFFFFFFFFFFFFFFFFFFFFFFFFFFFFFFFFFFFFFFFF AND PUSH20 0xFFFFFFFFFFFFFFFFFFFFFFFFFFFFFFFFFFFFFFFF AND DUP2 MSTORE PUSH1 0x20 ADD SWAP1 DUP2 MSTORE PUSH1 0x20 ADD PUSH0 KECCAK256 PUSH0 DUP3 DUP3 SLOAD PUSH2 0x63A SWAP2 SWAP1 PUSH2 0x105D JUMP JUMPDEST SWAP3 POP POP DUP2 SWAP1 SSTORE POP DUP2 PUSH0 DUP1 DUP3 DUP3 SLOAD PUSH2 0x651 SWAP2 SWAP1 PUSH2 0x105D JUMP JUMPDEST SWAP3 POP POP DUP2 SWAP1 SSTORE POP PUSH1 0x1 SWAP1 POP SWAP3 SWAP2 POP POP JUMP JUMPDEST PUSH0 DUP1 PUSH1 0x3 PUSH0 SWAP1 SLOAD SWAP1 PUSH2 0x100 EXP SWAP1 DIV PUSH20 0xFFFFFFFFFFFFFFFFFFFFFFFFFFFFFFFFFFFFFFFF AND PUSH20 0xFFFFFFFFFFFFFFFFFFFFFFFFFFFFFFFFFFFFFFFF AND DUP5 PUSH20 0xFFFFFFFFFFFFFFFFFFFFFFFFFFFFFFFFFFFFFFFF AND EQ SWAP1 POP PUSH0 DUP1 DUP3 PUSH2 0x6FB JUMPI PUSH1 0x5 PUSH1 0xE SWAP1 SLOAD SWAP1 PUSH2 0x100 EXP SWAP1 DIV PUSH14 0xFFFFFFFFFFFFFFFFFFFFFFFFFFFF AND PUSH1 0x5 PUSH0 SWAP1 SLOAD SWAP1 PUSH2 0x100 EXP SWAP1 DIV PUSH14 0xFFFFFFFFFFFFFFFFFFFFFFFFFFFF AND PUSH2 0x735 JUMP JUMPDEST PUSH1 0x5 PUSH0 SWAP1 SLOAD SWAP1 PUSH2 0x100 EXP SWAP1 DIV PUSH14 0xFFFFFFFFFFFFFFFFFFFFFFFFFFFF AND PUSH1 0x5 PUSH1 0xE SWAP1 SLOAD SWAP1 PUSH2 0x100 EXP SWAP1 DIV PUSH14 0xFFFFFFFFFFFFFFFFFFFFFFFFFFFF AND JUMPDEST SWAP2 POP SWAP2 POP DUP5 DUP2 PUSH2 0x745 SWAP2 SWAP1 PUSH2 0xFE9 JUMP JUMPDEST DUP2 DUP4 PUSH2 0x751 SWAP2 SWAP1 PUSH2 0x1090 JUMP JUMPDEST PUSH2 0x75B SWAP2 SWAP1 PUSH2 0x10F9 JUMP JUMPDEST DUP3 PUSH2 0x766 SWAP2 SWAP1 PUSH2 0x1129 JUMP JUMPDEST SWAP4 POP PUSH1 0x1 DUP5 PUSH14 0xFFFFFFFFFFFFFFFFFFFFFFFFFFFF AND LT ISZERO PUSH2 0x7BC JUMPI PUSH1 0x40 MLOAD PUSH32 0x8C379A000000000000000000000000000000000000000000000000000000000 DUP2 MSTORE PUSH1 0x4 ADD PUSH2 0x7B3 SWAP1 PUSH2 0x11C4 JUMP JUMPDEST PUSH1 0x40 MLOAD DUP1 SWAP2 SUB SWAP1 REVERT JUMPDEST DUP3 ISZERO PUSH2 0x81E JUMPI PUSH2 0x819 DUP5 PUSH1 0x5 PUSH0 SWAP1 SLOAD SWAP1 PUSH2 0x100 EXP SWAP1 DIV PUSH14 0xFFFFFFFFFFFFFFFFFFFFFFFFFFFF AND PUSH2 0x7EC SWAP2 SWAP1 PUSH2 0x1129 JUMP JUMPDEST DUP7 PUSH1 0x5 PUSH1 0xE SWAP1 SLOAD SWAP1 PUSH2 0x100 EXP SWAP1 DIV PUSH14 0xFFFFFFFFFFFFFFFFFFFFFFFFFFFF AND PUSH2 0x814 SWAP2 SWAP1 PUSH2 0xFE9 JUMP JUMPDEST PUSH2 0x9B6 JUMP JUMPDEST PUSH2 0x876 JUMP JUMPDEST PUSH2 0x875 DUP6 PUSH1 0x5 PUSH0 SWAP1 SLOAD SWAP1 PUSH2 0x100 EXP SWAP1 DIV PUSH14 0xFFFFFFFFFFFFFFFFFFFFFFFFFFFF AND PUSH2 0x848 SWAP2 SWAP1 PUSH2 0xFE9 JUMP JUMPDEST DUP6 PUSH1 0x5 PUSH1 0xE SWAP1 SLOAD SWAP1 PUSH2 0x100 EXP SWAP1 DIV PUSH14 0xFFFFFFFFFFFFFFFFFFFFFFFFFFFF AND PUSH2 0x870 SWAP2 SWAP1 PUSH2 0x1129 JUMP JUMPDEST PUSH2 0x9B6 JUMP JUMPDEST JUMPDEST POP POP POP SWAP3 SWAP2 POP POP JUMP JUMPDEST PUSH0 DUP1 PUSH0 SLOAD PUSH1 0x5 PUSH0 SWAP1 SLOAD SWAP1 PUSH2 0x100 EXP SWAP1 DIV PUSH14 0xFFFFFFFFFFFFFFFFFFFFFFFFFFFF AND PUSH14 0xFFFFFFFFFFFFFFFFFFFFFFFFFFFF AND DUP5 PUSH2 0x8BA SWAP2 SWAP1 PUSH2 0x11E2 JUMP JUMPDEST PUSH2 0x8C4 SWAP2 SWAP1 PUSH2 0x1223 JUMP JUMPDEST SWAP2 POP PUSH0 SLOAD PUSH1 0x5 PUSH1 0xE SWAP1 SLOAD SWAP1 PUSH2 0x100 EXP SWAP1 DIV PUSH14 0xFFFFFFFFFFFFFFFFFFFFFFFFFFFF AND PUSH14 0xFFFFFFFFFFFFFFFFFFFFFFFFFFFF AND DUP5 PUSH2 0x900 SWAP2 SWAP1 PUSH2 0x11E2 JUMP JUMPDEST PUSH2 0x90A SWAP2 SWAP1 PUSH2 0x1223 JUMP JUMPDEST SWAP1 POP SWAP2 POP SWAP2 JUMP JUMPDEST PUSH1 0x2 PUSH0 SWAP1 SLOAD SWAP1 PUSH2 0x100 EXP SWAP1 DIV PUSH20 0xFFFFFFFFFFFFFFFFFFFFFFFFFFFFFFFFFFFFFFFF AND DUP2 JUMP JUMPDEST PUSH1 0x4 PUSH0 SWAP1 SLOAD SWAP1 PUSH2 0x100 EXP SWAP1 DIV PUSH20 0xFFFFFFFFFFFFFFFFFFFFFFFFFFFFFFFFFFFFFFFF AND DUP2 JUMP JUMPDEST PUSH2 0x9B2 DUP3 PUSH1 0x5 PUSH0 SWAP1 SLOAD SWAP1 PUSH2 0x100 EXP SWAP1 DIV PUSH14 0xFFFFFFFFFFFFFFFFFFFFFFFFFFFF AND PUSH2 0x985 SWAP2 SWAP1 PUSH2 0x1129 JUMP JUMPDEST DUP3 PUSH1 0x5 PUSH1 0xE SWAP1 SLOAD SWAP1 PUSH2 0x100 EXP SWAP1 DIV PUSH14 0xFFFFFFFFFFFFFFFFFFFFFFFFFFFF AND PUSH2 0x9AD SWAP2 SWAP1 PUSH2 0x1129 JUMP JUMPDEST PUSH2 0x9B6 JUMP JUMPDEST POP POP JUMP JUMPDEST DUP2 PUSH1 0x5 PUSH0 PUSH2 0x100 EXP DUP2 SLOAD DUP2 PUSH14 0xFFFFFFFFFFFFFFFFFFFFFFFFFFFF MUL NOT AND SWAP1 DUP4 PUSH14 0xFFFFFFFFFFFFFFFFFFFFFFFFFFFF AND MUL OR SWAP1 SSTORE POP DUP1 PUSH1 0x5 PUSH1 0xE PUSH2 0x100 EXP DUP2 SLOAD DUP2 PUSH14 0xFFFFFFFFFFFFFFFFFFFFFFFFFFFF MUL NOT AND SWAP1 DUP4 PUSH14 0xFFFFFFFFFFFFFFFFFFFFFFFFFFFF AND MUL OR SWAP1 SSTORE POP PUSH2 0xA27 PUSH2 0xA2B JUMP JUMPDEST POP POP JUMP JUMPDEST PUSH0 PUSH1 0x5 PUSH1 0xE SWAP1 SLOAD SWAP1 PUSH2 0x100 EXP SWAP1 DIV PUSH14 0xFFFFFFFFFFFFFFFFFFFFFFFFFFFF AND PUSH1 0x5 PUSH0 SWAP1 SLOAD SWAP1 PUSH2 0x100 EXP SWAP1 DIV PUSH14 0xFFFFFFFFFFFFFFFFFFFFFFFFFFFF AND PUSH2 0xA6F SWAP2 SWAP1 PUSH2 0x1090 JUMP JUMPDEST PUSH14 0xFFFFFFFFFFFFFFFFFFFFFFFFFFFF AND EQ PUSH2 0xB57 JUMPI PUSH1 0x5 PUSH0 SWAP1 SLOAD SWAP1 PUSH2 0x100 EXP SWAP1 DIV PUSH14 0xFFFFFFFFFFFFFFFFFFFFFFFFFFFF AND PUSH3 0x989680 PUSH1 0x5 PUSH1 0xE SWAP1 SLOAD SWAP1 PUSH2 0x100 EXP SWAP1 DIV PUSH14 0xFFFFFFFFFFFFFFFFFFFFFFFFFFFF AND PUSH2 0xACB SWAP2 SWAP1 PUSH2 0x1090 JUMP JUMPDEST PUSH2 0xAD5 SWAP2 SWAP1 PUSH2 0x10F9 JUMP JUMPDEST PUSH14 0xFFFFFFFFFFFFFFFFFFFFFFFFFFFF AND PUSH1 0x6 DUP2 SWAP1 SSTORE POP PUSH1 0x5 PUSH1 0xE SWAP1 SLOAD SWAP1 PUSH2 0x100 EXP SWAP1 DIV PUSH14 0xFFFFFFFFFFFFFFFFFFFFFFFFFFFF AND PUSH3 0x989680 PUSH1 0x5 PUSH0 SWAP1 SLOAD SWAP1 PUSH2 0x100 EXP SWAP1 DIV PUSH14 0xFFFFFFFFFFFFFFFFFFFFFFFFFFFF AND PUSH2 0xB32 SWAP2 SWAP1 PUSH2 0x1090 JUMP JUMPDEST PUSH2 0xB3C SWAP2 SWAP1 PUSH2 0x10F9 JUMP JUMPDEST PUSH14 0xFFFFFFFFFFFFFFFFFFFFFFFFFFFF AND PUSH1 0x7 DUP2 SWAP1 SSTORE POP PUSH2 0xB66 JUMP JUMPDEST PUSH0 PUSH1 0x6 DUP2 SWAP1 SSTORE POP PUSH0 PUSH1 0x7 DUP2 SWAP1 SSTORE POP JUMPDEST JUMP JUMPDEST PUSH0 DUP1 REVERT JUMPDEST PUSH0 PUSH20 0xFFFFFFFFFFFFFFFFFFFFFFFFFFFFFFFFFFFFFFFF DUP3 AND SWAP1 POP SWAP2 SWAP1 POP JUMP JUMPDEST PUSH0 PUSH2 0xB95 DUP3 PUSH2 0xB6C JUMP JUMPDEST SWAP1 POP SWAP2 SWAP1 POP JUMP JUMPDEST PUSH2 0xBA5 DUP2 PUSH2 0xB8B JUMP JUMPDEST DUP2 EQ PUSH2 0xBAF JUMPI PUSH0 DUP1 REVERT JUMPDEST POP JUMP JUMPDEST PUSH0 DUP2 CALLDATALOAD SWAP1 POP PUSH2 0xBC0 DUP2 PUSH2 0xB9C JUMP JUMPDEST SWAP3 SWAP2 POP POP JUMP JUMPDEST PUSH0 DUP2 SWAP1 POP SWAP2 SWAP1 POP JUMP JUMPDEST PUSH2 0xBD8 DUP2 PUSH2 0xBC6 JUMP JUMPDEST DUP2 EQ PUSH2 0xBE2 JUMPI PUSH0 DUP1 REVERT JUMPDEST POP JUMP JUMPDEST PUSH0 DUP2 CALLDATALOAD SWAP1 POP PUSH2 0xBF3 DUP2 PUSH2 0xBCF JUMP JUMPDEST SWAP3 SWAP2 POP POP JUMP JUMPDEST PUSH0 DUP1 PUSH0 PUSH1 0x60 DUP5 DUP7 SUB SLT ISZERO PUSH2 0xC10 JUMPI PUSH2 0xC0F PUSH2 0xB68 JUMP JUMPDEST JUMPDEST PUSH0 PUSH2 0xC1D DUP7 DUP3 DUP8 ADD PUSH2 0xBB2 JUMP JUMPDEST SWAP4 POP POP PUSH1 0x20 PUSH2 0xC2E DUP7 DUP3 DUP8 ADD PUSH2 0xBB2 JUMP JUMPDEST SWAP3 POP POP PUSH1 0x40 PUSH2 0xC3F DUP7 DUP3 DUP8 ADD PUSH2 0xBE5 JUMP JUMPDEST SWAP2 POP POP SWAP3 POP SWAP3 POP SWAP3 JUMP JUMPDEST PUSH0 PUSH14 0xFFFFFFFFFFFFFFFFFFFFFFFFFFFF DUP3 AND SWAP1 POP SWAP2 SWAP1 POP JUMP JUMPDEST PUSH2 0xC6B DUP2 PUSH2 0xC49 JUMP JUMPDEST DUP3 MSTORE POP POP JUMP JUMPDEST PUSH0 PUSH1 0x40 DUP3 ADD SWAP1 POP PUSH2 0xC84 PUSH0 DUP4 ADD DUP6 PUSH2 0xC62 JUMP JUMPDEST PUSH2 0xC91 PUSH1 0x20 DUP4 ADD DUP5 PUSH2 0xC62 JUMP JUMPDEST SWAP4 SWAP3 POP POP POP JUMP JUMPDEST PUSH0 DUP2 SWAP1 POP SWAP2 SWAP1 POP JUMP JUMPDEST PUSH0 PUSH2 0xCBB PUSH2 0xCB6 PUSH2 0xCB1 DUP5 PUSH2 0xB6C JUMP JUMPDEST PUSH2 0xC98 JUMP JUMPDEST PUSH2 0xB6C JUMP JUMPDEST SWAP1 POP SWAP2 SWAP1 POP JUMP JUMPDEST PUSH0 PUSH2 0xCCC DUP3 PUSH2 0xCA1 JUMP JUMPDEST SWAP1 POP SWAP2 SWAP1 POP JUMP JUMPDEST PUSH0 PUSH2 0xCDD DUP3 PUSH2 0xCC2 JUMP JUMPDEST SWAP1 POP SWAP2 SWAP1 POP JUMP JUMPDEST PUSH2 0xCED DUP2 PUSH2 0xCD3 JUMP JUMPDEST DUP3 MSTORE POP POP JUMP JUMPDEST PUSH0 PUSH1 0x20 DUP3 ADD SWAP1 POP PUSH2 0xD06 PUSH0 DUP4 ADD DUP5 PUSH2 0xCE4 JUMP JUMPDEST SWAP3 SWAP2 POP POP JUMP JUMPDEST PUSH2 0xD15 DUP2 PUSH2 0xBC6 JUMP JUMPDEST DUP3 MSTORE POP POP JUMP JUMPDEST PUSH0 PUSH1 0x20 DUP3 ADD SWAP1 POP PUSH2 0xD2E PUSH0 DUP4 ADD DUP5 PUSH2 0xD0C JUMP JUMPDEST SWAP3 SWAP2 POP POP JUMP JUMPDEST PUSH2 0xD3D DUP2 PUSH2 0xC49 JUMP JUMPDEST DUP2 EQ PUSH2 0xD47 JUMPI PUSH0 DUP1 REVERT JUMPDEST POP JUMP JUMPDEST PUSH0 DUP2 CALLDATALOAD SWAP1 POP PUSH2 0xD58 DUP2 PUSH2 0xD34 JUMP JUMPDEST SWAP3 SWAP2 POP POP JUMP JUMPDEST PUSH0 DUP1 PUSH1 0x40 DUP4 DUP6 SUB SLT ISZERO PUSH2 0xD74 JUMPI PUSH2 0xD73 PUSH2 0xB68 JUMP JUMPDEST JUMPDEST PUSH0 PUSH2 0xD81 DUP6 DUP3 DUP7 ADD PUSH2 0xD4A JUMP JUMPDEST SWAP3 POP POP PUSH1 0x20 PUSH2 0xD92 DUP6 DUP3 DUP7 ADD PUSH2 0xD4A JUMP JUMPDEST SWAP2 POP POP SWAP3 POP SWAP3 SWAP1 POP JUMP JUMPDEST PUSH0 PUSH4 0xFFFFFFFF DUP3 AND SWAP1 POP SWAP2 SWAP1 POP JUMP JUMPDEST PUSH2 0xDB4 DUP2 PUSH2 0xD9C JUMP JUMPDEST DUP3 MSTORE POP POP JUMP JUMPDEST PUSH0 PUSH1 0x20 DUP3 ADD SWAP1 POP PUSH2 0xDCD PUSH0 DUP4 ADD DUP5 PUSH2 0xDAB JUMP JUMPDEST SWAP3 SWAP2 POP POP JUMP JUMPDEST PUSH0 DUP1 PUSH1 0x40 DUP4 DUP6 SUB SLT ISZERO PUSH2 0xDE9 JUMPI PUSH2 0xDE8 PUSH2 0xB68 JUMP JUMPDEST JUMPDEST PUSH0 PUSH2 0xDF6 DUP6 DUP3 DUP7 ADD PUSH2 0xBB2 JUMP JUMPDEST SWAP3 POP POP PUSH1 0x20 PUSH2 0xE07 DUP6 DUP3 DUP7 ADD PUSH2 0xBE5 JUMP JUMPDEST SWAP2 POP POP SWAP3 POP SWAP3 SWAP1 POP JUMP JUMPDEST PUSH0 PUSH1 0x20 DUP3 DUP5 SUB SLT ISZERO PUSH2 0xE26 JUMPI PUSH2 0xE25 PUSH2 0xB68 JUMP JUMPDEST JUMPDEST PUSH0 PUSH2 0xE33 DUP5 DUP3 DUP6 ADD PUSH2 0xBB2 JUMP JUMPDEST SWAP2 POP POP SWAP3 SWAP2 POP POP JUMP JUMPDEST PUSH0 DUP2 ISZERO ISZERO SWAP1 POP SWAP2 SWAP1 POP JUMP JUMPDEST PUSH2 0xE50 DUP2 PUSH2 0xE3C JUMP JUMPDEST DUP3 MSTORE POP POP JUMP JUMPDEST PUSH0 PUSH1 0x20 DUP3 ADD SWAP1 POP PUSH2 0xE69 PUSH0 DUP4 ADD DUP5 PUSH2 0xE47 JUMP JUMPDEST SWAP3 SWAP2 POP POP JUMP JUMPDEST PUSH0 DUP1 PUSH1 0x40 DUP4 DUP6 SUB SLT ISZERO PUSH2 0xE85 JUMPI PUSH2 0xE84 PUSH2 0xB68 JUMP JUMPDEST JUMPDEST PUSH0 PUSH2 0xE92 DUP6 DUP3 DUP7 ADD PUSH2 0xBB2 JUMP JUMPDEST SWAP3 POP POP PUSH1 0x20 PUSH2 0xEA3 DUP6 DUP3 DUP7 ADD PUSH2 0xD4A JUMP JUMPDEST SWAP2 POP POP SWAP3 POP SWAP3 SWAP1 POP JUMP JUMPDEST PUSH0 PUSH1 0x20 DUP3 ADD SWAP1 POP PUSH2 0xEC0 PUSH0 DUP4 ADD DUP5 PUSH2 0xC62 JUMP JUMPDEST SWAP3 SWAP2 POP POP JUMP JUMPDEST PUSH0 PUSH1 0x20 DUP3 DUP5 SUB SLT ISZERO PUSH2 0xEDB JUMPI PUSH2 0xEDA PUSH2 0xB68 JUMP JUMPDEST JUMPDEST PUSH0 PUSH2 0xEE8 DUP5 DUP3 DUP6 ADD PUSH2 0xBE5 JUMP JUMPDEST SWAP2 POP POP SWAP3 SWAP2 POP POP JUMP JUMPDEST PUSH0 PUSH1 0x40 DUP3 ADD SWAP1 POP PUSH2 0xF04 PUSH0 DUP4 ADD DUP6 PUSH2 0xD0C JUMP JUMPDEST PUSH2 0xF11 PUSH1 0x20 DUP4 ADD DUP5 PUSH2 0xD0C JUMP JUMPDEST SWAP4 SWAP3 POP POP POP JUMP JUMPDEST PUSH2 0xF21 DUP2 PUSH2 0xB8B JUMP JUMPDEST DUP3 MSTORE POP POP JUMP JUMPDEST PUSH0 PUSH1 0x20 DUP3 ADD SWAP1 POP PUSH2 0xF3A PUSH0 DUP4 ADD DUP5 PUSH2 0xF18 JUMP JUMPDEST SWAP3 SWAP2 POP POP JUMP JUMPDEST PUSH0 PUSH1 0x40 DUP3 ADD SWAP1 POP PUSH2 0xF53 PUSH0 DUP4 ADD DUP6 PUSH2 0xF18 JUMP JUMPDEST PUSH2 0xF60 PUSH1 0x20 DUP4 ADD DUP5 PUSH2 0xD0C JUMP JUMPDEST SWAP4 SWAP3 POP POP POP JUMP JUMPDEST PUSH2 0xF70 DUP2 PUSH2 0xE3C JUMP JUMPDEST DUP2 EQ PUSH2 0xF7A JUMPI PUSH0 DUP1 REVERT JUMPDEST POP JUMP JUMPDEST PUSH0 DUP2 MLOAD SWAP1 POP PUSH2 0xF8B DUP2 PUSH2 0xF67 JUMP JUMPDEST SWAP3 SWAP2 POP POP JUMP JUMPDEST PUSH0 PUSH1 0x20 DUP3 DUP5 SUB SLT ISZERO PUSH2 0xFA6 JUMPI PUSH2 0xFA5 PUSH2 0xB68 JUMP JUMPDEST JUMPDEST PUSH0 PUSH2 0xFB3 DUP5 DUP3 DUP6 ADD PUSH2 0xF7D JUMP JUMPDEST SWAP2 POP POP SWAP3 SWAP2 POP POP JUMP JUMPDEST PUSH32 0x4E487B7100000000000000000000000000000000000000000000000000000000 PUSH0 MSTORE PUSH1 0x11 PUSH1 0x4 MSTORE PUSH1 0x24 PUSH0 REVERT JUMPDEST PUSH0 PUSH2 0xFF3 DUP3 PUSH2 0xC49 JUMP JUMPDEST SWAP2 POP PUSH2 0xFFE DUP4 PUSH2 0xC49 JUMP JUMPDEST SWAP3 POP DUP3 DUP3 ADD SWAP1 POP PUSH14 0xFFFFFFFFFFFFFFFFFFFFFFFFFFFF DUP2 GT ISZERO PUSH2 0x1024 JUMPI PUSH2 0x1023 PUSH2 0xFBC JUMP JUMPDEST JUMPDEST SWAP3 SWAP2 POP POP JUMP JUMPDEST PUSH0 PUSH2 0x1034 DUP3 PUSH2 0xBC6 JUMP JUMPDEST SWAP2 POP PUSH2 0x103F DUP4 PUSH2 0xBC6 JUMP JUMPDEST SWAP3 POP DUP3 DUP3 ADD SWAP1 POP DUP1 DUP3 GT ISZERO PUSH2 0x1057 JUMPI PUSH2 0x1056 PUSH2 0xFBC JUMP JUMPDEST JUMPDEST SWAP3 SWAP2 POP POP JUMP JUMPDEST PUSH0 PUSH2 0x1067 DUP3 PUSH2 0xBC6 JUMP JUMPDEST SWAP2 POP PUSH2 0x1072 DUP4 PUSH2 0xBC6 JUMP JUMPDEST SWAP3 POP DUP3 DUP3 SUB SWAP1 POP DUP2 DUP2 GT ISZERO PUSH2 0x108A JUMPI PUSH2 0x1089 PUSH2 0xFBC JUMP JUMPDEST JUMPDEST SWAP3 SWAP2 POP POP JUMP JUMPDEST PUSH0 PUSH2 0x109A DUP3 PUSH2 0xC49 JUMP JUMPDEST SWAP2 POP PUSH2 0x10A5 DUP4 PUSH2 0xC49 JUMP JUMPDEST SWAP3 POP DUP3 DUP3 MUL PUSH2 0x10B3 DUP2 PUSH2 0xC49 JUMP JUMPDEST SWAP2 POP DUP1 DUP3 EQ PUSH2 0x10C5 JUMPI PUSH2 0x10C4 PUSH2 0xFBC JUMP JUMPDEST JUMPDEST POP SWAP3 SWAP2 POP POP JUMP JUMPDEST PUSH32 0x4E487B7100000000000000000000000000000000000000000000000000000000 PUSH0 MSTORE PUSH1 0x12 PUSH1 0x4 MSTORE PUSH1 0x24 PUSH0 REVERT JUMPDEST PUSH0 PUSH2 0x1103 DUP3 PUSH2 0xC49 JUMP JUMPDEST SWAP2 POP PUSH2 0x110E DUP4 PUSH2 0xC49 JUMP JUMPDEST SWAP3 POP DUP3 PUSH2 0x111E JUMPI PUSH2 0x111D PUSH2 0x10CC JUMP JUMPDEST JUMPDEST DUP3 DUP3 DIV SWAP1 POP SWAP3 SWAP2 POP POP JUMP JUMPDEST PUSH0 PUSH2 0x1133 DUP3 PUSH2 0xC49 JUMP JUMPDEST SWAP2 POP PUSH2 0x113E DUP4 PUSH2 0xC49 JUMP JUMPDEST SWAP3 POP DUP3 DUP3 SUB SWAP1 POP PUSH14 0xFFFFFFFFFFFFFFFFFFFFFFFFFFFF DUP2 GT ISZERO PUSH2 0x1164 JUMPI PUSH2 0x1163 PUSH2 0xFBC JUMP JUMPDEST JUMPDEST SWAP3 SWAP2 POP POP JUMP JUMPDEST PUSH0 DUP3 DUP3 MSTORE PUSH1 0x20 DUP3 ADD SWAP1 POP SWAP3 SWAP2 POP POP JUMP JUMPDEST PUSH32 0x506169723A4174206C6561737420746F2073776170206F6E6520746F6B656E00 PUSH0 DUP3 ADD MSTORE POP JUMP JUMPDEST PUSH0 PUSH2 0x11AE PUSH1 0x1F DUP4 PUSH2 0x116A JUMP JUMPDEST SWAP2 POP PUSH2 0x11B9 DUP3 PUSH2 0x117A JUMP JUMPDEST PUSH1 0x20 DUP3 ADD SWAP1 POP SWAP2 SWAP1 POP JUMP JUMPDEST PUSH0 PUSH1 0x20 DUP3 ADD SWAP1 POP DUP2 DUP2 SUB PUSH0 DUP4 ADD MSTORE PUSH2 0x11DB DUP2 PUSH2 0x11A2 JUMP JUMPDEST SWAP1 POP SWAP2 SWAP1 POP JUMP JUMPDEST PUSH0 PUSH2 0x11EC DUP3 PUSH2 0xBC6 JUMP JUMPDEST SWAP2 POP PUSH2 0x11F7 DUP4 PUSH2 0xBC6 JUMP JUMPDEST SWAP3 POP DUP3 DUP3 MUL PUSH2 0x1205 DUP2 PUSH2 0xBC6 JUMP JUMPDEST SWAP2 POP DUP3 DUP3 DIV DUP5 EQ DUP4 ISZERO OR PUSH2 0x121C JUMPI PUSH2 0x121B PUSH2 0xFBC JUMP JUMPDEST JUMPDEST POP SWAP3 SWAP2 POP POP JUMP JUMPDEST PUSH0 PUSH2 0x122D DUP3 PUSH2 0xBC6 JUMP JUMPDEST SWAP2 POP PUSH2 0x1238 DUP4 PUSH2 0xBC6 JUMP JUMPDEST SWAP3 POP DUP3 PUSH2 0x1248 JUMPI PUSH2 0x1247 PUSH2 0x10CC JUMP JUMPDEST JUMPDEST DUP3 DUP3 DIV SWAP1 POP SWAP3 SWAP2 POP POP JUMP INVALID LOG2 PUSH5 0x6970667358 0x22 SLT KECCAK256 SLOAD CODECOPY PUSH2 0x5824 CALL CALLCODE 0xBD 0xDA 0xEB PUSH8 0x9DE11C9069B14FC 0xD5 0xE0 SGT ISZERO PUSH15 0x34429D8FF8067EA664736F6C634300 ADDMOD AND STOP CALLER LOG2 PUSH5 0x6970667358 0x22 SLT KECCAK256 SLOAD 0x4A 0xEC RETURNDATASIZE MULMOD CALLVALUE JUMPDEST PUSH6 0xEB8864315BEF 0xC6 LOG3 PUSH10 0x98E426FE823819824634 JUMPDEST POP COINBASE 0xFB INVALID PUSH5 0x736F6C6343 STOP ADDMOD AND STOP CALLER "
		},
		"gasEstimates": {
			"creation": {
				"codeDepositCost": "2886800",
				"executionCost": "3136",
				"totalCost": "2889936"
			},
			"external": {
				"createPair(address,address)": "infinite",
				"getBalanceOfOwnedShare(string,address)": "infinite",
				"getLengthOfPairs()": "2506",
				"getPair(address,address)": "infinite",
				"getPairByName(string)": "infinite",
				"getPairName()": "infinite",
				"getPairs(uint256)": "4999",
				"getPriceByPair(address)": "infinite",
				"getProportionOfOwner(string)": "infinite",
				"getReserveOfToken(address)": "infinite",
				"getSymbolByPairName(string)": "infinite",
				"getTokenPriceByName(string)": "infinite",
				"getTokenSymbolByName(string)": "infinite",
				"getTokenToTokenByPairName(string)": "infinite"
			},
			"internal": {
				"_getPairToToken(address)": "infinite",
				"_getTotalSupplyByName(string memory)": "infinite",
				"_getTotalSupplyByPair(address)": "infinite",
				"_update(address,address,address)": "97481",
				"createPairName(address)": "infinite"
			}
		},
		"methodIdentifiers": {
			"createPair(address,address)": "c9c65396",
			"getBalanceOfOwnedShare(string,address)": "70ef3a28",
			"getLengthOfPairs()": "d6a89e64",
			"getPair(address,address)": "e6a43905",
			"getPairByName(string)": "ac9017c2",
			"getPairName()": "3a49da08",
			"getPairs(uint256)": "8d0849f1",
			"getPriceByPair(address)": "c873a3dd",
			"getProportionOfOwner(string)": "cc08a575",
			"getReserveOfToken(address)": "d05859f8",
			"getSymbolByPairName(string)": "9b527768",
			"getTokenPriceByName(string)": "713c4054",
			"getTokenSymbolByName(string)": "b7958566",
			"getTokenToTokenByPairName(string)": "3d5525cb"
		}
	},
	"abi": [
		{
			"inputs": [],
			"stateMutability": "payable",
			"type": "constructor"
		},
		{
			"inputs": [
				{
					"internalType": "address",
					"name": "tokenA",
					"type": "address"
				},
				{
					"internalType": "address",
					"name": "tokenB",
					"type": "address"
				}
			],
			"name": "createPair",
			"outputs": [
				{
					"internalType": "address",
					"name": "pair",
					"type": "address"
				}
			],
			"stateMutability": "nonpayable",
			"type": "function"
		},
		{
			"inputs": [
				{
					"internalType": "string",
					"name": "_name",
					"type": "string"
				},
				{
					"internalType": "address",
					"name": "_owner",
					"type": "address"
				}
			],
			"name": "getBalanceOfOwnedShare",
			"outputs": [
				{
					"internalType": "uint256",
					"name": "_balance",
					"type": "uint256"
				}
			],
			"stateMutability": "view",
			"type": "function"
		},
		{
			"inputs": [],
			"name": "getLengthOfPairs",
			"outputs": [
				{
					"internalType": "uint256",
					"name": "",
					"type": "uint256"
				}
			],
			"stateMutability": "view",
			"type": "function"
		},
		{
			"inputs": [
				{
					"internalType": "address",
					"name": "tokenA",
					"type": "address"
				},
				{
					"internalType": "address",
					"name": "tokenB",
					"type": "address"
				}
			],
			"name": "getPair",
			"outputs": [
				{
					"internalType": "address",
					"name": "pair",
					"type": "address"
				}
			],
			"stateMutability": "view",
			"type": "function"
		},
		{
			"inputs": [
				{
					"internalType": "string",
					"name": "_name",
					"type": "string"
				}
			],
			"name": "getPairByName",
			"outputs": [
				{
					"internalType": "address",
					"name": "pair",
					"type": "address"
				}
			],
			"stateMutability": "view",
			"type": "function"
		},
		{
			"inputs": [],
			"name": "getPairName",
			"outputs": [
				{
					"internalType": "string[]",
					"name": "",
					"type": "string[]"
				}
			],
			"stateMutability": "view",
			"type": "function"
		},
		{
			"inputs": [
				{
					"internalType": "uint256",
					"name": "index",
					"type": "uint256"
				}
			],
			"name": "getPairs",
			"outputs": [
				{
					"internalType": "address",
					"name": "",
					"type": "address"
				}
			],
			"stateMutability": "view",
			"type": "function"
		},
		{
			"inputs": [
				{
					"internalType": "address",
					"name": "_pair",
					"type": "address"
				}
			],
			"name": "getPriceByPair",
			"outputs": [
				{
					"internalType": "uint256",
					"name": "price0",
					"type": "uint256"
				},
				{
					"internalType": "uint256",
					"name": "price1",
					"type": "uint256"
				}
			],
			"stateMutability": "view",
			"type": "function"
		},
		{
			"inputs": [
				{
					"internalType": "string",
					"name": "_name",
					"type": "string"
				}
			],
			"name": "getProportionOfOwner",
			"outputs": [
				{
					"internalType": "uint32",
					"name": "_radio",
					"type": "uint32"
				},
				{
					"internalType": "uint256",
					"name": "_balance",
					"type": "uint256"
				}
			],
			"stateMutability": "view",
			"type": "function"
		},
		{
			"inputs": [
				{
					"internalType": "address",
					"name": "pair",
					"type": "address"
				}
			],
			"name": "getReserveOfToken",
			"outputs": [
				{
					"internalType": "uint112",
					"name": "reserve0",
					"type": "uint112"
				},
				{
					"internalType": "uint112",
					"name": "reserve1",
					"type": "uint112"
				}
			],
			"stateMutability": "view",
			"type": "function"
		},
		{
			"inputs": [
				{
					"internalType": "string",
					"name": "_name",
					"type": "string"
				}
			],
			"name": "getSymbolByPairName",
			"outputs": [
				{
					"internalType": "string",
					"name": "symbol0",
					"type": "string"
				},
				{
					"internalType": "string",
					"name": "symbol1",
					"type": "string"
				}
			],
			"stateMutability": "view",
			"type": "function"
		},
		{
			"inputs": [
				{
					"internalType": "string",
					"name": "_name",
					"type": "string"
				}
			],
			"name": "getTokenPriceByName",
			"outputs": [
				{
					"internalType": "uint256",
					"name": "price0",
					"type": "uint256"
				},
				{
					"internalType": "uint256",
					"name": "price1",
					"type": "uint256"
				}
			],
			"stateMutability": "view",
			"type": "function"
		},
		{
			"inputs": [
				{
					"internalType": "string",
					"name": "_name",
					"type": "string"
				}
			],
			"name": "getTokenSymbolByName",
			"outputs": [
				{
					"internalType": "string",
					"name": "_symbol",
					"type": "string"
				},
				{
					"internalType": "address",
					"name": "_tokenDo",
					"type": "address"
				},
				{
					"internalType": "address",
					"name": "_tokenAnother",
					"type": "address"
				}
			],
			"stateMutability": "view",
			"type": "function"
		},
		{
			"inputs": [
				{
					"internalType": "string",
					"name": "_name",
					"type": "string"
				}
			],
			"name": "getTokenToTokenByPairName",
			"outputs": [
				{
					"internalType": "address",
					"name": "token0",
					"type": "address"
				},
				{
					"internalType": "address",
					"name": "token1",
					"type": "address"
				}
			],
			"stateMutability": "view",
			"type": "function"
		}
	]
}