{
	"contracts/EveSwapPair.sol": {
		"EveSwapPair": {
			"abi": [
				{
					"inputs": [
						{
							"internalType": "address",
							"name": "_token0",
							"type": "address"
						},
						{
							"internalType": "address",
							"name": "_token1",
							"type": "address"
						}
					],
					"stateMutability": "nonpayable",
					"type": "constructor"
				},
				{
					"inputs": [
						{
							"internalType": "address",
							"name": "owner",
							"type": "address"
						},
						{
							"internalType": "uint256",
							"name": "amount",
							"type": "uint256"
						}
					],
					"name": "_burn",
					"outputs": [
						{
							"internalType": "bool",
							"name": "",
							"type": "bool"
						}
					],
					"stateMutability": "nonpayable",
					"type": "function"
				},
				{
					"inputs": [
						{
							"internalType": "address",
							"name": "to",
							"type": "address"
						},
						{
							"internalType": "uint256",
							"name": "amount",
							"type": "uint256"
						}
					],
					"name": "_mint",
					"outputs": [],
					"stateMutability": "nonpayable",
					"type": "function"
				},
				{
					"inputs": [
						{
							"internalType": "uint256",
							"name": "share",
							"type": "uint256"
						}
					],
					"name": "burnToSwap",
					"outputs": [
						{
							"internalType": "uint256",
							"name": "amount0Out",
							"type": "uint256"
						},
						{
							"internalType": "uint256",
							"name": "amount1Out",
							"type": "uint256"
						}
					],
					"stateMutability": "view",
					"type": "function"
				},
				{
					"inputs": [],
					"name": "factory",
					"outputs": [
						{
							"internalType": "address",
							"name": "",
							"type": "address"
						}
					],
					"stateMutability": "view",
					"type": "function"
				},
				{
					"inputs": [
						{
							"internalType": "address",
							"name": "owner",
							"type": "address"
						}
					],
					"name": "getBalanceOfShare",
					"outputs": [
						{
							"internalType": "uint256",
							"name": "",
							"type": "uint256"
						}
					],
					"stateMutability": "view",
					"type": "function"
				},
				{
					"inputs": [],
					"name": "getReserves",
					"outputs": [
						{
							"internalType": "uint112",
							"name": "_reserve0",
							"type": "uint112"
						},
						{
							"internalType": "uint112",
							"name": "_reserve1",
							"type": "uint112"
						}
					],
					"stateMutability": "view",
					"type": "function"
				},
				{
					"inputs": [],
					"name": "getblockTimestampLast",
					"outputs": [
						{
							"internalType": "uint32",
							"name": "",
							"type": "uint32"
						}
					],
					"stateMutability": "view",
					"type": "function"
				},
				{
					"inputs": [],
					"name": "price0CumulativeLast",
					"outputs": [
						{
							"internalType": "uint256",
							"name": "",
							"type": "uint256"
						}
					],
					"stateMutability": "view",
					"type": "function"
				},
				{
					"inputs": [],
					"name": "price1CumulativeLast",
					"outputs": [
						{
							"internalType": "uint256",
							"name": "",
							"type": "uint256"
						}
					],
					"stateMutability": "view",
					"type": "function"
				},
				{
					"inputs": [],
					"name": "token0",
					"outputs": [
						{
							"internalType": "contract EveSwapERC20",
							"name": "",
							"type": "address"
						}
					],
					"stateMutability": "view",
					"type": "function"
				},
				{
					"inputs": [],
					"name": "token1",
					"outputs": [
						{
							"internalType": "contract EveSwapERC20",
							"name": "",
							"type": "address"
						}
					],
					"stateMutability": "view",
					"type": "function"
				},
				{
					"inputs": [],
					"name": "totalSupply",
					"outputs": [
						{
							"internalType": "uint256",
							"name": "",
							"type": "uint256"
						}
					],
					"stateMutability": "view",
					"type": "function"
				},
				{
					"inputs": [
						{
							"internalType": "address",
							"name": "_token",
							"type": "address"
						},
						{
							"internalType": "address",
							"name": "to",
							"type": "address"
						},
						{
							"internalType": "uint256",
							"name": "amount",
							"type": "uint256"
						}
					],
					"name": "transferOut",
					"outputs": [],
					"stateMutability": "nonpayable",
					"type": "function"
				},
				{
					"inputs": [
						{
							"internalType": "uint112",
							"name": "amount0In",
							"type": "uint112"
						},
						{
							"internalType": "uint112",
							"name": "amount1In",
							"type": "uint112"
						}
					],
					"name": "updateForAdd",
					"outputs": [],
					"stateMutability": "nonpayable",
					"type": "function"
				},
				{
					"inputs": [
						{
							"internalType": "uint112",
							"name": "amount0Out",
							"type": "uint112"
						},
						{
							"internalType": "uint112",
							"name": "amountOut",
							"type": "uint112"
						}
					],
					"name": "updateForRemove",
					"outputs": [],
					"stateMutability": "nonpayable",
					"type": "function"
				},
				{
					"inputs": [
						{
							"internalType": "address",
							"name": "tokenIn",
							"type": "address"
						},
						{
							"internalType": "uint112",
							"name": "amountIn",
							"type": "uint112"
						}
					],
					"name": "updateForSwap",
					"outputs": [
						{
							"internalType": "uint112",
							"name": "amountOut",
							"type": "uint112"
						}
					],
					"stateMutability": "nonpayable",
					"type": "function"
				}
			],
			"devdoc": {
				"kind": "dev",
				"methods": {},
				"version": 1
			},
			"evm": {
				"assembly": "    /* \"contracts/EveSwapPair.sol\":93:4098  contract EveSwapPair{... */\n  mstore(0x40, 0x80)\n    /* \"contracts/EveSwapPair.sol\":552:772  constructor(address _token0,address _token1){... */\n  callvalue\n  dup1\n  iszero\n  tag_1\n  jumpi\n  0x00\n  dup1\n  revert\ntag_1:\n  pop\n  mload(0x40)\n  sub(codesize, bytecodeSize)\n  dup1\n  bytecodeSize\n  dup4\n  codecopy\n  dup2\n  dup2\n  add\n  0x40\n  mstore\n  dup2\n  add\n  swap1\n  tag_2\n  swap2\n  swap1\n  tag_3\n  jump\t// in\ntag_2:\n    /* \"contracts/EveSwapPair.sol\":629:636  _token0 */\n  dup2\n    /* \"contracts/EveSwapPair.sol\":607:613  token0 */\n  0x03\n  0x00\n    /* \"contracts/EveSwapPair.sol\":607:637  token0 = EveSwapERC20(_token0) */\n  0x0100\n  exp\n  dup2\n  sload\n  dup2\n  0xffffffffffffffffffffffffffffffffffffffff\n  mul\n  not\n  and\n  swap1\n  dup4\n  0xffffffffffffffffffffffffffffffffffffffff\n  and\n  mul\n  or\n  swap1\n  sstore\n  pop\n    /* \"contracts/EveSwapPair.sol\":670:677  _token1 */\n  dup1\n    /* \"contracts/EveSwapPair.sol\":648:654  token1 */\n  0x04\n  0x00\n    /* \"contracts/EveSwapPair.sol\":648:678  token1 = EveSwapERC20(_token1) */\n  0x0100\n  exp\n  dup2\n  sload\n  dup2\n  0xffffffffffffffffffffffffffffffffffffffff\n  mul\n  not\n  and\n  swap1\n  dup4\n  0xffffffffffffffffffffffffffffffffffffffff\n  and\n  mul\n  or\n  swap1\n  sstore\n  pop\n    /* \"contracts/EveSwapPair.sol\":699:709  msg.sender */\n  caller\n    /* \"contracts/EveSwapPair.sol\":689:696  factory */\n  0x02\n  0x00\n    /* \"contracts/EveSwapPair.sol\":689:709  factory = msg.sender */\n  0x0100\n  exp\n  dup2\n  sload\n  dup2\n  0xffffffffffffffffffffffffffffffffffffffff\n  mul\n  not\n  and\n  swap1\n  dup4\n  0xffffffffffffffffffffffffffffffffffffffff\n  and\n  mul\n  or\n  swap1\n  sstore\n  pop\n    /* \"contracts/EveSwapPair.sol\":748:763  block.timestamp */\n  timestamp\n    /* \"contracts/EveSwapPair.sol\":720:738  blockTimestampLast */\n  0x05\n  0x1c\n    /* \"contracts/EveSwapPair.sol\":720:764  blockTimestampLast = uint32(block.timestamp) */\n  0x0100\n  exp\n  dup2\n  sload\n  dup2\n  0xffffffff\n  mul\n  not\n  and\n  swap1\n  dup4\n  0xffffffff\n  and\n  mul\n  or\n  swap1\n  sstore\n  pop\n    /* \"contracts/EveSwapPair.sol\":552:772  constructor(address _token0,address _token1){... */\n  pop\n  pop\n    /* \"contracts/EveSwapPair.sol\":93:4098  contract EveSwapPair{... */\n  jump(tag_6)\n    /* \"#utility.yul\":88:205   */\ntag_8:\n    /* \"#utility.yul\":197:198   */\n  0x00\n    /* \"#utility.yul\":194:195   */\n  dup1\n    /* \"#utility.yul\":187:199   */\n  revert\n    /* \"#utility.yul\":334:460   */\ntag_10:\n    /* \"#utility.yul\":371:378   */\n  0x00\n    /* \"#utility.yul\":411:453   */\n  0xffffffffffffffffffffffffffffffffffffffff\n    /* \"#utility.yul\":404:409   */\n  dup3\n    /* \"#utility.yul\":400:454   */\n  and\n    /* \"#utility.yul\":389:454   */\n  swap1\n  pop\n    /* \"#utility.yul\":334:460   */\n  swap2\n  swap1\n  pop\n  jump\t// out\n    /* \"#utility.yul\":466:562   */\ntag_11:\n    /* \"#utility.yul\":503:510   */\n  0x00\n    /* \"#utility.yul\":532:556   */\n  tag_20\n    /* \"#utility.yul\":550:555   */\n  dup3\n    /* \"#utility.yul\":532:556   */\n  tag_10\n  jump\t// in\ntag_20:\n    /* \"#utility.yul\":521:556   */\n  swap1\n  pop\n    /* \"#utility.yul\":466:562   */\n  swap2\n  swap1\n  pop\n  jump\t// out\n    /* \"#utility.yul\":568:690   */\ntag_12:\n    /* \"#utility.yul\":641:665   */\n  tag_22\n    /* \"#utility.yul\":659:664   */\n  dup2\n    /* \"#utility.yul\":641:665   */\n  tag_11\n  jump\t// in\ntag_22:\n    /* \"#utility.yul\":634:639   */\n  dup2\n    /* \"#utility.yul\":631:666   */\n  eq\n    /* \"#utility.yul\":621:684   */\n  tag_23\n  jumpi\n    /* \"#utility.yul\":680:681   */\n  0x00\n    /* \"#utility.yul\":677:678   */\n  dup1\n    /* \"#utility.yul\":670:682   */\n  revert\n    /* \"#utility.yul\":621:684   */\ntag_23:\n    /* \"#utility.yul\":568:690   */\n  pop\n  jump\t// out\n    /* \"#utility.yul\":696:839   */\ntag_13:\n    /* \"#utility.yul\":753:758   */\n  0x00\n    /* \"#utility.yul\":784:790   */\n  dup2\n    /* \"#utility.yul\":778:791   */\n  mload\n    /* \"#utility.yul\":769:791   */\n  swap1\n  pop\n    /* \"#utility.yul\":800:833   */\n  tag_25\n    /* \"#utility.yul\":827:832   */\n  dup2\n    /* \"#utility.yul\":800:833   */\n  tag_12\n  jump\t// in\ntag_25:\n    /* \"#utility.yul\":696:839   */\n  swap3\n  swap2\n  pop\n  pop\n  jump\t// out\n    /* \"#utility.yul\":845:1352   */\ntag_3:\n    /* \"#utility.yul\":924:930   */\n  0x00\n    /* \"#utility.yul\":932:938   */\n  dup1\n    /* \"#utility.yul\":981:983   */\n  0x40\n    /* \"#utility.yul\":969:978   */\n  dup4\n    /* \"#utility.yul\":960:967   */\n  dup6\n    /* \"#utility.yul\":956:979   */\n  sub\n    /* \"#utility.yul\":952:984   */\n  slt\n    /* \"#utility.yul\":949:1068   */\n  iszero\n  tag_27\n  jumpi\n    /* \"#utility.yul\":987:1066   */\n  tag_28\n  tag_8\n  jump\t// in\ntag_28:\n    /* \"#utility.yul\":949:1068   */\ntag_27:\n    /* \"#utility.yul\":1107:1108   */\n  0x00\n    /* \"#utility.yul\":1132:1196   */\n  tag_29\n    /* \"#utility.yul\":1188:1195   */\n  dup6\n    /* \"#utility.yul\":1179:1185   */\n  dup3\n    /* \"#utility.yul\":1168:1177   */\n  dup7\n    /* \"#utility.yul\":1164:1186   */\n  add\n    /* \"#utility.yul\":1132:1196   */\n  tag_13\n  jump\t// in\ntag_29:\n    /* \"#utility.yul\":1122:1196   */\n  swap3\n  pop\n    /* \"#utility.yul\":1078:1206   */\n  pop\n    /* \"#utility.yul\":1245:1247   */\n  0x20\n    /* \"#utility.yul\":1271:1335   */\n  tag_30\n    /* \"#utility.yul\":1327:1334   */\n  dup6\n    /* \"#utility.yul\":1318:1324   */\n  dup3\n    /* \"#utility.yul\":1307:1316   */\n  dup7\n    /* \"#utility.yul\":1303:1325   */\n  add\n    /* \"#utility.yul\":1271:1335   */\n  tag_13\n  jump\t// in\ntag_30:\n    /* \"#utility.yul\":1261:1335   */\n  swap2\n  pop\n    /* \"#utility.yul\":1216:1345   */\n  pop\n    /* \"#utility.yul\":845:1352   */\n  swap3\n  pop\n  swap3\n  swap1\n  pop\n  jump\t// out\n    /* \"contracts/EveSwapPair.sol\":93:4098  contract EveSwapPair{... */\ntag_6:\n  dataSize(sub_0)\n  dup1\n  dataOffset(sub_0)\n  0x00\n  codecopy\n  0x00\n  return\nstop\n\nsub_0: assembly {\n        /* \"contracts/EveSwapPair.sol\":93:4098  contract EveSwapPair{... */\n      mstore(0x40, 0x80)\n      callvalue\n      dup1\n      iszero\n      tag_1\n      jumpi\n      0x00\n      dup1\n      revert\n    tag_1:\n      pop\n      jumpi(tag_2, lt(calldatasize, 0x04))\n      shr(0xe0, calldataload(0x00))\n      dup1\n      0x59962def\n      gt\n      tag_19\n      jumpi\n      dup1\n      0xb5764800\n      gt\n      tag_20\n      jumpi\n      dup1\n      0xb5764800\n      eq\n      tag_15\n      jumpi\n      dup1\n      0xc45a0155\n      eq\n      tag_16\n      jumpi\n      dup1\n      0xd21220a7\n      eq\n      tag_17\n      jumpi\n      dup1\n      0xfc76a383\n      eq\n      tag_18\n      jumpi\n      jump(tag_2)\n    tag_20:\n      dup1\n      0x59962def\n      eq\n      tag_11\n      jumpi\n      dup1\n      0x5a3d5493\n      eq\n      tag_12\n      jumpi\n      dup1\n      0x6161eb18\n      eq\n      tag_13\n      jumpi\n      dup1\n      0xb10de9fc\n      eq\n      tag_14\n      jumpi\n      jump(tag_2)\n    tag_19:\n      dup1\n      0x2d889f6a\n      gt\n      tag_21\n      jumpi\n      dup1\n      0x2d889f6a\n      eq\n      tag_7\n      jumpi\n      dup1\n      0x380f0b41\n      eq\n      tag_8\n      jumpi\n      dup1\n      0x4e6ec247\n      eq\n      tag_9\n      jumpi\n      dup1\n      0x5909c0d5\n      eq\n      tag_10\n      jumpi\n      jump(tag_2)\n    tag_21:\n      dup1\n      0x078d3b79\n      eq\n      tag_3\n      jumpi\n      dup1\n      0x0902f1ac\n      eq\n      tag_4\n      jumpi\n      dup1\n      0x0dfe1681\n      eq\n      tag_5\n      jumpi\n      dup1\n      0x18160ddd\n      eq\n      tag_6\n      jumpi\n    tag_2:\n      0x00\n      dup1\n      revert\n        /* \"contracts/EveSwapPair.sol\":1766:2029  function transferOut(address _token,address to,uint amount)external {... */\n    tag_3:\n      tag_22\n      0x04\n      dup1\n      calldatasize\n      sub\n      dup2\n      add\n      swap1\n      tag_23\n      swap2\n      swap1\n      tag_24\n      jump\t// in\n    tag_23:\n      tag_25\n      jump\t// in\n    tag_22:\n      stop\n        /* \"contracts/EveSwapPair.sol\":1432:1582  function getReserves()external view returns(uint112 _reserve0,uint112 _reserve1){... */\n    tag_4:\n      tag_26\n      tag_27\n      jump\t// in\n    tag_26:\n      mload(0x40)\n      tag_28\n      swap3\n      swap2\n      swap1\n      tag_29\n      jump\t// in\n    tag_28:\n      mload(0x40)\n      dup1\n      swap2\n      sub\n      swap1\n      return\n        /* \"contracts/EveSwapPair.sol\":289:315  EveSwapERC20 public token0 */\n    tag_5:\n      tag_30\n      tag_31\n      jump\t// in\n    tag_30:\n      mload(0x40)\n      tag_32\n      swap2\n      swap1\n      tag_33\n      jump\t// in\n    tag_32:\n      mload(0x40)\n      dup1\n      swap2\n      sub\n      swap1\n      return\n        /* \"contracts/EveSwapPair.sol\":150:176  uint256 public totalSupply */\n    tag_6:\n      tag_34\n      tag_35\n      jump\t// in\n    tag_34:\n      mload(0x40)\n      tag_36\n      swap2\n      swap1\n      tag_37\n      jump\t// in\n    tag_36:\n      mload(0x40)\n      dup1\n      swap2\n      sub\n      swap1\n      return\n        /* \"contracts/EveSwapPair.sol\":2266:2401  function updateForAdd(uint112 amount0In,uint112 amount1In)external{... */\n    tag_7:\n      tag_38\n      0x04\n      dup1\n      calldatasize\n      sub\n      dup2\n      add\n      swap1\n      tag_39\n      swap2\n      swap1\n      tag_40\n      jump\t// in\n    tag_39:\n      tag_41\n      jump\t// in\n    tag_38:\n      stop\n        /* \"contracts/EveSwapPair.sol\":1277:1382  function getblockTimestampLast()external view returns(uint32){... */\n    tag_8:\n      tag_42\n      tag_43\n      jump\t// in\n    tag_42:\n      mload(0x40)\n      tag_44\n      swap2\n      swap1\n      tag_45\n      jump\t// in\n    tag_44:\n      mload(0x40)\n      dup1\n      swap2\n      sub\n      swap1\n      return\n        /* \"contracts/EveSwapPair.sol\":3785:3906  function _mint(address to,uint amount)external{... */\n    tag_9:\n      tag_46\n      0x04\n      dup1\n      calldatasize\n      sub\n      dup2\n      add\n      swap1\n      tag_47\n      swap2\n      swap1\n      tag_48\n      jump\t// in\n    tag_47:\n      tag_49\n      jump\t// in\n    tag_46:\n      stop\n        /* \"contracts/EveSwapPair.sol\":472:504  uint public price0CumulativeLast */\n    tag_10:\n      tag_50\n      tag_51\n      jump\t// in\n    tag_50:\n      mload(0x40)\n      tag_52\n      swap2\n      swap1\n      tag_37\n      jump\t// in\n    tag_52:\n      mload(0x40)\n      dup1\n      swap2\n      sub\n      swap1\n      return\n        /* \"contracts/EveSwapPair.sol\":1618:1732  function getBalanceOfShare(address owner)external view returns(uint256){... */\n    tag_11:\n      tag_53\n      0x04\n      dup1\n      calldatasize\n      sub\n      dup2\n      add\n      swap1\n      tag_54\n      swap2\n      swap1\n      tag_55\n      jump\t// in\n    tag_54:\n      tag_56\n      jump\t// in\n    tag_53:\n      mload(0x40)\n      tag_57\n      swap2\n      swap1\n      tag_37\n      jump\t// in\n    tag_57:\n      mload(0x40)\n      dup1\n      swap2\n      sub\n      swap1\n      return\n        /* \"contracts/EveSwapPair.sol\":511:543  uint public price1CumulativeLast */\n    tag_12:\n      tag_58\n      tag_59\n      jump\t// in\n    tag_58:\n      mload(0x40)\n      tag_60\n      swap2\n      swap1\n      tag_37\n      jump\t// in\n    tag_60:\n      mload(0x40)\n      dup1\n      swap2\n      sub\n      swap1\n      return\n        /* \"contracts/EveSwapPair.sol\":3932:4095  function _burn(address owner,uint amount)external returns(bool){... */\n    tag_13:\n      tag_61\n      0x04\n      dup1\n      calldatasize\n      sub\n      dup2\n      add\n      swap1\n      tag_62\n      swap2\n      swap1\n      tag_48\n      jump\t// in\n    tag_62:\n      tag_63\n      jump\t// in\n    tag_61:\n      mload(0x40)\n      tag_64\n      swap2\n      swap1\n      tag_65\n      jump\t// in\n    tag_64:\n      mload(0x40)\n      dup1\n      swap2\n      sub\n      swap1\n      return\n        /* \"contracts/EveSwapPair.sol\":2769:3514  function updateForSwap(address tokenIn,uint112 amountIn)external returns(uint112 amountOut){... */\n    tag_14:\n      tag_66\n      0x04\n      dup1\n      calldatasize\n      sub\n      dup2\n      add\n      swap1\n      tag_67\n      swap2\n      swap1\n      tag_68\n      jump\t// in\n    tag_67:\n      tag_69\n      jump\t// in\n    tag_66:\n      mload(0x40)\n      tag_70\n      swap2\n      swap1\n      tag_71\n      jump\t// in\n    tag_70:\n      mload(0x40)\n      dup1\n      swap2\n      sub\n      swap1\n      return\n        /* \"contracts/EveSwapPair.sol\":3554:3759  function burnToSwap(uint share)external view returns(uint amount0Out,uint amount1Out){... */\n    tag_15:\n      tag_72\n      0x04\n      dup1\n      calldatasize\n      sub\n      dup2\n      add\n      swap1\n      tag_73\n      swap2\n      swap1\n      tag_74\n      jump\t// in\n    tag_73:\n      tag_75\n      jump\t// in\n    tag_72:\n      mload(0x40)\n      tag_76\n      swap3\n      swap2\n      swap1\n      tag_77\n      jump\t// in\n    tag_76:\n      mload(0x40)\n      dup1\n      swap2\n      sub\n      swap1\n      return\n        /* \"contracts/EveSwapPair.sol\":260:282  address public factory */\n    tag_16:\n      tag_78\n      tag_79\n      jump\t// in\n    tag_78:\n      mload(0x40)\n      tag_80\n      swap2\n      swap1\n      tag_81\n      jump\t// in\n    tag_80:\n      mload(0x40)\n      dup1\n      swap2\n      sub\n      swap1\n      return\n        /* \"contracts/EveSwapPair.sol\":322:348  EveSwapERC20 public token1 */\n    tag_17:\n      tag_82\n      tag_83\n      jump\t// in\n    tag_82:\n      mload(0x40)\n      tag_84\n      swap2\n      swap1\n      tag_33\n      jump\t// in\n    tag_84:\n      mload(0x40)\n      dup1\n      swap2\n      sub\n      swap1\n      return\n        /* \"contracts/EveSwapPair.sol\":2434:2574  function updateForRemove(uint112 amount0Out,uint112 amountOut)external{... */\n    tag_18:\n      tag_85\n      0x04\n      dup1\n      calldatasize\n      sub\n      dup2\n      add\n      swap1\n      tag_86\n      swap2\n      swap1\n      tag_40\n      jump\t// in\n    tag_86:\n      tag_87\n      jump\t// in\n    tag_85:\n      stop\n        /* \"contracts/EveSwapPair.sol\":1766:2029  function transferOut(address _token,address to,uint amount)external {... */\n    tag_25:\n        /* \"contracts/EveSwapPair.sol\":1845:1858  bool isToken0 */\n      0x00\n        /* \"contracts/EveSwapPair.sol\":1879:1885  token0 */\n      0x03\n      0x00\n      swap1\n      sload\n      swap1\n      0x0100\n      exp\n      swap1\n      div\n      0xffffffffffffffffffffffffffffffffffffffff\n      and\n        /* \"contracts/EveSwapPair.sol\":1861:1886  _token == address(token0) */\n      0xffffffffffffffffffffffffffffffffffffffff\n      and\n        /* \"contracts/EveSwapPair.sol\":1861:1867  _token */\n      dup5\n        /* \"contracts/EveSwapPair.sol\":1861:1886  _token == address(token0) */\n      0xffffffffffffffffffffffffffffffffffffffff\n      and\n      eq\n        /* \"contracts/EveSwapPair.sol\":1845:1886  bool isToken0 = _token == address(token0) */\n      swap1\n      pop\n        /* \"contracts/EveSwapPair.sol\":1897:1918  address transferToken */\n      0x00\n        /* \"contracts/EveSwapPair.sol\":1921:1929  isToken0 */\n      dup2\n        /* \"contracts/EveSwapPair.sol\":1921:1963  isToken0? address(token0): address(token1) */\n      tag_89\n      jumpi\n        /* \"contracts/EveSwapPair.sol\":1956:1962  token1 */\n      0x04\n      0x00\n      swap1\n      sload\n      swap1\n      0x0100\n      exp\n      swap1\n      div\n      0xffffffffffffffffffffffffffffffffffffffff\n      and\n        /* \"contracts/EveSwapPair.sol\":1921:1963  isToken0? address(token0): address(token1) */\n      jump(tag_90)\n    tag_89:\n        /* \"contracts/EveSwapPair.sol\":1939:1945  token0 */\n      0x03\n      0x00\n      swap1\n      sload\n      swap1\n      0x0100\n      exp\n      swap1\n      div\n      0xffffffffffffffffffffffffffffffffffffffff\n      and\n        /* \"contracts/EveSwapPair.sol\":1921:1963  isToken0? address(token0): address(token1) */\n    tag_90:\n        /* \"contracts/EveSwapPair.sol\":1897:1963  address transferToken = isToken0? address(token0): address(token1) */\n      swap1\n      pop\n        /* \"contracts/EveSwapPair.sol\":1987:2000  transferToken */\n      dup1\n        /* \"contracts/EveSwapPair.sol\":1974:2010  EveSwapERC20(transferToken).transfer */\n      0xffffffffffffffffffffffffffffffffffffffff\n      and\n      0xa9059cbb\n        /* \"contracts/EveSwapPair.sol\":2011:2013  to */\n      dup6\n        /* \"contracts/EveSwapPair.sol\":2014:2020  amount */\n      dup6\n        /* \"contracts/EveSwapPair.sol\":1974:2021  EveSwapERC20(transferToken).transfer(to,amount) */\n      mload(0x40)\n      dup4\n      0xffffffff\n      and\n      0xe0\n      shl\n      dup2\n      mstore\n      0x04\n      add\n      tag_91\n      swap3\n      swap2\n      swap1\n      tag_92\n      jump\t// in\n    tag_91:\n      0x20\n      mload(0x40)\n      dup1\n      dup4\n      sub\n      dup2\n      0x00\n      dup8\n      gas\n      call\n      iszero\n      dup1\n      iszero\n      tag_94\n      jumpi\n      returndatasize\n      0x00\n      dup1\n      returndatacopy\n      revert(0x00, returndatasize)\n    tag_94:\n      pop\n      pop\n      pop\n      pop\n      mload(0x40)\n      returndatasize\n      not(0x1f)\n      0x1f\n      dup3\n      add\n      and\n      dup3\n      add\n      dup1\n      0x40\n      mstore\n      pop\n      dup2\n      add\n      swap1\n      tag_95\n      swap2\n      swap1\n      tag_96\n      jump\t// in\n    tag_95:\n      pop\n        /* \"contracts/EveSwapPair.sol\":1834:2029  {... */\n      pop\n      pop\n        /* \"contracts/EveSwapPair.sol\":1766:2029  function transferOut(address _token,address to,uint amount)external {... */\n      pop\n      pop\n      pop\n      jump\t// out\n        /* \"contracts/EveSwapPair.sol\":1432:1582  function getReserves()external view returns(uint112 _reserve0,uint112 _reserve1){... */\n    tag_27:\n        /* \"contracts/EveSwapPair.sol\":1476:1493  uint112 _reserve0 */\n      0x00\n        /* \"contracts/EveSwapPair.sol\":1494:1511  uint112 _reserve1 */\n      dup1\n        /* \"contracts/EveSwapPair.sol\":1535:1543  reserve0 */\n      0x05\n      0x00\n      swap1\n      sload\n      swap1\n      0x0100\n      exp\n      swap1\n      div\n      0xffffffffffffffffffffffffffff\n      and\n        /* \"contracts/EveSwapPair.sol\":1523:1543  _reserve0 = reserve0 */\n      swap2\n      pop\n        /* \"contracts/EveSwapPair.sol\":1566:1574  reserve1 */\n      0x05\n      0x0e\n      swap1\n      sload\n      swap1\n      0x0100\n      exp\n      swap1\n      div\n      0xffffffffffffffffffffffffffff\n      and\n        /* \"contracts/EveSwapPair.sol\":1554:1574  _reserve1 = reserve1 */\n      swap1\n      pop\n        /* \"contracts/EveSwapPair.sol\":1432:1582  function getReserves()external view returns(uint112 _reserve0,uint112 _reserve1){... */\n      swap1\n      swap2\n      jump\t// out\n        /* \"contracts/EveSwapPair.sol\":289:315  EveSwapERC20 public token0 */\n    tag_31:\n      0x03\n      0x00\n      swap1\n      sload\n      swap1\n      0x0100\n      exp\n      swap1\n      div\n      0xffffffffffffffffffffffffffffffffffffffff\n      and\n      dup2\n      jump\t// out\n        /* \"contracts/EveSwapPair.sol\":150:176  uint256 public totalSupply */\n    tag_35:\n      sload(0x00)\n      dup2\n      jump\t// out\n        /* \"contracts/EveSwapPair.sol\":2266:2401  function updateForAdd(uint112 amount0In,uint112 amount1In)external{... */\n    tag_41:\n        /* \"contracts/EveSwapPair.sol\":2343:2393  _update(reserve0 + amount0In,reserve1 + amount1In) */\n      tag_99\n        /* \"contracts/EveSwapPair.sol\":2362:2371  amount0In */\n      dup3\n        /* \"contracts/EveSwapPair.sol\":2351:2359  reserve0 */\n      0x05\n      0x00\n      swap1\n      sload\n      swap1\n      0x0100\n      exp\n      swap1\n      div\n      0xffffffffffffffffffffffffffff\n      and\n        /* \"contracts/EveSwapPair.sol\":2351:2371  reserve0 + amount0In */\n      tag_100\n      swap2\n      swap1\n      tag_101\n      jump\t// in\n    tag_100:\n        /* \"contracts/EveSwapPair.sol\":2383:2392  amount1In */\n      dup3\n        /* \"contracts/EveSwapPair.sol\":2372:2380  reserve1 */\n      0x05\n      0x0e\n      swap1\n      sload\n      swap1\n      0x0100\n      exp\n      swap1\n      div\n      0xffffffffffffffffffffffffffff\n      and\n        /* \"contracts/EveSwapPair.sol\":2372:2392  reserve1 + amount1In */\n      tag_102\n      swap2\n      swap1\n      tag_101\n      jump\t// in\n    tag_102:\n        /* \"contracts/EveSwapPair.sol\":2343:2350  _update */\n      tag_103\n        /* \"contracts/EveSwapPair.sol\":2343:2393  _update(reserve0 + amount0In,reserve1 + amount1In) */\n      jump\t// in\n    tag_99:\n        /* \"contracts/EveSwapPair.sol\":2266:2401  function updateForAdd(uint112 amount0In,uint112 amount1In)external{... */\n      pop\n      pop\n      jump\t// out\n        /* \"contracts/EveSwapPair.sol\":1277:1382  function getblockTimestampLast()external view returns(uint32){... */\n    tag_43:\n        /* \"contracts/EveSwapPair.sol\":1331:1337  uint32 */\n      0x00\n        /* \"contracts/EveSwapPair.sol\":1356:1374  blockTimestampLast */\n      0x05\n      0x1c\n      swap1\n      sload\n      swap1\n      0x0100\n      exp\n      swap1\n      div\n      0xffffffff\n      and\n        /* \"contracts/EveSwapPair.sol\":1349:1374  return blockTimestampLast */\n      swap1\n      pop\n        /* \"contracts/EveSwapPair.sol\":1277:1382  function getblockTimestampLast()external view returns(uint32){... */\n      swap1\n      jump\t// out\n        /* \"contracts/EveSwapPair.sol\":3785:3906  function _mint(address to,uint amount)external{... */\n    tag_49:\n        /* \"contracts/EveSwapPair.sol\":3860:3866  amount */\n      dup1\n        /* \"contracts/EveSwapPair.sol\":3842:3852  _balanceOf */\n      0x01\n        /* \"contracts/EveSwapPair.sol\":3842:3856  _balanceOf[to] */\n      0x00\n        /* \"contracts/EveSwapPair.sol\":3853:3855  to */\n      dup5\n        /* \"contracts/EveSwapPair.sol\":3842:3856  _balanceOf[to] */\n      0xffffffffffffffffffffffffffffffffffffffff\n      and\n      0xffffffffffffffffffffffffffffffffffffffff\n      and\n      dup2\n      mstore\n      0x20\n      add\n      swap1\n      dup2\n      mstore\n      0x20\n      add\n      0x00\n      keccak256\n      0x00\n        /* \"contracts/EveSwapPair.sol\":3842:3866  _balanceOf[to] += amount */\n      dup3\n      dup3\n      sload\n      tag_106\n      swap2\n      swap1\n      tag_107\n      jump\t// in\n    tag_106:\n      swap3\n      pop\n      pop\n      dup2\n      swap1\n      sstore\n      pop\n        /* \"contracts/EveSwapPair.sol\":3892:3898  amount */\n      dup1\n        /* \"contracts/EveSwapPair.sol\":3877:3888  totalSupply */\n      0x00\n      dup1\n        /* \"contracts/EveSwapPair.sol\":3877:3898  totalSupply += amount */\n      dup3\n      dup3\n      sload\n      tag_108\n      swap2\n      swap1\n      tag_107\n      jump\t// in\n    tag_108:\n      swap3\n      pop\n      pop\n      dup2\n      swap1\n      sstore\n      pop\n        /* \"contracts/EveSwapPair.sol\":3785:3906  function _mint(address to,uint amount)external{... */\n      pop\n      pop\n      jump\t// out\n        /* \"contracts/EveSwapPair.sol\":472:504  uint public price0CumulativeLast */\n    tag_51:\n      sload(0x06)\n      dup2\n      jump\t// out\n        /* \"contracts/EveSwapPair.sol\":1618:1732  function getBalanceOfShare(address owner)external view returns(uint256){... */\n    tag_56:\n        /* \"contracts/EveSwapPair.sol\":1681:1688  uint256 */\n      0x00\n        /* \"contracts/EveSwapPair.sol\":1707:1717  _balanceOf */\n      0x01\n        /* \"contracts/EveSwapPair.sol\":1707:1724  _balanceOf[owner] */\n      0x00\n        /* \"contracts/EveSwapPair.sol\":1718:1723  owner */\n      dup4\n        /* \"contracts/EveSwapPair.sol\":1707:1724  _balanceOf[owner] */\n      0xffffffffffffffffffffffffffffffffffffffff\n      and\n      0xffffffffffffffffffffffffffffffffffffffff\n      and\n      dup2\n      mstore\n      0x20\n      add\n      swap1\n      dup2\n      mstore\n      0x20\n      add\n      0x00\n      keccak256\n      sload\n        /* \"contracts/EveSwapPair.sol\":1700:1724  return _balanceOf[owner] */\n      swap1\n      pop\n        /* \"contracts/EveSwapPair.sol\":1618:1732  function getBalanceOfShare(address owner)external view returns(uint256){... */\n      swap2\n      swap1\n      pop\n      jump\t// out\n        /* \"contracts/EveSwapPair.sol\":511:543  uint public price1CumulativeLast */\n    tag_59:\n      sload(0x07)\n      dup2\n      jump\t// out\n        /* \"contracts/EveSwapPair.sol\":3932:4095  function _burn(address owner,uint amount)external returns(bool){... */\n    tag_63:\n        /* \"contracts/EveSwapPair.sol\":3990:3994  bool */\n      0x00\n        /* \"contracts/EveSwapPair.sol\":4027:4033  amount */\n      dup2\n        /* \"contracts/EveSwapPair.sol\":4006:4016  _balanceOf */\n      0x01\n        /* \"contracts/EveSwapPair.sol\":4006:4023  _balanceOf[owner] */\n      0x00\n        /* \"contracts/EveSwapPair.sol\":4017:4022  owner */\n      dup6\n        /* \"contracts/EveSwapPair.sol\":4006:4023  _balanceOf[owner] */\n      0xffffffffffffffffffffffffffffffffffffffff\n      and\n      0xffffffffffffffffffffffffffffffffffffffff\n      and\n      dup2\n      mstore\n      0x20\n      add\n      swap1\n      dup2\n      mstore\n      0x20\n      add\n      0x00\n      keccak256\n      0x00\n        /* \"contracts/EveSwapPair.sol\":4006:4033  _balanceOf[owner] -= amount */\n      dup3\n      dup3\n      sload\n      tag_111\n      swap2\n      swap1\n      tag_112\n      jump\t// in\n    tag_111:\n      swap3\n      pop\n      pop\n      dup2\n      swap1\n      sstore\n      pop\n        /* \"contracts/EveSwapPair.sol\":4059:4065  amount */\n      dup2\n        /* \"contracts/EveSwapPair.sol\":4044:4055  totalSupply */\n      0x00\n      dup1\n        /* \"contracts/EveSwapPair.sol\":4044:4065  totalSupply -= amount */\n      dup3\n      dup3\n      sload\n      tag_113\n      swap2\n      swap1\n      tag_112\n      jump\t// in\n    tag_113:\n      swap3\n      pop\n      pop\n      dup2\n      swap1\n      sstore\n      pop\n        /* \"contracts/EveSwapPair.sol\":4083:4087  true */\n      0x01\n        /* \"contracts/EveSwapPair.sol\":4076:4087  return true */\n      swap1\n      pop\n        /* \"contracts/EveSwapPair.sol\":3932:4095  function _burn(address owner,uint amount)external returns(bool){... */\n      swap3\n      swap2\n      pop\n      pop\n      jump\t// out\n        /* \"contracts/EveSwapPair.sol\":2769:3514  function updateForSwap(address tokenIn,uint112 amountIn)external returns(uint112 amountOut){... */\n    tag_69:\n        /* \"contracts/EveSwapPair.sol\":2842:2859  uint112 amountOut */\n      0x00\n        /* \"contracts/EveSwapPair.sol\":2871:2884  bool isToken0 */\n      dup1\n        /* \"contracts/EveSwapPair.sol\":2906:2912  token0 */\n      0x03\n      0x00\n      swap1\n      sload\n      swap1\n      0x0100\n      exp\n      swap1\n      div\n      0xffffffffffffffffffffffffffffffffffffffff\n      and\n        /* \"contracts/EveSwapPair.sol\":2887:2913  tokenIn == address(token0) */\n      0xffffffffffffffffffffffffffffffffffffffff\n      and\n        /* \"contracts/EveSwapPair.sol\":2887:2894  tokenIn */\n      dup5\n        /* \"contracts/EveSwapPair.sol\":2887:2913  tokenIn == address(token0) */\n      0xffffffffffffffffffffffffffffffffffffffff\n      and\n      eq\n        /* \"contracts/EveSwapPair.sol\":2871:2913  bool isToken0 = tokenIn == address(token0) */\n      swap1\n      pop\n        /* \"contracts/EveSwapPair.sol\":2925:2942  uint112 reserveIn */\n      0x00\n        /* \"contracts/EveSwapPair.sol\":2943:2961  uint112 reserveOut */\n      dup1\n        /* \"contracts/EveSwapPair.sol\":2965:2973  isToken0 */\n      dup3\n        /* \"contracts/EveSwapPair.sol\":2965:3015  isToken0?(reserve0,reserve1) : (reserve1,reserve0) */\n      tag_115\n      jumpi\n        /* \"contracts/EveSwapPair.sol\":2997:3005  reserve1 */\n      0x05\n      0x0e\n      swap1\n      sload\n      swap1\n      0x0100\n      exp\n      swap1\n      div\n      0xffffffffffffffffffffffffffff\n      and\n        /* \"contracts/EveSwapPair.sol\":3006:3014  reserve0 */\n      0x05\n      0x00\n      swap1\n      sload\n      swap1\n      0x0100\n      exp\n      swap1\n      div\n      0xffffffffffffffffffffffffffff\n      and\n        /* \"contracts/EveSwapPair.sol\":2965:3015  isToken0?(reserve0,reserve1) : (reserve1,reserve0) */\n      jump(tag_116)\n    tag_115:\n        /* \"contracts/EveSwapPair.sol\":2975:2983  reserve0 */\n      0x05\n      0x00\n      swap1\n      sload\n      swap1\n      0x0100\n      exp\n      swap1\n      div\n      0xffffffffffffffffffffffffffff\n      and\n        /* \"contracts/EveSwapPair.sol\":2984:2992  reserve1 */\n      0x05\n      0x0e\n      swap1\n      sload\n      swap1\n      0x0100\n      exp\n      swap1\n      div\n      0xffffffffffffffffffffffffffff\n      and\n        /* \"contracts/EveSwapPair.sol\":2965:3015  isToken0?(reserve0,reserve1) : (reserve1,reserve0) */\n    tag_116:\n        /* \"contracts/EveSwapPair.sol\":2924:3015  (uint112 reserveIn,uint112 reserveOut) = isToken0?(reserve0,reserve1) : (reserve1,reserve0) */\n      swap2\n      pop\n      swap2\n      pop\n        /* \"contracts/EveSwapPair.sol\":3195:3203  amountIn */\n      dup5\n        /* \"contracts/EveSwapPair.sol\":3182:3192  reserveOut */\n      dup2\n        /* \"contracts/EveSwapPair.sol\":3182:3203  reserveOut + amountIn */\n      tag_117\n      swap2\n      swap1\n      tag_101\n      jump\t// in\n    tag_117:\n        /* \"contracts/EveSwapPair.sol\":3169:3179  reserveOut */\n      dup2\n        /* \"contracts/EveSwapPair.sol\":3157:3166  reserveIn */\n      dup4\n        /* \"contracts/EveSwapPair.sol\":3157:3179  reserveIn * reserveOut */\n      tag_118\n      swap2\n      swap1\n      tag_119\n      jump\t// in\n    tag_118:\n        /* \"contracts/EveSwapPair.sol\":3156:3204  (reserveIn * reserveOut)/(reserveOut + amountIn) */\n      tag_120\n      swap2\n      swap1\n      tag_121\n      jump\t// in\n    tag_120:\n        /* \"contracts/EveSwapPair.sol\":3144:3153  reserveIn */\n      dup3\n        /* \"contracts/EveSwapPair.sol\":3144:3204  reserveIn - (reserveIn * reserveOut)/(reserveOut + amountIn) */\n      tag_122\n      swap2\n      swap1\n      tag_123\n      jump\t// in\n    tag_122:\n        /* \"contracts/EveSwapPair.sol\":3132:3204  amountOut = reserveIn - (reserveIn * reserveOut)/(reserveOut + amountIn) */\n      swap4\n      pop\n        /* \"contracts/EveSwapPair.sol\":3236:3237  1 */\n      0x01\n        /* \"contracts/EveSwapPair.sol\":3223:3232  amountOut */\n      dup5\n        /* \"contracts/EveSwapPair.sol\":3223:3237  amountOut >= 1 */\n      0xffffffffffffffffffffffffffff\n      and\n      lt\n      iszero\n        /* \"contracts/EveSwapPair.sol\":3215:3272  require(amountOut >= 1,\"Pair:At least to swap one token\") */\n      tag_124\n      jumpi\n      mload(0x40)\n      0x08c379a000000000000000000000000000000000000000000000000000000000\n      dup2\n      mstore\n      0x04\n      add\n      tag_125\n      swap1\n      tag_126\n      jump\t// in\n    tag_125:\n      mload(0x40)\n      dup1\n      swap2\n      sub\n      swap1\n      revert\n    tag_124:\n        /* \"contracts/EveSwapPair.sol\":3286:3294  isToken0 */\n      dup3\n        /* \"contracts/EveSwapPair.sol\":3283:3507  if(isToken0){... */\n      iszero\n      tag_127\n      jumpi\n        /* \"contracts/EveSwapPair.sol\":3337:3386  _update(reserve0 - amountOut,reserve1 + amountIn) */\n      tag_128\n        /* \"contracts/EveSwapPair.sol\":3356:3365  amountOut */\n      dup5\n        /* \"contracts/EveSwapPair.sol\":3345:3353  reserve0 */\n      0x05\n      0x00\n      swap1\n      sload\n      swap1\n      0x0100\n      exp\n      swap1\n      div\n      0xffffffffffffffffffffffffffff\n      and\n        /* \"contracts/EveSwapPair.sol\":3345:3365  reserve0 - amountOut */\n      tag_129\n      swap2\n      swap1\n      tag_123\n      jump\t// in\n    tag_129:\n        /* \"contracts/EveSwapPair.sol\":3377:3385  amountIn */\n      dup7\n        /* \"contracts/EveSwapPair.sol\":3366:3374  reserve1 */\n      0x05\n      0x0e\n      swap1\n      sload\n      swap1\n      0x0100\n      exp\n      swap1\n      div\n      0xffffffffffffffffffffffffffff\n      and\n        /* \"contracts/EveSwapPair.sol\":3366:3385  reserve1 + amountIn */\n      tag_130\n      swap2\n      swap1\n      tag_101\n      jump\t// in\n    tag_130:\n        /* \"contracts/EveSwapPair.sol\":3337:3344  _update */\n      tag_103\n        /* \"contracts/EveSwapPair.sol\":3337:3386  _update(reserve0 - amountOut,reserve1 + amountIn) */\n      jump\t// in\n    tag_128:\n        /* \"contracts/EveSwapPair.sol\":3283:3507  if(isToken0){... */\n      jump(tag_131)\n    tag_127:\n        /* \"contracts/EveSwapPair.sol\":3446:3495  _update(reserve0 + amountIn,reserve1 - amountOut) */\n      tag_132\n        /* \"contracts/EveSwapPair.sol\":3465:3473  amountIn */\n      dup6\n        /* \"contracts/EveSwapPair.sol\":3454:3462  reserve0 */\n      0x05\n      0x00\n      swap1\n      sload\n      swap1\n      0x0100\n      exp\n      swap1\n      div\n      0xffffffffffffffffffffffffffff\n      and\n        /* \"contracts/EveSwapPair.sol\":3454:3473  reserve0 + amountIn */\n      tag_133\n      swap2\n      swap1\n      tag_101\n      jump\t// in\n    tag_133:\n        /* \"contracts/EveSwapPair.sol\":3485:3494  amountOut */\n      dup6\n        /* \"contracts/EveSwapPair.sol\":3474:3482  reserve1 */\n      0x05\n      0x0e\n      swap1\n      sload\n      swap1\n      0x0100\n      exp\n      swap1\n      div\n      0xffffffffffffffffffffffffffff\n      and\n        /* \"contracts/EveSwapPair.sol\":3474:3494  reserve1 - amountOut */\n      tag_134\n      swap2\n      swap1\n      tag_123\n      jump\t// in\n    tag_134:\n        /* \"contracts/EveSwapPair.sol\":3446:3453  _update */\n      tag_103\n        /* \"contracts/EveSwapPair.sol\":3446:3495  _update(reserve0 + amountIn,reserve1 - amountOut) */\n      jump\t// in\n    tag_132:\n        /* \"contracts/EveSwapPair.sol\":3283:3507  if(isToken0){... */\n    tag_131:\n        /* \"contracts/EveSwapPair.sol\":2860:3514  {... */\n      pop\n      pop\n      pop\n        /* \"contracts/EveSwapPair.sol\":2769:3514  function updateForSwap(address tokenIn,uint112 amountIn)external returns(uint112 amountOut){... */\n      swap3\n      swap2\n      pop\n      pop\n      jump\t// out\n        /* \"contracts/EveSwapPair.sol\":3554:3759  function burnToSwap(uint share)external view returns(uint amount0Out,uint amount1Out){... */\n    tag_75:\n        /* \"contracts/EveSwapPair.sol\":3607:3622  uint amount0Out */\n      0x00\n        /* \"contracts/EveSwapPair.sol\":3623:3638  uint amount1Out */\n      dup1\n        /* \"contracts/EveSwapPair.sol\":3684:3695  totalSupply */\n      sload(0x00)\n        /* \"contracts/EveSwapPair.sol\":3672:3680  reserve0 */\n      0x05\n      0x00\n      swap1\n      sload\n      swap1\n      0x0100\n      exp\n      swap1\n      div\n      0xffffffffffffffffffffffffffff\n      and\n        /* \"contracts/EveSwapPair.sol\":3664:3680  share * reserve0 */\n      0xffffffffffffffffffffffffffff\n      and\n        /* \"contracts/EveSwapPair.sol\":3664:3669  share */\n      dup5\n        /* \"contracts/EveSwapPair.sol\":3664:3680  share * reserve0 */\n      tag_136\n      swap2\n      swap1\n      tag_137\n      jump\t// in\n    tag_136:\n        /* \"contracts/EveSwapPair.sol\":3663:3695  (share * reserve0) / totalSupply */\n      tag_138\n      swap2\n      swap1\n      tag_139\n      jump\t// in\n    tag_138:\n        /* \"contracts/EveSwapPair.sol\":3650:3695  amount0Out = (share * reserve0) / totalSupply */\n      swap2\n      pop\n        /* \"contracts/EveSwapPair.sol\":3740:3751  totalSupply */\n      sload(0x00)\n        /* \"contracts/EveSwapPair.sol\":3728:3736  reserve1 */\n      0x05\n      0x0e\n      swap1\n      sload\n      swap1\n      0x0100\n      exp\n      swap1\n      div\n      0xffffffffffffffffffffffffffff\n      and\n        /* \"contracts/EveSwapPair.sol\":3720:3736  share * reserve1 */\n      0xffffffffffffffffffffffffffff\n      and\n        /* \"contracts/EveSwapPair.sol\":3720:3725  share */\n      dup5\n        /* \"contracts/EveSwapPair.sol\":3720:3736  share * reserve1 */\n      tag_140\n      swap2\n      swap1\n      tag_137\n      jump\t// in\n    tag_140:\n        /* \"contracts/EveSwapPair.sol\":3719:3751  (share * reserve1) / totalSupply */\n      tag_141\n      swap2\n      swap1\n      tag_139\n      jump\t// in\n    tag_141:\n        /* \"contracts/EveSwapPair.sol\":3706:3751  amount1Out = (share * reserve1) / totalSupply */\n      swap1\n      pop\n        /* \"contracts/EveSwapPair.sol\":3554:3759  function burnToSwap(uint share)external view returns(uint amount0Out,uint amount1Out){... */\n      swap2\n      pop\n      swap2\n      jump\t// out\n        /* \"contracts/EveSwapPair.sol\":260:282  address public factory */\n    tag_79:\n      0x02\n      0x00\n      swap1\n      sload\n      swap1\n      0x0100\n      exp\n      swap1\n      div\n      0xffffffffffffffffffffffffffffffffffffffff\n      and\n      dup2\n      jump\t// out\n        /* \"contracts/EveSwapPair.sol\":322:348  EveSwapERC20 public token1 */\n    tag_83:\n      0x04\n      0x00\n      swap1\n      sload\n      swap1\n      0x0100\n      exp\n      swap1\n      div\n      0xffffffffffffffffffffffffffffffffffffffff\n      and\n      dup2\n      jump\t// out\n        /* \"contracts/EveSwapPair.sol\":2434:2574  function updateForRemove(uint112 amount0Out,uint112 amountOut)external{... */\n    tag_87:\n        /* \"contracts/EveSwapPair.sol\":2515:2566  _update(reserve0 - amount0Out,reserve1 - amountOut) */\n      tag_143\n        /* \"contracts/EveSwapPair.sol\":2534:2544  amount0Out */\n      dup3\n        /* \"contracts/EveSwapPair.sol\":2523:2531  reserve0 */\n      0x05\n      0x00\n      swap1\n      sload\n      swap1\n      0x0100\n      exp\n      swap1\n      div\n      0xffffffffffffffffffffffffffff\n      and\n        /* \"contracts/EveSwapPair.sol\":2523:2544  reserve0 - amount0Out */\n      tag_144\n      swap2\n      swap1\n      tag_123\n      jump\t// in\n    tag_144:\n        /* \"contracts/EveSwapPair.sol\":2556:2565  amountOut */\n      dup3\n        /* \"contracts/EveSwapPair.sol\":2545:2553  reserve1 */\n      0x05\n      0x0e\n      swap1\n      sload\n      swap1\n      0x0100\n      exp\n      swap1\n      div\n      0xffffffffffffffffffffffffffff\n      and\n        /* \"contracts/EveSwapPair.sol\":2545:2565  reserve1 - amountOut */\n      tag_145\n      swap2\n      swap1\n      tag_123\n      jump\t// in\n    tag_145:\n        /* \"contracts/EveSwapPair.sol\":2515:2522  _update */\n      tag_103\n        /* \"contracts/EveSwapPair.sol\":2515:2566  _update(reserve0 - amount0Out,reserve1 - amountOut) */\n      jump\t// in\n    tag_143:\n        /* \"contracts/EveSwapPair.sol\":2434:2574  function updateForRemove(uint112 amount0Out,uint112 amountOut)external{... */\n      pop\n      pop\n      jump\t// out\n        /* \"contracts/EveSwapPair.sol\":2068:2236  function _update(uint112 _reserve0,uint112 _reserve1)internal{... */\n    tag_103:\n        /* \"contracts/EveSwapPair.sol\":2151:2160  _reserve0 */\n      dup2\n        /* \"contracts/EveSwapPair.sol\":2140:2148  reserve0 */\n      0x05\n      0x00\n        /* \"contracts/EveSwapPair.sol\":2140:2160  reserve0 = _reserve0 */\n      0x0100\n      exp\n      dup2\n      sload\n      dup2\n      0xffffffffffffffffffffffffffff\n      mul\n      not\n      and\n      swap1\n      dup4\n      0xffffffffffffffffffffffffffff\n      and\n      mul\n      or\n      swap1\n      sstore\n      pop\n        /* \"contracts/EveSwapPair.sol\":2182:2191  _reserve1 */\n      dup1\n        /* \"contracts/EveSwapPair.sol\":2171:2179  reserve1 */\n      0x05\n      0x0e\n        /* \"contracts/EveSwapPair.sol\":2171:2191  reserve1 = _reserve1 */\n      0x0100\n      exp\n      dup2\n      sload\n      dup2\n      0xffffffffffffffffffffffffffff\n      mul\n      not\n      and\n      swap1\n      dup4\n      0xffffffffffffffffffffffffffff\n      and\n      mul\n      or\n      swap1\n      sstore\n      pop\n        /* \"contracts/EveSwapPair.sol\":2202:2228  _setPriiceCumulativeLast() */\n      tag_147\n        /* \"contracts/EveSwapPair.sol\":2202:2226  _setPriiceCumulativeLast */\n      tag_148\n        /* \"contracts/EveSwapPair.sol\":2202:2228  _setPriiceCumulativeLast() */\n      jump\t// in\n    tag_147:\n        /* \"contracts/EveSwapPair.sol\":2068:2236  function _update(uint112 _reserve0,uint112 _reserve1)internal{... */\n      pop\n      pop\n      jump\t// out\n        /* \"contracts/EveSwapPair.sol\":895:1269  function _setPriiceCumulativeLast()internal{... */\n    tag_148:\n        /* \"contracts/EveSwapPair.sol\":975:976  0 */\n      0x00\n        /* \"contracts/EveSwapPair.sol\":963:971  reserve1 */\n      0x05\n      0x0e\n      swap1\n      sload\n      swap1\n      0x0100\n      exp\n      swap1\n      div\n      0xffffffffffffffffffffffffffff\n      and\n        /* \"contracts/EveSwapPair.sol\":952:960  reserve0 */\n      0x05\n      0x00\n      swap1\n      sload\n      swap1\n      0x0100\n      exp\n      swap1\n      div\n      0xffffffffffffffffffffffffffff\n      and\n        /* \"contracts/EveSwapPair.sol\":952:971  reserve0 * reserve1 */\n      tag_150\n      swap2\n      swap1\n      tag_119\n      jump\t// in\n    tag_150:\n        /* \"contracts/EveSwapPair.sol\":952:976  reserve0 * reserve1 != 0 */\n      0xffffffffffffffffffffffffffff\n      and\n      eq\n        /* \"contracts/EveSwapPair.sol\":949:1262  if(reserve0 * reserve1 != 0){... */\n      tag_151\n      jumpi\n        /* \"contracts/EveSwapPair.sol\":1083:1091  reserve0 */\n      0x05\n      0x00\n      swap1\n      sload\n      swap1\n      0x0100\n      exp\n      swap1\n      div\n      0xffffffffffffffffffffffffffff\n      and\n        /* \"contracts/EveSwapPair.sol\":1078:1081  1e7 */\n      0x989680\n        /* \"contracts/EveSwapPair.sol\":1067:1075  reserve1 */\n      0x05\n      0x0e\n      swap1\n      sload\n      swap1\n      0x0100\n      exp\n      swap1\n      div\n      0xffffffffffffffffffffffffffff\n      and\n        /* \"contracts/EveSwapPair.sol\":1067:1081  reserve1 * 1e7 */\n      tag_152\n      swap2\n      swap1\n      tag_119\n      jump\t// in\n    tag_152:\n        /* \"contracts/EveSwapPair.sol\":1067:1091  reserve1 * 1e7/ reserve0 */\n      tag_153\n      swap2\n      swap1\n      tag_121\n      jump\t// in\n    tag_153:\n        /* \"contracts/EveSwapPair.sol\":1043:1092  price0CumulativeLast = (reserve1 * 1e7/ reserve0) */\n      0xffffffffffffffffffffffffffff\n      and\n        /* \"contracts/EveSwapPair.sol\":1043:1063  price0CumulativeLast */\n      0x06\n        /* \"contracts/EveSwapPair.sol\":1043:1092  price0CumulativeLast = (reserve1 * 1e7/ reserve0) */\n      dup2\n      swap1\n      sstore\n      pop\n        /* \"contracts/EveSwapPair.sol\":1147:1155  reserve1 */\n      0x05\n      0x0e\n      swap1\n      sload\n      swap1\n      0x0100\n      exp\n      swap1\n      div\n      0xffffffffffffffffffffffffffff\n      and\n        /* \"contracts/EveSwapPair.sol\":1142:1145  1e7 */\n      0x989680\n        /* \"contracts/EveSwapPair.sol\":1131:1139  reserve0 */\n      0x05\n      0x00\n      swap1\n      sload\n      swap1\n      0x0100\n      exp\n      swap1\n      div\n      0xffffffffffffffffffffffffffff\n      and\n        /* \"contracts/EveSwapPair.sol\":1131:1145  reserve0 * 1e7 */\n      tag_154\n      swap2\n      swap1\n      tag_119\n      jump\t// in\n    tag_154:\n        /* \"contracts/EveSwapPair.sol\":1131:1155  reserve0 * 1e7/ reserve1 */\n      tag_155\n      swap2\n      swap1\n      tag_121\n      jump\t// in\n    tag_155:\n        /* \"contracts/EveSwapPair.sol\":1107:1156  price1CumulativeLast = (reserve0 * 1e7/ reserve1) */\n      0xffffffffffffffffffffffffffff\n      and\n        /* \"contracts/EveSwapPair.sol\":1107:1127  price1CumulativeLast */\n      0x07\n        /* \"contracts/EveSwapPair.sol\":1107:1156  price1CumulativeLast = (reserve0 * 1e7/ reserve1) */\n      dup2\n      swap1\n      sstore\n      pop\n        /* \"contracts/EveSwapPair.sol\":949:1262  if(reserve0 * reserve1 != 0){... */\n      jump(tag_156)\n    tag_151:\n        /* \"contracts/EveSwapPair.sol\":1210:1211  0 */\n      0x00\n        /* \"contracts/EveSwapPair.sol\":1187:1207  price0CumulativeLast */\n      0x06\n        /* \"contracts/EveSwapPair.sol\":1187:1211  price0CumulativeLast = 0 */\n      dup2\n      swap1\n      sstore\n      pop\n        /* \"contracts/EveSwapPair.sol\":1249:1250  0 */\n      0x00\n        /* \"contracts/EveSwapPair.sol\":1226:1246  price1CumulativeLast */\n      0x07\n        /* \"contracts/EveSwapPair.sol\":1226:1250  price1CumulativeLast = 0 */\n      dup2\n      swap1\n      sstore\n      pop\n        /* \"contracts/EveSwapPair.sol\":949:1262  if(reserve0 * reserve1 != 0){... */\n    tag_156:\n        /* \"contracts/EveSwapPair.sol\":895:1269  function _setPriiceCumulativeLast()internal{... */\n      jump\t// out\n        /* \"#utility.yul\":88:205   */\n    tag_158:\n        /* \"#utility.yul\":197:198   */\n      0x00\n        /* \"#utility.yul\":194:195   */\n      dup1\n        /* \"#utility.yul\":187:199   */\n      revert\n        /* \"#utility.yul\":334:460   */\n    tag_160:\n        /* \"#utility.yul\":371:378   */\n      0x00\n        /* \"#utility.yul\":411:453   */\n      0xffffffffffffffffffffffffffffffffffffffff\n        /* \"#utility.yul\":404:409   */\n      dup3\n        /* \"#utility.yul\":400:454   */\n      and\n        /* \"#utility.yul\":389:454   */\n      swap1\n      pop\n        /* \"#utility.yul\":334:460   */\n      swap2\n      swap1\n      pop\n      jump\t// out\n        /* \"#utility.yul\":466:562   */\n    tag_161:\n        /* \"#utility.yul\":503:510   */\n      0x00\n        /* \"#utility.yul\":532:556   */\n      tag_195\n        /* \"#utility.yul\":550:555   */\n      dup3\n        /* \"#utility.yul\":532:556   */\n      tag_160\n      jump\t// in\n    tag_195:\n        /* \"#utility.yul\":521:556   */\n      swap1\n      pop\n        /* \"#utility.yul\":466:562   */\n      swap2\n      swap1\n      pop\n      jump\t// out\n        /* \"#utility.yul\":568:690   */\n    tag_162:\n        /* \"#utility.yul\":641:665   */\n      tag_197\n        /* \"#utility.yul\":659:664   */\n      dup2\n        /* \"#utility.yul\":641:665   */\n      tag_161\n      jump\t// in\n    tag_197:\n        /* \"#utility.yul\":634:639   */\n      dup2\n        /* \"#utility.yul\":631:666   */\n      eq\n        /* \"#utility.yul\":621:684   */\n      tag_198\n      jumpi\n        /* \"#utility.yul\":680:681   */\n      0x00\n        /* \"#utility.yul\":677:678   */\n      dup1\n        /* \"#utility.yul\":670:682   */\n      revert\n        /* \"#utility.yul\":621:684   */\n    tag_198:\n        /* \"#utility.yul\":568:690   */\n      pop\n      jump\t// out\n        /* \"#utility.yul\":696:835   */\n    tag_163:\n        /* \"#utility.yul\":742:747   */\n      0x00\n        /* \"#utility.yul\":780:786   */\n      dup2\n        /* \"#utility.yul\":767:787   */\n      calldataload\n        /* \"#utility.yul\":758:787   */\n      swap1\n      pop\n        /* \"#utility.yul\":796:829   */\n      tag_200\n        /* \"#utility.yul\":823:828   */\n      dup2\n        /* \"#utility.yul\":796:829   */\n      tag_162\n      jump\t// in\n    tag_200:\n        /* \"#utility.yul\":696:835   */\n      swap3\n      swap2\n      pop\n      pop\n      jump\t// out\n        /* \"#utility.yul\":841:918   */\n    tag_164:\n        /* \"#utility.yul\":878:885   */\n      0x00\n        /* \"#utility.yul\":907:912   */\n      dup2\n        /* \"#utility.yul\":896:912   */\n      swap1\n      pop\n        /* \"#utility.yul\":841:918   */\n      swap2\n      swap1\n      pop\n      jump\t// out\n        /* \"#utility.yul\":924:1046   */\n    tag_165:\n        /* \"#utility.yul\":997:1021   */\n      tag_203\n        /* \"#utility.yul\":1015:1020   */\n      dup2\n        /* \"#utility.yul\":997:1021   */\n      tag_164\n      jump\t// in\n    tag_203:\n        /* \"#utility.yul\":990:995   */\n      dup2\n        /* \"#utility.yul\":987:1022   */\n      eq\n        /* \"#utility.yul\":977:1040   */\n      tag_204\n      jumpi\n        /* \"#utility.yul\":1036:1037   */\n      0x00\n        /* \"#utility.yul\":1033:1034   */\n      dup1\n        /* \"#utility.yul\":1026:1038   */\n      revert\n        /* \"#utility.yul\":977:1040   */\n    tag_204:\n        /* \"#utility.yul\":924:1046   */\n      pop\n      jump\t// out\n        /* \"#utility.yul\":1052:1191   */\n    tag_166:\n        /* \"#utility.yul\":1098:1103   */\n      0x00\n        /* \"#utility.yul\":1136:1142   */\n      dup2\n        /* \"#utility.yul\":1123:1143   */\n      calldataload\n        /* \"#utility.yul\":1114:1143   */\n      swap1\n      pop\n        /* \"#utility.yul\":1152:1185   */\n      tag_206\n        /* \"#utility.yul\":1179:1184   */\n      dup2\n        /* \"#utility.yul\":1152:1185   */\n      tag_165\n      jump\t// in\n    tag_206:\n        /* \"#utility.yul\":1052:1191   */\n      swap3\n      swap2\n      pop\n      pop\n      jump\t// out\n        /* \"#utility.yul\":1197:1816   */\n    tag_24:\n        /* \"#utility.yul\":1274:1280   */\n      0x00\n        /* \"#utility.yul\":1282:1288   */\n      dup1\n        /* \"#utility.yul\":1290:1296   */\n      0x00\n        /* \"#utility.yul\":1339:1341   */\n      0x60\n        /* \"#utility.yul\":1327:1336   */\n      dup5\n        /* \"#utility.yul\":1318:1325   */\n      dup7\n        /* \"#utility.yul\":1314:1337   */\n      sub\n        /* \"#utility.yul\":1310:1342   */\n      slt\n        /* \"#utility.yul\":1307:1426   */\n      iszero\n      tag_208\n      jumpi\n        /* \"#utility.yul\":1345:1424   */\n      tag_209\n      tag_158\n      jump\t// in\n    tag_209:\n        /* \"#utility.yul\":1307:1426   */\n    tag_208:\n        /* \"#utility.yul\":1465:1466   */\n      0x00\n        /* \"#utility.yul\":1490:1543   */\n      tag_210\n        /* \"#utility.yul\":1535:1542   */\n      dup7\n        /* \"#utility.yul\":1526:1532   */\n      dup3\n        /* \"#utility.yul\":1515:1524   */\n      dup8\n        /* \"#utility.yul\":1511:1533   */\n      add\n        /* \"#utility.yul\":1490:1543   */\n      tag_163\n      jump\t// in\n    tag_210:\n        /* \"#utility.yul\":1480:1543   */\n      swap4\n      pop\n        /* \"#utility.yul\":1436:1553   */\n      pop\n        /* \"#utility.yul\":1592:1594   */\n      0x20\n        /* \"#utility.yul\":1618:1671   */\n      tag_211\n        /* \"#utility.yul\":1663:1670   */\n      dup7\n        /* \"#utility.yul\":1654:1660   */\n      dup3\n        /* \"#utility.yul\":1643:1652   */\n      dup8\n        /* \"#utility.yul\":1639:1661   */\n      add\n        /* \"#utility.yul\":1618:1671   */\n      tag_163\n      jump\t// in\n    tag_211:\n        /* \"#utility.yul\":1608:1671   */\n      swap3\n      pop\n        /* \"#utility.yul\":1563:1681   */\n      pop\n        /* \"#utility.yul\":1720:1722   */\n      0x40\n        /* \"#utility.yul\":1746:1799   */\n      tag_212\n        /* \"#utility.yul\":1791:1798   */\n      dup7\n        /* \"#utility.yul\":1782:1788   */\n      dup3\n        /* \"#utility.yul\":1771:1780   */\n      dup8\n        /* \"#utility.yul\":1767:1789   */\n      add\n        /* \"#utility.yul\":1746:1799   */\n      tag_166\n      jump\t// in\n    tag_212:\n        /* \"#utility.yul\":1736:1799   */\n      swap2\n      pop\n        /* \"#utility.yul\":1691:1809   */\n      pop\n        /* \"#utility.yul\":1197:1816   */\n      swap3\n      pop\n      swap3\n      pop\n      swap3\n      jump\t// out\n        /* \"#utility.yul\":1822:1936   */\n    tag_167:\n        /* \"#utility.yul\":1859:1866   */\n      0x00\n        /* \"#utility.yul\":1899:1929   */\n      0xffffffffffffffffffffffffffff\n        /* \"#utility.yul\":1892:1897   */\n      dup3\n        /* \"#utility.yul\":1888:1930   */\n      and\n        /* \"#utility.yul\":1877:1930   */\n      swap1\n      pop\n        /* \"#utility.yul\":1822:1936   */\n      swap2\n      swap1\n      pop\n      jump\t// out\n        /* \"#utility.yul\":1942:2060   */\n    tag_168:\n        /* \"#utility.yul\":2029:2053   */\n      tag_215\n        /* \"#utility.yul\":2047:2052   */\n      dup2\n        /* \"#utility.yul\":2029:2053   */\n      tag_167\n      jump\t// in\n    tag_215:\n        /* \"#utility.yul\":2024:2027   */\n      dup3\n        /* \"#utility.yul\":2017:2054   */\n      mstore\n        /* \"#utility.yul\":1942:2060   */\n      pop\n      pop\n      jump\t// out\n        /* \"#utility.yul\":2066:2398   */\n    tag_29:\n        /* \"#utility.yul\":2187:2191   */\n      0x00\n        /* \"#utility.yul\":2225:2227   */\n      0x40\n        /* \"#utility.yul\":2214:2223   */\n      dup3\n        /* \"#utility.yul\":2210:2228   */\n      add\n        /* \"#utility.yul\":2202:2228   */\n      swap1\n      pop\n        /* \"#utility.yul\":2238:2309   */\n      tag_217\n        /* \"#utility.yul\":2306:2307   */\n      0x00\n        /* \"#utility.yul\":2295:2304   */\n      dup4\n        /* \"#utility.yul\":2291:2308   */\n      add\n        /* \"#utility.yul\":2282:2288   */\n      dup6\n        /* \"#utility.yul\":2238:2309   */\n      tag_168\n      jump\t// in\n    tag_217:\n        /* \"#utility.yul\":2319:2391   */\n      tag_218\n        /* \"#utility.yul\":2387:2389   */\n      0x20\n        /* \"#utility.yul\":2376:2385   */\n      dup4\n        /* \"#utility.yul\":2372:2390   */\n      add\n        /* \"#utility.yul\":2363:2369   */\n      dup5\n        /* \"#utility.yul\":2319:2391   */\n      tag_168\n      jump\t// in\n    tag_218:\n        /* \"#utility.yul\":2066:2398   */\n      swap4\n      swap3\n      pop\n      pop\n      pop\n      jump\t// out\n        /* \"#utility.yul\":2404:2464   */\n    tag_169:\n        /* \"#utility.yul\":2432:2435   */\n      0x00\n        /* \"#utility.yul\":2453:2458   */\n      dup2\n        /* \"#utility.yul\":2446:2458   */\n      swap1\n      pop\n        /* \"#utility.yul\":2404:2464   */\n      swap2\n      swap1\n      pop\n      jump\t// out\n        /* \"#utility.yul\":2470:2612   */\n    tag_170:\n        /* \"#utility.yul\":2520:2529   */\n      0x00\n        /* \"#utility.yul\":2553:2606   */\n      tag_221\n        /* \"#utility.yul\":2571:2605   */\n      tag_222\n        /* \"#utility.yul\":2580:2604   */\n      tag_223\n        /* \"#utility.yul\":2598:2603   */\n      dup5\n        /* \"#utility.yul\":2580:2604   */\n      tag_160\n      jump\t// in\n    tag_223:\n        /* \"#utility.yul\":2571:2605   */\n      tag_169\n      jump\t// in\n    tag_222:\n        /* \"#utility.yul\":2553:2606   */\n      tag_160\n      jump\t// in\n    tag_221:\n        /* \"#utility.yul\":2540:2606   */\n      swap1\n      pop\n        /* \"#utility.yul\":2470:2612   */\n      swap2\n      swap1\n      pop\n      jump\t// out\n        /* \"#utility.yul\":2618:2744   */\n    tag_171:\n        /* \"#utility.yul\":2668:2677   */\n      0x00\n        /* \"#utility.yul\":2701:2738   */\n      tag_225\n        /* \"#utility.yul\":2732:2737   */\n      dup3\n        /* \"#utility.yul\":2701:2738   */\n      tag_170\n      jump\t// in\n    tag_225:\n        /* \"#utility.yul\":2688:2738   */\n      swap1\n      pop\n        /* \"#utility.yul\":2618:2744   */\n      swap2\n      swap1\n      pop\n      jump\t// out\n        /* \"#utility.yul\":2750:2896   */\n    tag_172:\n        /* \"#utility.yul\":2820:2829   */\n      0x00\n        /* \"#utility.yul\":2853:2890   */\n      tag_227\n        /* \"#utility.yul\":2884:2889   */\n      dup3\n        /* \"#utility.yul\":2853:2890   */\n      tag_171\n      jump\t// in\n    tag_227:\n        /* \"#utility.yul\":2840:2890   */\n      swap1\n      pop\n        /* \"#utility.yul\":2750:2896   */\n      swap2\n      swap1\n      pop\n      jump\t// out\n        /* \"#utility.yul\":2902:3073   */\n    tag_173:\n        /* \"#utility.yul\":3009:3066   */\n      tag_229\n        /* \"#utility.yul\":3060:3065   */\n      dup2\n        /* \"#utility.yul\":3009:3066   */\n      tag_172\n      jump\t// in\n    tag_229:\n        /* \"#utility.yul\":3004:3007   */\n      dup3\n        /* \"#utility.yul\":2997:3067   */\n      mstore\n        /* \"#utility.yul\":2902:3073   */\n      pop\n      pop\n      jump\t// out\n        /* \"#utility.yul\":3079:3341   */\n    tag_33:\n        /* \"#utility.yul\":3192:3196   */\n      0x00\n        /* \"#utility.yul\":3230:3232   */\n      0x20\n        /* \"#utility.yul\":3219:3228   */\n      dup3\n        /* \"#utility.yul\":3215:3233   */\n      add\n        /* \"#utility.yul\":3207:3233   */\n      swap1\n      pop\n        /* \"#utility.yul\":3243:3334   */\n      tag_231\n        /* \"#utility.yul\":3331:3332   */\n      0x00\n        /* \"#utility.yul\":3320:3329   */\n      dup4\n        /* \"#utility.yul\":3316:3333   */\n      add\n        /* \"#utility.yul\":3307:3313   */\n      dup5\n        /* \"#utility.yul\":3243:3334   */\n      tag_173\n      jump\t// in\n    tag_231:\n        /* \"#utility.yul\":3079:3341   */\n      swap3\n      swap2\n      pop\n      pop\n      jump\t// out\n        /* \"#utility.yul\":3347:3465   */\n    tag_174:\n        /* \"#utility.yul\":3434:3458   */\n      tag_233\n        /* \"#utility.yul\":3452:3457   */\n      dup2\n        /* \"#utility.yul\":3434:3458   */\n      tag_164\n      jump\t// in\n    tag_233:\n        /* \"#utility.yul\":3429:3432   */\n      dup3\n        /* \"#utility.yul\":3422:3459   */\n      mstore\n        /* \"#utility.yul\":3347:3465   */\n      pop\n      pop\n      jump\t// out\n        /* \"#utility.yul\":3471:3693   */\n    tag_37:\n        /* \"#utility.yul\":3564:3568   */\n      0x00\n        /* \"#utility.yul\":3602:3604   */\n      0x20\n        /* \"#utility.yul\":3591:3600   */\n      dup3\n        /* \"#utility.yul\":3587:3605   */\n      add\n        /* \"#utility.yul\":3579:3605   */\n      swap1\n      pop\n        /* \"#utility.yul\":3615:3686   */\n      tag_235\n        /* \"#utility.yul\":3683:3684   */\n      0x00\n        /* \"#utility.yul\":3672:3681   */\n      dup4\n        /* \"#utility.yul\":3668:3685   */\n      add\n        /* \"#utility.yul\":3659:3665   */\n      dup5\n        /* \"#utility.yul\":3615:3686   */\n      tag_174\n      jump\t// in\n    tag_235:\n        /* \"#utility.yul\":3471:3693   */\n      swap3\n      swap2\n      pop\n      pop\n      jump\t// out\n        /* \"#utility.yul\":3699:3821   */\n    tag_175:\n        /* \"#utility.yul\":3772:3796   */\n      tag_237\n        /* \"#utility.yul\":3790:3795   */\n      dup2\n        /* \"#utility.yul\":3772:3796   */\n      tag_167\n      jump\t// in\n    tag_237:\n        /* \"#utility.yul\":3765:3770   */\n      dup2\n        /* \"#utility.yul\":3762:3797   */\n      eq\n        /* \"#utility.yul\":3752:3815   */\n      tag_238\n      jumpi\n        /* \"#utility.yul\":3811:3812   */\n      0x00\n        /* \"#utility.yul\":3808:3809   */\n      dup1\n        /* \"#utility.yul\":3801:3813   */\n      revert\n        /* \"#utility.yul\":3752:3815   */\n    tag_238:\n        /* \"#utility.yul\":3699:3821   */\n      pop\n      jump\t// out\n        /* \"#utility.yul\":3827:3966   */\n    tag_176:\n        /* \"#utility.yul\":3873:3878   */\n      0x00\n        /* \"#utility.yul\":3911:3917   */\n      dup2\n        /* \"#utility.yul\":3898:3918   */\n      calldataload\n        /* \"#utility.yul\":3889:3918   */\n      swap1\n      pop\n        /* \"#utility.yul\":3927:3960   */\n      tag_240\n        /* \"#utility.yul\":3954:3959   */\n      dup2\n        /* \"#utility.yul\":3927:3960   */\n      tag_175\n      jump\t// in\n    tag_240:\n        /* \"#utility.yul\":3827:3966   */\n      swap3\n      swap2\n      pop\n      pop\n      jump\t// out\n        /* \"#utility.yul\":3972:4446   */\n    tag_40:\n        /* \"#utility.yul\":4040:4046   */\n      0x00\n        /* \"#utility.yul\":4048:4054   */\n      dup1\n        /* \"#utility.yul\":4097:4099   */\n      0x40\n        /* \"#utility.yul\":4085:4094   */\n      dup4\n        /* \"#utility.yul\":4076:4083   */\n      dup6\n        /* \"#utility.yul\":4072:4095   */\n      sub\n        /* \"#utility.yul\":4068:4100   */\n      slt\n        /* \"#utility.yul\":4065:4184   */\n      iszero\n      tag_242\n      jumpi\n        /* \"#utility.yul\":4103:4182   */\n      tag_243\n      tag_158\n      jump\t// in\n    tag_243:\n        /* \"#utility.yul\":4065:4184   */\n    tag_242:\n        /* \"#utility.yul\":4223:4224   */\n      0x00\n        /* \"#utility.yul\":4248:4301   */\n      tag_244\n        /* \"#utility.yul\":4293:4300   */\n      dup6\n        /* \"#utility.yul\":4284:4290   */\n      dup3\n        /* \"#utility.yul\":4273:4282   */\n      dup7\n        /* \"#utility.yul\":4269:4291   */\n      add\n        /* \"#utility.yul\":4248:4301   */\n      tag_176\n      jump\t// in\n    tag_244:\n        /* \"#utility.yul\":4238:4301   */\n      swap3\n      pop\n        /* \"#utility.yul\":4194:4311   */\n      pop\n        /* \"#utility.yul\":4350:4352   */\n      0x20\n        /* \"#utility.yul\":4376:4429   */\n      tag_245\n        /* \"#utility.yul\":4421:4428   */\n      dup6\n        /* \"#utility.yul\":4412:4418   */\n      dup3\n        /* \"#utility.yul\":4401:4410   */\n      dup7\n        /* \"#utility.yul\":4397:4419   */\n      add\n        /* \"#utility.yul\":4376:4429   */\n      tag_176\n      jump\t// in\n    tag_245:\n        /* \"#utility.yul\":4366:4429   */\n      swap2\n      pop\n        /* \"#utility.yul\":4321:4439   */\n      pop\n        /* \"#utility.yul\":3972:4446   */\n      swap3\n      pop\n      swap3\n      swap1\n      pop\n      jump\t// out\n        /* \"#utility.yul\":4452:4545   */\n    tag_177:\n        /* \"#utility.yul\":4488:4495   */\n      0x00\n        /* \"#utility.yul\":4528:4538   */\n      0xffffffff\n        /* \"#utility.yul\":4521:4526   */\n      dup3\n        /* \"#utility.yul\":4517:4539   */\n      and\n        /* \"#utility.yul\":4506:4539   */\n      swap1\n      pop\n        /* \"#utility.yul\":4452:4545   */\n      swap2\n      swap1\n      pop\n      jump\t// out\n        /* \"#utility.yul\":4551:4666   */\n    tag_178:\n        /* \"#utility.yul\":4636:4659   */\n      tag_248\n        /* \"#utility.yul\":4653:4658   */\n      dup2\n        /* \"#utility.yul\":4636:4659   */\n      tag_177\n      jump\t// in\n    tag_248:\n        /* \"#utility.yul\":4631:4634   */\n      dup3\n        /* \"#utility.yul\":4624:4660   */\n      mstore\n        /* \"#utility.yul\":4551:4666   */\n      pop\n      pop\n      jump\t// out\n        /* \"#utility.yul\":4672:4890   */\n    tag_45:\n        /* \"#utility.yul\":4763:4767   */\n      0x00\n        /* \"#utility.yul\":4801:4803   */\n      0x20\n        /* \"#utility.yul\":4790:4799   */\n      dup3\n        /* \"#utility.yul\":4786:4804   */\n      add\n        /* \"#utility.yul\":4778:4804   */\n      swap1\n      pop\n        /* \"#utility.yul\":4814:4883   */\n      tag_250\n        /* \"#utility.yul\":4880:4881   */\n      0x00\n        /* \"#utility.yul\":4869:4878   */\n      dup4\n        /* \"#utility.yul\":4865:4882   */\n      add\n        /* \"#utility.yul\":4856:4862   */\n      dup5\n        /* \"#utility.yul\":4814:4883   */\n      tag_178\n      jump\t// in\n    tag_250:\n        /* \"#utility.yul\":4672:4890   */\n      swap3\n      swap2\n      pop\n      pop\n      jump\t// out\n        /* \"#utility.yul\":4896:5370   */\n    tag_48:\n        /* \"#utility.yul\":4964:4970   */\n      0x00\n        /* \"#utility.yul\":4972:4978   */\n      dup1\n        /* \"#utility.yul\":5021:5023   */\n      0x40\n        /* \"#utility.yul\":5009:5018   */\n      dup4\n        /* \"#utility.yul\":5000:5007   */\n      dup6\n        /* \"#utility.yul\":4996:5019   */\n      sub\n        /* \"#utility.yul\":4992:5024   */\n      slt\n        /* \"#utility.yul\":4989:5108   */\n      iszero\n      tag_252\n      jumpi\n        /* \"#utility.yul\":5027:5106   */\n      tag_253\n      tag_158\n      jump\t// in\n    tag_253:\n        /* \"#utility.yul\":4989:5108   */\n    tag_252:\n        /* \"#utility.yul\":5147:5148   */\n      0x00\n        /* \"#utility.yul\":5172:5225   */\n      tag_254\n        /* \"#utility.yul\":5217:5224   */\n      dup6\n        /* \"#utility.yul\":5208:5214   */\n      dup3\n        /* \"#utility.yul\":5197:5206   */\n      dup7\n        /* \"#utility.yul\":5193:5215   */\n      add\n        /* \"#utility.yul\":5172:5225   */\n      tag_163\n      jump\t// in\n    tag_254:\n        /* \"#utility.yul\":5162:5225   */\n      swap3\n      pop\n        /* \"#utility.yul\":5118:5235   */\n      pop\n        /* \"#utility.yul\":5274:5276   */\n      0x20\n        /* \"#utility.yul\":5300:5353   */\n      tag_255\n        /* \"#utility.yul\":5345:5352   */\n      dup6\n        /* \"#utility.yul\":5336:5342   */\n      dup3\n        /* \"#utility.yul\":5325:5334   */\n      dup7\n        /* \"#utility.yul\":5321:5343   */\n      add\n        /* \"#utility.yul\":5300:5353   */\n      tag_166\n      jump\t// in\n    tag_255:\n        /* \"#utility.yul\":5290:5353   */\n      swap2\n      pop\n        /* \"#utility.yul\":5245:5363   */\n      pop\n        /* \"#utility.yul\":4896:5370   */\n      swap3\n      pop\n      swap3\n      swap1\n      pop\n      jump\t// out\n        /* \"#utility.yul\":5376:5705   */\n    tag_55:\n        /* \"#utility.yul\":5435:5441   */\n      0x00\n        /* \"#utility.yul\":5484:5486   */\n      0x20\n        /* \"#utility.yul\":5472:5481   */\n      dup3\n        /* \"#utility.yul\":5463:5470   */\n      dup5\n        /* \"#utility.yul\":5459:5482   */\n      sub\n        /* \"#utility.yul\":5455:5487   */\n      slt\n        /* \"#utility.yul\":5452:5571   */\n      iszero\n      tag_257\n      jumpi\n        /* \"#utility.yul\":5490:5569   */\n      tag_258\n      tag_158\n      jump\t// in\n    tag_258:\n        /* \"#utility.yul\":5452:5571   */\n    tag_257:\n        /* \"#utility.yul\":5610:5611   */\n      0x00\n        /* \"#utility.yul\":5635:5688   */\n      tag_259\n        /* \"#utility.yul\":5680:5687   */\n      dup5\n        /* \"#utility.yul\":5671:5677   */\n      dup3\n        /* \"#utility.yul\":5660:5669   */\n      dup6\n        /* \"#utility.yul\":5656:5678   */\n      add\n        /* \"#utility.yul\":5635:5688   */\n      tag_163\n      jump\t// in\n    tag_259:\n        /* \"#utility.yul\":5625:5688   */\n      swap2\n      pop\n        /* \"#utility.yul\":5581:5698   */\n      pop\n        /* \"#utility.yul\":5376:5705   */\n      swap3\n      swap2\n      pop\n      pop\n      jump\t// out\n        /* \"#utility.yul\":5711:5801   */\n    tag_179:\n        /* \"#utility.yul\":5745:5752   */\n      0x00\n        /* \"#utility.yul\":5788:5793   */\n      dup2\n        /* \"#utility.yul\":5781:5794   */\n      iszero\n        /* \"#utility.yul\":5774:5795   */\n      iszero\n        /* \"#utility.yul\":5763:5795   */\n      swap1\n      pop\n        /* \"#utility.yul\":5711:5801   */\n      swap2\n      swap1\n      pop\n      jump\t// out\n        /* \"#utility.yul\":5807:5916   */\n    tag_180:\n        /* \"#utility.yul\":5888:5909   */\n      tag_262\n        /* \"#utility.yul\":5903:5908   */\n      dup2\n        /* \"#utility.yul\":5888:5909   */\n      tag_179\n      jump\t// in\n    tag_262:\n        /* \"#utility.yul\":5883:5886   */\n      dup3\n        /* \"#utility.yul\":5876:5910   */\n      mstore\n        /* \"#utility.yul\":5807:5916   */\n      pop\n      pop\n      jump\t// out\n        /* \"#utility.yul\":5922:6132   */\n    tag_65:\n        /* \"#utility.yul\":6009:6013   */\n      0x00\n        /* \"#utility.yul\":6047:6049   */\n      0x20\n        /* \"#utility.yul\":6036:6045   */\n      dup3\n        /* \"#utility.yul\":6032:6050   */\n      add\n        /* \"#utility.yul\":6024:6050   */\n      swap1\n      pop\n        /* \"#utility.yul\":6060:6125   */\n      tag_264\n        /* \"#utility.yul\":6122:6123   */\n      0x00\n        /* \"#utility.yul\":6111:6120   */\n      dup4\n        /* \"#utility.yul\":6107:6124   */\n      add\n        /* \"#utility.yul\":6098:6104   */\n      dup5\n        /* \"#utility.yul\":6060:6125   */\n      tag_180\n      jump\t// in\n    tag_264:\n        /* \"#utility.yul\":5922:6132   */\n      swap3\n      swap2\n      pop\n      pop\n      jump\t// out\n        /* \"#utility.yul\":6138:6612   */\n    tag_68:\n        /* \"#utility.yul\":6206:6212   */\n      0x00\n        /* \"#utility.yul\":6214:6220   */\n      dup1\n        /* \"#utility.yul\":6263:6265   */\n      0x40\n        /* \"#utility.yul\":6251:6260   */\n      dup4\n        /* \"#utility.yul\":6242:6249   */\n      dup6\n        /* \"#utility.yul\":6238:6261   */\n      sub\n        /* \"#utility.yul\":6234:6266   */\n      slt\n        /* \"#utility.yul\":6231:6350   */\n      iszero\n      tag_266\n      jumpi\n        /* \"#utility.yul\":6269:6348   */\n      tag_267\n      tag_158\n      jump\t// in\n    tag_267:\n        /* \"#utility.yul\":6231:6350   */\n    tag_266:\n        /* \"#utility.yul\":6389:6390   */\n      0x00\n        /* \"#utility.yul\":6414:6467   */\n      tag_268\n        /* \"#utility.yul\":6459:6466   */\n      dup6\n        /* \"#utility.yul\":6450:6456   */\n      dup3\n        /* \"#utility.yul\":6439:6448   */\n      dup7\n        /* \"#utility.yul\":6435:6457   */\n      add\n        /* \"#utility.yul\":6414:6467   */\n      tag_163\n      jump\t// in\n    tag_268:\n        /* \"#utility.yul\":6404:6467   */\n      swap3\n      pop\n        /* \"#utility.yul\":6360:6477   */\n      pop\n        /* \"#utility.yul\":6516:6518   */\n      0x20\n        /* \"#utility.yul\":6542:6595   */\n      tag_269\n        /* \"#utility.yul\":6587:6594   */\n      dup6\n        /* \"#utility.yul\":6578:6584   */\n      dup3\n        /* \"#utility.yul\":6567:6576   */\n      dup7\n        /* \"#utility.yul\":6563:6585   */\n      add\n        /* \"#utility.yul\":6542:6595   */\n      tag_176\n      jump\t// in\n    tag_269:\n        /* \"#utility.yul\":6532:6595   */\n      swap2\n      pop\n        /* \"#utility.yul\":6487:6605   */\n      pop\n        /* \"#utility.yul\":6138:6612   */\n      swap3\n      pop\n      swap3\n      swap1\n      pop\n      jump\t// out\n        /* \"#utility.yul\":6618:6840   */\n    tag_71:\n        /* \"#utility.yul\":6711:6715   */\n      0x00\n        /* \"#utility.yul\":6749:6751   */\n      0x20\n        /* \"#utility.yul\":6738:6747   */\n      dup3\n        /* \"#utility.yul\":6734:6752   */\n      add\n        /* \"#utility.yul\":6726:6752   */\n      swap1\n      pop\n        /* \"#utility.yul\":6762:6833   */\n      tag_271\n        /* \"#utility.yul\":6830:6831   */\n      0x00\n        /* \"#utility.yul\":6819:6828   */\n      dup4\n        /* \"#utility.yul\":6815:6832   */\n      add\n        /* \"#utility.yul\":6806:6812   */\n      dup5\n        /* \"#utility.yul\":6762:6833   */\n      tag_168\n      jump\t// in\n    tag_271:\n        /* \"#utility.yul\":6618:6840   */\n      swap3\n      swap2\n      pop\n      pop\n      jump\t// out\n        /* \"#utility.yul\":6846:7175   */\n    tag_74:\n        /* \"#utility.yul\":6905:6911   */\n      0x00\n        /* \"#utility.yul\":6954:6956   */\n      0x20\n        /* \"#utility.yul\":6942:6951   */\n      dup3\n        /* \"#utility.yul\":6933:6940   */\n      dup5\n        /* \"#utility.yul\":6929:6952   */\n      sub\n        /* \"#utility.yul\":6925:6957   */\n      slt\n        /* \"#utility.yul\":6922:7041   */\n      iszero\n      tag_273\n      jumpi\n        /* \"#utility.yul\":6960:7039   */\n      tag_274\n      tag_158\n      jump\t// in\n    tag_274:\n        /* \"#utility.yul\":6922:7041   */\n    tag_273:\n        /* \"#utility.yul\":7080:7081   */\n      0x00\n        /* \"#utility.yul\":7105:7158   */\n      tag_275\n        /* \"#utility.yul\":7150:7157   */\n      dup5\n        /* \"#utility.yul\":7141:7147   */\n      dup3\n        /* \"#utility.yul\":7130:7139   */\n      dup6\n        /* \"#utility.yul\":7126:7148   */\n      add\n        /* \"#utility.yul\":7105:7158   */\n      tag_166\n      jump\t// in\n    tag_275:\n        /* \"#utility.yul\":7095:7158   */\n      swap2\n      pop\n        /* \"#utility.yul\":7051:7168   */\n      pop\n        /* \"#utility.yul\":6846:7175   */\n      swap3\n      swap2\n      pop\n      pop\n      jump\t// out\n        /* \"#utility.yul\":7181:7513   */\n    tag_77:\n        /* \"#utility.yul\":7302:7306   */\n      0x00\n        /* \"#utility.yul\":7340:7342   */\n      0x40\n        /* \"#utility.yul\":7329:7338   */\n      dup3\n        /* \"#utility.yul\":7325:7343   */\n      add\n        /* \"#utility.yul\":7317:7343   */\n      swap1\n      pop\n        /* \"#utility.yul\":7353:7424   */\n      tag_277\n        /* \"#utility.yul\":7421:7422   */\n      0x00\n        /* \"#utility.yul\":7410:7419   */\n      dup4\n        /* \"#utility.yul\":7406:7423   */\n      add\n        /* \"#utility.yul\":7397:7403   */\n      dup6\n        /* \"#utility.yul\":7353:7424   */\n      tag_174\n      jump\t// in\n    tag_277:\n        /* \"#utility.yul\":7434:7506   */\n      tag_278\n        /* \"#utility.yul\":7502:7504   */\n      0x20\n        /* \"#utility.yul\":7491:7500   */\n      dup4\n        /* \"#utility.yul\":7487:7505   */\n      add\n        /* \"#utility.yul\":7478:7484   */\n      dup5\n        /* \"#utility.yul\":7434:7506   */\n      tag_174\n      jump\t// in\n    tag_278:\n        /* \"#utility.yul\":7181:7513   */\n      swap4\n      swap3\n      pop\n      pop\n      pop\n      jump\t// out\n        /* \"#utility.yul\":7519:7637   */\n    tag_181:\n        /* \"#utility.yul\":7606:7630   */\n      tag_280\n        /* \"#utility.yul\":7624:7629   */\n      dup2\n        /* \"#utility.yul\":7606:7630   */\n      tag_161\n      jump\t// in\n    tag_280:\n        /* \"#utility.yul\":7601:7604   */\n      dup3\n        /* \"#utility.yul\":7594:7631   */\n      mstore\n        /* \"#utility.yul\":7519:7637   */\n      pop\n      pop\n      jump\t// out\n        /* \"#utility.yul\":7643:7865   */\n    tag_81:\n        /* \"#utility.yul\":7736:7740   */\n      0x00\n        /* \"#utility.yul\":7774:7776   */\n      0x20\n        /* \"#utility.yul\":7763:7772   */\n      dup3\n        /* \"#utility.yul\":7759:7777   */\n      add\n        /* \"#utility.yul\":7751:7777   */\n      swap1\n      pop\n        /* \"#utility.yul\":7787:7858   */\n      tag_282\n        /* \"#utility.yul\":7855:7856   */\n      0x00\n        /* \"#utility.yul\":7844:7853   */\n      dup4\n        /* \"#utility.yul\":7840:7857   */\n      add\n        /* \"#utility.yul\":7831:7837   */\n      dup5\n        /* \"#utility.yul\":7787:7858   */\n      tag_181\n      jump\t// in\n    tag_282:\n        /* \"#utility.yul\":7643:7865   */\n      swap3\n      swap2\n      pop\n      pop\n      jump\t// out\n        /* \"#utility.yul\":7871:8203   */\n    tag_92:\n        /* \"#utility.yul\":7992:7996   */\n      0x00\n        /* \"#utility.yul\":8030:8032   */\n      0x40\n        /* \"#utility.yul\":8019:8028   */\n      dup3\n        /* \"#utility.yul\":8015:8033   */\n      add\n        /* \"#utility.yul\":8007:8033   */\n      swap1\n      pop\n        /* \"#utility.yul\":8043:8114   */\n      tag_284\n        /* \"#utility.yul\":8111:8112   */\n      0x00\n        /* \"#utility.yul\":8100:8109   */\n      dup4\n        /* \"#utility.yul\":8096:8113   */\n      add\n        /* \"#utility.yul\":8087:8093   */\n      dup6\n        /* \"#utility.yul\":8043:8114   */\n      tag_181\n      jump\t// in\n    tag_284:\n        /* \"#utility.yul\":8124:8196   */\n      tag_285\n        /* \"#utility.yul\":8192:8194   */\n      0x20\n        /* \"#utility.yul\":8181:8190   */\n      dup4\n        /* \"#utility.yul\":8177:8195   */\n      add\n        /* \"#utility.yul\":8168:8174   */\n      dup5\n        /* \"#utility.yul\":8124:8196   */\n      tag_174\n      jump\t// in\n    tag_285:\n        /* \"#utility.yul\":7871:8203   */\n      swap4\n      swap3\n      pop\n      pop\n      pop\n      jump\t// out\n        /* \"#utility.yul\":8209:8325   */\n    tag_182:\n        /* \"#utility.yul\":8279:8300   */\n      tag_287\n        /* \"#utility.yul\":8294:8299   */\n      dup2\n        /* \"#utility.yul\":8279:8300   */\n      tag_179\n      jump\t// in\n    tag_287:\n        /* \"#utility.yul\":8272:8277   */\n      dup2\n        /* \"#utility.yul\":8269:8301   */\n      eq\n        /* \"#utility.yul\":8259:8319   */\n      tag_288\n      jumpi\n        /* \"#utility.yul\":8315:8316   */\n      0x00\n        /* \"#utility.yul\":8312:8313   */\n      dup1\n        /* \"#utility.yul\":8305:8317   */\n      revert\n        /* \"#utility.yul\":8259:8319   */\n    tag_288:\n        /* \"#utility.yul\":8209:8325   */\n      pop\n      jump\t// out\n        /* \"#utility.yul\":8331:8468   */\n    tag_183:\n        /* \"#utility.yul\":8385:8390   */\n      0x00\n        /* \"#utility.yul\":8416:8422   */\n      dup2\n        /* \"#utility.yul\":8410:8423   */\n      mload\n        /* \"#utility.yul\":8401:8423   */\n      swap1\n      pop\n        /* \"#utility.yul\":8432:8462   */\n      tag_290\n        /* \"#utility.yul\":8456:8461   */\n      dup2\n        /* \"#utility.yul\":8432:8462   */\n      tag_182\n      jump\t// in\n    tag_290:\n        /* \"#utility.yul\":8331:8468   */\n      swap3\n      swap2\n      pop\n      pop\n      jump\t// out\n        /* \"#utility.yul\":8474:8819   */\n    tag_96:\n        /* \"#utility.yul\":8541:8547   */\n      0x00\n        /* \"#utility.yul\":8590:8592   */\n      0x20\n        /* \"#utility.yul\":8578:8587   */\n      dup3\n        /* \"#utility.yul\":8569:8576   */\n      dup5\n        /* \"#utility.yul\":8565:8588   */\n      sub\n        /* \"#utility.yul\":8561:8593   */\n      slt\n        /* \"#utility.yul\":8558:8677   */\n      iszero\n      tag_292\n      jumpi\n        /* \"#utility.yul\":8596:8675   */\n      tag_293\n      tag_158\n      jump\t// in\n    tag_293:\n        /* \"#utility.yul\":8558:8677   */\n    tag_292:\n        /* \"#utility.yul\":8716:8717   */\n      0x00\n        /* \"#utility.yul\":8741:8802   */\n      tag_294\n        /* \"#utility.yul\":8794:8801   */\n      dup5\n        /* \"#utility.yul\":8785:8791   */\n      dup3\n        /* \"#utility.yul\":8774:8783   */\n      dup6\n        /* \"#utility.yul\":8770:8792   */\n      add\n        /* \"#utility.yul\":8741:8802   */\n      tag_183\n      jump\t// in\n    tag_294:\n        /* \"#utility.yul\":8731:8802   */\n      swap2\n      pop\n        /* \"#utility.yul\":8687:8812   */\n      pop\n        /* \"#utility.yul\":8474:8819   */\n      swap3\n      swap2\n      pop\n      pop\n      jump\t// out\n        /* \"#utility.yul\":8825:9005   */\n    tag_184:\n        /* \"#utility.yul\":8873:8950   */\n      0x4e487b7100000000000000000000000000000000000000000000000000000000\n        /* \"#utility.yul\":8870:8871   */\n      0x00\n        /* \"#utility.yul\":8863:8951   */\n      mstore\n        /* \"#utility.yul\":8970:8974   */\n      0x11\n        /* \"#utility.yul\":8967:8968   */\n      0x04\n        /* \"#utility.yul\":8960:8975   */\n      mstore\n        /* \"#utility.yul\":8994:8998   */\n      0x24\n        /* \"#utility.yul\":8991:8992   */\n      0x00\n        /* \"#utility.yul\":8984:8999   */\n      revert\n        /* \"#utility.yul\":9011:9231   */\n    tag_101:\n        /* \"#utility.yul\":9051:9054   */\n      0x00\n        /* \"#utility.yul\":9070:9090   */\n      tag_297\n        /* \"#utility.yul\":9088:9089   */\n      dup3\n        /* \"#utility.yul\":9070:9090   */\n      tag_167\n      jump\t// in\n    tag_297:\n        /* \"#utility.yul\":9065:9090   */\n      swap2\n      pop\n        /* \"#utility.yul\":9104:9124   */\n      tag_298\n        /* \"#utility.yul\":9122:9123   */\n      dup4\n        /* \"#utility.yul\":9104:9124   */\n      tag_167\n      jump\t// in\n    tag_298:\n        /* \"#utility.yul\":9099:9124   */\n      swap3\n      pop\n        /* \"#utility.yul\":9147:9148   */\n      dup3\n        /* \"#utility.yul\":9144:9145   */\n      dup3\n        /* \"#utility.yul\":9140:9149   */\n      add\n        /* \"#utility.yul\":9133:9149   */\n      swap1\n      pop\n        /* \"#utility.yul\":9170:9200   */\n      0xffffffffffffffffffffffffffff\n        /* \"#utility.yul\":9165:9168   */\n      dup2\n        /* \"#utility.yul\":9162:9201   */\n      gt\n        /* \"#utility.yul\":9159:9224   */\n      iszero\n      tag_299\n      jumpi\n        /* \"#utility.yul\":9204:9222   */\n      tag_300\n      tag_184\n      jump\t// in\n    tag_300:\n        /* \"#utility.yul\":9159:9224   */\n    tag_299:\n        /* \"#utility.yul\":9011:9231   */\n      swap3\n      swap2\n      pop\n      pop\n      jump\t// out\n        /* \"#utility.yul\":9237:9428   */\n    tag_107:\n        /* \"#utility.yul\":9277:9280   */\n      0x00\n        /* \"#utility.yul\":9296:9316   */\n      tag_302\n        /* \"#utility.yul\":9314:9315   */\n      dup3\n        /* \"#utility.yul\":9296:9316   */\n      tag_164\n      jump\t// in\n    tag_302:\n        /* \"#utility.yul\":9291:9316   */\n      swap2\n      pop\n        /* \"#utility.yul\":9330:9350   */\n      tag_303\n        /* \"#utility.yul\":9348:9349   */\n      dup4\n        /* \"#utility.yul\":9330:9350   */\n      tag_164\n      jump\t// in\n    tag_303:\n        /* \"#utility.yul\":9325:9350   */\n      swap3\n      pop\n        /* \"#utility.yul\":9373:9374   */\n      dup3\n        /* \"#utility.yul\":9370:9371   */\n      dup3\n        /* \"#utility.yul\":9366:9375   */\n      add\n        /* \"#utility.yul\":9359:9375   */\n      swap1\n      pop\n        /* \"#utility.yul\":9394:9397   */\n      dup1\n        /* \"#utility.yul\":9391:9392   */\n      dup3\n        /* \"#utility.yul\":9388:9398   */\n      gt\n        /* \"#utility.yul\":9385:9421   */\n      iszero\n      tag_304\n      jumpi\n        /* \"#utility.yul\":9401:9419   */\n      tag_305\n      tag_184\n      jump\t// in\n    tag_305:\n        /* \"#utility.yul\":9385:9421   */\n    tag_304:\n        /* \"#utility.yul\":9237:9428   */\n      swap3\n      swap2\n      pop\n      pop\n      jump\t// out\n        /* \"#utility.yul\":9434:9628   */\n    tag_112:\n        /* \"#utility.yul\":9474:9478   */\n      0x00\n        /* \"#utility.yul\":9494:9514   */\n      tag_307\n        /* \"#utility.yul\":9512:9513   */\n      dup3\n        /* \"#utility.yul\":9494:9514   */\n      tag_164\n      jump\t// in\n    tag_307:\n        /* \"#utility.yul\":9489:9514   */\n      swap2\n      pop\n        /* \"#utility.yul\":9528:9548   */\n      tag_308\n        /* \"#utility.yul\":9546:9547   */\n      dup4\n        /* \"#utility.yul\":9528:9548   */\n      tag_164\n      jump\t// in\n    tag_308:\n        /* \"#utility.yul\":9523:9548   */\n      swap3\n      pop\n        /* \"#utility.yul\":9572:9573   */\n      dup3\n        /* \"#utility.yul\":9569:9570   */\n      dup3\n        /* \"#utility.yul\":9565:9574   */\n      sub\n        /* \"#utility.yul\":9557:9574   */\n      swap1\n      pop\n        /* \"#utility.yul\":9596:9597   */\n      dup2\n        /* \"#utility.yul\":9590:9594   */\n      dup2\n        /* \"#utility.yul\":9587:9598   */\n      gt\n        /* \"#utility.yul\":9584:9621   */\n      iszero\n      tag_309\n      jumpi\n        /* \"#utility.yul\":9601:9619   */\n      tag_310\n      tag_184\n      jump\t// in\n    tag_310:\n        /* \"#utility.yul\":9584:9621   */\n    tag_309:\n        /* \"#utility.yul\":9434:9628   */\n      swap3\n      swap2\n      pop\n      pop\n      jump\t// out\n        /* \"#utility.yul\":9634:9913   */\n    tag_119:\n        /* \"#utility.yul\":9674:9681   */\n      0x00\n        /* \"#utility.yul\":9697:9717   */\n      tag_312\n        /* \"#utility.yul\":9715:9716   */\n      dup3\n        /* \"#utility.yul\":9697:9717   */\n      tag_167\n      jump\t// in\n    tag_312:\n        /* \"#utility.yul\":9692:9717   */\n      swap2\n      pop\n        /* \"#utility.yul\":9731:9751   */\n      tag_313\n        /* \"#utility.yul\":9749:9750   */\n      dup4\n        /* \"#utility.yul\":9731:9751   */\n      tag_167\n      jump\t// in\n    tag_313:\n        /* \"#utility.yul\":9726:9751   */\n      swap3\n      pop\n        /* \"#utility.yul\":9786:9787   */\n      dup3\n        /* \"#utility.yul\":9783:9784   */\n      dup3\n        /* \"#utility.yul\":9779:9788   */\n      mul\n        /* \"#utility.yul\":9808:9838   */\n      tag_314\n        /* \"#utility.yul\":9826:9837   */\n      dup2\n        /* \"#utility.yul\":9808:9838   */\n      tag_167\n      jump\t// in\n    tag_314:\n        /* \"#utility.yul\":9797:9838   */\n      swap2\n      pop\n        /* \"#utility.yul\":9870:9881   */\n      dup1\n        /* \"#utility.yul\":9861:9868   */\n      dup3\n        /* \"#utility.yul\":9858:9882   */\n      eq\n        /* \"#utility.yul\":9848:9906   */\n      tag_315\n      jumpi\n        /* \"#utility.yul\":9886:9904   */\n      tag_316\n      tag_184\n      jump\t// in\n    tag_316:\n        /* \"#utility.yul\":9848:9906   */\n    tag_315:\n        /* \"#utility.yul\":9682:9913   */\n      pop\n        /* \"#utility.yul\":9634:9913   */\n      swap3\n      swap2\n      pop\n      pop\n      jump\t// out\n        /* \"#utility.yul\":9919:10099   */\n    tag_185:\n        /* \"#utility.yul\":9967:10044   */\n      0x4e487b7100000000000000000000000000000000000000000000000000000000\n        /* \"#utility.yul\":9964:9965   */\n      0x00\n        /* \"#utility.yul\":9957:10045   */\n      mstore\n        /* \"#utility.yul\":10064:10068   */\n      0x12\n        /* \"#utility.yul\":10061:10062   */\n      0x04\n        /* \"#utility.yul\":10054:10069   */\n      mstore\n        /* \"#utility.yul\":10088:10092   */\n      0x24\n        /* \"#utility.yul\":10085:10086   */\n      0x00\n        /* \"#utility.yul\":10078:10093   */\n      revert\n        /* \"#utility.yul\":10105:10290   */\n    tag_121:\n        /* \"#utility.yul\":10145:10146   */\n      0x00\n        /* \"#utility.yul\":10162:10182   */\n      tag_319\n        /* \"#utility.yul\":10180:10181   */\n      dup3\n        /* \"#utility.yul\":10162:10182   */\n      tag_167\n      jump\t// in\n    tag_319:\n        /* \"#utility.yul\":10157:10182   */\n      swap2\n      pop\n        /* \"#utility.yul\":10196:10216   */\n      tag_320\n        /* \"#utility.yul\":10214:10215   */\n      dup4\n        /* \"#utility.yul\":10196:10216   */\n      tag_167\n      jump\t// in\n    tag_320:\n        /* \"#utility.yul\":10191:10216   */\n      swap3\n      pop\n        /* \"#utility.yul\":10235:10236   */\n      dup3\n        /* \"#utility.yul\":10225:10260   */\n      tag_321\n      jumpi\n        /* \"#utility.yul\":10240:10258   */\n      tag_322\n      tag_185\n      jump\t// in\n    tag_322:\n        /* \"#utility.yul\":10225:10260   */\n    tag_321:\n        /* \"#utility.yul\":10282:10283   */\n      dup3\n        /* \"#utility.yul\":10279:10280   */\n      dup3\n        /* \"#utility.yul\":10275:10284   */\n      div\n        /* \"#utility.yul\":10270:10284   */\n      swap1\n      pop\n        /* \"#utility.yul\":10105:10290   */\n      swap3\n      swap2\n      pop\n      pop\n      jump\t// out\n        /* \"#utility.yul\":10296:10519   */\n    tag_123:\n        /* \"#utility.yul\":10336:10340   */\n      0x00\n        /* \"#utility.yul\":10356:10376   */\n      tag_324\n        /* \"#utility.yul\":10374:10375   */\n      dup3\n        /* \"#utility.yul\":10356:10376   */\n      tag_167\n      jump\t// in\n    tag_324:\n        /* \"#utility.yul\":10351:10376   */\n      swap2\n      pop\n        /* \"#utility.yul\":10390:10410   */\n      tag_325\n        /* \"#utility.yul\":10408:10409   */\n      dup4\n        /* \"#utility.yul\":10390:10410   */\n      tag_167\n      jump\t// in\n    tag_325:\n        /* \"#utility.yul\":10385:10410   */\n      swap3\n      pop\n        /* \"#utility.yul\":10434:10435   */\n      dup3\n        /* \"#utility.yul\":10431:10432   */\n      dup3\n        /* \"#utility.yul\":10427:10436   */\n      sub\n        /* \"#utility.yul\":10419:10436   */\n      swap1\n      pop\n        /* \"#utility.yul\":10458:10488   */\n      0xffffffffffffffffffffffffffff\n        /* \"#utility.yul\":10452:10456   */\n      dup2\n        /* \"#utility.yul\":10449:10489   */\n      gt\n        /* \"#utility.yul\":10446:10512   */\n      iszero\n      tag_326\n      jumpi\n        /* \"#utility.yul\":10492:10510   */\n      tag_327\n      tag_184\n      jump\t// in\n    tag_327:\n        /* \"#utility.yul\":10446:10512   */\n    tag_326:\n        /* \"#utility.yul\":10296:10519   */\n      swap3\n      swap2\n      pop\n      pop\n      jump\t// out\n        /* \"#utility.yul\":10525:10694   */\n    tag_186:\n        /* \"#utility.yul\":10609:10620   */\n      0x00\n        /* \"#utility.yul\":10643:10649   */\n      dup3\n        /* \"#utility.yul\":10638:10641   */\n      dup3\n        /* \"#utility.yul\":10631:10650   */\n      mstore\n        /* \"#utility.yul\":10683:10687   */\n      0x20\n        /* \"#utility.yul\":10678:10681   */\n      dup3\n        /* \"#utility.yul\":10674:10688   */\n      add\n        /* \"#utility.yul\":10659:10688   */\n      swap1\n      pop\n        /* \"#utility.yul\":10525:10694   */\n      swap3\n      swap2\n      pop\n      pop\n      jump\t// out\n        /* \"#utility.yul\":10700:10881   */\n    tag_187:\n        /* \"#utility.yul\":10840:10873   */\n      0x506169723a4174206c6561737420746f2073776170206f6e6520746f6b656e00\n        /* \"#utility.yul\":10836:10837   */\n      0x00\n        /* \"#utility.yul\":10828:10834   */\n      dup3\n        /* \"#utility.yul\":10824:10838   */\n      add\n        /* \"#utility.yul\":10817:10874   */\n      mstore\n        /* \"#utility.yul\":10700:10881   */\n      pop\n      jump\t// out\n        /* \"#utility.yul\":10887:11253   */\n    tag_188:\n        /* \"#utility.yul\":11029:11032   */\n      0x00\n        /* \"#utility.yul\":11050:11117   */\n      tag_331\n        /* \"#utility.yul\":11114:11116   */\n      0x1f\n        /* \"#utility.yul\":11109:11112   */\n      dup4\n        /* \"#utility.yul\":11050:11117   */\n      tag_186\n      jump\t// in\n    tag_331:\n        /* \"#utility.yul\":11043:11117   */\n      swap2\n      pop\n        /* \"#utility.yul\":11126:11219   */\n      tag_332\n        /* \"#utility.yul\":11215:11218   */\n      dup3\n        /* \"#utility.yul\":11126:11219   */\n      tag_187\n      jump\t// in\n    tag_332:\n        /* \"#utility.yul\":11244:11246   */\n      0x20\n        /* \"#utility.yul\":11239:11242   */\n      dup3\n        /* \"#utility.yul\":11235:11247   */\n      add\n        /* \"#utility.yul\":11228:11247   */\n      swap1\n      pop\n        /* \"#utility.yul\":10887:11253   */\n      swap2\n      swap1\n      pop\n      jump\t// out\n        /* \"#utility.yul\":11259:11678   */\n    tag_126:\n        /* \"#utility.yul\":11425:11429   */\n      0x00\n        /* \"#utility.yul\":11463:11465   */\n      0x20\n        /* \"#utility.yul\":11452:11461   */\n      dup3\n        /* \"#utility.yul\":11448:11466   */\n      add\n        /* \"#utility.yul\":11440:11466   */\n      swap1\n      pop\n        /* \"#utility.yul\":11512:11521   */\n      dup2\n        /* \"#utility.yul\":11506:11510   */\n      dup2\n        /* \"#utility.yul\":11502:11522   */\n      sub\n        /* \"#utility.yul\":11498:11499   */\n      0x00\n        /* \"#utility.yul\":11487:11496   */\n      dup4\n        /* \"#utility.yul\":11483:11500   */\n      add\n        /* \"#utility.yul\":11476:11523   */\n      mstore\n        /* \"#utility.yul\":11540:11671   */\n      tag_334\n        /* \"#utility.yul\":11666:11670   */\n      dup2\n        /* \"#utility.yul\":11540:11671   */\n      tag_188\n      jump\t// in\n    tag_334:\n        /* \"#utility.yul\":11532:11671   */\n      swap1\n      pop\n        /* \"#utility.yul\":11259:11678   */\n      swap2\n      swap1\n      pop\n      jump\t// out\n        /* \"#utility.yul\":11684:12094   */\n    tag_137:\n        /* \"#utility.yul\":11724:11731   */\n      0x00\n        /* \"#utility.yul\":11747:11767   */\n      tag_336\n        /* \"#utility.yul\":11765:11766   */\n      dup3\n        /* \"#utility.yul\":11747:11767   */\n      tag_164\n      jump\t// in\n    tag_336:\n        /* \"#utility.yul\":11742:11767   */\n      swap2\n      pop\n        /* \"#utility.yul\":11781:11801   */\n      tag_337\n        /* \"#utility.yul\":11799:11800   */\n      dup4\n        /* \"#utility.yul\":11781:11801   */\n      tag_164\n      jump\t// in\n    tag_337:\n        /* \"#utility.yul\":11776:11801   */\n      swap3\n      pop\n        /* \"#utility.yul\":11836:11837   */\n      dup3\n        /* \"#utility.yul\":11833:11834   */\n      dup3\n        /* \"#utility.yul\":11829:11838   */\n      mul\n        /* \"#utility.yul\":11858:11888   */\n      tag_338\n        /* \"#utility.yul\":11876:11887   */\n      dup2\n        /* \"#utility.yul\":11858:11888   */\n      tag_164\n      jump\t// in\n    tag_338:\n        /* \"#utility.yul\":11847:11888   */\n      swap2\n      pop\n        /* \"#utility.yul\":12037:12038   */\n      dup3\n        /* \"#utility.yul\":12028:12035   */\n      dup3\n        /* \"#utility.yul\":12024:12039   */\n      div\n        /* \"#utility.yul\":12021:12022   */\n      dup5\n        /* \"#utility.yul\":12018:12040   */\n      eq\n        /* \"#utility.yul\":11998:11999   */\n      dup4\n        /* \"#utility.yul\":11991:12000   */\n      iszero\n        /* \"#utility.yul\":11971:12054   */\n      or\n        /* \"#utility.yul\":11948:12087   */\n      tag_339\n      jumpi\n        /* \"#utility.yul\":12067:12085   */\n      tag_340\n      tag_184\n      jump\t// in\n    tag_340:\n        /* \"#utility.yul\":11948:12087   */\n    tag_339:\n        /* \"#utility.yul\":11732:12094   */\n      pop\n        /* \"#utility.yul\":11684:12094   */\n      swap3\n      swap2\n      pop\n      pop\n      jump\t// out\n        /* \"#utility.yul\":12100:12285   */\n    tag_139:\n        /* \"#utility.yul\":12140:12141   */\n      0x00\n        /* \"#utility.yul\":12157:12177   */\n      tag_342\n        /* \"#utility.yul\":12175:12176   */\n      dup3\n        /* \"#utility.yul\":12157:12177   */\n      tag_164\n      jump\t// in\n    tag_342:\n        /* \"#utility.yul\":12152:12177   */\n      swap2\n      pop\n        /* \"#utility.yul\":12191:12211   */\n      tag_343\n        /* \"#utility.yul\":12209:12210   */\n      dup4\n        /* \"#utility.yul\":12191:12211   */\n      tag_164\n      jump\t// in\n    tag_343:\n        /* \"#utility.yul\":12186:12211   */\n      swap3\n      pop\n        /* \"#utility.yul\":12230:12231   */\n      dup3\n        /* \"#utility.yul\":12220:12255   */\n      tag_344\n      jumpi\n        /* \"#utility.yul\":12235:12253   */\n      tag_345\n      tag_185\n      jump\t// in\n    tag_345:\n        /* \"#utility.yul\":12220:12255   */\n    tag_344:\n        /* \"#utility.yul\":12277:12278   */\n      dup3\n        /* \"#utility.yul\":12274:12275   */\n      dup3\n        /* \"#utility.yul\":12270:12279   */\n      div\n        /* \"#utility.yul\":12265:12279   */\n      swap1\n      pop\n        /* \"#utility.yul\":12100:12285   */\n      swap3\n      swap2\n      pop\n      pop\n      jump\t// out\n\n    auxdata: 0xa26469706673582212204464d1f7cf9e7d83fa164885d5f048abbbde173f7870029c4a92607bf69c797964736f6c63430008160033\n}\n",
				"bytecode": {
					"linkReferences": {},
					"object": "608060405234801562000010575f80fd5b506040516200146038038062001460833981810160405281019062000036919062000184565b8160035f6101000a81548173ffffffffffffffffffffffffffffffffffffffff021916908373ffffffffffffffffffffffffffffffffffffffff1602179055508060045f6101000a81548173ffffffffffffffffffffffffffffffffffffffff021916908373ffffffffffffffffffffffffffffffffffffffff1602179055503360025f6101000a81548173ffffffffffffffffffffffffffffffffffffffff021916908373ffffffffffffffffffffffffffffffffffffffff160217905550426005601c6101000a81548163ffffffff021916908363ffffffff1602179055505050620001c9565b5f80fd5b5f73ffffffffffffffffffffffffffffffffffffffff82169050919050565b5f6200014e8262000123565b9050919050565b620001608162000142565b81146200016b575f80fd5b50565b5f815190506200017e8162000155565b92915050565b5f80604083850312156200019d576200019c6200011f565b5b5f620001ac858286016200016e565b9250506020620001bf858286016200016e565b9150509250929050565b61128980620001d75f395ff3fe608060405234801561000f575f80fd5b50600436106100fe575f3560e01c806359962def11610095578063b576480011610064578063b57648001461029b578063c45a0155146102cc578063d21220a7146102ea578063fc76a38314610308576100fe565b806359962def146101ed5780635a3d54931461021d5780636161eb181461023b578063b10de9fc1461026b576100fe565b80632d889f6a116100d15780632d889f6a14610179578063380f0b41146101955780634e6ec247146101b35780635909c0d5146101cf576100fe565b8063078d3b79146101025780630902f1ac1461011e5780630dfe16811461013d57806318160ddd1461015b575b5f80fd5b61011c60048036038101906101179190610bf9565b610324565b005b61012661044c565b604051610134929190610c71565b60405180910390f35b61014561048f565b6040516101529190610cf3565b60405180910390f35b6101636104b4565b6040516101709190610d1b565b60405180910390f35b610193600480360381019061018e9190610d5e565b6104b9565b005b61019d610514565b6040516101aa9190610dba565b60405180910390f35b6101cd60048036038101906101c89190610dd3565b61052d565b005b6101d761059b565b6040516101e49190610d1b565b60405180910390f35b61020760048036038101906102029190610e11565b6105a1565b6040516102149190610d1b565b60405180910390f35b6102256105e7565b6040516102329190610d1b565b60405180910390f35b61025560048036038101906102509190610dd3565b6105ed565b6040516102629190610e56565b60405180910390f35b61028560048036038101906102809190610e6f565b610662565b6040516102929190610ead565b60405180910390f35b6102b560048036038101906102b09190610ec6565b61087f565b6040516102c3929190610ef1565b60405180910390f35b6102d4610911565b6040516102e19190610f27565b60405180910390f35b6102f2610936565b6040516102ff9190610cf3565b60405180910390f35b610322600480360381019061031d9190610d5e565b61095b565b005b5f60035f9054906101000a900473ffffffffffffffffffffffffffffffffffffffff1673ffffffffffffffffffffffffffffffffffffffff168473ffffffffffffffffffffffffffffffffffffffff161490505f816103a45760045f9054906101000a900473ffffffffffffffffffffffffffffffffffffffff166103c7565b60035f9054906101000a900473ffffffffffffffffffffffffffffffffffffffff165b90508073ffffffffffffffffffffffffffffffffffffffff1663a9059cbb85856040518363ffffffff1660e01b8152600401610404929190610f40565b6020604051808303815f875af1158015610420573d5f803e3d5ffd5b505050506040513d601f19601f820116820180604052508101906104449190610f91565b505050505050565b5f8060055f9054906101000a90046dffffffffffffffffffffffffffff1691506005600e9054906101000a90046dffffffffffffffffffffffffffff1690509091565b60035f9054906101000a900473ffffffffffffffffffffffffffffffffffffffff1681565b5f5481565b6105108260055f9054906101000a90046dffffffffffffffffffffffffffff166104e39190610fe9565b826005600e9054906101000a90046dffffffffffffffffffffffffffff1661050b9190610fe9565b6109b6565b5050565b5f6005601c9054906101000a900463ffffffff16905090565b8060015f8473ffffffffffffffffffffffffffffffffffffffff1673ffffffffffffffffffffffffffffffffffffffff1681526020019081526020015f205f828254610579919061102a565b92505081905550805f80828254610590919061102a565b925050819055505050565b60065481565b5f60015f8373ffffffffffffffffffffffffffffffffffffffff1673ffffffffffffffffffffffffffffffffffffffff1681526020019081526020015f20549050919050565b60075481565b5f8160015f8573ffffffffffffffffffffffffffffffffffffffff1673ffffffffffffffffffffffffffffffffffffffff1681526020019081526020015f205f82825461063a919061105d565b92505081905550815f80828254610651919061105d565b925050819055506001905092915050565b5f8060035f9054906101000a900473ffffffffffffffffffffffffffffffffffffffff1673ffffffffffffffffffffffffffffffffffffffff168473ffffffffffffffffffffffffffffffffffffffff161490505f80826106fb576005600e9054906101000a90046dffffffffffffffffffffffffffff1660055f9054906101000a90046dffffffffffffffffffffffffffff16610735565b60055f9054906101000a90046dffffffffffffffffffffffffffff166005600e9054906101000a90046dffffffffffffffffffffffffffff165b9150915084816107459190610fe9565b81836107519190611090565b61075b91906110f9565b826107669190611129565b93506001846dffffffffffffffffffffffffffff1610156107bc576040517f08c379a00000000000000000000000000000000000000000000000000000000081526004016107b3906111c4565b60405180910390fd5b821561081e576108198460055f9054906101000a90046dffffffffffffffffffffffffffff166107ec9190611129565b866005600e9054906101000a90046dffffffffffffffffffffffffffff166108149190610fe9565b6109b6565b610876565b6108758560055f9054906101000a90046dffffffffffffffffffffffffffff166108489190610fe9565b856005600e9054906101000a90046dffffffffffffffffffffffffffff166108709190611129565b6109b6565b5b50505092915050565b5f805f5460055f9054906101000a90046dffffffffffffffffffffffffffff166dffffffffffffffffffffffffffff16846108ba91906111e2565b6108c49190611223565b91505f546005600e9054906101000a90046dffffffffffffffffffffffffffff166dffffffffffffffffffffffffffff168461090091906111e2565b61090a9190611223565b9050915091565b60025f9054906101000a900473ffffffffffffffffffffffffffffffffffffffff1681565b60045f9054906101000a900473ffffffffffffffffffffffffffffffffffffffff1681565b6109b28260055f9054906101000a90046dffffffffffffffffffffffffffff166109859190611129565b826005600e9054906101000a90046dffffffffffffffffffffffffffff166109ad9190611129565b6109b6565b5050565b8160055f6101000a8154816dffffffffffffffffffffffffffff02191690836dffffffffffffffffffffffffffff160217905550806005600e6101000a8154816dffffffffffffffffffffffffffff02191690836dffffffffffffffffffffffffffff160217905550610a27610a2b565b5050565b5f6005600e9054906101000a90046dffffffffffffffffffffffffffff1660055f9054906101000a90046dffffffffffffffffffffffffffff16610a6f9190611090565b6dffffffffffffffffffffffffffff1614610b575760055f9054906101000a90046dffffffffffffffffffffffffffff16629896806005600e9054906101000a90046dffffffffffffffffffffffffffff16610acb9190611090565b610ad591906110f9565b6dffffffffffffffffffffffffffff166006819055506005600e9054906101000a90046dffffffffffffffffffffffffffff166298968060055f9054906101000a90046dffffffffffffffffffffffffffff16610b329190611090565b610b3c91906110f9565b6dffffffffffffffffffffffffffff16600781905550610b66565b5f6006819055505f6007819055505b565b5f80fd5b5f73ffffffffffffffffffffffffffffffffffffffff82169050919050565b5f610b9582610b6c565b9050919050565b610ba581610b8b565b8114610baf575f80fd5b50565b5f81359050610bc081610b9c565b92915050565b5f819050919050565b610bd881610bc6565b8114610be2575f80fd5b50565b5f81359050610bf381610bcf565b92915050565b5f805f60608486031215610c1057610c0f610b68565b5b5f610c1d86828701610bb2565b9350506020610c2e86828701610bb2565b9250506040610c3f86828701610be5565b9150509250925092565b5f6dffffffffffffffffffffffffffff82169050919050565b610c6b81610c49565b82525050565b5f604082019050610c845f830185610c62565b610c916020830184610c62565b9392505050565b5f819050919050565b5f610cbb610cb6610cb184610b6c565b610c98565b610b6c565b9050919050565b5f610ccc82610ca1565b9050919050565b5f610cdd82610cc2565b9050919050565b610ced81610cd3565b82525050565b5f602082019050610d065f830184610ce4565b92915050565b610d1581610bc6565b82525050565b5f602082019050610d2e5f830184610d0c565b92915050565b610d3d81610c49565b8114610d47575f80fd5b50565b5f81359050610d5881610d34565b92915050565b5f8060408385031215610d7457610d73610b68565b5b5f610d8185828601610d4a565b9250506020610d9285828601610d4a565b9150509250929050565b5f63ffffffff82169050919050565b610db481610d9c565b82525050565b5f602082019050610dcd5f830184610dab565b92915050565b5f8060408385031215610de957610de8610b68565b5b5f610df685828601610bb2565b9250506020610e0785828601610be5565b9150509250929050565b5f60208284031215610e2657610e25610b68565b5b5f610e3384828501610bb2565b91505092915050565b5f8115159050919050565b610e5081610e3c565b82525050565b5f602082019050610e695f830184610e47565b92915050565b5f8060408385031215610e8557610e84610b68565b5b5f610e9285828601610bb2565b9250506020610ea385828601610d4a565b9150509250929050565b5f602082019050610ec05f830184610c62565b92915050565b5f60208284031215610edb57610eda610b68565b5b5f610ee884828501610be5565b91505092915050565b5f604082019050610f045f830185610d0c565b610f116020830184610d0c565b9392505050565b610f2181610b8b565b82525050565b5f602082019050610f3a5f830184610f18565b92915050565b5f604082019050610f535f830185610f18565b610f606020830184610d0c565b9392505050565b610f7081610e3c565b8114610f7a575f80fd5b50565b5f81519050610f8b81610f67565b92915050565b5f60208284031215610fa657610fa5610b68565b5b5f610fb384828501610f7d565b91505092915050565b7f4e487b71000000000000000000000000000000000000000000000000000000005f52601160045260245ffd5b5f610ff382610c49565b9150610ffe83610c49565b925082820190506dffffffffffffffffffffffffffff81111561102457611023610fbc565b5b92915050565b5f61103482610bc6565b915061103f83610bc6565b925082820190508082111561105757611056610fbc565b5b92915050565b5f61106782610bc6565b915061107283610bc6565b925082820390508181111561108a57611089610fbc565b5b92915050565b5f61109a82610c49565b91506110a583610c49565b92508282026110b381610c49565b91508082146110c5576110c4610fbc565b5b5092915050565b7f4e487b71000000000000000000000000000000000000000000000000000000005f52601260045260245ffd5b5f61110382610c49565b915061110e83610c49565b92508261111e5761111d6110cc565b5b828204905092915050565b5f61113382610c49565b915061113e83610c49565b925082820390506dffffffffffffffffffffffffffff81111561116457611163610fbc565b5b92915050565b5f82825260208201905092915050565b7f506169723a4174206c6561737420746f2073776170206f6e6520746f6b656e005f82015250565b5f6111ae601f8361116a565b91506111b98261117a565b602082019050919050565b5f6020820190508181035f8301526111db816111a2565b9050919050565b5f6111ec82610bc6565b91506111f783610bc6565b925082820261120581610bc6565b9150828204841483151761121c5761121b610fbc565b5b5092915050565b5f61122d82610bc6565b915061123883610bc6565b925082611248576112476110cc565b5b82820490509291505056fea26469706673582212204464d1f7cf9e7d83fa164885d5f048abbbde173f7870029c4a92607bf69c797964736f6c63430008160033",
					"opcodes": "PUSH1 0x80 PUSH1 0x40 MSTORE CALLVALUE DUP1 ISZERO PUSH3 0x10 JUMPI PUSH0 DUP1 REVERT JUMPDEST POP PUSH1 0x40 MLOAD PUSH3 0x1460 CODESIZE SUB DUP1 PUSH3 0x1460 DUP4 CODECOPY DUP2 DUP2 ADD PUSH1 0x40 MSTORE DUP2 ADD SWAP1 PUSH3 0x36 SWAP2 SWAP1 PUSH3 0x184 JUMP JUMPDEST DUP2 PUSH1 0x3 PUSH0 PUSH2 0x100 EXP DUP2 SLOAD DUP2 PUSH20 0xFFFFFFFFFFFFFFFFFFFFFFFFFFFFFFFFFFFFFFFF MUL NOT AND SWAP1 DUP4 PUSH20 0xFFFFFFFFFFFFFFFFFFFFFFFFFFFFFFFFFFFFFFFF AND MUL OR SWAP1 SSTORE POP DUP1 PUSH1 0x4 PUSH0 PUSH2 0x100 EXP DUP2 SLOAD DUP2 PUSH20 0xFFFFFFFFFFFFFFFFFFFFFFFFFFFFFFFFFFFFFFFF MUL NOT AND SWAP1 DUP4 PUSH20 0xFFFFFFFFFFFFFFFFFFFFFFFFFFFFFFFFFFFFFFFF AND MUL OR SWAP1 SSTORE POP CALLER PUSH1 0x2 PUSH0 PUSH2 0x100 EXP DUP2 SLOAD DUP2 PUSH20 0xFFFFFFFFFFFFFFFFFFFFFFFFFFFFFFFFFFFFFFFF MUL NOT AND SWAP1 DUP4 PUSH20 0xFFFFFFFFFFFFFFFFFFFFFFFFFFFFFFFFFFFFFFFF AND MUL OR SWAP1 SSTORE POP TIMESTAMP PUSH1 0x5 PUSH1 0x1C PUSH2 0x100 EXP DUP2 SLOAD DUP2 PUSH4 0xFFFFFFFF MUL NOT AND SWAP1 DUP4 PUSH4 0xFFFFFFFF AND MUL OR SWAP1 SSTORE POP POP POP PUSH3 0x1C9 JUMP JUMPDEST PUSH0 DUP1 REVERT JUMPDEST PUSH0 PUSH20 0xFFFFFFFFFFFFFFFFFFFFFFFFFFFFFFFFFFFFFFFF DUP3 AND SWAP1 POP SWAP2 SWAP1 POP JUMP JUMPDEST PUSH0 PUSH3 0x14E DUP3 PUSH3 0x123 JUMP JUMPDEST SWAP1 POP SWAP2 SWAP1 POP JUMP JUMPDEST PUSH3 0x160 DUP2 PUSH3 0x142 JUMP JUMPDEST DUP2 EQ PUSH3 0x16B JUMPI PUSH0 DUP1 REVERT JUMPDEST POP JUMP JUMPDEST PUSH0 DUP2 MLOAD SWAP1 POP PUSH3 0x17E DUP2 PUSH3 0x155 JUMP JUMPDEST SWAP3 SWAP2 POP POP JUMP JUMPDEST PUSH0 DUP1 PUSH1 0x40 DUP4 DUP6 SUB SLT ISZERO PUSH3 0x19D JUMPI PUSH3 0x19C PUSH3 0x11F JUMP JUMPDEST JUMPDEST PUSH0 PUSH3 0x1AC DUP6 DUP3 DUP7 ADD PUSH3 0x16E JUMP JUMPDEST SWAP3 POP POP PUSH1 0x20 PUSH3 0x1BF DUP6 DUP3 DUP7 ADD PUSH3 0x16E JUMP JUMPDEST SWAP2 POP POP SWAP3 POP SWAP3 SWAP1 POP JUMP JUMPDEST PUSH2 0x1289 DUP1 PUSH3 0x1D7 PUSH0 CODECOPY PUSH0 RETURN INVALID PUSH1 0x80 PUSH1 0x40 MSTORE CALLVALUE DUP1 ISZERO PUSH2 0xF JUMPI PUSH0 DUP1 REVERT JUMPDEST POP PUSH1 0x4 CALLDATASIZE LT PUSH2 0xFE JUMPI PUSH0 CALLDATALOAD PUSH1 0xE0 SHR DUP1 PUSH4 0x59962DEF GT PUSH2 0x95 JUMPI DUP1 PUSH4 0xB5764800 GT PUSH2 0x64 JUMPI DUP1 PUSH4 0xB5764800 EQ PUSH2 0x29B JUMPI DUP1 PUSH4 0xC45A0155 EQ PUSH2 0x2CC JUMPI DUP1 PUSH4 0xD21220A7 EQ PUSH2 0x2EA JUMPI DUP1 PUSH4 0xFC76A383 EQ PUSH2 0x308 JUMPI PUSH2 0xFE JUMP JUMPDEST DUP1 PUSH4 0x59962DEF EQ PUSH2 0x1ED JUMPI DUP1 PUSH4 0x5A3D5493 EQ PUSH2 0x21D JUMPI DUP1 PUSH4 0x6161EB18 EQ PUSH2 0x23B JUMPI DUP1 PUSH4 0xB10DE9FC EQ PUSH2 0x26B JUMPI PUSH2 0xFE JUMP JUMPDEST DUP1 PUSH4 0x2D889F6A GT PUSH2 0xD1 JUMPI DUP1 PUSH4 0x2D889F6A EQ PUSH2 0x179 JUMPI DUP1 PUSH4 0x380F0B41 EQ PUSH2 0x195 JUMPI DUP1 PUSH4 0x4E6EC247 EQ PUSH2 0x1B3 JUMPI DUP1 PUSH4 0x5909C0D5 EQ PUSH2 0x1CF JUMPI PUSH2 0xFE JUMP JUMPDEST DUP1 PUSH4 0x78D3B79 EQ PUSH2 0x102 JUMPI DUP1 PUSH4 0x902F1AC EQ PUSH2 0x11E JUMPI DUP1 PUSH4 0xDFE1681 EQ PUSH2 0x13D JUMPI DUP1 PUSH4 0x18160DDD EQ PUSH2 0x15B JUMPI JUMPDEST PUSH0 DUP1 REVERT JUMPDEST PUSH2 0x11C PUSH1 0x4 DUP1 CALLDATASIZE SUB DUP2 ADD SWAP1 PUSH2 0x117 SWAP2 SWAP1 PUSH2 0xBF9 JUMP JUMPDEST PUSH2 0x324 JUMP JUMPDEST STOP JUMPDEST PUSH2 0x126 PUSH2 0x44C JUMP JUMPDEST PUSH1 0x40 MLOAD PUSH2 0x134 SWAP3 SWAP2 SWAP1 PUSH2 0xC71 JUMP JUMPDEST PUSH1 0x40 MLOAD DUP1 SWAP2 SUB SWAP1 RETURN JUMPDEST PUSH2 0x145 PUSH2 0x48F JUMP JUMPDEST PUSH1 0x40 MLOAD PUSH2 0x152 SWAP2 SWAP1 PUSH2 0xCF3 JUMP JUMPDEST PUSH1 0x40 MLOAD DUP1 SWAP2 SUB SWAP1 RETURN JUMPDEST PUSH2 0x163 PUSH2 0x4B4 JUMP JUMPDEST PUSH1 0x40 MLOAD PUSH2 0x170 SWAP2 SWAP1 PUSH2 0xD1B JUMP JUMPDEST PUSH1 0x40 MLOAD DUP1 SWAP2 SUB SWAP1 RETURN JUMPDEST PUSH2 0x193 PUSH1 0x4 DUP1 CALLDATASIZE SUB DUP2 ADD SWAP1 PUSH2 0x18E SWAP2 SWAP1 PUSH2 0xD5E JUMP JUMPDEST PUSH2 0x4B9 JUMP JUMPDEST STOP JUMPDEST PUSH2 0x19D PUSH2 0x514 JUMP JUMPDEST PUSH1 0x40 MLOAD PUSH2 0x1AA SWAP2 SWAP1 PUSH2 0xDBA JUMP JUMPDEST PUSH1 0x40 MLOAD DUP1 SWAP2 SUB SWAP1 RETURN JUMPDEST PUSH2 0x1CD PUSH1 0x4 DUP1 CALLDATASIZE SUB DUP2 ADD SWAP1 PUSH2 0x1C8 SWAP2 SWAP1 PUSH2 0xDD3 JUMP JUMPDEST PUSH2 0x52D JUMP JUMPDEST STOP JUMPDEST PUSH2 0x1D7 PUSH2 0x59B JUMP JUMPDEST PUSH1 0x40 MLOAD PUSH2 0x1E4 SWAP2 SWAP1 PUSH2 0xD1B JUMP JUMPDEST PUSH1 0x40 MLOAD DUP1 SWAP2 SUB SWAP1 RETURN JUMPDEST PUSH2 0x207 PUSH1 0x4 DUP1 CALLDATASIZE SUB DUP2 ADD SWAP1 PUSH2 0x202 SWAP2 SWAP1 PUSH2 0xE11 JUMP JUMPDEST PUSH2 0x5A1 JUMP JUMPDEST PUSH1 0x40 MLOAD PUSH2 0x214 SWAP2 SWAP1 PUSH2 0xD1B JUMP JUMPDEST PUSH1 0x40 MLOAD DUP1 SWAP2 SUB SWAP1 RETURN JUMPDEST PUSH2 0x225 PUSH2 0x5E7 JUMP JUMPDEST PUSH1 0x40 MLOAD PUSH2 0x232 SWAP2 SWAP1 PUSH2 0xD1B JUMP JUMPDEST PUSH1 0x40 MLOAD DUP1 SWAP2 SUB SWAP1 RETURN JUMPDEST PUSH2 0x255 PUSH1 0x4 DUP1 CALLDATASIZE SUB DUP2 ADD SWAP1 PUSH2 0x250 SWAP2 SWAP1 PUSH2 0xDD3 JUMP JUMPDEST PUSH2 0x5ED JUMP JUMPDEST PUSH1 0x40 MLOAD PUSH2 0x262 SWAP2 SWAP1 PUSH2 0xE56 JUMP JUMPDEST PUSH1 0x40 MLOAD DUP1 SWAP2 SUB SWAP1 RETURN JUMPDEST PUSH2 0x285 PUSH1 0x4 DUP1 CALLDATASIZE SUB DUP2 ADD SWAP1 PUSH2 0x280 SWAP2 SWAP1 PUSH2 0xE6F JUMP JUMPDEST PUSH2 0x662 JUMP JUMPDEST PUSH1 0x40 MLOAD PUSH2 0x292 SWAP2 SWAP1 PUSH2 0xEAD JUMP JUMPDEST PUSH1 0x40 MLOAD DUP1 SWAP2 SUB SWAP1 RETURN JUMPDEST PUSH2 0x2B5 PUSH1 0x4 DUP1 CALLDATASIZE SUB DUP2 ADD SWAP1 PUSH2 0x2B0 SWAP2 SWAP1 PUSH2 0xEC6 JUMP JUMPDEST PUSH2 0x87F JUMP JUMPDEST PUSH1 0x40 MLOAD PUSH2 0x2C3 SWAP3 SWAP2 SWAP1 PUSH2 0xEF1 JUMP JUMPDEST PUSH1 0x40 MLOAD DUP1 SWAP2 SUB SWAP1 RETURN JUMPDEST PUSH2 0x2D4 PUSH2 0x911 JUMP JUMPDEST PUSH1 0x40 MLOAD PUSH2 0x2E1 SWAP2 SWAP1 PUSH2 0xF27 JUMP JUMPDEST PUSH1 0x40 MLOAD DUP1 SWAP2 SUB SWAP1 RETURN JUMPDEST PUSH2 0x2F2 PUSH2 0x936 JUMP JUMPDEST PUSH1 0x40 MLOAD PUSH2 0x2FF SWAP2 SWAP1 PUSH2 0xCF3 JUMP JUMPDEST PUSH1 0x40 MLOAD DUP1 SWAP2 SUB SWAP1 RETURN JUMPDEST PUSH2 0x322 PUSH1 0x4 DUP1 CALLDATASIZE SUB DUP2 ADD SWAP1 PUSH2 0x31D SWAP2 SWAP1 PUSH2 0xD5E JUMP JUMPDEST PUSH2 0x95B JUMP JUMPDEST STOP JUMPDEST PUSH0 PUSH1 0x3 PUSH0 SWAP1 SLOAD SWAP1 PUSH2 0x100 EXP SWAP1 DIV PUSH20 0xFFFFFFFFFFFFFFFFFFFFFFFFFFFFFFFFFFFFFFFF AND PUSH20 0xFFFFFFFFFFFFFFFFFFFFFFFFFFFFFFFFFFFFFFFF AND DUP5 PUSH20 0xFFFFFFFFFFFFFFFFFFFFFFFFFFFFFFFFFFFFFFFF AND EQ SWAP1 POP PUSH0 DUP2 PUSH2 0x3A4 JUMPI PUSH1 0x4 PUSH0 SWAP1 SLOAD SWAP1 PUSH2 0x100 EXP SWAP1 DIV PUSH20 0xFFFFFFFFFFFFFFFFFFFFFFFFFFFFFFFFFFFFFFFF AND PUSH2 0x3C7 JUMP JUMPDEST PUSH1 0x3 PUSH0 SWAP1 SLOAD SWAP1 PUSH2 0x100 EXP SWAP1 DIV PUSH20 0xFFFFFFFFFFFFFFFFFFFFFFFFFFFFFFFFFFFFFFFF AND JUMPDEST SWAP1 POP DUP1 PUSH20 0xFFFFFFFFFFFFFFFFFFFFFFFFFFFFFFFFFFFFFFFF AND PUSH4 0xA9059CBB DUP6 DUP6 PUSH1 0x40 MLOAD DUP4 PUSH4 0xFFFFFFFF AND PUSH1 0xE0 SHL DUP2 MSTORE PUSH1 0x4 ADD PUSH2 0x404 SWAP3 SWAP2 SWAP1 PUSH2 0xF40 JUMP JUMPDEST PUSH1 0x20 PUSH1 0x40 MLOAD DUP1 DUP4 SUB DUP2 PUSH0 DUP8 GAS CALL ISZERO DUP1 ISZERO PUSH2 0x420 JUMPI RETURNDATASIZE PUSH0 DUP1 RETURNDATACOPY RETURNDATASIZE PUSH0 REVERT JUMPDEST POP POP POP POP PUSH1 0x40 MLOAD RETURNDATASIZE PUSH1 0x1F NOT PUSH1 0x1F DUP3 ADD AND DUP3 ADD DUP1 PUSH1 0x40 MSTORE POP DUP2 ADD SWAP1 PUSH2 0x444 SWAP2 SWAP1 PUSH2 0xF91 JUMP JUMPDEST POP POP POP POP POP POP JUMP JUMPDEST PUSH0 DUP1 PUSH1 0x5 PUSH0 SWAP1 SLOAD SWAP1 PUSH2 0x100 EXP SWAP1 DIV PUSH14 0xFFFFFFFFFFFFFFFFFFFFFFFFFFFF AND SWAP2 POP PUSH1 0x5 PUSH1 0xE SWAP1 SLOAD SWAP1 PUSH2 0x100 EXP SWAP1 DIV PUSH14 0xFFFFFFFFFFFFFFFFFFFFFFFFFFFF AND SWAP1 POP SWAP1 SWAP2 JUMP JUMPDEST PUSH1 0x3 PUSH0 SWAP1 SLOAD SWAP1 PUSH2 0x100 EXP SWAP1 DIV PUSH20 0xFFFFFFFFFFFFFFFFFFFFFFFFFFFFFFFFFFFFFFFF AND DUP2 JUMP JUMPDEST PUSH0 SLOAD DUP2 JUMP JUMPDEST PUSH2 0x510 DUP3 PUSH1 0x5 PUSH0 SWAP1 SLOAD SWAP1 PUSH2 0x100 EXP SWAP1 DIV PUSH14 0xFFFFFFFFFFFFFFFFFFFFFFFFFFFF AND PUSH2 0x4E3 SWAP2 SWAP1 PUSH2 0xFE9 JUMP JUMPDEST DUP3 PUSH1 0x5 PUSH1 0xE SWAP1 SLOAD SWAP1 PUSH2 0x100 EXP SWAP1 DIV PUSH14 0xFFFFFFFFFFFFFFFFFFFFFFFFFFFF AND PUSH2 0x50B SWAP2 SWAP1 PUSH2 0xFE9 JUMP JUMPDEST PUSH2 0x9B6 JUMP JUMPDEST POP POP JUMP JUMPDEST PUSH0 PUSH1 0x5 PUSH1 0x1C SWAP1 SLOAD SWAP1 PUSH2 0x100 EXP SWAP1 DIV PUSH4 0xFFFFFFFF AND SWAP1 POP SWAP1 JUMP JUMPDEST DUP1 PUSH1 0x1 PUSH0 DUP5 PUSH20 0xFFFFFFFFFFFFFFFFFFFFFFFFFFFFFFFFFFFFFFFF AND PUSH20 0xFFFFFFFFFFFFFFFFFFFFFFFFFFFFFFFFFFFFFFFF AND DUP2 MSTORE PUSH1 0x20 ADD SWAP1 DUP2 MSTORE PUSH1 0x20 ADD PUSH0 KECCAK256 PUSH0 DUP3 DUP3 SLOAD PUSH2 0x579 SWAP2 SWAP1 PUSH2 0x102A JUMP JUMPDEST SWAP3 POP POP DUP2 SWAP1 SSTORE POP DUP1 PUSH0 DUP1 DUP3 DUP3 SLOAD PUSH2 0x590 SWAP2 SWAP1 PUSH2 0x102A JUMP JUMPDEST SWAP3 POP POP DUP2 SWAP1 SSTORE POP POP POP JUMP JUMPDEST PUSH1 0x6 SLOAD DUP2 JUMP JUMPDEST PUSH0 PUSH1 0x1 PUSH0 DUP4 PUSH20 0xFFFFFFFFFFFFFFFFFFFFFFFFFFFFFFFFFFFFFFFF AND PUSH20 0xFFFFFFFFFFFFFFFFFFFFFFFFFFFFFFFFFFFFFFFF AND DUP2 MSTORE PUSH1 0x20 ADD SWAP1 DUP2 MSTORE PUSH1 0x20 ADD PUSH0 KECCAK256 SLOAD SWAP1 POP SWAP2 SWAP1 POP JUMP JUMPDEST PUSH1 0x7 SLOAD DUP2 JUMP JUMPDEST PUSH0 DUP2 PUSH1 0x1 PUSH0 DUP6 PUSH20 0xFFFFFFFFFFFFFFFFFFFFFFFFFFFFFFFFFFFFFFFF AND PUSH20 0xFFFFFFFFFFFFFFFFFFFFFFFFFFFFFFFFFFFFFFFF AND DUP2 MSTORE PUSH1 0x20 ADD SWAP1 DUP2 MSTORE PUSH1 0x20 ADD PUSH0 KECCAK256 PUSH0 DUP3 DUP3 SLOAD PUSH2 0x63A SWAP2 SWAP1 PUSH2 0x105D JUMP JUMPDEST SWAP3 POP POP DUP2 SWAP1 SSTORE POP DUP2 PUSH0 DUP1 DUP3 DUP3 SLOAD PUSH2 0x651 SWAP2 SWAP1 PUSH2 0x105D JUMP JUMPDEST SWAP3 POP POP DUP2 SWAP1 SSTORE POP PUSH1 0x1 SWAP1 POP SWAP3 SWAP2 POP POP JUMP JUMPDEST PUSH0 DUP1 PUSH1 0x3 PUSH0 SWAP1 SLOAD SWAP1 PUSH2 0x100 EXP SWAP1 DIV PUSH20 0xFFFFFFFFFFFFFFFFFFFFFFFFFFFFFFFFFFFFFFFF AND PUSH20 0xFFFFFFFFFFFFFFFFFFFFFFFFFFFFFFFFFFFFFFFF AND DUP5 PUSH20 0xFFFFFFFFFFFFFFFFFFFFFFFFFFFFFFFFFFFFFFFF AND EQ SWAP1 POP PUSH0 DUP1 DUP3 PUSH2 0x6FB JUMPI PUSH1 0x5 PUSH1 0xE SWAP1 SLOAD SWAP1 PUSH2 0x100 EXP SWAP1 DIV PUSH14 0xFFFFFFFFFFFFFFFFFFFFFFFFFFFF AND PUSH1 0x5 PUSH0 SWAP1 SLOAD SWAP1 PUSH2 0x100 EXP SWAP1 DIV PUSH14 0xFFFFFFFFFFFFFFFFFFFFFFFFFFFF AND PUSH2 0x735 JUMP JUMPDEST PUSH1 0x5 PUSH0 SWAP1 SLOAD SWAP1 PUSH2 0x100 EXP SWAP1 DIV PUSH14 0xFFFFFFFFFFFFFFFFFFFFFFFFFFFF AND PUSH1 0x5 PUSH1 0xE SWAP1 SLOAD SWAP1 PUSH2 0x100 EXP SWAP1 DIV PUSH14 0xFFFFFFFFFFFFFFFFFFFFFFFFFFFF AND JUMPDEST SWAP2 POP SWAP2 POP DUP5 DUP2 PUSH2 0x745 SWAP2 SWAP1 PUSH2 0xFE9 JUMP JUMPDEST DUP2 DUP4 PUSH2 0x751 SWAP2 SWAP1 PUSH2 0x1090 JUMP JUMPDEST PUSH2 0x75B SWAP2 SWAP1 PUSH2 0x10F9 JUMP JUMPDEST DUP3 PUSH2 0x766 SWAP2 SWAP1 PUSH2 0x1129 JUMP JUMPDEST SWAP4 POP PUSH1 0x1 DUP5 PUSH14 0xFFFFFFFFFFFFFFFFFFFFFFFFFFFF AND LT ISZERO PUSH2 0x7BC JUMPI PUSH1 0x40 MLOAD PUSH32 0x8C379A000000000000000000000000000000000000000000000000000000000 DUP2 MSTORE PUSH1 0x4 ADD PUSH2 0x7B3 SWAP1 PUSH2 0x11C4 JUMP JUMPDEST PUSH1 0x40 MLOAD DUP1 SWAP2 SUB SWAP1 REVERT JUMPDEST DUP3 ISZERO PUSH2 0x81E JUMPI PUSH2 0x819 DUP5 PUSH1 0x5 PUSH0 SWAP1 SLOAD SWAP1 PUSH2 0x100 EXP SWAP1 DIV PUSH14 0xFFFFFFFFFFFFFFFFFFFFFFFFFFFF AND PUSH2 0x7EC SWAP2 SWAP1 PUSH2 0x1129 JUMP JUMPDEST DUP7 PUSH1 0x5 PUSH1 0xE SWAP1 SLOAD SWAP1 PUSH2 0x100 EXP SWAP1 DIV PUSH14 0xFFFFFFFFFFFFFFFFFFFFFFFFFFFF AND PUSH2 0x814 SWAP2 SWAP1 PUSH2 0xFE9 JUMP JUMPDEST PUSH2 0x9B6 JUMP JUMPDEST PUSH2 0x876 JUMP JUMPDEST PUSH2 0x875 DUP6 PUSH1 0x5 PUSH0 SWAP1 SLOAD SWAP1 PUSH2 0x100 EXP SWAP1 DIV PUSH14 0xFFFFFFFFFFFFFFFFFFFFFFFFFFFF AND PUSH2 0x848 SWAP2 SWAP1 PUSH2 0xFE9 JUMP JUMPDEST DUP6 PUSH1 0x5 PUSH1 0xE SWAP1 SLOAD SWAP1 PUSH2 0x100 EXP SWAP1 DIV PUSH14 0xFFFFFFFFFFFFFFFFFFFFFFFFFFFF AND PUSH2 0x870 SWAP2 SWAP1 PUSH2 0x1129 JUMP JUMPDEST PUSH2 0x9B6 JUMP JUMPDEST JUMPDEST POP POP POP SWAP3 SWAP2 POP POP JUMP JUMPDEST PUSH0 DUP1 PUSH0 SLOAD PUSH1 0x5 PUSH0 SWAP1 SLOAD SWAP1 PUSH2 0x100 EXP SWAP1 DIV PUSH14 0xFFFFFFFFFFFFFFFFFFFFFFFFFFFF AND PUSH14 0xFFFFFFFFFFFFFFFFFFFFFFFFFFFF AND DUP5 PUSH2 0x8BA SWAP2 SWAP1 PUSH2 0x11E2 JUMP JUMPDEST PUSH2 0x8C4 SWAP2 SWAP1 PUSH2 0x1223 JUMP JUMPDEST SWAP2 POP PUSH0 SLOAD PUSH1 0x5 PUSH1 0xE SWAP1 SLOAD SWAP1 PUSH2 0x100 EXP SWAP1 DIV PUSH14 0xFFFFFFFFFFFFFFFFFFFFFFFFFFFF AND PUSH14 0xFFFFFFFFFFFFFFFFFFFFFFFFFFFF AND DUP5 PUSH2 0x900 SWAP2 SWAP1 PUSH2 0x11E2 JUMP JUMPDEST PUSH2 0x90A SWAP2 SWAP1 PUSH2 0x1223 JUMP JUMPDEST SWAP1 POP SWAP2 POP SWAP2 JUMP JUMPDEST PUSH1 0x2 PUSH0 SWAP1 SLOAD SWAP1 PUSH2 0x100 EXP SWAP1 DIV PUSH20 0xFFFFFFFFFFFFFFFFFFFFFFFFFFFFFFFFFFFFFFFF AND DUP2 JUMP JUMPDEST PUSH1 0x4 PUSH0 SWAP1 SLOAD SWAP1 PUSH2 0x100 EXP SWAP1 DIV PUSH20 0xFFFFFFFFFFFFFFFFFFFFFFFFFFFFFFFFFFFFFFFF AND DUP2 JUMP JUMPDEST PUSH2 0x9B2 DUP3 PUSH1 0x5 PUSH0 SWAP1 SLOAD SWAP1 PUSH2 0x100 EXP SWAP1 DIV PUSH14 0xFFFFFFFFFFFFFFFFFFFFFFFFFFFF AND PUSH2 0x985 SWAP2 SWAP1 PUSH2 0x1129 JUMP JUMPDEST DUP3 PUSH1 0x5 PUSH1 0xE SWAP1 SLOAD SWAP1 PUSH2 0x100 EXP SWAP1 DIV PUSH14 0xFFFFFFFFFFFFFFFFFFFFFFFFFFFF AND PUSH2 0x9AD SWAP2 SWAP1 PUSH2 0x1129 JUMP JUMPDEST PUSH2 0x9B6 JUMP JUMPDEST POP POP JUMP JUMPDEST DUP2 PUSH1 0x5 PUSH0 PUSH2 0x100 EXP DUP2 SLOAD DUP2 PUSH14 0xFFFFFFFFFFFFFFFFFFFFFFFFFFFF MUL NOT AND SWAP1 DUP4 PUSH14 0xFFFFFFFFFFFFFFFFFFFFFFFFFFFF AND MUL OR SWAP1 SSTORE POP DUP1 PUSH1 0x5 PUSH1 0xE PUSH2 0x100 EXP DUP2 SLOAD DUP2 PUSH14 0xFFFFFFFFFFFFFFFFFFFFFFFFFFFF MUL NOT AND SWAP1 DUP4 PUSH14 0xFFFFFFFFFFFFFFFFFFFFFFFFFFFF AND MUL OR SWAP1 SSTORE POP PUSH2 0xA27 PUSH2 0xA2B JUMP JUMPDEST POP POP JUMP JUMPDEST PUSH0 PUSH1 0x5 PUSH1 0xE SWAP1 SLOAD SWAP1 PUSH2 0x100 EXP SWAP1 DIV PUSH14 0xFFFFFFFFFFFFFFFFFFFFFFFFFFFF AND PUSH1 0x5 PUSH0 SWAP1 SLOAD SWAP1 PUSH2 0x100 EXP SWAP1 DIV PUSH14 0xFFFFFFFFFFFFFFFFFFFFFFFFFFFF AND PUSH2 0xA6F SWAP2 SWAP1 PUSH2 0x1090 JUMP JUMPDEST PUSH14 0xFFFFFFFFFFFFFFFFFFFFFFFFFFFF AND EQ PUSH2 0xB57 JUMPI PUSH1 0x5 PUSH0 SWAP1 SLOAD SWAP1 PUSH2 0x100 EXP SWAP1 DIV PUSH14 0xFFFFFFFFFFFFFFFFFFFFFFFFFFFF AND PUSH3 0x989680 PUSH1 0x5 PUSH1 0xE SWAP1 SLOAD SWAP1 PUSH2 0x100 EXP SWAP1 DIV PUSH14 0xFFFFFFFFFFFFFFFFFFFFFFFFFFFF AND PUSH2 0xACB SWAP2 SWAP1 PUSH2 0x1090 JUMP JUMPDEST PUSH2 0xAD5 SWAP2 SWAP1 PUSH2 0x10F9 JUMP JUMPDEST PUSH14 0xFFFFFFFFFFFFFFFFFFFFFFFFFFFF AND PUSH1 0x6 DUP2 SWAP1 SSTORE POP PUSH1 0x5 PUSH1 0xE SWAP1 SLOAD SWAP1 PUSH2 0x100 EXP SWAP1 DIV PUSH14 0xFFFFFFFFFFFFFFFFFFFFFFFFFFFF AND PUSH3 0x989680 PUSH1 0x5 PUSH0 SWAP1 SLOAD SWAP1 PUSH2 0x100 EXP SWAP1 DIV PUSH14 0xFFFFFFFFFFFFFFFFFFFFFFFFFFFF AND PUSH2 0xB32 SWAP2 SWAP1 PUSH2 0x1090 JUMP JUMPDEST PUSH2 0xB3C SWAP2 SWAP1 PUSH2 0x10F9 JUMP JUMPDEST PUSH14 0xFFFFFFFFFFFFFFFFFFFFFFFFFFFF AND PUSH1 0x7 DUP2 SWAP1 SSTORE POP PUSH2 0xB66 JUMP JUMPDEST PUSH0 PUSH1 0x6 DUP2 SWAP1 SSTORE POP PUSH0 PUSH1 0x7 DUP2 SWAP1 SSTORE POP JUMPDEST JUMP JUMPDEST PUSH0 DUP1 REVERT JUMPDEST PUSH0 PUSH20 0xFFFFFFFFFFFFFFFFFFFFFFFFFFFFFFFFFFFFFFFF DUP3 AND SWAP1 POP SWAP2 SWAP1 POP JUMP JUMPDEST PUSH0 PUSH2 0xB95 DUP3 PUSH2 0xB6C JUMP JUMPDEST SWAP1 POP SWAP2 SWAP1 POP JUMP JUMPDEST PUSH2 0xBA5 DUP2 PUSH2 0xB8B JUMP JUMPDEST DUP2 EQ PUSH2 0xBAF JUMPI PUSH0 DUP1 REVERT JUMPDEST POP JUMP JUMPDEST PUSH0 DUP2 CALLDATALOAD SWAP1 POP PUSH2 0xBC0 DUP2 PUSH2 0xB9C JUMP JUMPDEST SWAP3 SWAP2 POP POP JUMP JUMPDEST PUSH0 DUP2 SWAP1 POP SWAP2 SWAP1 POP JUMP JUMPDEST PUSH2 0xBD8 DUP2 PUSH2 0xBC6 JUMP JUMPDEST DUP2 EQ PUSH2 0xBE2 JUMPI PUSH0 DUP1 REVERT JUMPDEST POP JUMP JUMPDEST PUSH0 DUP2 CALLDATALOAD SWAP1 POP PUSH2 0xBF3 DUP2 PUSH2 0xBCF JUMP JUMPDEST SWAP3 SWAP2 POP POP JUMP JUMPDEST PUSH0 DUP1 PUSH0 PUSH1 0x60 DUP5 DUP7 SUB SLT ISZERO PUSH2 0xC10 JUMPI PUSH2 0xC0F PUSH2 0xB68 JUMP JUMPDEST JUMPDEST PUSH0 PUSH2 0xC1D DUP7 DUP3 DUP8 ADD PUSH2 0xBB2 JUMP JUMPDEST SWAP4 POP POP PUSH1 0x20 PUSH2 0xC2E DUP7 DUP3 DUP8 ADD PUSH2 0xBB2 JUMP JUMPDEST SWAP3 POP POP PUSH1 0x40 PUSH2 0xC3F DUP7 DUP3 DUP8 ADD PUSH2 0xBE5 JUMP JUMPDEST SWAP2 POP POP SWAP3 POP SWAP3 POP SWAP3 JUMP JUMPDEST PUSH0 PUSH14 0xFFFFFFFFFFFFFFFFFFFFFFFFFFFF DUP3 AND SWAP1 POP SWAP2 SWAP1 POP JUMP JUMPDEST PUSH2 0xC6B DUP2 PUSH2 0xC49 JUMP JUMPDEST DUP3 MSTORE POP POP JUMP JUMPDEST PUSH0 PUSH1 0x40 DUP3 ADD SWAP1 POP PUSH2 0xC84 PUSH0 DUP4 ADD DUP6 PUSH2 0xC62 JUMP JUMPDEST PUSH2 0xC91 PUSH1 0x20 DUP4 ADD DUP5 PUSH2 0xC62 JUMP JUMPDEST SWAP4 SWAP3 POP POP POP JUMP JUMPDEST PUSH0 DUP2 SWAP1 POP SWAP2 SWAP1 POP JUMP JUMPDEST PUSH0 PUSH2 0xCBB PUSH2 0xCB6 PUSH2 0xCB1 DUP5 PUSH2 0xB6C JUMP JUMPDEST PUSH2 0xC98 JUMP JUMPDEST PUSH2 0xB6C JUMP JUMPDEST SWAP1 POP SWAP2 SWAP1 POP JUMP JUMPDEST PUSH0 PUSH2 0xCCC DUP3 PUSH2 0xCA1 JUMP JUMPDEST SWAP1 POP SWAP2 SWAP1 POP JUMP JUMPDEST PUSH0 PUSH2 0xCDD DUP3 PUSH2 0xCC2 JUMP JUMPDEST SWAP1 POP SWAP2 SWAP1 POP JUMP JUMPDEST PUSH2 0xCED DUP2 PUSH2 0xCD3 JUMP JUMPDEST DUP3 MSTORE POP POP JUMP JUMPDEST PUSH0 PUSH1 0x20 DUP3 ADD SWAP1 POP PUSH2 0xD06 PUSH0 DUP4 ADD DUP5 PUSH2 0xCE4 JUMP JUMPDEST SWAP3 SWAP2 POP POP JUMP JUMPDEST PUSH2 0xD15 DUP2 PUSH2 0xBC6 JUMP JUMPDEST DUP3 MSTORE POP POP JUMP JUMPDEST PUSH0 PUSH1 0x20 DUP3 ADD SWAP1 POP PUSH2 0xD2E PUSH0 DUP4 ADD DUP5 PUSH2 0xD0C JUMP JUMPDEST SWAP3 SWAP2 POP POP JUMP JUMPDEST PUSH2 0xD3D DUP2 PUSH2 0xC49 JUMP JUMPDEST DUP2 EQ PUSH2 0xD47 JUMPI PUSH0 DUP1 REVERT JUMPDEST POP JUMP JUMPDEST PUSH0 DUP2 CALLDATALOAD SWAP1 POP PUSH2 0xD58 DUP2 PUSH2 0xD34 JUMP JUMPDEST SWAP3 SWAP2 POP POP JUMP JUMPDEST PUSH0 DUP1 PUSH1 0x40 DUP4 DUP6 SUB SLT ISZERO PUSH2 0xD74 JUMPI PUSH2 0xD73 PUSH2 0xB68 JUMP JUMPDEST JUMPDEST PUSH0 PUSH2 0xD81 DUP6 DUP3 DUP7 ADD PUSH2 0xD4A JUMP JUMPDEST SWAP3 POP POP PUSH1 0x20 PUSH2 0xD92 DUP6 DUP3 DUP7 ADD PUSH2 0xD4A JUMP JUMPDEST SWAP2 POP POP SWAP3 POP SWAP3 SWAP1 POP JUMP JUMPDEST PUSH0 PUSH4 0xFFFFFFFF DUP3 AND SWAP1 POP SWAP2 SWAP1 POP JUMP JUMPDEST PUSH2 0xDB4 DUP2 PUSH2 0xD9C JUMP JUMPDEST DUP3 MSTORE POP POP JUMP JUMPDEST PUSH0 PUSH1 0x20 DUP3 ADD SWAP1 POP PUSH2 0xDCD PUSH0 DUP4 ADD DUP5 PUSH2 0xDAB JUMP JUMPDEST SWAP3 SWAP2 POP POP JUMP JUMPDEST PUSH0 DUP1 PUSH1 0x40 DUP4 DUP6 SUB SLT ISZERO PUSH2 0xDE9 JUMPI PUSH2 0xDE8 PUSH2 0xB68 JUMP JUMPDEST JUMPDEST PUSH0 PUSH2 0xDF6 DUP6 DUP3 DUP7 ADD PUSH2 0xBB2 JUMP JUMPDEST SWAP3 POP POP PUSH1 0x20 PUSH2 0xE07 DUP6 DUP3 DUP7 ADD PUSH2 0xBE5 JUMP JUMPDEST SWAP2 POP POP SWAP3 POP SWAP3 SWAP1 POP JUMP JUMPDEST PUSH0 PUSH1 0x20 DUP3 DUP5 SUB SLT ISZERO PUSH2 0xE26 JUMPI PUSH2 0xE25 PUSH2 0xB68 JUMP JUMPDEST JUMPDEST PUSH0 PUSH2 0xE33 DUP5 DUP3 DUP6 ADD PUSH2 0xBB2 JUMP JUMPDEST SWAP2 POP POP SWAP3 SWAP2 POP POP JUMP JUMPDEST PUSH0 DUP2 ISZERO ISZERO SWAP1 POP SWAP2 SWAP1 POP JUMP JUMPDEST PUSH2 0xE50 DUP2 PUSH2 0xE3C JUMP JUMPDEST DUP3 MSTORE POP POP JUMP JUMPDEST PUSH0 PUSH1 0x20 DUP3 ADD SWAP1 POP PUSH2 0xE69 PUSH0 DUP4 ADD DUP5 PUSH2 0xE47 JUMP JUMPDEST SWAP3 SWAP2 POP POP JUMP JUMPDEST PUSH0 DUP1 PUSH1 0x40 DUP4 DUP6 SUB SLT ISZERO PUSH2 0xE85 JUMPI PUSH2 0xE84 PUSH2 0xB68 JUMP JUMPDEST JUMPDEST PUSH0 PUSH2 0xE92 DUP6 DUP3 DUP7 ADD PUSH2 0xBB2 JUMP JUMPDEST SWAP3 POP POP PUSH1 0x20 PUSH2 0xEA3 DUP6 DUP3 DUP7 ADD PUSH2 0xD4A JUMP JUMPDEST SWAP2 POP POP SWAP3 POP SWAP3 SWAP1 POP JUMP JUMPDEST PUSH0 PUSH1 0x20 DUP3 ADD SWAP1 POP PUSH2 0xEC0 PUSH0 DUP4 ADD DUP5 PUSH2 0xC62 JUMP JUMPDEST SWAP3 SWAP2 POP POP JUMP JUMPDEST PUSH0 PUSH1 0x20 DUP3 DUP5 SUB SLT ISZERO PUSH2 0xEDB JUMPI PUSH2 0xEDA PUSH2 0xB68 JUMP JUMPDEST JUMPDEST PUSH0 PUSH2 0xEE8 DUP5 DUP3 DUP6 ADD PUSH2 0xBE5 JUMP JUMPDEST SWAP2 POP POP SWAP3 SWAP2 POP POP JUMP JUMPDEST PUSH0 PUSH1 0x40 DUP3 ADD SWAP1 POP PUSH2 0xF04 PUSH0 DUP4 ADD DUP6 PUSH2 0xD0C JUMP JUMPDEST PUSH2 0xF11 PUSH1 0x20 DUP4 ADD DUP5 PUSH2 0xD0C JUMP JUMPDEST SWAP4 SWAP3 POP POP POP JUMP JUMPDEST PUSH2 0xF21 DUP2 PUSH2 0xB8B JUMP JUMPDEST DUP3 MSTORE POP POP JUMP JUMPDEST PUSH0 PUSH1 0x20 DUP3 ADD SWAP1 POP PUSH2 0xF3A PUSH0 DUP4 ADD DUP5 PUSH2 0xF18 JUMP JUMPDEST SWAP3 SWAP2 POP POP JUMP JUMPDEST PUSH0 PUSH1 0x40 DUP3 ADD SWAP1 POP PUSH2 0xF53 PUSH0 DUP4 ADD DUP6 PUSH2 0xF18 JUMP JUMPDEST PUSH2 0xF60 PUSH1 0x20 DUP4 ADD DUP5 PUSH2 0xD0C JUMP JUMPDEST SWAP4 SWAP3 POP POP POP JUMP JUMPDEST PUSH2 0xF70 DUP2 PUSH2 0xE3C JUMP JUMPDEST DUP2 EQ PUSH2 0xF7A JUMPI PUSH0 DUP1 REVERT JUMPDEST POP JUMP JUMPDEST PUSH0 DUP2 MLOAD SWAP1 POP PUSH2 0xF8B DUP2 PUSH2 0xF67 JUMP JUMPDEST SWAP3 SWAP2 POP POP JUMP JUMPDEST PUSH0 PUSH1 0x20 DUP3 DUP5 SUB SLT ISZERO PUSH2 0xFA6 JUMPI PUSH2 0xFA5 PUSH2 0xB68 JUMP JUMPDEST JUMPDEST PUSH0 PUSH2 0xFB3 DUP5 DUP3 DUP6 ADD PUSH2 0xF7D JUMP JUMPDEST SWAP2 POP POP SWAP3 SWAP2 POP POP JUMP JUMPDEST PUSH32 0x4E487B7100000000000000000000000000000000000000000000000000000000 PUSH0 MSTORE PUSH1 0x11 PUSH1 0x4 MSTORE PUSH1 0x24 PUSH0 REVERT JUMPDEST PUSH0 PUSH2 0xFF3 DUP3 PUSH2 0xC49 JUMP JUMPDEST SWAP2 POP PUSH2 0xFFE DUP4 PUSH2 0xC49 JUMP JUMPDEST SWAP3 POP DUP3 DUP3 ADD SWAP1 POP PUSH14 0xFFFFFFFFFFFFFFFFFFFFFFFFFFFF DUP2 GT ISZERO PUSH2 0x1024 JUMPI PUSH2 0x1023 PUSH2 0xFBC JUMP JUMPDEST JUMPDEST SWAP3 SWAP2 POP POP JUMP JUMPDEST PUSH0 PUSH2 0x1034 DUP3 PUSH2 0xBC6 JUMP JUMPDEST SWAP2 POP PUSH2 0x103F DUP4 PUSH2 0xBC6 JUMP JUMPDEST SWAP3 POP DUP3 DUP3 ADD SWAP1 POP DUP1 DUP3 GT ISZERO PUSH2 0x1057 JUMPI PUSH2 0x1056 PUSH2 0xFBC JUMP JUMPDEST JUMPDEST SWAP3 SWAP2 POP POP JUMP JUMPDEST PUSH0 PUSH2 0x1067 DUP3 PUSH2 0xBC6 JUMP JUMPDEST SWAP2 POP PUSH2 0x1072 DUP4 PUSH2 0xBC6 JUMP JUMPDEST SWAP3 POP DUP3 DUP3 SUB SWAP1 POP DUP2 DUP2 GT ISZERO PUSH2 0x108A JUMPI PUSH2 0x1089 PUSH2 0xFBC JUMP JUMPDEST JUMPDEST SWAP3 SWAP2 POP POP JUMP JUMPDEST PUSH0 PUSH2 0x109A DUP3 PUSH2 0xC49 JUMP JUMPDEST SWAP2 POP PUSH2 0x10A5 DUP4 PUSH2 0xC49 JUMP JUMPDEST SWAP3 POP DUP3 DUP3 MUL PUSH2 0x10B3 DUP2 PUSH2 0xC49 JUMP JUMPDEST SWAP2 POP DUP1 DUP3 EQ PUSH2 0x10C5 JUMPI PUSH2 0x10C4 PUSH2 0xFBC JUMP JUMPDEST JUMPDEST POP SWAP3 SWAP2 POP POP JUMP JUMPDEST PUSH32 0x4E487B7100000000000000000000000000000000000000000000000000000000 PUSH0 MSTORE PUSH1 0x12 PUSH1 0x4 MSTORE PUSH1 0x24 PUSH0 REVERT JUMPDEST PUSH0 PUSH2 0x1103 DUP3 PUSH2 0xC49 JUMP JUMPDEST SWAP2 POP PUSH2 0x110E DUP4 PUSH2 0xC49 JUMP JUMPDEST SWAP3 POP DUP3 PUSH2 0x111E JUMPI PUSH2 0x111D PUSH2 0x10CC JUMP JUMPDEST JUMPDEST DUP3 DUP3 DIV SWAP1 POP SWAP3 SWAP2 POP POP JUMP JUMPDEST PUSH0 PUSH2 0x1133 DUP3 PUSH2 0xC49 JUMP JUMPDEST SWAP2 POP PUSH2 0x113E DUP4 PUSH2 0xC49 JUMP JUMPDEST SWAP3 POP DUP3 DUP3 SUB SWAP1 POP PUSH14 0xFFFFFFFFFFFFFFFFFFFFFFFFFFFF DUP2 GT ISZERO PUSH2 0x1164 JUMPI PUSH2 0x1163 PUSH2 0xFBC JUMP JUMPDEST JUMPDEST SWAP3 SWAP2 POP POP JUMP JUMPDEST PUSH0 DUP3 DUP3 MSTORE PUSH1 0x20 DUP3 ADD SWAP1 POP SWAP3 SWAP2 POP POP JUMP JUMPDEST PUSH32 0x506169723A4174206C6561737420746F2073776170206F6E6520746F6B656E00 PUSH0 DUP3 ADD MSTORE POP JUMP JUMPDEST PUSH0 PUSH2 0x11AE PUSH1 0x1F DUP4 PUSH2 0x116A JUMP JUMPDEST SWAP2 POP PUSH2 0x11B9 DUP3 PUSH2 0x117A JUMP JUMPDEST PUSH1 0x20 DUP3 ADD SWAP1 POP SWAP2 SWAP1 POP JUMP JUMPDEST PUSH0 PUSH1 0x20 DUP3 ADD SWAP1 POP DUP2 DUP2 SUB PUSH0 DUP4 ADD MSTORE PUSH2 0x11DB DUP2 PUSH2 0x11A2 JUMP JUMPDEST SWAP1 POP SWAP2 SWAP1 POP JUMP JUMPDEST PUSH0 PUSH2 0x11EC DUP3 PUSH2 0xBC6 JUMP JUMPDEST SWAP2 POP PUSH2 0x11F7 DUP4 PUSH2 0xBC6 JUMP JUMPDEST SWAP3 POP DUP3 DUP3 MUL PUSH2 0x1205 DUP2 PUSH2 0xBC6 JUMP JUMPDEST SWAP2 POP DUP3 DUP3 DIV DUP5 EQ DUP4 ISZERO OR PUSH2 0x121C JUMPI PUSH2 0x121B PUSH2 0xFBC JUMP JUMPDEST JUMPDEST POP SWAP3 SWAP2 POP POP JUMP JUMPDEST PUSH0 PUSH2 0x122D DUP3 PUSH2 0xBC6 JUMP JUMPDEST SWAP2 POP PUSH2 0x1238 DUP4 PUSH2 0xBC6 JUMP JUMPDEST SWAP3 POP DUP3 PUSH2 0x1248 JUMPI PUSH2 0x1247 PUSH2 0x10CC JUMP JUMPDEST JUMPDEST DUP3 DUP3 DIV SWAP1 POP SWAP3 SWAP2 POP POP JUMP INVALID LOG2 PUSH5 0x6970667358 0x22 SLT KECCAK256 PREVRANDAO PUSH5 0xD1F7CF9E7D DUP4 STATICCALL AND BASEFEE DUP6 0xD5 CREATE BASEFEE 0xAB 0xBB 0xDE OR EXTCODEHASH PUSH25 0x70029C4A92607BF69C797964736F6C63430008160033000000 "
				},
				"gasEstimates": {
					"creation": {
						"codeDepositCost": "949000",
						"executionCost": "infinite",
						"totalCost": "infinite"
					},
					"external": {
						"_burn(address,uint256)": "infinite",
						"_mint(address,uint256)": "infinite",
						"burnToSwap(uint256)": "infinite",
						"factory()": "2552",
						"getBalanceOfShare(address)": "2852",
						"getReserves()": "infinite",
						"getblockTimestampLast()": "2569",
						"price0CumulativeLast()": "2514",
						"price1CumulativeLast()": "2470",
						"token0()": "infinite",
						"token1()": "infinite",
						"totalSupply()": "2514",
						"transferOut(address,address,uint256)": "infinite",
						"updateForAdd(uint112,uint112)": "infinite",
						"updateForRemove(uint112,uint112)": "infinite",
						"updateForSwap(address,uint112)": "infinite"
					},
					"internal": {
						"_setPriiceCumulativeLast()": "infinite",
						"_update(uint112,uint112)": "infinite"
					}
				},
				"methodIdentifiers": {
					"_burn(address,uint256)": "6161eb18",
					"_mint(address,uint256)": "4e6ec247",
					"burnToSwap(uint256)": "b5764800",
					"factory()": "c45a0155",
					"getBalanceOfShare(address)": "59962def",
					"getReserves()": "0902f1ac",
					"getblockTimestampLast()": "380f0b41",
					"price0CumulativeLast()": "5909c0d5",
					"price1CumulativeLast()": "5a3d5493",
					"token0()": "0dfe1681",
					"token1()": "d21220a7",
					"totalSupply()": "18160ddd",
					"transferOut(address,address,uint256)": "078d3b79",
					"updateForAdd(uint112,uint112)": "2d889f6a",
					"updateForRemove(uint112,uint112)": "fc76a383",
					"updateForSwap(address,uint112)": "b10de9fc"
				}
			},
			"storageLayout": {
				"storage": [
					{
						"astId": 820,
						"contract": "contracts/EveSwapPair.sol:EveSwapPair",
						"label": "totalSupply",
						"offset": 0,
						"slot": "0",
						"type": "t_uint256"
					},
					{
						"astId": 824,
						"contract": "contracts/EveSwapPair.sol:EveSwapPair",
						"label": "_balanceOf",
						"offset": 0,
						"slot": "1",
						"type": "t_mapping(t_address,t_uint256)"
					},
					{
						"astId": 826,
						"contract": "contracts/EveSwapPair.sol:EveSwapPair",
						"label": "factory",
						"offset": 0,
						"slot": "2",
						"type": "t_address"
					},
					{
						"astId": 829,
						"contract": "contracts/EveSwapPair.sol:EveSwapPair",
						"label": "token0",
						"offset": 0,
						"slot": "3",
						"type": "t_contract(EveSwapERC20)815"
					},
					{
						"astId": 832,
						"contract": "contracts/EveSwapPair.sol:EveSwapPair",
						"label": "token1",
						"offset": 0,
						"slot": "4",
						"type": "t_contract(EveSwapERC20)815"
					},
					{
						"astId": 834,
						"contract": "contracts/EveSwapPair.sol:EveSwapPair",
						"label": "reserve0",
						"offset": 0,
						"slot": "5",
						"type": "t_uint112"
					},
					{
						"astId": 836,
						"contract": "contracts/EveSwapPair.sol:EveSwapPair",
						"label": "reserve1",
						"offset": 14,
						"slot": "5",
						"type": "t_uint112"
					},
					{
						"astId": 838,
						"contract": "contracts/EveSwapPair.sol:EveSwapPair",
						"label": "blockTimestampLast",
						"offset": 28,
						"slot": "5",
						"type": "t_uint32"
					},
					{
						"astId": 840,
						"contract": "contracts/EveSwapPair.sol:EveSwapPair",
						"label": "price0CumulativeLast",
						"offset": 0,
						"slot": "6",
						"type": "t_uint256"
					},
					{
						"astId": 842,
						"contract": "contracts/EveSwapPair.sol:EveSwapPair",
						"label": "price1CumulativeLast",
						"offset": 0,
						"slot": "7",
						"type": "t_uint256"
					}
				],
				"types": {
					"t_address": {
						"encoding": "inplace",
						"label": "address",
						"numberOfBytes": "20"
					},
					"t_contract(EveSwapERC20)815": {
						"encoding": "inplace",
						"label": "contract EveSwapERC20",
						"numberOfBytes": "20"
					},
					"t_mapping(t_address,t_uint256)": {
						"encoding": "mapping",
						"key": "t_address",
						"label": "mapping(address => uint256)",
						"numberOfBytes": "32",
						"value": "t_uint256"
					},
					"t_uint112": {
						"encoding": "inplace",
						"label": "uint112",
						"numberOfBytes": "14"
					},
					"t_uint256": {
						"encoding": "inplace",
						"label": "uint256",
						"numberOfBytes": "32"
					},
					"t_uint32": {
						"encoding": "inplace",
						"label": "uint32",
						"numberOfBytes": "4"
					}
				}
			},
			"userdoc": {
				"kind": "user",
				"methods": {},
				"version": 1
			}
		}
	}
}